:040000002DEF35F0BB
:08000800046ED8CF05F0E0CF33
:1000100006F00001E9CF0CF0EACF07F0E1CF08F0DD
:10002000E2CF09F0D9CF0AF0DACF0BF0F3CF12F01C
:10003000F4CF13F0FACF14F0F5CF15F0F6CF16F099
:10004000F7CF17F000C00EF001C00FF002C010F0A3
:1000500003C011F09DA230EF00F09EB255EF05F005
:10006000F2A836EF00F0F2B2ABEF05F0F0A63CEFED
:1000700000F0F0B0AEEF05F09DAA42EF00F09EBA9E
:10008000B1EF05F09DA848EF00F09EB8D8EF05F05D
:100090007DA04EEF00F07EB047EF05F00EC000F0FF
:1000A0000FC001F010C002F011C003F00CC0E9FF56
:1000B00007C0EAFF078E08C0E1FF09C0E2FF0AC0DF
:1000C000D9FF0BC0DAFF12C0F3FF13C0F4FF14C056
:1000D000FAFF15C0F5FF16C0F6FF17C0F7FF045072
:1000E00006C0E0FF05C0D8FF1000F76AFA0FF66EF1
:1000F000000EF7220900F55012000000DC0091818B
:100100000008C25E0018B30400003C009500000027
:100110004000F76A220FF66E010EF7220900F55033
:100120001200244149203C6368616E6E656C3E3C60
:1001300063723E2020095265717565737420616E8B
:10014000616C6F67206368616E6E656C2076616CB0
:100150007565202831302062697473290D0A00000A
:10016000F76A700FF66E010EF7220900F5501200C3
:10017000244154203C6C6576656C3E3C63723E20A5
:10018000200953657420617474656E7561746F72B3
:1001900020746F203C6C6576656C3E0D0A00F76A32
:1001A000AE0FF66E010EF7220900F550120024433F
:1001B00046203C667265713E3C63723E20200943D6
:1001C00068616E6765206672657175656E6379201A
:1001D00028323138352E30202D20323330302E3039
:1001E00020696E20302E3120696E6373290D0A005C
:1001F000F76A000FF66E020EF7220900F5501200A2
:100200002444493C63723E20200952657175657330
:1002100074206469676974616C20696E70757473A9
:100220000D0A0000F76A340FF66E020EF72209007D
:10023000F5501200244744203C616464723E3C63E4
:10024000723E202009476574204432412072656760
:10025000697374657220636F6E74656E74730D0AD2
:100260000000F76A720FF66E020EF7220900F550D1
:100270001200244746203C616464723E3C63723E37
:100280002020094765742046504741207265676900
:100290007374657220636F6E74656E74730D0A00FB
:1002A000F76AB00FF66E020EF7220900F550120041
:1002B000244F54203C6F75747075743E3C63723EDD
:1002C000202009536574206469676974616C206F2C
:1002D00075747075747320746F204845582076616A
:1002E0006C75650D0A00F76AF60FF66E020EF722BE
:1002F0000900F55012002452443C63723E2020094C
:100300005265736574204432410D0A00F76A1C0F70
:10031000F66E030EF7220900F55012002453442014
:100320003C616464723E203C646174613E3C637273
:100330003E2020095365742044324120726567696C
:1003400073746572203C616464723E20746F203C5B
:10035000646174613E0D0A00F76A680FF66E030E61
:10036000F7220900F5501200245346203C616464D2
:10037000723E203C646174613E3C63723E20200901
:1003800053657420465047412072656769737465F0
:1003900072203C616464723E20746F203C6461741E
:1003A000613E0D0A0000F76AB60FF66E030EF722E3
:1003B0000900F55012004453203C646174612073BD
:1003C0006F7572653E3C63723E2020095365742050
:1003D0006461746120736F757273652028302D31EC
:1003E000290D0A00F76AF40FF66E030EF7220900D2
:1003F000F55012004450203C6461746120706F6CB1
:1004000061726974793E3C63723E202009536574C1
:10041000206461746120706F6C6172697479202846
:10042000302D31290D0A0000F76A380FF66E040EE0
:10043000F7220900F55012004445203C736574759D
:100440007020534F5150534B3E3C63723E20200965
:1004500053657420736574757020534F5150534B1E
:100460002028302D31290D0A0000F76A7A0FF66E28
:10047000040EF7220900F55012005250203C706F14
:100480007765722068696774683E3C63723E20201D
:100490000953657420706F776572206869677468A6
:1004A0002028302D31290D0A0000F76ABA0FF66EA8
:1004B000040EF7220900F55012005246203C706FDE
:1004C00077657220636F6D616E643E3C63723E209F
:1004D000200953657420706F77657220636F6D61BA
:1004E0006E642028302D31290D0A0000F76AFC0FB8
:1004F000F66E040EF7220900F55012005241203C1E
:1005000072616E646F6D697A65723E3C63723E2003
:10051000200973657420776974682F776974686F30
:1005200075742072616E646F6D697A65722028300F
:100530002D31290D0A00F76A460FF66E050EF722D7
:100540000900F55012004652203C667265717565CF
:100550006E63793E3C63723E2020095365742066C9
:1005600072657175656E63792028323230302E30B5
:100570002D323430302E30290D0A0000F76A8C0FEE
:10058000F66E050EF7220900F55012004D4F203C83
:100590006D6F64653E3C63723E2020095365742094
:1005A0006D6F64652028302D33290D0A0000F76A2D
:1005B000BE0FF66E050EF7220900F55012004943F2
:1005C000203C626974726174653E3C63723E202017
:1005D0000953657420626972746174652028312E34
:1005E00030302D33302E303044427073290D0A00E4
:1005F000F76A000FF66E060EF7220900F55012009A
:100600004944203C696E7465726E616C207061743F
:100610007465726E3E3C63723E20200953657420FF
:10062000696E7465726E616C207061747465726E4F
:100630002028302D33290D0A0000F76A4A0FF66E84
:10064000060EF7220900F55012005650203C706F3C
:10065000776572206C6576656C3E3C63723E202047
:100660000953657420706F776572206C6576656CD0
:10067000202832302D3430290D0A0000F76A8C0F03
:10068000F66E060EF7220900F5501200564C203C7B
:10069000706F77657220686967683E3C63723E20C0
:1006A0002009536574206869676820706F776572E8
:1006B000206C6576656C202832302D3430290D0A87
:1006C0000000F76AD20FF66E060EF7220900F55009
:1006D0001200564D203C6E65676174697665207026
:1006E0006F776572206C6576656C3E3C63723E2068
:1006F0002009536574206E656761746976652070A2
:100700006F776572206C6576656C0D0A0000F76A7C
:100710001E0FF66E070EF7220900F5501200564321
:10072000203C706F73657469766520706F776572B1
:10073000206C6576656C3E3C63723E2020095365F3
:100740007420706F73657469766520706F77657259
:10075000206C6576656C0D0A0000F76A6A0FF66E0C
:10076000070EF7220900F55012004353203C636C3A
:100770006F636B2070686173653E3C63723E20203E
:100780000953657420636C6F636B207068617365D7
:100790002028302D31290D0A0000F76AAA0FF66EC5
:1007A000070EF7220900F55012005554203C554120
:1007B00052542054696D653E3C63723E20200953BB
:1007C0006574207468652073746F702074696D653A
:1007D0002063757272656E742031352028302D3299
:1007E0003430290D0A00F76AF60FF66E070EF7226D
:1007F0000900F55012005553203C554152542053E6
:1008000074617475733E3C63723E202009536574B5
:100810002074686520426C6F636B2028302D31296D
:100820000D0A0000F76A340FF66E080EF722090071
:10083000F55012004247203C554152542043686114
:100840006E67653E3C63723E20200953657420420A
:100850006C6F636B20706572207365636F6E6420CC
:1008600028312D3230290D0A0000F76A7A0FF66E12
:10087000080EF7220900F55012005356203C736110
:10088000766520616C6C3E3C63723E2020095361AA
:10089000766520706172616D65746572730D00001C
:1008A000F76AB00FF66E080EF7220900F550120035
:1008B0000D092048454C50204C495354200D000050
:1008C000F76AD00FF66E080EF7220900F5501200F5
:1008D0000D0A4641554C540D0A00F76AEA0FF66EB0
:1008E000080EF7220900F55012000D0A4641494C46
:1008F0000D0A0000F76A040FF66E090EF7220900D0
:10090000F5501200204241313431305458205633D2
:100910002E330000F76A240FF66E090EF722090045
:10092000F55012000D0A0A4E4F2054454D502D52DD
:1009300046204F4646200D0A0000F76A4A0FF66E21
:10094000090EF7220900F55012000D0A0A4F4B203C
:100950005265717565737420537461747573200DDD
:100960000A0A0000F76A740FF66E090EF7220900F2
:10097000F5501200474F4F440000F76A8A0FF66E99
:10098000090EF7220900F550120042414400F76AAF
:100990009E0FF66E090EF7220900F55012000D0A9F
:1009A0004F4B0D0A2A00F76AB60FF66E090EF722B2
:1009B0000900F55012000D0A0A425245414B0D0A3A
:1009C0000000F76AD20FF66E090EF7220900F55003
:1009D00012000100E6030200F401030061010400BB
:1009E00004010500D2000600AA00070090000800DC
:1009F0007C0009006E000A0063000B0058000C0028
:100A00004F000D0048000E0043000F003E00100094
:100A10003900110034001200320013002E001400BF
:100A20002C00F76A320FF66E0A0EF7220900F55015
:100A300012005000140066001500760016007F00BA
:100A400017008F001800A7001900B7001A00D00087
:100A50001B00E2001C0001011D0020011E004201DC
:100A60001F006801200090012100BE012200F90151
:100A700023003402240085022500D202260032031E
:100A80002700E0032800ED032900FF0337007E90D4
:100A90004EEF00F00201776B76C210F175C20FF1D4
:100AA0009E989D88000187EF05F02668272A2F2A47
:100AB000D8B4302A01010051305C2AE308E100017A
:100AC000FF512F5CD8B002D0010122D00101332C9C
:100AD0001FD00001FC2D01D002D0010119D001016D
:100AE0000D2D02D00E5304E00D5312E10E5310E110
:100AF000306A2F6A010E316E112BD8B4122B2E538F
:100B000007E10201766B190E756F0001C3D7010171
:100B1000282A285009081BE2286A2F2AD8B4302A2C
:100B2000292A2A682B2A2B50090811E22B6A2C68E3
:100B30002D2A2D5009080BE22D6A2E68322A000159
:100B4000FB51325C03E3326A010E336E01019E9267
:100B500000014EEF00F0F2924EEF00F0F0904EEFF9
:100B600000F0AECF75F2036A3550370FE96E000E14
:100B70000320EA6E75C2EFFF352A35501F0801E2E7
:100B8000356A34501F0801E3342A9E9A4EEF00F074
:100B9000040E0201765F0AE3020EEA6E760EE96E3B
:100BA000EF5004E001D00000EF2EFDD7000112004D
:100BB0008C8A0101146B136B10C103F00F51D8B470
:100BC00010070F0703101DE08C8A14C103F01351A6
:100BD000132BD8B4142B0201756F150E7525E96E11
:100BE000010E0320EA6EEFCFADFF020E756FF90E16
:100BF000766F0001CDDF0201752FF9D78C9A0101C4
:100C0000DBD79D989E9800014EEF00F024415220C2
:100C1000256C750D00002443502025750D002444DB
:100C20005220253032580D00200D0A24534620252D
:100C300030325820253032580D00200D0A245344FC
:100C4000202530325820253032580D0046522025BC
:100C50006C750D004D4F2025750D00004453202567
:100C6000750D00004552522044532025750D00009B
:100C700044502025750D0000455252204450202537
:100C8000750D000044452025750D00004552522089
:100C900044452025750D000052502025750D00009B
:100CA0004552522052502025750D000052462025F5
:100CB000750D00004552522052462025750D00004A
:100CC000524320256C750D00524220256C750D0095
:100CD00052412025750D00004552522052412025D9
:100CE000750D000055542025750D00004552522009
:100CF00055542025750D000055532025750D000015
:100D00004552522055532025750D0000424720259D
:100D10006C750D0045525220424720256C750D0020
:100D200049442025750D0000455252204944202594
:100D3000750D0000494320256C750D005645202592
:100D4000732049443D2530326C752044543D253094
:100D5000326C75253032750D0000565020256C75AB
:100D60000D00564D20256C750D00564320256C75E1
:100D70000D0043532025750D00004552522043536A
:100D80002025750D000043502025750D00004552AB
:100D9000522043502025750D00000A475020256C35
:100DA000750D0A000D54454D503D25362E326664B2
:100DB00065670D0A4F4B0A000A475220256C750DD6
:100DC0000A000D0A49443D256C752044543D2530E8
:100DD000326C75253032750D00000D0A0A465245F9
:100DE000513D256C752C205245563D25732C2046CF
:100DF0004657523D256C752C2049433D256C752E78
:100E0000256C754D6270732C204D4F3D25752C203F
:100E100043533D25752C2052463D256C750D000031
:100E20000D0A0A44453D25752C2052413D25752C5F
:100E30002044503D25752C2052503D256C752C20AA
:100E400044533D25752C2049443D25752C20564C96
:100E50003D256C752C2052423D256C752C2052434B
:100E60003D256C752C2043503D25750D00000D0A65
:100E70000A55543D25752C2055533D25750D000010
:100E8000896A8A6A8B6A8C6A8D6AE10E926EC10EDB
:100E9000936EF10E946E8E0E956E96809682969459
:100EA000968673EF07F001017A6B346A34C036F02E
:100EB00036C035F0576A9D8A00011200480E0509B8
:100EC000BA6E630EBB6EB46AB16A000E05090F01FB
:100ED000516F630E526F4D6B4E6B000E4A6F000EDA
:100EE0004B6F0001CDD7C150F00BC16E210E0F0129
:100EF000386F030E3C6F000E396F3A6F3B6FC05076
:100F0000C00B2509C06EC08EC280776A040E786E51
:100F1000796E0001C8DF9D82C00EF21272EF35F0CB
:100F2000020EEA6E450EE96EEF500EE0050E016E00
:100F3000006A002EFED7012EFBD72E0E006E002E6B
:100F4000FED700D0EF2EF2D7120002013551036E0A
:100F50003451D8B43507340703101FE03351036E02
:100F60003251322BD8B4332BE96E03C0EAFF315132
:100F7000036E3051302BD8B4312B386F03C039F2A7
:100F8000F2CF3AF2F29E38C2A9FFA69CA69EA68096
:100F9000A8503ABFF28EEF6ED9D70001E9EF07F003
:100FA000016603D0026602D007D0022A00C0EEFF1D
:100FB000012EFCD7022EFAD7F6EF07F00201316BB3
:100FC000306B336BAB0E326F356B560E346F0001E6
:100FD000BCD7B23D01D002D0B33D08D0EA6AAB0E17
:100FE000E96E006A026A560E016EDAD71200899421
:100FF0000201345302E0898801D089988986040E61
:10100000006E002EFED700D08996040E006E002ED2
:10101000FED700D089988986040E006E002EFED778
:1010200000D08996040E006E002EFED700D089866F
:10103000040E006E002EFED700D08996040E006EBE
:10104000002EFED700D08986040E006E002EFED73B
:1010500000D08996040E006E002EFED700D089863F
:10106000000B006E3651020B036E0050031002E0BD
:10107000898801D08998040E006E002EFED700D01A
:101080008996040E006E002EFED700D08986000BD4
:10109000006E3651010B036E0050031002E0898888
:1010A00001D08998899689863551800B006E036A34
:1010B0000050031002E0898801D08998040E006E68
:1010C000002EFED700D08996040E006E002EFED7AB
:1010D00000D089863551400B006E036A0050031022
:1010E00002E0898801D08998040E006E002EFED798
:1010F00000D08996040E006E002EFED700D089869F
:101100003551200B006E036A0050031002E08988FD
:1011100001D08998899689863551100B006E036A33
:101120000050031002E0898801D08998040E006EF7
:10113000002EFED700D08996040E006E002EFED73A
:1011400000D089863551080B006E036A00500310E9
:1011500002E0898801D08998899689863551040BE7
:10116000006E036A0050031002E0898801D089985C
:10117000040E006E002EFED700D08996040E006E7D
:10118000002EFED700D089863551020B006E036A0F
:101190000050031002E0898801D0899889968986D9
:1011A0003551010B006E036A0050031002E089887C
:1011B00001D08998040E006E002EFED700D08996CB
:1011C000040E006E002EFED700D08986040E006E3D
:1011D000002EFED700D089968986040E006E002E60
:1011E000FED700D0040E006E002EFED700D08996E8
:1011F000040E006E002EFED700D08984040E006E0F
:10120000002EFED700D08992040E006E002EFED76D
:1012100000D08982040E006E002EFED700D000019F
:1012200012000201376B366B375359E13651130800
:1012300056E33635386F3735396F38373937FC0E66
:10124000381739C203F03851000111EC05F00900DC
:10125000F5CF03F0016E03500201355D3CE303E17D
:101260000150345D38E3010E36253A6F000E372108
:101270003B6F3A373B373A373B37FC0E3A173BC2A6
:1012800003F03A51000111EC05F00900F5CF03F02D
:10129000016E02013551035C1EE303E10150345D30
:1012A0001AE23635386F3735396F38373937FC0E33
:1012B0003817020E3825016E000E3921036E0150D9
:1012C000000111EC05F00900F5CF03F0016E03C039
:1012D00002F009D00201362BD8B4372BA5D7000E67
:1012E000016E026E000112000201526B536B010E7F
:1012F000546FDA6AD96A020E576F4A0E566F020EA1
:10130000EA6E4E0EE96E57C2E2FF56C2E1FF54C2CA
:1013100055F2D890E550EE02F3505223F450532387
:10132000552FF7D752C2DEFF53C252F2536BD8B0DB
:10133000532B562BD8B4572B542B54510508DFE1AF
:1013400000011200D8B204D0020EEA6E560EE96E09
:10135000006A016A026A036A0201566B576B586B96
:10136000596B55515411531152112CE0200E5A6FE4
:10137000D8904E374F375037513756375737583741
:1013800059375551595D08E15451585D05E15351A4
:10139000575D02E15251565D0FE35251565F535172
:1013A000D8A0533D575F5451D8A0543D585F555174
:1013B000D8A0553D595FD880003601360236033635
:1013C0005A2FD6D756C2EFFF57C2ECFF58C2ECFFD8
:1013D00059C2ECFF000112000201456B446B436BE4
:1013E000020E426F0400416B406B39C23FF238C2BB
:1013F0003EF20101426B950E416F406B3C0E3F6F18
:1014000002013951540812E2FF0A03E13851EF0892
:101410000DE2456B446B436B010E426F0101426B61
:10142000850E416F406B3C0E3F6F0201040041C2CC
:101430004DF240C24CF23FC24BF23EC24AF245C2AC
:1014400051F244C250F243C24FF242C24EF2000186
:101450004BDF03C049F202C048F201C047F200C0AE
:1014600046F203C04DF202C04CF201C04BF200C084
:101470004AF20201516B506B4F6B640E4E6F0001CC
:1014800033DF03C041F202C040F201C03FF200C0AE
:101490003EF20400D89241C251F240C250F23FC223
:1014A0004FF23EC24EF20201556B546B270E536F42
:1014B000100E526F000146DF03C032F102C031F15D
:1014C00001C030F100C02FF1040032C14DF231C132
:1014D0004CF230C14BF22FC14AF20201516B506BFA
:1014E000270E4F6F100E4E6F0001FEDE00500201FE
:1014F0003E5D466F01503F59476F02504059486F5B
:1015000003504159496F4D6B4C6B4B6B640E4A6FE6
:1015100045C251F244C250F243C24FF242C24EF2AF
:101520000001E2DE03C04DF202C04CF201C04BF2FA
:1015300000C04AF2D89249C251F248C250F247C2A2
:101540004FF246C24EF203C055F202C054F201C03F
:1015500053F200C052F2F6DE03C036F102C035F19C
:1015600001C034F100C033F1D8920201516B506BCD
:101570004F6B640E4E6F45C255F244C254F243C2E3
:1015800053F242C252F20001DDDE03C049F202C052
:1015900048F201C047F200C046F202010034006E7A
:1015A0000134016E0234026E0334036E00360136DC
:1015B000023603360036013602360336F80E0016C0
:1015C000080E0324496F010E00240101376F000E3D
:1015D000020101200101386F000E02010220010109
:1015E000396F000E0201492101013A6F0400010E1A
:1015F00002013A27D8B03B2BD8B43C2BD8B43D2BB2
:1016000000011200080E0201426F42531EE041AF7A
:1016100002D08B8601D08B960C0E006E002EFED76A
:1016200000D000008B840C0E006E002EFED700D080
:1016300000008B94200E006E002EFED700D000001C
:1016400042514207D8904137E0D78B968B940001E6
:1016500012000400F29CF29EF2BEFDD73FC240F29F
:101660003FC241F2CFDF3EC240F23EC241F2CADF8A
:101670003DC240F23DC241F2C5DF3CC240F23CC235
:1016800041F2C0DF340E006E002EFED700D0000005
:101690008B82060E006E002EFED700008B928B967A
:1016A000C00EF2120400120002013D6B01012F3541
:1016B00002013E6F0101303502013F6F01013135FA
:1016C0000201406F3E373F3740373E373F374037A4
:1016D0003E373F3740373E373F3740373E373F375B
:1016E00040373E373F374037800E3E1701013335D4
:1016F000006E3435016E3535026E3635036E0036B8
:101700000136023603360036013602360336F80E4D
:101710000016005002013D25386F01503E21396FFF
:1017200002503F213A6F035040213B6F3BC23EF1D4
:101730003AC23DF139C23CF138C23BF104003BC230
:101740003FF23AC23EF239C23DF238C23CF20001E9
:1017500080DF1A0E006E002EFED7000004003AC192
:101760003FF239C13EF238C13DF237C13CF271DF80
:101770001A0E006E002EFED70000040042C13FF298
:1017800041C13EF240C13DF23FC13CF262DF120076
:101790008A940C0E006E002EFED700D000000201CD
:1017A00045514507000A22E047C203F04651462B47
:1017B000D8B4472BE96E03C0EAFFEFCF48F2496B7C
:1017C0004951070812E348AF02D08C8801D08C98A9
:1017D00000D000D08C8000D000D08C9000D000D001
:1017E0004951492BD8904837EBD7DAD70C0E006E09
:1017F000002EFED700D000008A84000112000201F2
:10180000386B0001B039006EF00E00160050AF11B9
:101810000201416F0001B139006E0036E00E001682
:101820000050020141130001B539006E0036003648
:10183000C00E0016005002014113006A0001B7B14A
:10184000008E005002014111396F020E456F476F43
:10185000380E466F00019CDF1200060E0201386F41
:10186000D8900001B335B2110201416F0001B435C7
:10187000006E0036FC0E0016005002014111396F57
:10188000020E456F476F380E466F000181DF120070
:10189000B60E006E036A026A016A020155515611C2
:1018A0005711581102E1006A0DD0D89001BE09D03D
:1018B0005537563757375837033602360136002E1C
:1018C000F4D7019E0001B9EF0DF002015551D8B4D3
:1018D000A5D0616F5951D8B4A1D0615F05E37F0EE7
:1018E0006127D8B09BD006D0810E615FD8A096D07A
:1018F000D8B494D061C200F0016A026A036A606BD6
:1019000056C25FF25F8F57C25EF258C25DF2190E87
:10191000616F5C515D5F0DE2010E5E5F0AE25F5F29
:1019200008E2605F06E2602B5F2B5E2B5C515D2757
:1019300028D05B515E5F12E2010E5F5F0FE2605FD5
:101940000DE2602B5F2B5B515E275C515D2719E335
:101950005E2B17E15F2B15E1602B13D05A518009E4
:101960005F5F0EE2010E605F0BE2602B5A5180094F
:101970005F275B515E27E9E35F2BE7E1602BE5D74B
:101980000380612F01D00BD0D8905D375E375F3771
:101990006037D8900336023601366237BAD762A173
:1019A00006D0D890013202320332623302D00006F0
:1019B00035E062BF1ED0D8905D375E375F37603745
:1019C0005C515D5F07E2010E5E5F04E25F5F02E271
:1019D000605F1AE35B515E5F05E2010E5F5F02E24A
:1019E000605F12E35A5180095F5F03E2010E605F9E
:1019F0000BE3032A09E1022A07E1012A05E1002A93
:101A00000DE001320232033256C261F25A51611BBB
:101A100061AF02D0018E06D0019E04D0006A016A37
:101A2000026A036A0001120002015551D8B471D054
:101A3000006E5951D8B46DD0002604E3810E002603
:101A400068E204D07F0E005E64E363E056C25DF29C
:101A50005A515D1B568F5A8F58515C03F4CF5FF279
:101A600057515B03F4CF03F0F3CF5EF25C03F35006
:101A70005F27F4505E23000E032258515B03F3509E
:101A80005F27F4505E23000E026A032202225651A1
:101A90005C03F3505E27F4500322000E02225651DD
:101AA0005B03F3500326F4500222000E016A012268
:101AB00058515A03F3505E27F4500322000E0222BD
:101AC000012257515A03F3500326F4500222000E0C
:101AD000012256515A03F3500226F4500122002AE3
:101AE00001BE05D05E370336023601360006000E11
:101AF0005EAF0AD0032A02220122015005E1025002
:101B000003E1035001E1002A5DBF018E5DAF019E3C
:101B100004D0006A016A026A036A0001120002012D
:101B20005551B608556F036A56C259F2568FD89070
:101B30005633573358330332023201320032552FB5
:101B4000F6D759AF0BD0001E011E021E031E002A3D
:101B5000D8B4012AD8B4022AD8B4032A000112004A
:101B60004CC258F24BC257F24AC256F249C255F221
:101B70008FD603C050F202C04FF201C04EF200C037
:101B80004DF250C258F24FC257F24EC256F24DC2F9
:101B900055F2C00E02015C6FE10E5B6F640E5A6F6E
:101BA0009A0E596F000191DE03C054F202C053F245
:101BB00001C052F200C051F254C258F253C257F25F
:101BC00052C256F251C255F202015C6B5B6B5A6B0A
:101BD0008F0E596F000128DF03C054F202C053F288
:101BE00001C052F200C051F254C258F253C257F22F
:101BF00052C256F251C255F202015C6B5B6B5A6BDA
:101C00008F0E596F000110DF03C054F202C053F26F
:101C100001C052F200C051F254C258F253C257F2FE
:101C200052C256F251C255F27ADF03C058F202C0D6
:101C300057F201C056F200C055F2010E0201005CDD
:101C4000006E000E0158016E000E0258026E000E6A
:101C50000358036E000112000201486B476BACC0D1
:101C600046F2ABC045F248C24DF247C24CF2ACC09E
:101C70004BF2ABC04AF2516B506B270E4F6F100EF8
:101C80004E6F000174EC09F003C048F202C047F245
:101C900001C046F200C045F203C04CF202C04BF254
:101CA00001C04AF200C049F25BDF03C044F202C047
:101CB00043F201C042F200C041F2020E0201386F4D
:101CC00041C239F2020E456F476F380E466F000170
:101CD0005FDD0A0E0201456F000190EC07F0030E74
:101CE0000201386F42C239F2020E456F476F380E5B
:101CF000466F00014DDD0A0E0201456F000190ECB8
:101D000007F0040E0201386F43C239F2020E456F2C
:101D1000476F380E466F00013BDD0A0E0201456F2A
:101D2000000190EC07F0050E0201386F44C239F251
:101D3000020E456F476F380E466F000129DD0A0E0F
:101D40000201456F000190EC07F01200BAC035F2B5
:101D5000B9C034F2050E0201456F000190EC07F0A6
:101D600035C239F234C238F2ECEC09F0050E02014A
:101D7000456F000190EC07F097DC050E0201456FFE
:101D8000000190EC07F03BDD050E0201456F0001FC
:101D900090EC07F062DD050E0201456F000190EC4A
:101DA00007F05ADFACC037F2ABC036F2030E1F6E3D
:101DB000E80E1E6E1200243C03D0253C01D02BD02F
:101DC0002CA628D02C960201346B25C036F224C0F4
:101DD00035F20001F7EC07F0140E016EC250830BD0
:101DE0000110C26E1A0E006E002EFED70000C282D5
:101DF000C2B2FED7C4CF31F20201C3CF30F231C23A
:101E000035F230C234F2000111EC09F002C00CF1DD
:101E100001C00BF1BAD1BA5158080FE303E1B9512F
:101E200029080BE3010E0201346FBFC036F2BEC0B9
:101E300035F20001F7EC07F01CD0BA515A080FE355
:101E400003E1B951F9080BE3010E0201346FC1C07F
:101E500036F2C0C035F20001F7EC07F00AD0010EEF
:101E60000201346FC3C036F2C2C035F20001F7EC94
:101E700007F0140E016EC250830B0110C26E1A0ED1
:101E8000006E002EFED70000C282C2B2FED7C4CFC1
:101E900031F20201C3CF30F231C235F230C234F236
:101EA000000111EC09F002C00CF101C00BF183AE8E
:101EB0002DD0F5532BE1F65329E1AD2D21D0AE53B2
:101EC0001FE18C8C0101032BD8B4042B032D0BD004
:101ED000045309E18C8C320E0201456F000190EC35
:101EE00007F034DF01010451E90808E2FF0A03E1C9
:101EF0000351600803E2046B020E036F05D000017A
:101F00008C9C0101046B036B2ED0000183BE2CD08E
:101F1000F5532AE1F65328E1AD2D08D0AE5306E182
:101F20008C9C0101046B036B06D000018C8C0101B9
:101F3000032BD8B4042B032D0BD0045309E18C8C54
:101F4000320E0201456F000190EC07F0FFDE010147
:101F50000451E90808E2FF0A03E10351600803E2C3
:101F6000046B020E036F000183BE37D0F52D35D010
:101F7000F65333E1AD2D20D0AE531EE18C8C010120
:101F8000052BD8B4062B052D0BD0065309E18C8CFC
:101F90003C0E0201456F000190EC07F0D7DE010115
:101FA0000651E90808E2FF0A03E10551600803E26F
:101FB000066B020E056F0001AD530EE1AE530CE14E
:101FC0008C9C0201346B366B356B0001F7EC07F02B
:101FD0000101066B056B000145D083AE43D0F52DA2
:101FE00041D0F6533FE1AD2D0ED0AE530CE18C9CA9
:101FF0000201346B366B356B0001F7EC07F0010121
:10200000066B056B0001AD5313E1AE5311E1010105
:10201000052D0ED006530CE18C8C3C0E0201456F51
:10202000000190EC07F092DE0101052BD8B4062BDD
:102030000101052D0BD0065309E18C8C320E0201F3
:10204000456F000190EC07F081DE01010451E908C1
:1020500008E2FF0A03E10351600803E2066B020E87
:10206000056F0001F72D27D0F85325E183A409D08F
:10207000F92D07D0FA5305E11DC033F21CC032F22E
:102080001AD083A409D0F95307E1FA5305E11BC024
:1020900033F21AC032F20FD083B409D0F95307E1FA
:1020A000FA5305E11DC033F21CC032F204D01BC04C
:1020B00033F21AC032F2F75327E1F85325E183A433
:1020C00009D0F95307E1FA5305E11DC033F21CC0F2
:1020D00032F21AD083B409D0F92D07D0FA5305E1B2
:1020E0001DC033F21CC032F20FD083A409D0F92DE9
:1020F00007D0FA5305E11BC033F21AC032F204D004
:102100001BC033F21AC032F2060E02013225016EF4
:10211000000E3321036E0350315D04E312E13051B0
:10212000015C0FE3060E325D006E000E3359036E44
:1021300000C001F03151035C29E303E10150305D3F
:1021400025E23151335D0EE303E13251305D0AE2A5
:102150001F5203E11E50950804E2030E1E5E000E9E
:102160001F5A0BD01F50030808E303E11E50F2086A
:1021700004E3030E1E26000E1F22346B1FC036F22E
:102180001EC035F20001F7EC07F002010001120059
:102190000101BD6B050EBC6FBD51050836E3BC5196
:1021A000040DF350036A000175EC00F00900F5CF4F
:1021B00001F00900F5CF02F00900F5CF03F003C0EC
:1021C000BBF102C0BAF101C0B9F1E8CFB8F1BCC1AE
:1021D00000F0016A026A036A00500101B81301505D
:1021E000B9130250BA130350BB13BBC13FF2BAC1BB
:1021F0003EF2B9C13DF2B8C13CF2000129EC0BF04E
:102200000101BD51BD2BBC07C7D7FA0E0201456FB6
:10221000000190EC07F0BBC13FF2BAC13EF2B9C178
:102220003DF2B8C13CF229EC0BF0FA0E0201456F09
:10223000000190EC07F0B7EF35F09D9A8C8A840E80
:10224000006E002EFED700D000000201716B6FC23D
:1022500003F06EC2E9FF6FC2EAFFEF5246E06FC2C1
:1022600003F06E516E2BD8B46F2BE96E03C0EAFFFA
:10227000EFCF70F27051090816E070C2ADFF712BFC
:10228000020E736F196AF2BE198EF29E950E766F6A
:102290000001C8EC05F019BEF28E0201732FF2D7CF
:1022A000AECF70F221D0200E726F7251715D03E3D8
:1022B000020E7125726F7251715D16E2200EAD6EC5
:1022C000712B020E736F196AF2BE198EF29E950E73
:1022D000766F0001C8EC05F019BEF28E0201732F73
:1022E000F2D7AECF70F2E7D7B2D7840E006E002ED1
:1022F000FED700D000008C9AAECF70F29D8A00010C
:1023000012000101BE6BBE6B0001B3A103D001013D
:10231000BE2B0001000EB1B1010E006ED890003648
:1023200000500101BE27000E0001B5B1010E006E84
:1023300000360036FC0E001600500101BE27000ECC
:102340000001B2B1010E006E003600360036F80E04
:10235000001600500101BE27000E0001B0B1010EB1
:10236000006E003AF00E001600500101BE27000E6C
:102370000001B7B1010E006E003A0036E00E001603
:1023800000500101BE27036ABEC101F003C002F084
:102390000001C0EF14F0100E016EC250830B01104B
:1023A000C26E1A0E006E002EFED70000C282C2B2AC
:1023B000FED7C4CF08F10101C3CF07F108510208CD
:1023C00006E303E10751440802E3A49101D0A4818C
:1023D000BE6BBE6B0001F5A103D00101BE2B000155
:1023E000000EF7B1010E006ED890003600500101CA
:1023F000BE27000E0001ADB1010E006E00360036A2
:10240000FC0E001600500101BE27000E0001F9B1BC
:10241000010E006E003600360036F80E0016005031
:102420000101BE27000E0001FCB1010E006E003A52
:10243000F00E001600500101BE27000EA4B1010EDF
:10244000006E003A0036E00E00160050BE27036A08
:10245000BEC101F003C002F00001C3EF14F08E0E04
:10246000006EC7C101F0C6C102F0036A01AE05D01B
:10247000011E021E022A01E1012A015209E102C0E5
:1024800001F0026A080E005E015202E1006A0DD0FE
:10249000D89001BE04D0023601360006F9D70101FA
:1024A000C7AF02D0000101D0019E0001CCEF13F0B4
:1024B000800ED8A202D00201351B02013A6B3B6BA1
:1024C00031C239F23551391B3051D8B4DFD0386FB1
:1024D000006E3451D8B4E3D0385FD8B483D03EE333
:1024E00035C23EF23E8F36C23DF237C23CF23B6B04
:1024F000D8903E333D333C333B33382FF8D739AF98
:1025000003D03A81E0D03A9138913A89020EEA6ECE
:10251000330EE96EEBD03A9939BF0AD038A113D007
:102520003E333D333C333B33002AD8B4C7D00BD0C5
:102530003EBF0CD0D8903B373C373D373E37000686
:10254000D8B4BCD0F5D73A8D6DD03A9D31C239F2AE
:1025500031AF02D03E8FABD03E9FA9D034C238F20B
:1025600034C200F03051385F31C23EF23E8F32C289
:102570003DF233C23CF23B6BD8903E333D333C33AB
:102580003B33382FF8D739AF03D03A839CD03A93F6
:1025900038913A8B020EEA6E370EE96EA7D03A9B5D
:1025A00039BF0AD038A113D03E333D333C333B33DF
:1025B000002AD8B483D00BD03EBF0CD0D8903B3784
:1025C0003C373D373E370006D8B478D0F5D73A8F40
:1025D00029D03A9F35C239F235AF02D03E8F67D04D
:1025E0003E9F65D035C23EF23E8F36C23DF237C2C5
:1025F0003CF239AF04D03E9F3A8565D03A953B6BAB
:102600003891020EEA6E330EE96E70D039BF1CD0DD
:1026100031C239F238A106D03E333D333C333B332F
:10262000002A4CE03BAF0BD03C2B09E13D2B07E1EE
:102630003E2B05E13E333D333C33002A3FE03ABDBB
:1026400084D73ABFC6D71CD0800E3E1B3EAF04D005
:102650003AD035C239F20AD031C239F23E5306E1DE
:102660003D5304E13C5302E1006A21D03EBF08D053
:10267000D8903B373C373D373E37002EF7D71ED03A
:1026800039AF02D03E8F13D03E9F11D034C200F03C
:1026900035C23EF236C23DF237C23CF208D030C2FB
:1026A00000F031C23EF232C23DF233C23CF23EC2D1
:1026B00001F03DC202F03CC203F034D0006A016A6E
:1026C000026A036A2FD03B6B3C1F3D1F3E1F3B1F1E
:1026D0003B2B05E13C2B03E13D2B01E13E2B3AB1C5
:1026E00012D73AB354D73AB589D7B3D7EF503C276E
:1026F00005E33D2B03E13E2BD8B43881ED52EF507A
:102700003D2703E33E2BD8B43881ED52EF50EFBEA6
:1027100001D0800A3E27D8B038813AB9FCD63ABBFE
:102720003ED774D7000112008E0E006E0101C65113
:10273000005EC7C102F0C8C101F0028E005209E07C
:10274000D890025202E1015204E002320132002E1E
:10275000F7D7C7AF05D0011E021E012AD8B4022A3E
:10276000000171EF14F0180E016EC250830B0110BE
:10277000C26E420E006E002EFED70000C282C2B2B0
:10278000FED7C4CFC5F10101C3CFC4F1C5C1C7F1A4
:10279000C4C1C6F1000163D600C0C6F101C0C7F1D3
:1027A00002C0C8F103C0C9F103C058F202C057F219
:1027B00001C056F200C055F202015C6B5B6B5A6BB4
:1027C000890E596F000165EC0CF000C0C6F101C024
:1027D000C7F102C0C8F103C0C9F103C058F202C07A
:1027E00057F201C056F200C055F2330E02015C6F81
:1027F0005B6F530E5A6F800E596F000114EC0DF091
:1028000003C0C1F102C0C0F101C0BFF100C0BEF100
:10281000D882C1C133F2C0C132F2BFC131F2BEC1F0
:1028200030F20201376B366B400E356F7E0E346F1F
:1028300000013EDE03C0C1F102C0C0F101C0BFF122
:1028400000C0BEF1C1C158F2C0C157F2BFC156F2BB
:10285000BEC155F202015C6B5B6B480E5A6F850E70
:10286000596F000114EC0DF003C0C1F102C0C0F1BA
:1028700001C0BFF100C0BEF1D892C1C133F2C0C1E6
:1028800032F2BFC131F2BEC130F20201376B366B9A
:10289000480E356F830E346F00010ADE03C0C1F1AC
:1028A00002C0C0F101C0BFF100C0BEF1C1C158F209
:1028B000C0C157F2BFC156F2BEC155F202015C6BF6
:1028C0005B6B480E5A6F850E596F000114EC0DF0CA
:1028D00003C0C9F102C0C8F101C0C7F100C0C6F110
:1028E00023D702C0C3F101C0C2F10101C2C101F08E
:1028F000C3C102F00001C6EF14F00101BF51C119BC
:10290000800BC36FBFAF05D0BE1FBF1FBE2BD8B497
:10291000BF2BC1AF05D0C01FC11FC02BD8B4C12B66
:10292000016A026A006A036AC15102E1C05118E0FB
:10293000100EC26FD890BE37BF3700360336C15174
:10294000035C02E1C051005C07E3C051005ED8A007
:102950000306C151035ED88001360236C22FEAD782
:10296000C3AF05D0011E021E012AD8B4022A0001FD
:1029700012000101B96BB86B0001DBEC0EF0C1D4A1
:1029800001C0BCF108D501C0BDF1EDD602C00AF10D
:1029900001C009F1FB0E0101156F600E166F11C128
:1029A00017F1BAC018F1B9C019F10101AFC01AF19D
:1029B000BCC11BF10AC1BFF109C1BEF1010EC16F5B
:1029C000C06B00019ADF01C01CF101010AC1BFF117
:1029D00009C1BEF1010EC16FC06B00018EDF00C0E6
:1029E0001DF10101ACC01EF1ABC01FF101010BC113
:1029F00020F1B4C021F1BDC122F1FDC023F1FEC020
:102A000024F1D89008310731256F330E266FF2C0BC
:102A100027F1F1C028F10101AA0E296F2A6F2B6F4F
:102A2000BB6BBA6BBB5311E1BA5118080EE3150E1C
:102A3000BA25E96E010EBB21EA6EEF50B827000EF1
:102A4000B923BA2BD8B4BB2BEDD7B9C12CF1B8C17F
:102A50002DF1000138EF36F0036A3650370FE96E7A
:102A6000000E0320EA6EEFCFD1F10101362A365075
:102A70001F0801E2366A345201E03406D1C101F088
:102A800000011200036A01014351590FE96E000E63
:102A90000320EA6E036AEFCF01F003C002F00001E9
:102AA000120001014351432B036A590FE96E000ED6
:102AB0000320EA6E036AEFCF01F003C002F00001C9
:102AC0001200036A01014351590FE96E000E032001
:102AD000EA6EEF5218E0036A4351590FE96E000E97
:102AE0000320EA6EEF502C080AE0036A4351590FA5
:102AF000E96E000E0320EA6EEF50200804E1432B3C
:102B00000001DFD701010001120002013D513F1910
:102B1000800B416F3DAF05D03C1F3D1F3C2BD8B40F
:102B20003D2B3FAF05D03E1F3F1F3E2BD8B43F2B60
:102B30003C513E03F3CF01F0F4CF00F03F03F350DC
:102B400000263D513E03F3500020026E41AF05D0F8
:102B5000011E021E012AD8B4022A0001120002013D
:102B60003B6B010E3A6F0001ACDF036A0101435178
:102B7000590FE96E000E0320EA6EEF5244E00201A5
:102B8000396B386B00017EDF02C03DF201C03CF2C0
:102B9000020101502D0807E13D5305E13B693A6907
:102BA00000017FDF0201036A01014351590FE96E01
:102BB000000E0320EA6EEFCF3CF202013C512F08D9
:102BC00022E23C5139081FE339C23DF238C23CF2DF
:102BD0003F6B0A0E3E6F000198DF02C03DF201C05C
:102BE0003CF201014351432B036A590FE96E000E79
:102BF0000320EA6E300EEF5C02010124386F000EF4
:102C00000220396FD0D739C23DF238C23CF23BC204
:102C10003FF23AC23EF2000178DF02C003F002C088
:102C200002F012000D0E0201306F0A0E316F326F8A
:102C3000336B020E6F6F300E6E6F00011DEC11F0E2
:102C4000020EEA6E300EE96E2E0E016EF76A000E6D
:102C5000D3EC01F00A000900F5CFEEFF012EFBD7FF
:102C6000020E02016F6F300E6E6F00011DEC11F04D
:102C7000020EEA6E300EE96E330E016EF76A000E38
:102C8000F2EC01F00A000900F5CFEEFF012EFBD7B0
:102C9000020E02016F6F300E6E6F00011DEC11F01D
:102CA000020EEA6E300EE96E310E016EF76A000E0A
:102CB00014EC02F00A000900F5CFEEFF012EFBD75D
:102CC000020E02016F6F300E6E6F00011DEC11F0ED
:102CD000020EEA6E300EE96E2F0E016EF76A000EDC
:102CE00035EC02F00A000900F5CFEEFF012EFBD70C
:102CF000020E02016F6F300E6E6F00011DEC11F0BD
:102D0000020EEA6E300EE96E310E016EF76A000EA9
:102D100055EC02F00A000900F5CFEEFF012EFBD7BB
:102D2000020E02016F6F300E6E6F00011DEC11F08C
:102D3000020EEA6E300EE96E3A0E016EF76A000E70
:102D400076EC02F00A000900F5CFEEFF012EFBD76A
:102D5000020E02016F6F300E6E6F00011DEC11F05C
:102D6000020EEA6E300EE96E350E016EF76A000E45
:102D70009BEC02F00A000900F5CFEEFF012EFBD715
:102D8000020E02016F6F300E6E6F00011DEC11F02C
:102D9000020EEA6E300EE96E210E016EF76A000E29
:102DA000BEEC02F00A000900F5CFEEFF012EFBD7C2
:102DB000020E02016F6F300E6E6F00011DEC11F0FC
:102DC000020EEA6E300EE96E320E016EF76A000EE8
:102DD000D7EC02F00A000900F5CFEEFF012EFBD779
:102DE000020E02016F6F300E6E6F00011DEC11F0CC
:102DF000020EEA6E300EE96E390E016EF76A000EB1
:102E0000F8EC02F00A000900F5CFEEFF012EFBD727
:102E1000020E02016F6F300E6E6F00011DEC11F09B
:102E2000020EEA6E300EE96E310E016EF76A000E88
:102E30001DEC03F00A000900F5CFEEFF012EFBD7D1
:102E4000020E02016F6F300E6E6F00011DEC11F06B
:102E5000020EEA6E300EE96E350E016EF76A000E54
:102E60003EEC03F00A000900F5CFEEFF012EFBD780
:102E7000020E02016F6F300E6E6F00011DEC11F03B
:102E8000020EEA6E300EE96E3B0E016EF76A000E1E
:102E900061EC03F00A000900F5CFEEFF012EFBD72D
:102EA000020E02016F6F300E6E6F00011DEC11F00B
:102EB000020EEA6E300EE96E3B0E016EF76A000EEE
:102EC00087EC03F00A000900F5CFEEFF012EFBD7D7
:102ED000020E02016F6F300E6E6F00011DEC11F0DB
:102EE000020EEA6E300EE96E2F0E016EF76A000ECA
:102EF000ADEC03F00A000900F5CFEEFF012EFBD781
:102F0000020E02016F6F300E6E6F00011DEC11F0AA
:102F1000020EEA6E300EE96E3C0E016EF76A000E8C
:102F2000CDEC03F00A000900F5CFEEFF012EFBD730
:102F3000020E02016F6F300E6E6F00011DEC11F07A
:102F4000020EEA6E300EE96E2D0E016EF76A000E6B
:102F5000F3EC03F00A000900F5CFEEFF012EFBD7DA
:102F6000020E02016F6F300E6E6F00011DEC11F04A
:102F7000020EEA6E300EE96E350E016EF76A000E33
:102F800012EC04F00A000900F5CFEEFF012EFBD78A
:102F9000020E02016F6F300E6E6F00011DEC11F01A
:102FA000020EEA6E300EE96E250E016EF76A000E13
:102FB00035EC04F00A000900F5CFEEFF012EFBD737
:102FC000020E02016F6F300E6E6F00011DEC11F0EA
:102FD0000D0E0201306F0A0E316F326B020E6F6FF1
:102FE000300E6E6F00011DEC11F0BCEF2BF0A6C18E
:102FF000EAFFA5C1E9FF02013DC2EFFFE92AD8B40B
:10300000EA2AEF6A0101A52BD8B4A62B0001120011
:103010000900F6CF35F2F7CF36F2F5CF3DF2E7DF14
:1030200035C2F6FF36C2F7FF0201342F01D002D0BD
:103030000001EED700011200EACF3CF2E9CF3BF2EB
:1030400002013539F009376F3727E20F386F320F39
:103050003A6F35510F0B382738273A27E90F396F68
:103060003927392734390F0B39273A2739373A3777
:103070003A1F3A3734510F0B3A273737070E366F5E
:103080000A0E39073A27FDE338073927FDE33707EA
:103090003827FDE336073727FDE3020EEA6E360ECA
:1030A000E96E070E3B153B9DE9263A0EE95CD8B464
:1030B0003B8DEF50006E08E13BBD06D03BB915D00B
:1030C0003BB702D0200E03D03B873B99300E002641
:1030D000EACF35F2E9CF34F200C03DF2000187DFDC
:1030E00035C2EAFF34C2E9FF0201EE503BADDDD745
:1030F0000001120034DD02C033F201C032F202C01E
:103100003DF201C03CF202013F6B0A0E3E6F00012E
:10311000FCDC02C031F2020101C030F20001B2DC7D
:1031200002C033F201C032F2020101502E0810E158
:1031300033530EE10001B5DCB4DC300E0201015C5A
:10314000006E000E0258036E0050302703503123EA
:1031500030C201F031C202F0000112000201375109
:10316000016A365D03E236C200F00CD0006A080E38
:10317000386F363700363751005CD8B0006E0136F4
:10318000382FF7D700011200015034C236F2640E16
:103190000201376F0001E2DF00C034F20150300E4F
:1031A00008E1020135A30FD035B70DD035B9200E97
:1031B00004D00201359735993581012601C03DF2D1
:1031C000000115DF020134C236F20A0E376F00012A
:1031D000C5DF00C034F20150300E08E1020135B7FE
:1031E0000AD035A108D035B9200E0001012601C052
:1031F0003DF2FDDE0201300E342734C23DF2000103
:10320000F6DE120002013551036E3451D8B4350791
:10321000340703102CE03151036E3051302BD8B4F9
:10322000312B366F03C037F23351036E3251322BDC
:10323000D8B4332BE96E03C0EAFFEFCF38F2F25077
:10324000006EF29E36C2A9FF38C2A8FFA69CA69EB9
:10325000A6840F01550EA76EAA0EA76EA682A6B26F
:10326000FED7A6940050F2120001CCD70201000153
:103270004CEF19F0010101519F080FE102510B08B9
:103280000CE10201316B306B336BAB0E326F356B7F
:10329000560E346F0001B6D70101026B016B0001BD
:1032A00012000201356B346B355359E13451130868
:1032B00056E33435366F3535376F36373737FC0ED2
:1032C000361737C203F036510001E1EC04F0090073
:1032D000F5CF03F0016E03500201335D3CE303E1DF
:1032E0000150325D38E3010E3425386F000E352170
:1032F000396F3837393738373937FC0E381739C214
:1033000003F038510001E1EC04F00900F5CF03F0BF
:10331000016E02013351035C1EE303E10150325D93
:103320001AE23435366F3535376F36373737FC0E9E
:103330003617020E3625016E000E3721036E01503E
:103340000001E1EC04F00900F5CF03F0016E03C0C9
:1033500002F008D00201342BD8B4352BA5D7000ECB
:10336000016E026E00012BEF24F0AFEC15F001C0EE
:1033700000F002C001F0026A036A03C033F202C027
:1033800032F201C031F200C030F251EC15F0AFEC76
:1033900015F001C000F002C001F0026A036A03C028
:1033A00037F202C036F201C035F200C034F242EC0E
:1033B00015F002C039F201C038F2020101502E08A6
:1033C0001EE139531CE1000151EC15F0AFEC15F092
:1033D00001C000F002C001F0026A036A03C037F2C4
:1033E00002C036F201C035F200C034F2020134519D
:1033F000302735513123365132233751332333C2ED
:103400004DF232C24CF231C24BF230C24AF2516B31
:10341000506B4F6B640E4E6F000174EC09F00201AB
:10342000345100240001AB6F02013551012000012D
:10343000AC6F2CEC0EF028EF25F00900F5520CE0F3
:10344000F6CF30F2F7CF31F2F5CF3DF2D0DD30C21A
:10345000F6FF31C2F7FFF1D76CEF25F0AFEC15F0B6
:1034600002C031F201C030F230C2FDF0020131532E
:1034700029E13051280826E3315303E13051130884
:1034800021E2140E305D0001F36F000E020131598C
:103490000001F46FD890F335026EF435036E0250DC
:1034A000C40FE96E000E0320EA6EECCF03F0ED527C
:1034B000EFCF1AF003C01BF0010E016E000E026E7A
:1034C00004D00201000E016E026E0001CCEF25F067
:1034D000AFEC15F002C031F201C030F230C2FEF0A4
:1034E0000201315329E13051280826E3315303E129
:1034F0003051130821E2140E305D0001BB6F000E45
:10350000020131590001BC6FD890BB35026EBC3549
:10351000036E0250C40FE96E000E0320EA6EECCF7A
:1035200003F0ED52EFCF1CF003C01DF0010E016E51
:10353000000E026E04D00201000E016E026E000148
:1035400021EF26F08E0E006E31C201F030C202F083
:10355000036A015209E102C001F0026A080E005E2E
:10356000015202E1006A08D0D89001BE04D00236B0
:1035700001360006F9D7019E0DEF28F0E95002014F
:10358000356F3451376F1CE033C258F232C257F2F4
:1035900031C256F230C255F25C6B5B6B200E5A6F33
:1035A000820E596F000114EC0DF003C033F202C01B
:1035B00032F201C031F200C030F20201372FE4D7FD
:1035C00033C258F232C257F231C256F230C255F20B
:1035D00000018FEC0DF003C033F202C032F201C0E3
:1035E00031F200C030F2020133AF0DD03507358B18
:1035F000301F311F321F331F302BD8B4312BD8B4BA
:10360000322BD8B4332B3B0E3C6F9A0E3B6FCA0E55
:103610003A6F396B0A0E376F3451D8B4352BD882D4
:10362000020EEA6E300EE96E33C251F232C250F22F
:1036300031C24FF230C24EF23CC255F23BC254F29C
:103640003AC253F239C252F20001A2EC09F0015021
:10365000005213E102013429375DD8A402D00001E1
:103660000CD035510DE00F0B375D01E040E235BF66
:103670003ED035BD05D0200E34D0200E02013517C6
:1036800035AB0ED0359B3451D8A435070050356F7B
:103690002D0E3D6F0001ABDC02013551006E356B24
:1036A0003451375D0CE10050356F2E0E3D6F000137
:1036B0009EDC02013551006E200E3517000E300ED3
:1036C00035AB0FD0359B3451D8A435070050356F3A
:1036D0002D0E3D6F00018BDC02013551006E356B04
:1036E000300E002600C03DF2000181DC0201D892BC
:1036F0003CC251F23BC250F23AC24FF239C24EF2D2
:10370000556B546B536B0A0E526F0001A2EC09F01B
:1037100003C03CF202C03BF201C03AF200C039F2F1
:103720000201372F7CD70001BBEF28F0016A026A43
:10373000006A036A0201355102E1345118E0100EAB
:10374000366FD89032373337003603363551035C45
:1037500002E13451005C07E33451005ED8A0030657
:103760003551035ED88001360236362FEAD7000184
:103770001200EF520FE0EACF35F2E9CF34F2EFCF8B
:103780003DF235DC35C2EAFF34C2E9FFE92AD8B49C
:10379000EA2AEFD71CEF2AF00101C46BEE6B020E90
:1037A000C56F436B000142EC15F002C031F201C05D
:1037B00030F2020101503A081FE131531DE10001CE
:1037C00051EC15F0AFEC15F001C0FDF151EC15F026
:1037D00002C031F201C030F2020101503A0802E1A8
:1037E000315300E10101FD510001F15D02E1F253AD
:1037F00002E0BCEF2BF00201000151EC15F002C019
:1038000031F201C030F20201315303E1305160085E
:1038100008E2315306E130517A0803E33051DF0BFF
:1038200001D030510101EF6F000151EC15F002C0E1
:1038300031F201C030F20201315303E1305160082E
:1038400008E2315306E130517A0803E33051DF0BCF
:1038500001D030510101F06F000161EC15F042EC34
:1038600015F002C031F201C030F2020101500D0822
:1038700006E1315304E1010E0101EE6F0201010185
:10388000EF514C0A00013BE0680A5BE06C0AD8B4D7
:1038900087D00E0AD8B4A8D00B0AD8B421D1090A0F
:1038A000D8B4A1D1160AD8B425D3050AD8B492EF5A
:1038B00022F0040AD8B4A1EF22F0060AD8B4C2EF6D
:1038C00022F0170AD8B4C7EF23F00B0AD8B471EF6F
:1038D00024F01D0AD8B42EEF25F0020AD8B43CEF2C
:1038E00025F0150AD8B4A0EF26F0040AD8B4A7EF43
:1038F00027F0160AD8B426EF29F09DEF2BF001012E
:10390000F051490A000103E0060A16E018D0AFECB6
:1039100015F002C00FF201C00EF202010E51B808FC
:1039200006E10F51440803E1010E01012E6F010E63
:103930000101456F000103D001012E6B0001BCEFB6
:103940002BF001012E5304E10001BCEF2BF001012B
:10395000F051520822E10001AFEC15F002C00FF265
:1039600001C00EF202010E51B70803E10F514408E5
:1039700002E0BDEF2BF00101446B0D0E0201126F4E
:103980000A0E136F146F2A0E156F166B020E6F6FEF
:10399000120E6E6F00011DEC11F00001BCEF2BF058
:1039A00001012E5304E10001BCEF2BF00101020ED6
:1039B000EA6E170EE96E0F0E016EF76A000E000137
:1039C00050EC04F00A000900F5CFEEFF012EFBD702
:1039D000020E02016F6F170E6E6F00011DEC11F0E9
:1039E00012EF16F0BCEF2BF001012E5304E10001A1
:1039F000BCEF2BF00101F051520A000101E06ED042
:103A00000101F051520851E1EE5326E0010EA66F7C
:103A1000C60EA56F4C0EF66E0C0EF76E030E02016D
:103A2000346F000108EC18F0100EE96EBAC035F2E0
:103A3000B9C034F21CEC18F00D0E02013D6F00010C
:103A4000F7EC17F0010E02016F6FC60E6E6F0001EA
:103A50001DEC11F028D0010100017AEC18F00201F0
:103A6000016B006B02C0FFF101C0FEF1FFC1BAF0B3
:103A7000FEC1B9F0FFC131F2FEC130F2FFC139F22F
:103A8000FEC138F20001ECEC09F054EC0BF0320E00
:103A90000201456F000190EC07F054EC0BF0010EB1
:103AA0000101C46F00011AD00101020EEA6E170E67
:103AB000E96E0A0E016EF76A000E000160EC04F078
:103AC0000A000900F5CFEEFF012EFBD7020E02011E
:103AD0006F6F170E6E6F00011DEC11F0BCEF2BF035
:103AE00001012E5304E10001BCEF2BF00101F05164
:103AF0004F085DE1EE5324E0010EA66FC60EA56FE0
:103B0000540EF66E0C0EF76E030E0201346F0001B8
:103B100008EC18F0AFC034F21B0E0201356F000143
:103B2000C4EC18F00D0E02013D6F0001F7EC17F028
:103B3000010E02016F6FC60E6E6F00011DEC11F0D9
:103B40000001AFEC15F002C00FF201C00EF202014D
:103B50000F530DE10E5103080AE30EC2AFF000014E
:103B6000FFEC0BF0010E0101C46F20D00201020E28
:103B7000EA6E170EE96E090E016EF76A000E00017B
:103B80006DEC04F00A000900F5CFEEFF012EFBD723
:103B9000020E02016F6F170E6E6F00011DEC11F027
:103BA0000101C46B0001BCEF2BF0010119D0020E22
:103BB000EA6E170EE96E090E016EF76A000E00013B
:103BC0006DEC04F00A000900F5CFEEFF012EFBD7E3
:103BD000020E02016F6F170E6E6F00011DEC11F0E7
:103BE0000001BCEF2BF001012E5304E10001BCEFFA
:103BF0002BF00101F051530A000107E0030AD8B489
:103C000080D0150AD8B4F9D073D10101EE5326E063
:103C1000010EA66FC60EA56F5C0EF66E0C0EF76E4B
:103C2000030E0201346F000108EC18F0B3C034F247
:103C30001B0E0201356F0001C4EC18F00D0E0201DD
:103C40003D6F0001F7EC17F0010E02016F6FC60E19
:103C50006E6F00011DEC11F04FD001010001AFECBF
:103C600015F002C00FF201C00EF202010F530AE17B
:103C70000E51010807E30EC2B3F000012DEC0CF069
:103C80003BD00201020EEA6E170EE96E090E016EBC
:103C9000F76A000E00016DEC04F00A000900F5CF90
:103CA000EEFF012EFBD7020E02016F6F170E6E6F33
:103CB00000011DEC11F0010E0101A66F7A0EA56F37
:103CC000640EF66E0C0EF76E070E0201346F0001E3
:103CD00008EC18F0B3C034F21B0E0201356F00017E
:103CE000C4EC18F00D0E02013D6F0001F7EC17F067
:103CF0000101C46B0001FCD0010E0101C46F000181
:103D0000F7D00101EE5326E0010EA66FC60EA56F97
:103D1000700EF66E0C0EF76E030E0201346F00018A
:103D200008EC18F0B1C034F21B0E0201356F00012F
:103D3000C4EC18F00D0E02013D6F0001F7EC17F016
:103D4000010E02016F6FC60E6E6F00011DEC11F0C7
:103D50004FD001010001AFEC15F002C00FF201C01D
:103D60000EF202010F530AE10E51010807E30EC2E1
:103D7000B1F00001FFEC0BF03BD00201020EEA6E45
:103D8000170EE96E090E016EF76A000E00016DEC68
:103D900004F00A000900F5CFEEFF012EFBD7020E5A
:103DA00002016F6F170E6E6F00011DEC11F0010E16
:103DB0000101A66F7A0EA56F780EF66E0C0EF76EE7
:103DC000070E0201346F000108EC18F0B1C034F2A4
:103DD0001B0E0201356F0001C4EC18F00D0E02013C
:103DE0003D6F0001F7EC17F00101C46B000180D0BA
:103DF000010E0101C46F00017BD00101EE5326E0EA
:103E0000010EA66FC60EA56F840EF66E0C0EF76E31
:103E1000030E0201346F000108EC18F0B7C034F251
:103E20001B0E0201356F0001C4EC18F00D0E0201EB
:103E30003D6F0001F7EC17F0010E02016F6FC60E27
:103E40006E6F00011DEC11F04FD001010001AFECCD
:103E500015F002C00FF201C00EF202010F530AE189
:103E60000E51010807E30EC2B7F00001FFEC0BF0A2
:103E70003BD00201020EEA6E170EE96E090E016ECA
:103E8000F76A000E00016DEC04F00A000900F5CF9E
:103E9000EEFF012EFBD7020E02016F6F170E6E6F41
:103EA00000011DEC11F0010E0101A66F7A0EA56F45
:103EB0008C0EF66E0C0EF76E070E0201346F0001C9
:103EC00008EC18F0B7C034F21B0E0201356F000188
:103ED000C4EC18F00D0E02013D6F0001F7EC17F075
:103EE0000101C46B000104D0010E0101C46F000187
:103EF000BCEF2BF001012E5304E10001BCEF2BF0CD
:103F00000101410EF05DF00FD8B009D3100F000190
:103F1000C0EF2BF00101EE5326E0010EA66FC60E96
:103F2000A56F980EF66E0C0EF76E030E0201346F3D
:103F3000000108EC18F0B6C034F21B0E0201356F18
:103F40000001C4EC18F00D0E02013D6F0001F7EC0A
:103F500017F0010E02016F6FC60E6E6F00011DECAF
:103F600011F07ED001010001AFEC15F002C00FF29C
:103F700001C00EF202010F5339E10E51010836E380
:103F80000001F72D0FD0F8530DE102010E5307E1A8
:103F90000F5305E10001FA6B010EF96F03D0000128
:103FA000FA6BF96B02010E2D11D00F530FE10001D6
:103FB000FA6BF96BF9C0A2F1320E0201456F0001F4
:103FC00090EC07F0A6EC0EF00FD002010001FA6BA6
:103FD000010EF96FF9C0A2F1320E0201456F000126
:103FE00090EC07F0A6EC0EF03BD00201020EEA6E58
:103FF000170EE96E090E016EF76A000E00016DECF6
:1040000004F00A000900F5CFEEFF012EFBD7020EE7
:1040100002016F6F170E6E6F00011DEC11F0010EA3
:104020000101A66F7A0EA56FA00EF66E0C0EF76E4C
:10403000070E0201346F000108EC18F0A2C134F23F
:104040001B0E0201356F0001C4EC18F00D0E0201C9
:104050003D6F0001F7EC17F00101C46B60D2000165
:10406000010E0101C46F5BD20101EE5326E0010E87
:10407000A66FC60EA56FAC0EF66E0C0EF76E030E95
:104080000201346F000108EC18F0A3C134F21B0EDA
:104090000201356F0001C4EC18F00D0E02013D6FF6
:1040A0000001F7EC17F0010E02016F6FC60E6E6F84
:1040B00000011DEC11F0B2D001010001AFEC15F0D0
:1040C00002C00FF201C00EF202010E5334E10F5391
:1040D00032E10001F551F61103E1F751F81113E057
:1040E0000101A36B0001AE6BA3C1ADF03C0E020158
:1040F000456F000190EC07F0A6EC0EF0010E0101F7
:10410000C46F17D00001F55302E1F65303E0F751F5
:10411000F8110EE00101A36B0001AE6BA3C1ADF07D
:104120003C0E0201456F000190EC07F0A6EC0EF08A
:10413000010173D002010E2D37D00F5335E100017C
:10414000F551F61116E0010E0101A36F0001AE6BEF
:10415000A3C1ADF0DBEC0EF0320E0201456F0001A1
:1041600090EC07F0010E0101C46F0001A6EC0EF007
:1041700019D0F55317E1F65315E1010E0101A36FB4
:104180000001AE6BA3C1ADF0DBEC0EF0320E02010C
:10419000456F000190EC07F0010E0101C46F0001B2
:1041A000A6EC0EF03BD00201020EEA6E170EE96E8D
:1041B000090E016EF76A000E00016DEC04F00A00B2
:1041C0000900F5CFEEFF012EFBD7020E02016F6F43
:1041D000170E6E6F00011DEC11F0010E0101A66FAC
:1041E0007A0EA56FB40EF66E0C0EF76E070E020176
:1041F000346F000108EC18F0A3C134F21B0E020169
:10420000356F0001C4EC18F00D0E02013D6F000186
:10421000F7EC17F00101C46B82D10001010E01011E
:10422000C46F7DD10101EE5326E0010EA66FC60ECC
:10423000A56FC00EF66E0C0EF76E030E0201346F02
:10424000000108EC18F0100EE96EF8C035F2F7C066
:1042500034F21CEC18F00D0E02013D6F0001F7EC7A
:1042600017F0010E02016F6FC60E6E6F00011DEC9C
:1042700011F049D001010001AFEC15F002C00FF2BE
:1042800001C00EF202010F5325E10E51010822E395
:104290000E530EE10F530CE10001F86BF76B320E79
:1042A0000201456F000190EC07F0A6EC0EF0020150
:1042B0000E2D0FD00F530DE10001F86B010EF76FBB
:1042C000320E0201456F000190EC07F0A6EC0EF0F3
:1042D00002011AD0020EEA6E170EE96E0A0E016E86
:1042E000F76A000E000160EC04F00A000900F5CF47
:1042F000EEFF012EFBD7020E02016F6F170E6E6FDD
:1043000000011DEC11F00201010109D10101EE5380
:1043100026E0010EA66FC60EA56FC80EF66E0C0E37
:10432000F76E030E0201346F000108EC18F0100E56
:10433000E96EF6C035F2F5C034F21CEC18F00D0E43
:1043400002013D6F0001F7EC17F0010E02016F6FE3
:10435000C60E6E6F00011DEC11F058D00101000176
:10436000AFEC15F002C00FF201C00EF202010F53C4
:1043700034E10E51010831E30E510F1121E00FC25B
:10438000F6F00EC2F5F00101A3530EE1A32D01D00A
:1043900001D0000E320E0201456F000190EC07F0D3
:1043A000A6EC0EF004D00101A35301E0000E320E82
:1043B0000201456F000190EC07F0A6EC0EF002013F
:1043C0000FC2F6F00EC2F5F0460E456F000190ECFC
:1043D00007F0A6EC0EF01AD00201020EEA6E170EDC
:1043E000E96E0A0E016EF76A000E000160EC04F03F
:1043F0000A000900F5CFEEFF012EFBD7020E0201E5
:104400006F6F170E6E6F00011DEC11F0010187D068
:104410000101EE5326E0010EA66FC60EA56FD00E69
:10442000F66E0C0EF76E030E0201346F000108ECFD
:1044300018F0B5C034F21B0E0201356F0001C4EC58
:1044400018F00D0E02013D6F0001F7EC17F0010EA0
:1044500002016F6FC60E6E6F00011DEC11F051D09E
:1044600001010001AFEC15F002C00FF201C00EF225
:1044700002010F530DE10E5101080AE30EC2B5F01F
:104480000001FFEC0BF0010E0101C46F3AD00201F4
:10449000020EEA6E170EE96E090E016EF76A000E43
:1044A00000016DEC04F00A000900F5CFEEFF012ECB
:1044B000FBD7020E02016F6F170E6E6F00011DEC2D
:1044C00011F0010E0101A66F7A0EA56FD80EF66EDF
:1044D0000C0EF76E070E0201346F000108EC18F0A5
:1044E000B5C034F21B0E0201356F0001C4EC18F0A8
:1044F0000D0E02013D6F0001F7EC17F00101C46BD6
:104500000ED0010E0101C46F0AD0DEEC07F0A6EC5C
:104510000EF0010E0101C46F02D0FF000101000185
:10452000BCEF2BF001012E5304E10001BCEF2BF096
:104530000101F051410802E1010EC46F0001BCEF1E
:104540002BF001012E5304E10001BCEF2BF001011F
:10455000F051500A000103E0060A06E011D0010EF6
:104560000101C46F00010CD00B0E0101026F9F0E00
:10457000016F00013AEC19F0010E0101C46F000156
:10458000BCEF2BF001012E5304E10001BCEF2BF036
:104590000101F051540A000104E0070AD8B47FD0A9
:1045A000F4D00101EE5326E0010EA66FC60EA56FF2
:1045B000E40EF66E0C0EF76E030E0201346F00016E
:1045C00008EC18F0FBC034F21B0E0201356F00013D
:1045D000C4EC18F00D0E02013D6F0001F7EC17F06E
:1045E000010E02016F6FC60E6E6F00011DEC11F01F
:1045F00050D001010001AFEC15F002C00FF201C074
:104600000EF202010F530BE10E51EF0808E30F53B6
:1046100003E10E51010803E20EC2FBF03BD0020E93
:10462000EA6E170EE96E090E016EF76A000E0001C0
:104630006DEC04F00A000900F5CFEEFF012EFBD768
:10464000020E02016F6F170E6E6F00011DEC11F06C
:10465000010E0101A66F7A0EA56FEC0EF66E0C0E20
:10466000F76E070E0201346F000108EC18F0FBC072
:1046700034F21B0E0201356F0001C4EC18F00D0E70
:1046800002013D6F0001F7EC17F00101C46B00015E
:104690007CD00201010E0101C46F000176D001013E
:1046A000EE5326E0010EA66FC60EA56FF80EF66E4D
:1046B0000C0EF76E030E0201346F000108EC18F0C7
:1046C000FCC034F21B0E0201356F0001C4EC18F07F
:1046D0000D0E02013D6F0001F7EC17F0010E020113
:1046E0006F6FC60E6E6F00011DEC11F04BD0010113
:1046F0000001AFEC15F002C00FF201C00EF2020192
:104700000F5306E10E51010803E30EC2FCF03BD04B
:10471000020EEA6E170EE96E090E016EF76A000EC0
:1047200000016DEC04F00A000900F5CFEEFF012E48
:10473000FBD7020E02016F6F170E6E6F00011DECAA
:1047400011F0010E0101A66F7A0EA56F000EF66E34
:104750000D0EF76E070E0201346F000108EC18F021
:10476000FCC034F21B0E0201356F0001C4EC18F0DE
:104770000D0E02013D6F0001F7EC17F00101C46B53
:10478000000103D00201000100D0BCEF2BF00101B9
:104790002E5304E10001BCEF2BF00101F051470A58
:1047A000000101E09CD00101EE5326E0010EA66F4E
:1047B000C60EA56F0C0EF66E0D0EF76E030E0201FF
:1047C000346F000108EC18F0100EE96E00C135F2EC
:1047D000FFC034F21CEC18F00D0E02013D6F000119
:1047E000F7EC17F0010E02016F6FC60E6E6F00013D
:1047F0001DEC11F070D001010001AFEC15F001C00B
:1048000000F002C001F0026A036A03C009F202C0AC
:1048100008F201C007F200C006F20201095307E1E5
:10482000085305E1075303E1065100081AE2095352
:1048300018E1085316E1075314E10651280811E363
:1048400007C231F206C230F207C233F206C232F2B8
:10485000000151EF19F002C000F101C0FFF03BD0A0
:104860000201020EEA6E170EE96E090E016EF76A7A
:10487000000E00016DEC04F00A000900F5CFEEFF18
:10488000012EFBD7020E02016F6F170E6E6F000133
:104890001DEC11F0010E0101A66F7A0EA56F140E2A
:1048A000F66E0D0EF76E070E0201346F000108EC74
:1048B00018F0100EE96E00C135F2FFC034F21CECA6
:1048C00018F00D0E02013D6F0001F7EC17F0010129
:1048D000C46B000104D0010E0101C46F0001BCEFE4
:1048E0002BF001012E5304E10001BCEF2BF001017C
:1048F000F051440A000104E0070AD8B47DD0ACD0DE
:104900000101EE5326E0010EA66FC60EA56F200E24
:10491000F66E0D0EF76E030E0201346F000108EC07
:1049200018F0B4C034F21B0E0201356F0001C4EC64
:1049300018F00D0E02013D6F0001F7EC17F0010EAB
:1049400002016F6FC60E6E6F00011DEC11F04FD0AB
:1049500001010001AFEC15F002C00FF201C00EF230
:1049600002010F530AE10E51030807E30EC2B4F02F
:1049700000012DEC0CF03BD00201020EEA6E170E86
:10498000E96E090E016EF76A000E00016DEC04F08D
:104990000A000900F5CFEEFF012EFBD7020E02013F
:1049A0006F6F170E6E6F00011DEC11F0010E01010B
:1049B000A66F7A0EA56F280EF66E0D0EF76E070E17
:1049C0000201346F000108EC18F0B4C034F21B0E81
:1049D0000201356F0001C4EC18F00D0E02013D6FAD
:1049E0000001F7EC17F00101C46B000135D0010E96
:1049F0000101C46F000130D00101EE5326E0010E29
:104A0000A66FC60EA56F340EF66E0D0EF76E030E72
:104A10000201346F000108EC18F0100EE96EACC012
:104A200035F2ABC034F21CEC18F00D0E02013D6FF4
:104A30000001F7EC17F0010E02016F6FC60E6E6FEA
:104A400000011DEC11F004D001010001B5EF19F0D7
:104A5000010E0101C46F0001BCEF2BF001012E53C8
:104A600004E10001BCEF2BF00101F051450801E128
:104A7000BAD20001BCEF2BF001012E5304E100017A
:104A8000BCEF2BF00101F051450A00010DE0090ACD
:104A9000D8B47BD01C0AD8B49ED01D0AD8B4D6D0C6
:104AA0000E0AD8B40ED14AD10101F051450852E1A5
:104AB000010EA66FC60EA56F3C0EF66E0D0EF76EBC
:104AC000030E0201346F000108EC18F0040EF66EBC
:104AD000090EF76E1DEF1AF0410EF66E0D0EF76E11
:104AE000040E0201346F000108EC18F00B0EE96EA1
:104AF000F2C035F2F1C034F21CEC18F04A0EF66E3A
:104B00000D0EF76E040E0201346F000108EC18F070
:104B10000B0EE96EEFC035F2EEC034F21CEC18F06B
:104B2000F0C034F2010E0201356F0001C4EC18F040
:104B30000D0E02013D6F0001F7EC17F0010E0201AE
:104B40006F6FC60E6E6F00011DEC11F0010E0101BA
:104B5000C46F19D0020EEA6E170EE96E090E016ECF
:104B6000F76A000E00016DEC04F00A000900F5CFB1
:104B7000EEFF012EFBD7020E02016F6F170E6E6F54
:104B800000011DEC11F00001D9D00101F0514C08D9
:104B900007E100012EEF1AF0010E0101C46F19D0D8
:104BA000020EEA6E170EE96E090E016EF76A000E2C
:104BB00000016DEC04F00A000900F5CFEEFF012EB4
:104BC000FBD7020E02016F6F170E6E6F00011DEC16
:104BD00011F00001B3D00101EE5330E0140E0001DA
:104BE000BB250201306F000E0001BC210201316FB4
:104BF000010E0101A66FC60EA56F5A0EF66E0D0EC0
:104C0000F76E030E0201346F000108EC18F0100E6D
:104C1000E96E31C235F230C234F21CEC18F00D0EE0
:104C200002013D6F0001F7EC17F0010E02016F6FFA
:104C3000C60E6E6F00011DEC11F003D0000168EF8D
:104C40001AF0010E0101C46F000178D00101EE538A
:104C500026E0010EA66FC60EA56F620EF66E0D0E53
:104C6000F76E030E0201346F000108EC18F0100E0D
:104C7000E96E23C035F222C034F21CEC18F00D0EA0
:104C800002013D6F0001F7EC17F0010E02016F6F9A
:104C9000C60E6E6F00011DEC11F012D00101000173
:104CA000AFEC15F002C023F001C022F0010E0201AA
:104CB000346F0FC236F20EC235F20001F7EC07F086
:104CC0003DD00101EE5326E0010EA66FC60EA56F82
:104CD0006A0EF66E0D0EF76E030E0201346F0001C0
:104CE00008EC18F0100EE96E25C035F224C034F23D
:104CF0001CEC18F00D0E02013D6F0001F7EC17F0EF
:104D0000010E02016F6FC60E6E6F00011DEC11F0F7
:104D100015D001010001AFEC15F002C00FF201C087
:104D20000EF20FC225F00EC224F00201346B0FC246
:104D300036F20EC235F20001F7EC07F0BCEF2BF0B3
:104D400001012E5304E10001BCEF2BF00101F051F1
:104D50005308D8A47BD0EE5326E0010EA66FC60EF2
:104D6000A56F720EF66E0D0EF76E030E0201346F14
:104D7000000108EC18F0B2C034F21B0E0201356FCE
:104D80000001C4EC18F00D0E02013D6F0001F7ECBC
:104D900017F0010E02016F6FC60E6E6F00011DEC61
:104DA00011F050D001010001AFEC15F002C00FF27C
:104DB00001C00EF202010F530AE10E51010807E390
:104DC0000EC2B2F000012DEC0CF03CD00201020E3C
:104DD000EA6E170EE96E090E016EF76A000E000109
:104DE0006DEC04F00A000900F5CFEEFF012EFBD7B1
:104DF000020E02016F6F170E6E6F00011DEC11F0B5
:104E0000010E0101A66F7A0EA56F7A0EF66E0D0ED9
:104E1000F76E070E0201346F000108EC18F0B2C003
:104E200034F21B0E0201356F0001C4EC18F00D0EB8
:104E300002013D6F0001F7EC17F00101C46B0001A6
:104E4000BCEF2BF0010E0101C46F7ED0F051500871
:104E5000D8A47AD0EE5326E0010EA66FC60EA56F39
:104E6000860EF66E0D0EF76E030E0201346F000112
:104E700008EC18F0B0C034F21B0E0201356F0001CF
:104E8000C4EC18F00D0E02013D6F0001F7EC17F0B5
:104E9000010E02016F6FC60E6E6F00011DEC11F066
:104EA00050D001010001AFEC15F002C00FF201C0BB
:104EB0000EF202010F530AE10E51010807E30EC280
:104EC000B0F00001FFEC0BF03CD00201020EEA6EE4
:104ED000170EE96E090E016EF76A000E00016DEC07
:104EE00004F00A000900F5CFEEFF012EFBD7020EF9
:104EF00002016F6F170E6E6F00011DEC11F0010EB5
:104F00000101A66F7A0EA56F8E0EF66E0D0EF76E6E
:104F1000070E0201346F000108EC18F0B0C034F243
:104F20001B0E0201356F0001C4EC18F00D0E0201DA
:104F30003D6F0001F7EC17F00101C46B0001BCEFFD
:104F40002BF0010E0101C46F0001BCEF2BF0010139
:104F50002E5304E10001BCEF2BF00101F051500A87
:104F6000000106E0040A3EE0060AD8B434D16CD150
:104F7000140E016EC250830B0110C26E420E006E01
:104F8000002EFED70000C282C2B2FED7C4CF0FF2FD
:104F90000201C3CF0EF2010E0101A66F7A0EA56FBA
:104FA0009A0EF66E0D0EF76E040E0201346F0001BC
:104FB00008EC18F0100EE96E0FC235F20EC234F292
:104FC0001CEC18F00D0E02013D6F0001F7EC17F01C
:104FD0000A0E02013D6F0001F7EC17F00101C46BEE
:104FE000000132D10101180E016EC250830B011075
:104FF000C26E420E006E002EFED70000C282C2B208
:10500000FED7C4CF0FF20201C3CF0EF20FC231F2AE
:105010000EC230F20001A2EF1AF000C030F201C05F
:1050200031F202C032F203C033F203C058F202C0C0
:1050300057F201C056F200C055F202015C6B5B6B87
:105040005A6B890E596F000165EC0CF000C030F20C
:1050500001C031F202C032F203C033F203C058F291
:1050600002C057F201C056F200C055F2330E0201E1
:105070005C6F5B6F530E5A6F800E596F000114EC1A
:105080000DF003C00DF202C00CF201C00BF200C023
:105090000AF2D8820DC233F20CC232F20BC231F2E4
:1050A0000AC230F20201376B366B400E356F7E0E4E
:1050B000346F000158EC12F003C00DF202C00CF284
:1050C00001C00BF200C00AF20DC258F20CC257F236
:1050D0000BC256F20AC255F202015C6B5B6B480EC2
:1050E0005A6F850E596F000114EC0DF003C00DF2DC
:1050F00002C00CF201C00BF200C00AF2D8920DC23D
:1051000033F20CC232F20BC231F20AC230F20201A7
:10511000376B366B480E356F830E346F000158ECD9
:1051200012F003C00DF202C00CF201C00BF200C07D
:105130000AF2AD51AE112DE0010E0101A66F7A0EFB
:10514000A56FA40EF66E0D0EF76E060E0201346FFB
:10515000000108EC18F0050EE96E0DC233F20CC226
:1051600032F20BC231F20AC230F2020E0201346F87
:105170000001BEEF1AF0AF0EF66E0D0EF76E080EC0
:105180000201346F000108EC18F00101C46B21D05A
:10519000000102010D6B0C6B0B6B0A6B020EEA6EC9
:1051A000170EE96E150E016EF76A000E00018AEC0B
:1051B00004F00A000900F5CFEEFF012EFBD7020E26
:1051C00002016F6F170E6E6F00011DEC11F00101EF
:1051D000C46B000139D0100E016EC250830B011058
:1051E000C26E1A0E006E002EFED70000C282C2B23E
:1051F000FED7C4CF0FF20201C3CF0EF2010E0101A0
:10520000A66F7A0EA56FB80EF66E0D0EF76E040E31
:105210000201346F000108EC18F0100EE96E0FC2A5
:1052200035F20EC234F21CEC18F00D0E02013D6F87
:105230000001F7EC17F00A0E02013D6F0001F7ECD8
:1052400017F00101C46B000197D296D2020EEA6EEC
:10525000170EE96E190E016EF76A000E9DEC04F050
:105260000A000900F5CFEEFF012EFBD7020E020166
:105270006F6F170E6E6F00011DEC11F0020EEA6EDB
:10528000170EE96E0F0E016EF76A000E7AEC04F04D
:105290000A000900F5CFEEFF012EFBD7020E020136
:1052A0006F6F170E6E6F00011DEC11F0010E010102
:1052B000A66FC60EA56FC20EF66E0D0EF76E050E2A
:1052C0000201346F000108EC18F0100EE96EF2C014
:1052D00035F2F1C034F21CEC18F0CA0EF66E0D0E69
:1052E000F76E040E0201346F000108EC18F00B0E8B
:1052F000E96EEFC035F2EEC034F21CEC18F0F0C0ED
:1053000034F2010E0201356F0001C4EC18F00D0EED
:1053100002013D6F0001F7EC17F0010E02016F6F03
:10532000C60E6E6F00011DEC11F0100E016EC25022
:10533000830B0110C26E1A0E006E002EFED7000005
:10534000C282C2B2FED7C4CF08F10101C3CF07F1B8
:105350000851020814E303E10751440810E3010E69
:10536000EA6EF10EE96E000E0001B2EC04F00A00E4
:105370000900F550EE6E0009FBE10FD00101010EAE
:10538000EA6EF10EE96E000E0001BDEC04F00A00B9
:105390000900F550EE6E0009FBE1F951FA1104E045
:1053A0000201116B106B04D00201116B010E106F22
:1053B000ACC033F2ABC032F2356B640E346F000117
:1053C00096EC1BF002C031F201C030F2ACC033F2F7
:1053D000ABC032F20201356B640E346F000196EC03
:1053E0001BF000C032F203C033F2010E0101A66FC0
:1053F000C60EA56FDA0EF66E0D0EF76E080E0201E0
:10540000346F000108EC18F0100EE96EBAC035F2E6
:10541000B9C034F21CEC18F0E50EF66E0D0EF76E06
:10542000060E0201346F000108EC18F0010EEA6E5E
:10543000F10EE96EB9EF1BF0ED0EF66E0D0EF76E84
:10544000070E0201346F000108EC18F0100EE96E2F
:105450000CC135F20BC134F21CEC18F0F70EF66EED
:105460000D0EF76E050E0201346F000108EC18F006
:10547000100EE96E31C235F230C234F21CEC18F075
:105480002E0E02013D6F0001F7EC17F0100EE96ED1
:1054900033C235F232C234F21CEC18F0030EF66E51
:1054A0000E0EF76E090E0201346F000108EC18F0C1
:1054B000AFC034F21B0E0201356F0001C4EC18F0CE
:1054C0000E0EF66E0E0EF76E050E0201346F000121
:1054D00008EC18F0B2C034F21B0E0201356F000167
:1054E000C4EC18F0150EF66E0E0EF76E050E0201E6
:1054F000346F000108EC18F0100EE96EAEC035F202
:10550000ADC034F21CEC18F00D0E02013D6F00012D
:10551000F7EC17F0010E02016F6FC60E6E6F0001FF
:105520001DEC11F0140EF3250201306F000E000186
:10553000F4210201316F010E0101A66FC60EA56FA5
:10554000200EF66E0E0EF76E060E0201346F00018D
:1055500008EC18F0B7C034F21B0E0201356F0001E1
:10556000C4EC18F0280EF66E0E0EF76E050E020152
:10557000346F000108EC18F0B5C034F21B0E0201C4
:10558000356F0001C4EC18F02F0EF66E0E0EF76E9C
:10559000050E0201346F000108EC18F0B1C034F2BE
:1055A0001B0E0201356F0001C4EC18F0360EF66ECA
:1055B0000E0EF76E050E0201346F000108EC18F0B4
:1055C000100EE96E11C235F210C234F21CEC18F064
:1055D0003E0EF66E0E0EF76E050E0201346F0001E0
:1055E00008EC18F0B3C034F21B0E0201356F000155
:1055F000C4EC18F0450EF66E0E0EF76E050E0201A5
:10560000346F000108EC18F0B4C034F21B0E020134
:10561000356F0001C4EC18F04C0EF66E0E0EF76EEE
:10562000050E0201346F000108EC18F0100EE96E4F
:1056300031C235F230C234F21CEC18F0540EF66E62
:105640000E0EF76E050E0201346F000108EC18F023
:10565000100EE96EF6C035F2F5C034F21CEC18F00D
:105660005C0EF66E0E0EF76E050E0201346F000131
:1056700008EC18F0100EE96EF8C035F2F7C034F2FD
:105680001CEC18F0640EF66E0E0EF76E050E02019D
:10569000346F000108EC18F0B0C034F21B0E0201A8
:1056A000356F0001C4EC18F00D0E02013D6F0001D2
:1056B000F7EC17F0010E02016F6FC60E6E6F00015E
:1056C0001DEC11F0010E0101A66FC60EA56F6E0E46
:1056D000F66E0E0EF76E060E0201346F000108EC36
:1056E00018F0FBC034F21B0E0201356F0001C4EC50
:1056F00018F0760EF66E0E0EF76E050E0201346F80
:10570000000108EC18F0FCC034F21B0E0201356FEA
:105710000001C4EC18F00D0E02013D6F0001F7EC22
:1057200017F0010E02016F6FC60E6E6F00011DECC7
:1057300011F0010158D400011FD001012E5303E1E3
:1057400000011AD00101020EEA6E170EE96E090E71
:10575000016EF76A000E00016DEC04F00A0009000A
:10576000F5CFEEFF012EFBD7020E02016F6F170E71
:105770006E6F00011DEC11F0020100013AEF2CF0F8
:10578000E824F76AF7369B0FF66E570EF7220A00E9
:10579000F550FA6E0800F550F96E10440C4324429F
:1057A0001E451A4568401E451E451E451E451E45A0
:1057B0000A451E451E451E45143F5750000A06E087
:1057C000020A1BE0010AD8B4A6D0A5D0586A020E7E
:1057D000576EAA6BA96B01012E530DE00D0EBE6F23
:1057E0003E0EBF6FC06B010E02016F6FBE0E6E6F7B
:1057F00000011DEC11F000018ED03452D8B475D0E8
:10580000AA6BA96B2CEC15F00101BB6B01C0BAF1BE
:105810005850582A036A590FE96E000E0320EA6EA9
:10582000BAC1EFFF5850460804E2576A000173D02E
:105830000101BA510D0802E1BB5305E0BA513B0822
:1058400055E1BB5353E1BA513B080EE1BB530CE1A8
:10585000010E585C036A590FE96E000E0320EA6ED0
:105860000D0EEF6E586A03D0000153EC07F00001F3
:10587000CCEF1BF00101455305E02E5303E100017D
:105880004AD001010D0EBE6F0A0EBF6F4F0EC06FE2
:105890004B0EC16F0A0EC26FC36B010E02016F6F18
:1058A000BE0E6E6F00011DEC11F00101BC2D15D074
:1058B000BD5313E12E5303E100012DD001010A0E67
:1058C000BE6F0D0EBF6FC06B010E02016F6FBE0E7B
:1058D0006E6F00011DEC11F008D0010E02016F6F18
:1058E0007A0E6E6F00011DEC11F001015750010896
:1058F00010E22CA20ED02C920001A92BD8B4AA2B16
:10590000AA51260806E2FF0A03E1A951100801E2A4
:10591000576A000100D02BEF35F08A9202010B6B21
:105920000B51070813E30851800B02E18C9801D05A
:105930008C8800D000D08C8000D000D08C9000D01B
:1059400000D00B510B2BD8900837EAD70B6B0B51BB
:10595000070813E30951800B02E18C9801D08C8871
:1059600000D000D08C8000D000D08C9000D000D02F
:105970000B510B2BD8900937EAD78A820AC201F063
:1059800000011200D4C1D6F1D5C1D7F1020E020137
:10599000456F010E476FD60E466F0001C8EC0BF045
:1059A00012000101D151690A000119E0200A2FE01B
:1059B0002D0A45E0200A5DE06F0AD8B474D0160ABB
:1059C000D8B499D0100AD8B4BED0720AD8B4E5D0F1
:1059D000610AD8B40CD1020AD8B415D11ED1010184
:1059E000712B06E1722B7251030802E2716B726B2C
:1059F0000B0E0201086F71C109F200018EDF0C0E5F
:105A00000201086F72C109F2000187DF06D10101AE
:105A1000752B06E1762B7651030802E2756B766BE7
:105A20000F0E0201086F75C109F2000176DF100E3A
:105A30000201086F76C109F200016FDFEED00101AB
:105A40007107713D07D072077251030803E2716953
:105A5000030E726F0B0E0201086F71C109F2000193
:105A60005CDF0C0E0201086F72C109F2000155DF04
:105A7000D4D001017507753D07D07607765103082C
:105A800003E27569030E766F0F0E0201086F75C190
:105A900009F2000142DF100E0201086F76C109F21F
:105AA00000013BDFBAD0010173C1D2F17451030B85
:105AB000D36FD22BD8B4D32BD351030802E2D36BCC
:105AC000D26B7451C00BD46F000ED213D451D313C8
:105AD000D2C173F1D3C174F10B0E0201086F73C10F
