:04000000A9EF32F042
:08000800046ED8CF05F0E0CF33
:1000100006F00001E9CF0CF0EACF07F0E1CF08F0DD
:10002000E2CF09F0D9CF0AF0DACF0BF0F3CF12F01C
:10003000F4CF13F0FACF14F0F5CF15F0F6CF16F099
:10004000F7CF17F000C00EF001C00FF002C010F0A3
:1000500003C011F09DA230EF00F09EB2CCEF04F08F
:10006000F2A836EF00F0F2B215EF05F0F0A63CEF83
:1000700000F0F0B018EF05F09DAA42EF00F09EBA34
:100080001BEF05F09DA848EF00F09EB842EF05F089
:100090007DA04EEF00F07EB0BEEF04F00EC000F089
:1000A0000FC001F010C002F011C003F00CC0E9FF56
:1000B00007C0EAFF078E08C0E1FF09C0E2FF0AC0DF
:1000C000D9FF0BC0DAFF12C0F3FF13C0F4FF14C056
:1000D000FAFF15C0F5FF16C0F6FF17C0F7FF045072
:1000E00006C0E0FF05C0D8FF1000F76AFA0FF66EF1
:1000F000000EF7220900F55012000000DC0091818B
:100100000008C25E0018B30400003C009500000027
:100110004000F76A220FF66E010EF7220900F55033
:100120001200244149203C6368616E6E656C3E3C60
:1001300063723E2020095265717565737420616E8B
:10014000616C6F67206368616E6E656C2076616CB0
:100150007565202831302062697473290D0A00000A
:10016000F76A700FF66E010EF7220900F5501200C3
:10017000244154203C6C6576656C3E3C63723E20A5
:10018000200953657420617474656E7561746F72B3
:1001900020746F203C6C6576656C3E0D0A00F76A32
:1001A000AE0FF66E010EF7220900F550120024433F
:1001B00046203C667265713E3C63723E20200943D6
:1001C00068616E6765206672657175656E6379201A
:1001D00028323138352E30202D20323330302E3039
:1001E00020696E20302E3120696E6373290D0A005C
:1001F000F76A000FF66E020EF7220900F5501200A2
:100200002444493C63723E20200952657175657330
:1002100074206469676974616C20696E70757473A9
:100220000D0A0000F76A340FF66E020EF72209007D
:10023000F5501200244744203C616464723E3C63E4
:10024000723E202009476574204432412072656760
:10025000697374657220636F6E74656E74730D0AD2
:100260000000F76A720FF66E020EF7220900F550D1
:100270001200244746203C616464723E3C63723E37
:100280002020094765742046504741207265676900
:100290007374657220636F6E74656E74730D0A00FB
:1002A000F76AB00FF66E020EF7220900F550120041
:1002B000244F54203C6F75747075743E3C63723EDD
:1002C000202009536574206469676974616C206F2C
:1002D00075747075747320746F204845582076616A
:1002E0006C75650D0A00F76AF60FF66E020EF722BE
:1002F0000900F55012002452443C63723E2020094C
:100300005265736574204432410D0A00F76A1C0F70
:10031000F66E030EF7220900F55012002453442014
:100320003C616464723E203C646174613E3C637273
:100330003E2020095365742044324120726567696C
:1003400073746572203C616464723E20746F203C5B
:10035000646174613E0D0A00F76A680FF66E030E61
:10036000F7220900F5501200245346203C616464D2
:10037000723E203C646174613E3C63723E20200901
:1003800053657420465047412072656769737465F0
:1003900072203C616464723E20746F203C6461741E
:1003A000613E0D0A0000F76AB60FF66E030EF722E3
:1003B0000900F55012004453203C646174612073BD
:1003C0006F7572653E3C63723E2020095365742050
:1003D0006461746120736F757273652028302D31EC
:1003E000290D0A00F76AF40FF66E030EF7220900D2
:1003F000F55012004450203C6461746120706F6CB1
:1004000061726974793E3C63723E202009536574C1
:10041000206461746120706F6C6172697479202846
:10042000302D31290D0A0000F76A380FF66E040EE0
:10043000F7220900F55012004445203C736574759D
:100440007020534F5150534B3E3C63723E20200965
:1004500053657420736574757020534F5150534B1E
:100460002028302D31290D0A0000F76A7A0FF66E28
:10047000040EF7220900F55012005250203C706F14
:100480007765722068696774683E3C63723E20201D
:100490000953657420706F776572206869677468A6
:1004A0002028302D31290D0A0000F76ABA0FF66EA8
:1004B000040EF7220900F55012005246203C706FDE
:1004C00077657220636F6D616E643E3C63723E209F
:1004D000200953657420706F77657220636F6D61BA
:1004E0006E642028302D31290D0A0000F76AFC0FB8
:1004F000F66E040EF7220900F55012005241203C1E
:1005000072616E646F6D697A65723E3C63723E2003
:10051000200973657420776974682F776974686F30
:1005200075742072616E646F6D697A65722028300F
:100530002D31290D0A00F76A460FF66E050EF722D7
:100540000900F55012004652203C667265717565CF
:100550006E63793E3C63723E2020095365742066C9
:1005600072657175656E63792028323230302E30B5
:100570002D323430302E30290D0A0000F76A8C0FEE
:10058000F66E050EF7220900F55012004D4F203C83
:100590006D6F64653E3C63723E2020095365742094
:1005A0006D6F64652028302D33290D0A0000F76A2D
:1005B000BE0FF66E050EF7220900F55012004943F2
:1005C000203C626974726174653E3C63723E202017
:1005D0000953657420626972746174652028312E34
:1005E00030302D33302E303044427073290D0A00E4
:1005F000F76A000FF66E060EF7220900F55012009A
:100600004944203C696E7465726E616C207061743F
:100610007465726E3E3C63723E20200953657420FF
:10062000696E7465726E616C207061747465726E4F
:100630002028302D33290D0A0000F76A4A0FF66E84
:10064000060EF7220900F55012005650203C706F3C
:10065000776572206C6576656C3E3C63723E202047
:100660000953657420706F776572206C6576656CD0
:10067000202832302D3430290D0A0000F76A8C0F03
:10068000F66E060EF7220900F5501200564C203C7B
:10069000706F77657220686967683E3C63723E20C0
:1006A0002009536574206869676820706F776572E8
:1006B000206C6576656C202832302D3430290D0A87
:1006C0000000F76AD20FF66E060EF7220900F55009
:1006D0001200564D203C6E65676174697665207026
:1006E0006F776572206C6576656C3E3C63723E2068
:1006F0002009536574206E656761746976652070A2
:100700006F776572206C6576656C0D0A0000F76A7C
:100710001E0FF66E070EF7220900F5501200564321
:10072000203C706F73657469766520706F776572B1
:10073000206C6576656C3E3C63723E2020095365F3
:100740007420706F73657469766520706F77657259
:10075000206C6576656C0D0A0000F76A6A0FF66E0C
:10076000070EF7220900F55012004353203C636C3A
:100770006F636B2070686173653E3C63723E20203E
:100780000953657420636C6F636B207068617365D7
:100790002028302D31290D0A0000F76AAA0FF66EC5
:1007A000070EF7220900F55012005554203C554120
:1007B00052542054696D653E3C63723E20200953BB
:1007C0006574207468652073746F702074696D653A
:1007D0002063757272656E742031352028302D3299
:1007E0003430290D0A00F76AF60FF66E070EF7226D
:1007F0000900F55012005553203C554152542053E6
:1008000074617475733E3C63723E202009536574B5
:100810002074686520426C6F636B2028302D31296D
:100820000D0A0000F76A340FF66E080EF722090071
:10083000F55012005356203C7361766520616C6C54
:100840003E3C63723E2020095361766520706172E0
:10085000616D65746572730D0000F76A6A0FF66E5C
:10086000080EF7220900F55012000D092048454CEA
:1008700050204C495354200D0000F76A8A0FF66E41
:10088000080EF7220900F55012000D0A4641554C9A
:10089000540D0A00F76AA40FF66E080EF72209003D
:1008A000F55012000D0A4641494C0D0A0000F76A46
:1008B000BE0FF66E080EF7220900F5501200204216
:1008C000413134313054582056332E330000F76A0A
:1008D000DE0FF66E080EF7220900F55012000D0A21
:1008E0000A4E4F2054454D502D5246204F4646202B
:1008F0000D0A0000F76A040FF66E090EF7220900D0
:10090000F55012000D0A0A4F4B2052657175657340
:100910007420537461747573200D0A0A0000F76A1D
:100920002E0FF66E090EF7220900F5501200474F00
:100930004F440000F76A440FF66E090EF7220900D3
:10094000F550120042414400F76A580FF66E090E46
:10095000F7220900F55012000D0A4F4B0D0A2A002C
:10096000F76A700FF66E090EF7220900F5501200B3
:100970000D0A0A425245414B0D0A00007E904EEF8F
:1009800000F00201716B70C20BF16FC20AF19E9808
:100990009D880001F3EF04F02668272A2F2A2F50A4
:1009A000610821E2322C1FD0FB2D1DD00101082D42
:1009B00002D009530AE00853D8B402D0000113D082
:1009C0000953D8B402D000010ED02F6A010E306E48
:1009D0000C2BD8B40D2B285307E10201706B180EB5
:1009E0006F6F0001CED70101282A2850090819E2AB
:1009F000286A2F2A292A2A682B2A2B50090811E253
:100A00002B6A2C682D2A2D5009080BE22D6A2E68BE
:100A1000312A0001FA51315C03E3316A010E326E72
:100A200001019E9200014EEF00F0F2924EEF00F0B5
:100A3000F0904EEF00F0AECF6FF2036A3450360FF5
:100A4000E96E000E0320EA6E6FC2EFFF342A3450C5
:100A50001F0801E2346A33501F0801E3332A9E9ACB
:100A60004EEF00F0040E0201705F0AE3020EEA6E20
:100A7000700EE96EEF5004E001D00000EF2EFDD7BC
:100A8000000112008C8A01010F6B0E6B0BC103F089
:100A90000A51D8B40B070A0703101DE08C8A0FC156
:100AA00003F00E510E2BD8B40F2B02016F6F100EF6
:100AB0006F25E96E010E0320EA6EEFCFADFF020E47
:100AC0006F6FF90E706F0001CDDF02016F2FF9D744
:100AD0008C9A0101DBD79D989E9800014EEF00F0A3
:100AE00024415220256C750D0000244350202575AB
:100AF0000D0024445220253032580D00200D0A24C8
:100B00005346202530325820253032580D00200D14
:100B10000A245344202530325820253032580D0005
:100B2000465220256C750D004D4F2025750D000097
:100B300044532025750D0000455252204453202572
:100B4000750D000044502025750D000045525220BF
:100B500044502025750D000044452025750D0000EA
:100B60004552522044452025750D00005250202545
:100B7000750D00004552522052502025750D000081
:100B800052462025750D0000455252205246202520
:100B9000750D0000524320256C750D005242202532
:100BA0006C750D0052412025750D000045525220F4
:100BB00052412025750D000055542025750D00006B
:100BC0004552522055542025750D000055532025BF
:100BD000750D00004552522055532025750D00001B
:100BE00049442025750D00004552522049442025D6
:100BF000750D0000494320256C750D0056452025D4
:100C0000732049443D2530326C752044543D2530D5
:100C1000326C75253032750D0000565020256C75EC
:100C20000D00564D20256C750D00564320256C7522
:100C30000D0043532025750D0000455252204353AB
:100C40002025750D000043502025750D00004552EC
:100C5000522043502025750D00000A475020256C76
:100C6000750D0A000D54454D503D25362E326664F3
:100C700065670D0A4F4B0A000D0A49443D256C7506
:100C80002044543D2530326C75253032750D0000FE
:100C90000D0A0A465245513D256C752C2052455689
:100CA0003D25732C20464657523D256C752C204916
:100CB000433D256C752E256C754D6270732C204D4F
:100CC0004F3D25752C2043533D25752C2052463D24
:100CD000256C750D00000D0A0A44453D25752C2034
:100CE00052413D25752C2044503D25752C205250F5
:100CF0003D256C752C2044533D25752C2049443DE1
:100D000025752C20564C3D256C752C2052423D25D6
:100D10006C752C2052433D256C752C2043503D258D
:100D2000750D00000D0A0A55543D25752C205553AC
:100D30003D25750D0000896A8A6A8B6A8C6A8D6A06
:100D4000E10E926EC10E936EF10E946E8E0E956E44
:100D50009680968296949686CEEF06F00101746B8B
:100D6000336A33C035F035C034F0566A9D8A0001CD
:100D70001200480E0509BA6E630EBB6EB46AB16A02
:100D8000000E05090F01516F630E526F4D6B4E6BD4
:100D9000000E4A6F000E4B6F0001CDD7C150F00B13
:100DA000C16E210E0F01386F030E3C6F000E396FBC
:100DB0003A6F3B6FC050C00B2509C06EC08EC28019
:100DC000776A040E786E796E0001C8DF9D82C00ECE
:100DD000F212EDEF32F0020EEA6E3F0EE96EEF50C6
:100DE0000EE0050E016E006A002EFED7012EFBD725
:100DF0002E0E006E002EFED700D0EF2EF2D712007E
:100E000002012F51036E2E51D8B42F072E07031065
:100E10001FE02D51036E2C512C2BD8B42D2BE96ED5
:100E200003C0EAFF2B51036E2A512A2BD8B42B2B77
:100E3000326F03C033F2F2CF34F2F29E32C2A9FF16
:100E4000A69CA69EA680A85034BFF28EEF6ED9D77E
:100E5000000144EF07F0016603D0026602D007D01C
:100E6000022A00C0EEFF012EFCD7022EFAD751EF66
:100E700007F002012B6B2A6B2D6BAA0E2C6F2F6BC8
:100E8000540E2E6F0001BCD7B13D01D002D0B23D4F
:100E900008D0EA6AAA0EE96E006A026A540E016E70
:100EA000DAD71200899402012E5302E0898801D01A
:100EB00089988986040E006E002EFED700D0899690
:100EC000040E006E002EFED700D089988986040E8D
:100ED000006E002EFED700D08996040E006E002E04
:100EE000FED700D08986040E006E002EFED700D0FB
:100EF0008996040E006E002EFED700D08986040E5F
:100F0000006E002EFED700D08996040E006E002ED3
:100F1000FED700D08986000B006E3051020B036EA5
:100F20000050031002E0898801D08998040E006EF9
:100F3000002EFED700D08996040E006E002EFED73C
:100F400000D08986000B006E3051010B036E0050FB
:100F5000031002E0898801D08998899689862F51EB
:100F6000800B006E036A0050031002E0898801D0F4
:100F70008998040E006E002EFED700D08996040ECC
:100F8000006E002EFED700D089862F51400B006ED8
:100F9000036A0050031002E0898801D08998040E8A
:100FA000006E002EFED700D08996040E006E002E33
:100FB000FED700D089862F51200B006E036A0050A7
:100FC000031002E0898801D08998899689862F517B
:100FD000100B006E036A0050031002E0898801D0F4
:100FE0008998040E006E002EFED700D08996040E5C
:100FF000006E002EFED700D089862F51080B006EA0
:10100000036A0050031002E0898801D0899889960C
:1010100089862F51040B006E036A0050031002E012
:10102000898801D08998040E006E002EFED700D06A
:101030008996040E006E002EFED700D089862F51AF
:10104000020B006E036A0050031002E0898801D091
:101050008998899689862F51010B006E036A00508A
:10106000031002E0898801D08998040E006E002EDA
:10107000FED700D08996040E006E002EFED700D059
:101080008986040E006E002EFED700D089968986D0
:10109000040E006E002EFED700D0040E006E002E4F
:1010A000FED700D08996040E006E002EFED700D029
:1010B0008984040E006E002EFED700D08992040EA3
:1010C000006E002EFED700D08982040E006E002E26
:1010D000FED700D00001120002014C6B4D6B010ED7
:1010E0004E6FDA6AD96A020E516F440E506F020ECB
:1010F000EA6E480EE96E51C2E2FF50C2E1FF4EC2F5
:101100004FF2D890E550EE02F3504C23F4504D23AB
:101110004F2FF7D74CC2DEFF4DC24CF24D6BD8B00B
:101120004D2B502BD8B4512B4E2B4E510508DFE1DF
:1011300000011200D8B204D0020EEA6E500EE96E21
:10114000006A016A026A036A0201506B516B526BBA
:10115000536B4F514E114D114C112CE0200E546F1A
:10116000D890483749374A374B375037513752377D
:1011700053374F51535D08E14E51525D05E14D51DA
:10118000515D02E14C51505D0FE34C51505F4D51A8
:10119000D8A04D3D515F4E51D8A04E3D525F4F51AA
:1011A000D8A04F3D535FD880003601360236033653
:1011B000542FD6D750C2EFFF51C2ECFF52C2ECFF02
:1011C00053C2ECFF0001120002013F6B3E6B3D6B0E
:1011D000020E3C6F04003B6B3A6B33C239F232C2F1
:1011E00038F201013C6B950E3B6F3A6B3C0E396F48
:1011F00002013351540812E2FF0A03E13251EF08B1
:101200000DE23F6B3E6B3D6B010E3C6F01013C6B91
:10121000850E3B6F3A6B3C0E396F020104003BC2F6
:1012200047F23AC246F239C245F238C244F23FC2EE
:101230004BF23EC24AF23DC249F23CC248F20001C2
:101240004BDF03C043F202C042F201C041F200C0D2
:1012500040F203C047F202C046F201C045F200C0AE
:1012600044F202014B6B4A6B496B640E486F0001FC
:1012700033DF03C03BF202C03AF201C039F200C0D2
:1012800038F20400D8923BC24BF23AC24AF239C259
:1012900049F238C248F202014F6B4E6B270E4D6F78
:1012A000100E4C6F000146DF03C02CF102C02BF181
:1012B00001C02AF100C029F104002CC147F22BC162
:1012C00046F22AC145F229C144F202014B6B4A6B36
:1012D000270E496F100E486F0001FEDE005002011C
:1012E000385D406F01503959416F02503A59426F91
:1012F00003503B59436F476B466B456B640E446F1D
:101300003FC24BF23EC24AF23DC249F23CC248F2F1
:101310000001E2DE03C047F202C046F201C045F21E
:1013200000C044F2D89243C24BF242C24AF241C2D8
:1013300049F240C248F203C04FF202C04EF201C06F
:101340004DF200C04CF2F6DE03C030F102C02FF1C6
:1013500001C02EF100C02DF1D89202014B6B4A6BF7
:10136000496B640E486F3FC24FF23EC24EF23DC21F
:101370004DF23CC24CF20001DDDE03C043F202C07C
:1013800042F201C041F200C040F202010034006E9E
:101390000134016E0234026E0334036E00360136EE
:1013A000023603360036013602360336F80E0016D2
:1013B000080E0324436F010E00240101316F000E5B
:1013C000020101200101326F000E02010220010121
:1013D000336F000E020143210101346F0400010E3E
:1013E00002013427D8B0352BD8B4362BD8B4372BDC
:1013F00000011200080E02013C6F3C531EE03BAF9F
:1014000002D08B8601D08B960C0E006E002EFED77C
:1014100000D000008B840C0E006E002EFED700D092
:1014200000008B94200E006E002EFED700D000002E
:101430003C513C07D8903B37E0D78B968B9400010A
:1014400012000400F29CF29EF2BEFDD739C23AF2BD
:1014500039C23BF2CFDF38C23AF238C23BF2CADFC0
:1014600037C23AF237C23BF2C5DF36C23AF236C271
:101470003BF2C0DF340E006E002EFED700D000001D
:101480008B82060E006E002EFED700008B928B968C
:10149000C00EF212040012000201376B010129355F
:1014A0000201386F01012A350201396F01012B3524
:1014B00002013A6F383739373A37383739373A37E0
:1014C000383739373A37383739373A37383739379D
:1014D0003A37383739373A37800E381701012D350A
:1014E000006E2E35016E2F35026E3035036E0036DC
:1014F0000136023603360036013602360336F80E60
:101500000016005002013725326F01503821336F29
:1015100002503921346F03503A21356F35C238F10A
:1015200034C237F133C236F132C235F1040035C26C
:1015300039F234C238F233C237F232C236F2000125
:1015400080DF1A0E006E002EFED70000040034C1AA
:1015500039F233C138F232C137F231C136F271DFBC
:101560001A0E006E002EFED7000004003CC139F2B6
:101570003BC138F23AC137F239C136F262DF1200AC
:101580008A940C0E006E002EFED700D000000201DF
:101590003F513F07000A22E041C203F04051402B77
:1015A000D8B4412BE96E03C0EAFFEFCF42F2436BA0
:1015B0004351070812E342AF02D08C8801D08C98C7
:1015C00000D000D08C8000D000D08C9000D000D013
:1015D0004351432BD8904237EBD7DAD70C0E006E2D
:1015E000002EFED700D000008A8400011200020104
:1015F000326B0001AF39006EF00E00160050AE11D4
:1016000002013B6F0001B039006E0036E00E00169B
:10161000005002013B130001B439006E0036003661
:10162000C00E0016005002013B13006A0001B6B163
:10163000008E005002013B11336F020E3F6F416F6D
:10164000320E406F00019CDF1200060E0201326F65
:10165000D8900001B235B11102013B6F0001B335E2
:10166000006E0036FC0E0016005002013B11336F75
:10167000020E3F6F416F320E406F000181DF12009A
:10168000B60E006E036A026A016A02014F515011E0
:101690005111521102E1006A0DD0D89001BE09D05B
:1016A0004F37503751375237033602360136002E46
:1016B000F4D7019E0001B1EF0CF002014F51D8B4F4
:1016C000A5D05B6F5351D8B4A1D05B5F05E37F0E0B
:1016D0005B27D8B09BD006D0810E5B5FD8A096D098
:1016E000D8B494D05BC200F0016A026A036A5A6BF4
:1016F00050C259F2598F51C258F252C257F2190EC4
:101700005B6F5651575F0DE2010E585F0AE2595F59
:1017100008E25A5F06E25A2B592B582B565157278D
:1017200028D05551585F12E2010E595F0FE25A5FFF
:101730000DE25A2B592B555158275651572719E36B
:10174000582B17E1592B15E15A2B13D0545180090E
:10175000595F0EE2010E5A5F0BE25A2B5451800979
:10176000592755515827E9E3592BE7E15A2BE5D77B
:1017700003805B2F01D00BD0D8905737583759379B
:101780005A37D8900336023601365C37BAD75CA197
:1017900006D0D8900132023203325C3302D0000608
:1017A00035E05CBF1ED0D8905737583759375A3775
:1017B0005651575F07E2010E585F04E2595F02E29B
:1017C0005A5F1AE35551585F05E2010E595F02E274
:1017D0005A5F12E354518009595F03E2010E5A5FC8
:1017E0000BE3032A09E1022A07E1012A05E1002AA5
:1017F0000DE001320232033250C25BF254515B1BE6
:101800005BAF02D0018E06D0019E04D0006A016A4F
:10181000026A036A0001120002014F51D8B471D06C
:10182000006E5351D8B46DD0002604E3810E00261B
:1018300068E204D07F0E005E64E363E050C257F2BA
:101840005451571B508F548F52515603F4CF59F2B5
:1018500051515503F4CF03F0F3CF58F25603F35030
:101860005927F4505823000E032252515503F350C8
:101870005927F4505823000E026A032202225051C5
:101880005603F3505827F4500322000E0222505101
:101890005503F3500326F4500222000E016A012280
:1018A00052515403F3505827F4500322000E0222E1
:1018B000012251515403F3500326F4500222000E2A
:1018C000012250515403F3500226F4500122002A01
:1018D00001BE05D058370336023601360006000E29
:1018E00058AF0AD0032A02220122015005E102501A
:1018F00003E1035001E1002A57BF018E57AF019E5B
:1019000004D0006A016A026A036A0001120002013F
:101910004F51B6084F6F036A50C253F2508FD890A0
:1019200050335133523303320232013200324F2FDF
:10193000F6D753AF0BD0001E011E021E031E002A55
:10194000D8B4012AD8B4022AD8B4032A000112005C
:1019500046C252F245C251F244C250F243C24FF263
:101960008FD603C04AF202C049F201C048F200C05B
:1019700047F24AC252F249C251F248C250F247C23B
:101980004FF2C00E0201566FE10E556F640E546F98
:101990009A0E536F000191DE03C04EF202C04DF269
:1019A00001C04CF200C04BF24EC252F24DC251F295
:1019B0004CC250F24BC24FF20201566B556B546B46
:1019C0008F0E536F000128DF03C04EF202C04DF2AC
:1019D00001C04CF200C04BF24EC252F24DC251F265
:1019E0004CC250F24BC24FF20201566B556B546B16
:1019F0008F0E536F000110DF03C04EF202C04DF294
:101A000001C04CF200C04BF24EC252F24DC251F234
:101A10004CC250F24BC24FF27ADF03C052F202C006
:101A200051F201C050F200C04FF2010E0201005C01
:101A3000006E000E0158016E000E0258026E000E7C
:101A40000358036E000112000201426B416BABC0F0
:101A500040F2AAC03FF242C247F241C246F2ABC0D6
:101A600045F2AAC044F24B6B4A6B270E496F100E29
:101A7000486F00016CEC08F003C042F202C041F272
:101A800001C040F200C03FF203C046F202C045F27E
:101A900001C044F200C043F25BDF03C03EF202C06B
:101AA0003DF201C03CF200C03BF2020E0201326F77
:101AB0003BC233F2020E3F6F416F320E406F0001A6
:101AC0005FDD0A0E02013F6F0001EBEC06F0030E32
:101AD0000201326F3CC233F2020E3F6F416F320E91
:101AE000406F00014DDD0A0E02013F6F0001EBEC7B
:101AF00006F0040E0201326F3DC233F2020E3F6F58
:101B0000416F320E406F00013BDD0A0E02013F6F54
:101B10000001EBEC06F0050E0201326F3EC233F21B
:101B2000020E3F6F416F320E406F000129DD0A0E39
:101B300002013F6F0001EBEC06F01200B9C02FF27A
:101B4000B8C02EF2050E02013F6F0001EBEC06F06B
:101B50002FC233F22EC232F2E4EC08F0050E02017D
:101B60003F6F0001EBEC06F097DC050E02013F6FC2
:101B70000001EBEC06F03BDD050E02013F6F0001BA
:101B8000EBEC06F062DD050E02013F6F0001EBECAD
:101B900006F05ADFABC031F2AAC030F2030E1F6E5E
:101BA000E80E1E6E1200243C03D0253C01D021D04B
:101BB0002CA61ED02C9602012E6B25C030F224C01C
:101BC0002FF2000152EC07F0140E016EC250830B8D
:101BD0000110C26E1A0E006E002EFED70000C282E7
:101BE000C2B2FED7C4CF2BF20201C3CF2AF200014A
:101BF000B0D183AE2DD0F4532BE1F55329E1AC2DB8
:101C000021D0AD531FE18C8C0101002BD8B4012BE6
:101C1000002D0BD0015309E18C8C320E02013F6F75
:101C20000001EBEC06F08ADF01010151E90808E24E
:101C3000FF0A03E10051600803E2016B020E006F2E
:101C400005D000018C9C0101016B006B2ED00001BE
:101C500083BE2CD0F4532AE1F55328E1AC2D08D0F3
:101C6000AD5306E18C9C0101016B006B06D00001B5
:101C70008C8C0101002BD8B4012B002D0BD001530B
:101C800009E18C8C320E02013F6F0001EBEC06F093
:101C900055DF01010151E90808E2FF0A03E10051A3
:101CA000600803E2016B020E006F000183BE37D0B3
:101CB000F42D35D0F55333E1AC2D20D0AD531EE1DA
:101CC0008C8C0101022BD8B4032B022D0BD00353B3
:101CD00009E18C8C3C0E02013F6F0001EBEC06F039
:101CE0002DDF01010351E90808E2FF0A03E1025177
:101CF000600803E2036B020E026F0001AC530EE1B9
:101D0000AD530CE18C9C02012E6B306B2F6B0001EC
:101D100052EC07F00101036B026B000145D083AE6A
:101D200043D0F42D41D0F5533FE1AC2D0ED0AD534F
:101D30000CE18C9C02012E6B306B2F6B000152EC7E
:101D400007F00101036B026B0001AC5313E1AD53CB
:101D500011E10101022D0ED003530CE18C8C3C0EDD
:101D600002013F6F0001EBEC06F0E8DE0101022BFF
:101D7000D8B4032B0101022D0BD0035309E18C8C45
:101D8000320E02013F6F0001EBEC06F0D7DE0101DD
:101D90000151E90808E2FF0A03E10051600803E28B
:101DA000036B020E026F0001B95158080FE303E103
:101DB000B85129080BE3010E02012E6FBEC030F2AC
:101DC000BDC02FF2000152EC07F01CD0B9515A08E7
:101DD0000FE303E1B851F9080BE3010E02012E6F86
:101DE000C0C030F2BFC02FF2000152EC07F00AD0A1
:101DF000010E02012E6FC2C030F2C1C02FF20001ED
:101E000052EC07F0140E016EC250830B0110C26E2B
:101E10001A0E006E002EFED70000C282C2B2FED79C
:101E2000C4CF2BF20201C3CF2AF20001F62D27D036
:101E3000F75325E183A409D0F82D07D0F95305E124
:101E40001DC02DF21CC02CF21AD083A409D0F85367
:101E500007E1F95305E11BC02DF21AC02CF20FD097
:101E600083B409D0F85307E1F95305E11DC02DF201
:101E70001CC02CF204D01BC02DF21AC02CF2F65359
:101E800027E1F75325E183A409D0F85307E1F9537B
:101E900005E11DC02DF21CC02CF21AD083B409D06C
:101EA000F82D07D0F95305E11DC02DF21CC02CF20E
:101EB0000FD083A409D0F82D07D0F95305E11BC03A
:101EC0002DF21AC02CF204D01BC02DF21AC02CF235
:101ED000060E02012C25016E000E2D21036E03500B
:101EE0002B5D04E312E12A51015C0FE3060E2C5D29
:101EF000006E000E2D59036E00C001F02B51035CE3
:101F000029E303E101502A5D25E22B512D5D0EE30B
:101F100003E12C512A5D0AE21F5203E11E5095088D
:101F200004E2030E1E5E000E1F5A0BD01F50030862
:101F300008E303E11E50F20804E3030E1E26000E20
:101F40001F222E6B1FC030F21EC02FF2000152EC78
:101F500007F00201000112000101B76B050EB66F18
:101F6000B751050836E3B651040DF350036A00017A
:101F700075EC00F00900F5CF01F00900F5CF02F093
:101F80000900F5CF03F003C0B5F102C0B4F101C000
:101F9000B3F1E8CFB2F1B6C100F0016A026A036A98
:101FA00000500101B2130150B3130250B413035097
:101FB000B513B5C139F2B4C138F2B3C137F2B2C109
:101FC00036F2000121EC0AF00101B751B72BB60738
:101FD000C7D7FA0E02013F6F0001EBEC06F0B5C166
:101FE00039F2B4C138F2B3C137F2B2C136F221ECE2
:101FF0000AF0FA0E02013F6F0001EBEC06F028EF49
:1020000033F09D9A8C8A840E006E002EFED700D08D
:10201000000002016B6B69C203F068C2E9FF69C28C
:10202000EAFFEF5246E069C203F06851682BD8B46A
:10203000692BE96E03C0EAFFEFCF6AF26A51090823
:1020400016E06AC2ADFF6B2B020E6D6F196AF2BE0D
:10205000198EF29E950E706F000132EC05F019BEDC
:10206000F28E02016D2FF2D7AECF6AF221D0200E90
:102070006C6F6C516B5D03E3020E6B256C6F6C51E2
:102080006B5D16E2200EAD6E6B2B020E6D6F196A42
:10209000F2BE198EF29E950E706F000132EC05F0C3
:1020A00019BEF28E02016D2FF2D7AECF6AF2E7D7DA
:1020B000B2D7840E006E002EFED700D000008C9A9E
:1020C000AECF6AF29D8A000112000101B86BB86BB5
:1020D000000E0001B6B1010E006E00360036FC0E97
:1020E000001600500101B827000E0001AFB1010E2B
:1020F000006E003600360036F80E00160050010162
:10210000B827000E0001B1B1010E006E003AF00ECA
:10211000001600500101B827000E0001B4B1010EF5
:10212000006E003A0036E00E001600500101B8279C
:10213000000E0001B0B1010E006E003A003600360C
:10214000C00E001600500101B827000E0001B2B108
:10215000010E006E0030006AD8B0008E0050010100
:10216000B827036AB8C101F003C002F00001A4EF70
:1021700013F001010551020806E303E1045144088C
:1021800002E39E9101D09E81B86BB86B000E9EB1A8
:10219000010E006E00360036FC0E00160050B82707
:1021A000000E0001FBB1010E006E00360036003655
:1021B000F80E001600500101B827000E0001F8B11A
:1021C000010E006E003AF00E001600500101B82713
:1021D000000E0001ACB1010E006E003A0036E00EB8
:1021E000001600500101B827000E0001F6B1010EE3
:1021F000006E003A00360036C00E00160050010195
:10220000B827000E0001F4B1010E006E0030006A24
:10221000D8B0008E00500101B827036AB8C101F0A0
:1022200003C002F00001A7EF13F08E0E006EC1C1D3
:1022300001F0C0C102F0036A01AE05D0011E021E0A
:10224000022A01E1012A015209E102C001F0026AF9
:10225000080E005E015202E1006A0DD0D89001BE66
:1022600004D0023601360006F9D70101C1AF02D011
:10227000000101D0019E0001B2EF12F0800ED8A241
:1022800002D002012F1B0201346B356B2BC233F2DB
:102290002F51331B2A51D8B4DFD0326F006E2E512C
:1022A000D8B4E3D0325FD8B483D03EE32FC238F243
:1022B000388F30C237F231C236F2356BD8903833AE
:1022C000373336333533322FF8D733AF03D0348139
:1022D000E0D0349132913489020EEA6E2D0EE96E0F
:1022E000EBD0349933BF0AD032A113D0383337330F
:1022F00036333533002AD8B4C7D00BD038BF0CD012
:10230000D89035373637373738370006D8B4BCD091
:10231000F5D7348D6DD0349D2BC233F22BAF02D064
:10232000388FABD0389FA9D02EC232F22EC200F027
:102330002A51325F2BC238F2388F2CC237F22DC2AD
:1023400036F2356BD8903833373336333533322F56
:10235000F8D733AF03D034839CD034933291348B8D
:10236000020EEA6E310EE96EA7D0349B33BF0AD05D
:1023700032A113D03833373336333533002AD8B44B
:1023800083D00BD038BF0CD0D8903537363737379D
:1023900038370006D8B478D0F5D7348F29D0349F99
:1023A0002FC233F22FAF02D0388F67D0389F65D05D
:1023B0002FC238F2388F30C237F231C236F233AF23
:1023C00004D0389F348565D03495356B3291020E38
:1023D000EA6E2D0EE96E70D033BF1CD02BC233F2E3
:1023E00032A106D03833373336333533002A4CE048
:1023F00035AF0BD0362B09E1372B07E1382B05E140
:10240000383337333633002A3FE034BD84D734BF06
:10241000C6D71CD0800E381B38AF04D03AD02FC29C
:1024200033F20AD02BC233F2385306E1375304E1BA
:10243000365302E1006A21D038BF08D0D890353732
:10244000363737373837002EF7D71ED033AF02D0A4
:10245000388F13D0389F11D02EC200F02FC238F21F
:1024600030C237F231C236F208D02AC200F02BC295
:1024700038F22CC237F22DC236F238C201F037C220
:1024800002F036C203F034D0006A016A026A036ABD
:102490002FD0356B361F371F381F351F352B05E101
:1024A000362B03E1372B01E1382B34B112D734B38B
:1024B00054D734B589D7B3D7EF50362705E3372B38
:1024C00003E1382BD8B43281ED52EF50372703E3C4
:1024D000382BD8B43281ED52EF50EFBE01D0800AD4
:1024E0003827D8B0328134B9FCD634BB3ED774D744
:1024F000000112008E0E006E0101C051005EC1C1CC
:1025000002F0C2C101F0028E005209E0D8900252DE
:1025100002E1015204E002320132002EF7D7C1AFCE
:1025200005D0011E021E012AD8B4022A000157EF6D
:1025300013F0180E016EC250830B0110C26E420ED2
:10254000006E002EFED70000C282C2B2FED7C4CFFA
:10255000BFF10101C3CFBEF1BFC1C1F1BEC1C0F126
:10256000000163D600C0C0F101C0C1F102C0C2F1D8
:1025700003C0C3F103C052F202C051F201C050F2D5
:1025800000C04FF20201566B556B546B890E536FAE
:1025900000015DEC0BF000C0C0F101C0C1F102C050
:1025A000C2F103C0C3F103C052F202C051F201C034
:1025B00050F200C04FF2330E0201566F556F530EAA
:1025C000546F800E536F00010CEC0CF003C0BBF194
:1025D00002C0BAF101C0B9F100C0B8F1D882BBC1E4
:1025E0002DF2BAC12CF2B9C12BF2B8C12AF2020104
:1025F000316B306B400E2F6F7E0E2E6F00013EDE72
:1026000003C0BBF102C0BAF101C0B9F100C0B8F11A
:10261000BBC152F2BAC151F2B9C150F2B8C14FF2C6
:102620000201566B556B480E546F850E536F0001B7
:102630000CEC0CF003C0BBF102C0BAF101C0B9F15F
:1026400000C0B8F1D892BBC12DF2BAC12CF2B9C109
:102650002BF2B8C12AF20201316B306B480E2F6F9A
:10266000830E2E6F00010ADE03C0BBF102C0BAF177
:1026700001C0B9F100C0B8F1BBC152F2BAC151F208
:10268000B9C150F2B8C14FF20201566B556B480EFA
:10269000546F850E536F00010CEC0CF003C0C3F1B6
:1026A00002C0C2F101C0C1F100C0C0F123D702C015
:1026B000BDF101C0BCF10101BCC101F0BDC102F01E
:1026C0000001AAEF13F00101B951BB19800BBD6FD6
:1026D000B9AF05D0B81FB91FB82BD8B4B92BBBAF51
:1026E00005D0BA1FBB1FBA2BD8B4BB2B016A026A34
:1026F000006A036ABB5102E1BA5118E0100EBC6FC8
:10270000D890B837B93700360336BB51035C02E1C5
:10271000BA51005C07E3BA51005ED8A00306BB5172
:10272000035ED88001360236BC2FEAD7BDAF05D094
:10273000011E021E012AD8B4022A00011200010162
:10274000B36BB26B0001C1D401C0B6F112D501C0A8
:10275000B7F1EFD602C007F101C006F1FB0E01018F
:10276000106F600E116F0CC112F1B9C013F1B8C037
:1027700014F10101AEC015F1B6C116F107C1B9F1EE
:1027800006C1B8F1010EBB6FBA6B00019CDF01C03E
:1027900017F1010107C1B9F106C1B8F1010EBB6F14
:1027A000BA6B000190DF00C018F10101ABC019F154
:1027B000AAC01AF10101140E0001BA2501011B6F14
:1027C000B3C01CF1B7C11DF1FCC01EF1FDC01FF16B
:1027D000AA0E206F216FF1C022F1F0C023F1010198
:1027E000AA0E246F256FB56BB46BB55311E1B451CC
:1027F00016080EE3100EB425E96E010EB521EA6E3F
:10280000EF50B227000EB323B42BD8B4B52BEDD7BD
:10281000B3C126F1B2C127F10001A9EF33F0036A79
:102820003550360FE96E000E0320EA6EEFCFCBF184
:102830000101352A35501F0801E2356A335201E0A3
:102840003306CBC101F000011200036A01013D51C2
:10285000580FE96E000E0320EA6E036AEFCF01F015
:1028600003C002F00001120001013D513D2B036A3B
:10287000580FE96E000E0320EA6E036AEFCF01F0F5
:1028800003C002F000011200036A01013D51580F1C
:10289000E96E000E0320EA6EEF5218E0036A3D5124
:1028A000580FE96E000E0320EA6EEF502C080AE084
:1028B000036A3D51580FE96E000E0320EA6EEF5097
:1028C000200804E13D2B0001DFD7010100011200C7
:1028D000020137513919800B3B6F37AF05D0361FD6
:1028E000371F362BD8B4372B39AF05D0381F391FD7
:1028F000382BD8B4392B36513803F3CF01F0F4CF4D
:1029000000F03903F350002637513803F35000200C
:10291000026E3BAF05D0011E021E012AD8B4022A66
:10292000000112000201356B010E346F0001ACDFB3
:10293000036A01013D51580FE96E000E0320EA6E53
:10294000EF5244E00201336B326B00017EDF02C0C4
:1029500037F201C036F2020101502D0807E137536A
:1029600005E13569346900017FDF0201036A010175
:102970003D51580FE96E000E0320EA6EEFCF36F29C
:10298000020136512F0822E2365139081FE333C2C3
:1029900037F232C236F2396B0A0E386F000198DF17
:1029A00002C037F201C036F201013D513D2B036AEE
:1029B000580FE96E000E0320EA6E300EEF5C020144
:1029C0000124326F000E0220336FD0D733C237F2AA
:1029D00032C236F235C239F234C238F2000178DF41
:1029E00002C003F002C002F012000D0E02012A6FB5
:1029F0000A0E2B6F2C6F2D6B020E696F2A0E686FFB
:102A0000000101EC10F0020EEA6E2A0EE96E2E0EA5
:102A1000016EF76A000ED3EC01F00A000900F5CF51
:102A2000EEFF012EFBD7020E0201696F2A0E686FBE
:102A3000000101EC10F0020EEA6E2A0EE96E330E70
:102A4000016EF76A000EF2EC01F00A000900F5CF02
:102A5000EEFF012EFBD7020E0201696F2A0E686F8E
:102A6000000101EC10F0020EEA6E2A0EE96E310E42
:102A7000016EF76A000E14EC02F00A000900F5CFAF
:102A8000EEFF012EFBD7020E0201696F2A0E686F5E
:102A9000000101EC10F0020EEA6E2A0EE96E2F0E14
:102AA000016EF76A000E35EC02F00A000900F5CF5E
:102AB000EEFF012EFBD7020E0201696F2A0E686F2E
:102AC000000101EC10F0020EEA6E2A0EE96E310EE2
:102AD000016EF76A000E55EC02F00A000900F5CF0E
:102AE000EEFF012EFBD7020E0201696F2A0E686FFE
:102AF000000101EC10F0020EEA6E2A0EE96E3A0EA9
:102B0000016EF76A000E76EC02F00A000900F5CFBC
:102B1000EEFF012EFBD7020E0201696F2A0E686FCD
:102B2000000101EC10F0020EEA6E2A0EE96E350E7D
:102B3000016EF76A000E9BEC02F00A000900F5CF67
:102B4000EEFF012EFBD7020E0201696F2A0E686F9D
:102B5000000101EC10F0020EEA6E2A0EE96E210E61
:102B6000016EF76A000EBEEC02F00A000900F5CF14
:102B7000EEFF012EFBD7020E0201696F2A0E686F6D
:102B8000000101EC10F0020EEA6E2A0EE96E320E20
:102B9000016EF76A000ED7EC02F00A000900F5CFCB
:102BA000EEFF012EFBD7020E0201696F2A0E686F3D
:102BB000000101EC10F0020EEA6E2A0EE96E390EE9
:102BC000016EF76A000EF8EC02F00A000900F5CF7A
:102BD000EEFF012EFBD7020E0201696F2A0E686F0D
:102BE000000101EC10F0020EEA6E2A0EE96E310EC1
:102BF000016EF76A000E1DEC03F00A000900F5CF24
:102C0000EEFF012EFBD7020E0201696F2A0E686FDC
:102C1000000101EC10F0020EEA6E2A0EE96E350E8C
:102C2000016EF76A000E3EEC03F00A000900F5CFD2
:102C3000EEFF012EFBD7020E0201696F2A0E686FAC
:102C4000000101EC10F0020EEA6E2A0EE96E3B0E56
:102C5000016EF76A000E61EC03F00A000900F5CF7F
:102C6000EEFF012EFBD7020E0201696F2A0E686F7C
:102C7000000101EC10F0020EEA6E2A0EE96E3B0E26
:102C8000016EF76A000E87EC03F00A000900F5CF29
:102C9000EEFF012EFBD7020E0201696F2A0E686F4C
:102CA000000101EC10F0020EEA6E2A0EE96E2F0E02
:102CB000016EF76A000EADEC03F00A000900F5CFD3
:102CC000EEFF012EFBD7020E0201696F2A0E686F1C
:102CD000000101EC10F0020EEA6E2A0EE96E3C0EC5
:102CE000016EF76A000ECDEC03F00A000900F5CF83
:102CF000EEFF012EFBD7020E0201696F2A0E686FEC
:102D0000000101EC10F0020EEA6E2A0EE96E2D0EA3
:102D1000016EF76A000EF3EC03F00A000900F5CF2C
:102D2000EEFF012EFBD7020E0201696F2A0E686FBB
:102D3000000101EC10F0020EEA6E2A0EE96E250E7B
:102D4000016EF76A000E12EC04F00A000900F5CFDC
:102D5000EEFF012EFBD7020E0201696F2A0E686F8B
:102D6000000101EC10F00D0E02012A6F0A0E2B6F0C
:102D70002C6B020E696F2A0E686F000101EC10F0D7
:102D800050EF29F0A0C1EAFF9FC1E9FF020139C25B
:102D9000EFFFE92AD8B4EA2AEF6A01019F2BD8B4E1
:102DA000A02B000112000900F6CF31F2F7CF32F26A
:102DB000F5CF39F2E7DF31C2F6FF32C2F7FF020189
:102DC000302F01D002D00001EED700011200EACF6F
:102DD00038F2E9CF37F202013139F009336F332786
:102DE000E20F346F320F366F31510F0B3427342717
:102DF0003627E90F356F3527352730390F0B352743
:102E0000362735373637361F363730510F0B3627D2
:102E10003337070E326F0A0E35073627FDE33407C6
:102E20003527FDE333073427FDE332073327FDE37E
:102E3000020EEA6E320EE96E070E3715379DE9264F
:102E4000360EE95CD8B4378DEF50006E08E137BD1F
:102E500006D037B915D037B702D0200E03D0378748
:102E60003799300E0026EACF31F2E9CF30F200C0B8
:102E700039F2000187DF31C2EAFF30C2E9FF020107
:102E8000EE5037ADDDD7000112004CDD02C02DF24F
:102E900001C02CF202C037F201C036F20201396BD8
:102EA0000A0E386F000114DD02C02BF2020101C0CE
:102EB0002AF20001CADC02C02DF201C02CF202018C
:102EC00001502E0810E12D530EE10001CDDCCCDCC9
:102ED000300E0201015C006E000E0258036E0050BD
:102EE0002A2703502B232AC201F02BC202F0000133
:102EF000120002013351016A325D03E232C200F076
:102F00000CD0006A080E346F323700363351005C43
:102F1000D8B0006E0136342FF7D7000112000150EF
:102F200030C232F2640E0201336F0001E2DF00C0F2
:102F300030F20150300E08E1020131A30FD031B759
:102F40000DD031B9200E04D0020131973199318171
:102F5000012601C039F2000115DF020130C232F250
:102F60000A0E336F0001C5DF00C030F20150300E91
:102F700008E1020131B70AD031A108D031B9200EE1
:102F80000001012601C039F2FDDE0201300E3027BA
:102F900030C239F20001F6DE120002012F51036E39
:102FA0002E51D8B42F072E0703102CE02B51036E9F
:102FB0002A512A2BD8B42B2B306F03C031F22D515C
:102FC000036E2C512C2BD8B42D2BE96E03C0EAFFD5
:102FD000EFCF32F2F250006EF29E30C2A9FF32C241
:102FE000A8FFA69CA69EA6840F01550EA76EAA0E4A
:102FF000A76EA682A6B2FED7A6940050F2120001D8
:10300000CCD70201000116EF18F0FE519F080EE127
:10301000FF510B080BE102012B6B2A6B2D6BAA0EE3
:103020002C6F2F6B540E2E6F0001B7D7FF6BFE6B0A
:10303000120078DC01C000F002C001F0026A036AED
:1030400003C02DF202C02CF201C02BF200C02AF204
:103050000BDC68DC01C000F002C001F0026A036A08
:1030600003C031F202C030F201C02FF200C02EF2D4
:1030700025EC14F002C033F201C032F2020101501B
:103080002E081DE133531BE1000134EC14F04ADC3F
:1030900001C000F002C001F0026A036A03C031F20D
:1030A00002C030F201C02FF200C02EF202012E51F8
:1030B0002A272F512B2330512C2331512D232DC260
:1030C00047F22CC246F22BC245F22AC244F24B6BA5
:1030D0004A6B496B640E486F00016CEC08F002010A
:1030E0002E5100240001AA6F02012F51012000017E
:1030F000AB6F24EC0DF0D7EF22F00900F5520CE095
:10310000F6CF2AF2F7CF2BF2F5CF39F23BDE2AC207
:10311000F6FF2BC2F7FFF1D71BEF23F003DC02C051
:103120002BF201C02AF22AC2FCF002012B5329E142
:103130002A51280826E32B5303E12A51130821E2E0
:10314000140E2A5D0001F26F000E02012B590001DE
:10315000F36FD890F235026EF335036E0250C30F51
:10316000E96E000E0320EA6EECCF03F0ED52EFCFD4
:103170001AF003C01BF0010E016E000E026E04D0A7
:103180000201000E016E026E00017BEF23F092EC53
:1031900014F002C02BF201C02AF22AC2FDF0020193
:1031A0002B5329E12A51280826E32B5303E12A5106
:1031B000130821E2140E2A5D0001BA6F000E02010D
:1031C0002B590001BB6FD890BA35026EBB35036E28
:1031D0000250C30FE96E000E0320EA6EECCF03F03D
:1031E000ED52EFCF1CF003C01DF0010E016E000E7A
:1031F000026E04D00201000E016E026E0001D0EFDB
:1032000023F08E0E006E2BC201F02AC202F0036A78
:10321000015209E102C001F0026A080E005E01528B
:1032200002E1006A08D0D89001BE04D0023601360F
:103230000006F9D7019EBCEF25F0E95002012F6F7F
:103240002E51316F1CE02DC252F22CC251F22BC212
:1032500050F22AC24FF2566B556B200E546F820EFD
:10326000536F00010CEC0CF003C02DF202C02CF2E5
:1032700001C02BF200C02AF20201312FE4D72DC287
:1032800052F22CC251F22BC250F22AC24FF200016C
:1032900087EC0CF003C02DF202C02CF201C02BF21F
:1032A00000C02AF202012DAF0DD02F072F8B2A1F4D
:1032B0002B1F2C1F2D1F2A2BD8B42B2BD8B42C2B13
:1032C000D8B42D2B3B0E366F9A0E356FCA0E346F65
:1032D000336B0A0E316F2E51D8B42F2BD882020EC9
:1032E000EA6E2A0EE96E2DC24BF22CC24AF22BC2B4
:1032F00049F22AC248F236C24FF235C24EF234C207
:103300004DF233C24CF200019AEC08F00150005229
:1033100013E102012E29315DD8A402D000010CD0A6
:103320002F510DE00F0B315D01E040E22FBF3ED089
:103330002FBD05D0200E34D0200E02012F172FAB49
:103340000ED02F9B2E51D8A42F0700502F6F2D0E7B
:10335000396F000117DD02012F51006E2F6B2E51C6
:10336000315D0CE100502F6F2E0E396F00010ADD28
:1033700002012F51006E200E2F17000E300E2FABC2
:103380000FD02F9B2E51D8A42F0700502F6F2D0E3A
:10339000396F0001F7DC02012F51006E2F6B300EE8
:1033A000002600C039F20001EDDC0201D89236C2DD
:1033B0004BF235C24AF234C249F233C248F24F6B83
:1033C0004E6B4D6B0A0E4C6F00019AEC08F003C077
:1033D00036F202C035F201C034F200C033F202010D
:1033E000312F7CD700016AEF26F0016A026A006A79
:1033F000036A0201315102E1305118E0100E326FC0
:10340000D8902E372F37003603363151035C02E156
:103410003051005C07E33051005ED8A00306315103
:10342000035ED88001360236322FEAD7000112003F
:10343000EF520FE0EACF31F2E9CF30F2EFCF39F2BD
:10344000A1DC31C2EAFF30C2E9FFE92AD8B4EA2A96
:10345000EFD7B0EF27F00101BE6BE86B020EBF6F34
:103460003D6B000125EC14F002C02BF201C02AF2E2
:10347000020101503A081FE12B531DE1000134EC19
:1034800014F092EC14F001C0F7F134EC14F002C027
:103490002BF201C02AF2020101503A0802E12B533B
:1034A00000E10101F7510001F05D02E1F15302E09A
:1034B00050EF29F00201000134EC14F002C02BF2AD
:1034C00001C02AF202012B5303E12A51600808E2ED
:1034D0002B5306E12A517A0803E32A51DF0B01D06E
:1034E0002A510101E96F000134EC14F002C02BF203
:1034F00001C02AF202012B5303E12A51600808E2BD
:103500002B5306E12A517A0803E32A51DF0B01D03D
:103510002A510101EA6F000144EC14F025EC14F08B
:1035200002C02BF201C02AF2020101500D0806E18F
:103530002B5304E1010E0101E86F02010101E95181
:103540004C0A000137E0680A57E06C0AD8B483D00F
:103550000E0AD8B4A4D00B0AD8B41DD1090AD8B425
:103560009DD1160AD8B421D3050AD8B4EDEF20F0C6
:10357000040AD8B4FCEF20F0060AD8B41BEF21F0FF
:103580001C0AD8B420EF22F01D0AD8B4DDEF22F0D7
:10359000020AD8B4EBEF22F0150AD8B44FEF24F0AA
:1035A000040AD8B456EF25F0160AD8B4B0EF26F0C6
:1035B00031EF29F00101EA51490A000103E0060A4E
:1035C00016E018D092EC14F002C009F201C008F223
:1035D00002010851B80806E10951440803E1010E4F
:1035E0000101286F010E01013F6F000103D00101AD
:1035F000286B000150EF29F00101285304E100017C
:1036000050EF29F00101EA51520822E1000192EC49
:1036100014F002C009F201C008F202010851B70813
:1036200003E10951440802E051EF29F001013E6B2A
:103630000D0E02010C6F0A0E0D6F0E6F2A0E0F6F2A
:10364000106B020E696F0C0E686F000101EC10F038
:10365000000150EF29F00101285304E1000150EF6F
:1036600029F00101020EEA6E110EE96E0F0E016ED5
:10367000F76A000E00012DEC04F00A000900F5CFF6
:10368000EEFF012EFBD7020E0201696F110E686F6B
:10369000000101EC10F0F5EF14F050EF29F00101FA
:1036A000285304E1000150EF29F00101EA51520AC8
:1036B000000101E06ED00101EA51520851E1E853E6
:1036C00026E0010EA06FC00E9F6F200EF66E0B0E4F
:1036D000F76E030E0201306F0001D3EC16F0100EEE
:1036E000E96EB9C031F2B8C030F2E7EC16F00D0E59
:1036F0000201396F0001C2EC16F0010E0201696F80
:10370000C00E686F000101EC10F028D0010100012B
:1037100045EC17F00101FB6BFA6B02C0F9F101C037
:10372000F8F1F9C1B9F0F8C1B8F0F9C12BF2F8C15C
:103730002AF2F9C133F2F8C132F20001E4EC08F0E8
:103740004CEC0AF0320E02013F6F0001EBEC06F088
:103750004CEC0AF0010E0101BE6F00011AD001010C
:10376000020EEA6E110EE96E0A0E016EF76A000E85
:1037700000013DEC04F00A000900F5CFEEFF012E38
:10378000FBD7020E0201696F110E686F000101EC98
:1037900010F050EF29F00101285304E1000150EF2F
:1037A00029F00101EA514F085DE1E85324E0010EE0
:1037B000A06FC00E9F6F280EF66E0B0EF76E030EF5
:1037C0000201306F0001D3EC16F0AEC030F21B0ED8
:1037D0000201316F00018FEC17F00D0E0201396FFD
:1037E0000001C2EC16F0010E0201696FC00E686F95
:1037F000000101EC10F0000192EC14F002C009F29B
:1038000001C008F2020109530DE1085103080AE35F
:1038100008C2AEF00001F7EC0AF0010E0101BE6F24
:1038200020D00201020EEA6E110EE96E090E016E41
:10383000F76A000E00014AEC04F00A000900F5CF17
:10384000EEFF012EFBD7020E0201696F110E686FA9
:10385000000101EC10F00101BE6B000150EF29F0F6
:10386000010119D0020EEA6E110EE96E090E016E09
:10387000F76A000E00014AEC04F00A000900F5CFD7
:10388000EEFF012EFBD7020E0201696F110E686F69
:10389000000101EC10F0000150EF29F00101285364
:1038A00004E1000150EF29F00101EA51530A00013F
:1038B00007E0030AD8B480D0150AD8B4F9D073D180
:1038C0000101E85326E0010EA06FC00E9F6F300E7D
:1038D000F66E0B0EF76E030E0201306F0001D3EC93
:1038E00016F0B2C030F21B0E0201316F00018FECF6
:1038F00017F00D0E0201396F0001C2EC16F0010E37
:103900000201696FC00E686F000101EC10F04FD02A
:103910000101000192EC14F002C009F201C008F2AA
:10392000020109530AE10851010807E308C2B2F095
:10393000000125EC0BF03BD00201020EEA6E110EE5
:10394000E96E090E016EF76A000E00014AEC04F000
:103950000A000900F5CFEEFF012EFBD7020E02018F
:10396000696F110E686F000101EC10F0010E01018A
:10397000A06F740E9F6F380EF66E0B0EF76E070E6B
:103980000201306F0001D3EC16F0B2C030F21B0E12
:103990000201316F00018FEC17F00D0E0201396F3B
:1039A0000001C2EC16F00101BE6B0001FCD0010E5B
:1039B0000101BE6F0001F7D00101E85326E0010EBE
:1039C000A06FC00E9F6F440EF66E0B0EF76E030EC7
:1039D0000201306F0001D3EC16F0B0C030F21B0EC4
:1039E0000201316F00018FEC17F00D0E0201396FEB
:1039F0000001C2EC16F0010E0201696FC00E686F83
:103A0000000101EC10F04FD00101000192EC14F024
:103A100002C009F201C008F2020109530AE108518B
:103A2000010807E308C2B0F00001F7EC0AF03BD050
:103A30000201020EEA6E110EE96E090E016EF76ABE
:103A4000000E00014AEC04F00A000900F5CFEEFF79
:103A5000012EFBD7020E0201696F110E686F000183
:103A600001EC10F0010E0101A06F740E9F6F4C0E5F
:103A7000F66E0B0EF76E070E0201306F0001D3ECED
:103A800016F0B0C030F21B0E0201316F00018FEC56
:103A900017F00D0E0201396F0001C2EC16F00101A2
:103AA000BE6B000180D0010E0101BE6F00017BD012
:103AB0000101E85326E0010EA06FC00E9F6F580E63
:103AC000F66E0B0EF76E030E0201306F0001D3ECA1
:103AD00016F0B6C030F21B0E0201316F00018FEC00
:103AE00017F00D0E0201396F0001C2EC16F0010E45
:103AF0000201696FC00E686F000101EC10F04FD039
:103B00000101000192EC14F002C009F201C008F2B8
:103B1000020109530AE10851010807E308C2B6F09F
:103B20000001F7EC0AF03BD00201020EEA6E110E22
:103B3000E96E090E016EF76A000E00014AEC04F00E
:103B40000A000900F5CFEEFF012EFBD7020E02019D
:103B5000696F110E686F000101EC10F0010E010198
:103B6000A06F740E9F6F600EF66E0B0EF76E070E51
:103B70000201306F0001D3EC16F0B6C030F21B0E1C
:103B80000201316F00018FEC17F00D0E0201396F49
:103B90000001C2EC16F00101BE6B000104D0010E61
:103BA0000101BE6F000150EF29F00101285304E12B
:103BB000000150EF29F00101410EEA5DF00FD8B08D
:103BC00009D3100F000154EF29F00101E85326E05A
:103BD000010EA06FC00E9F6F6C0EF66E0B0EF76E8F
:103BE000030E0201306F0001D3EC16F0B5C030F2C5
:103BF0001B0E0201316F00018FEC17F00D0E020158
:103C0000396F0001C2EC16F0010E0201696FC00E9F
:103C1000686F000101EC10F07ED00101000192EC10
:103C200014F002C009F201C008F20201095339E19F
:103C30000851010836E30001F62D0FD0F7530DE1CE
:103C40000201085307E1095305E10001F96B010E78
:103C5000F86F03D00001F96BF86B0201082D11D049
:103C600009530FE10001F96BF86BF8C09CF1320EBB
:103C700002013F6F0001EBEC06F09EEC0DF00FD05F
:103C800002010001F96B010EF86FF8C09CF1320ED1
:103C900002013F6F0001EBEC06F09EEC0DF03BD013
:103CA0000201020EEA6E110EE96E090E016EF76A4C
:103CB000000E00014AEC04F00A000900F5CFEEFF07
:103CC000012EFBD7020E0201696F110E686F000111
:103CD00001EC10F0010E0101A06F740E9F6F740EC5
:103CE000F66E0B0EF76E070E0201306F0001D3EC7B
:103CF00016F09CC130F21B0E0201316F00018FECF7
:103D000017F00D0E0201396F0001C2EC16F001012F
:103D1000BE6B60D20001010E0101BE6F5BD20101DA
:103D2000E85326E0010EA06FC00E9F6F800EF66E66
:103D30000B0EF76E030E0201306F0001D3EC16F08C
:103D40009DC130F21B0E0201316F00018FEC17F0A4
:103D50000D0E0201396F0001C2EC16F0010E0201D6
:103D6000696FC00E686F000101EC10F0B2D0010164
:103D7000000192EC14F002C009F201C008F2020145
:103D8000085334E1095332E10001F451F51103E124
:103D9000F651F71113E001019D6B0001AD6B9DC160
:103DA000ACF03C0E02013F6F0001EBEC06F09EEC24
:103DB0000DF0010E0101BE6F17D00001F45302E1B6
:103DC000F55303E0F651F7110EE001019D6B000180
:103DD000AD6B9DC1ACF03C0E02013F6F0001EBECFE
:103DE00006F09EEC0DF0010173D00201082D37D0D2
:103DF000095335E10001F451F51116E0010E0101FE
:103E00009D6F0001AD6B9DC1ACF0D3EC0DF0320E97
:103E100002013F6F0001EBEC06F0010E0101BE6FE5
:103E200000019EEC0DF019D0F45317E1F55315E1A4
:103E3000010E01019D6F0001AD6B9DC1ACF0D3EC93
:103E40000DF0320E02013F6F0001EBEC06F0010EA7
:103E50000101BE6F00019EEC0DF03BD00201020E8D
:103E6000EA6E110EE96E090E016EF76A000E00018E
:103E70004AEC04F00A000900F5CFEEFF012EFBD753
:103E8000020E0201696F110E686F000101EC10F063
:103E9000010E0101A06F740E9F6F880EF66E0B0E5F
:103EA000F76E070E0201306F0001D3EC16F09DC1D2
:103EB00030F21B0E0201316F00018FEC17F00D0E76
:103EC0000201396F0001C2EC16F00101BE6B82D114
:103ED0000001010E0101BE6F7DD10101E85326E012
:103EE000010EA06FC00E9F6F940EF66E0B0EF76E54
:103EF000030E0201306F0001D3EC16F0100EE96ED4
:103F0000F7C031F2F6C030F2E7EC16F00D0E020108
:103F1000396F0001C2EC16F0010E0201696FC00E8C
:103F2000686F000101EC10F049D00101000192EC32
:103F300014F002C009F201C008F20201095325E1A0
:103F40000851010822E308530EE109530CE1000176
:103F5000F76BF66B320E02013F6F0001EBEC06F0DF
:103F60009EEC0DF00201082D0FD009530DE1000168
:103F7000F76B010EF66F320E02013F6F0001EBECA2
:103F800006F09EEC0DF002011AD0020EEA6E110E40
:103F9000E96E0A0E016EF76A000E00013DEC04F0B6
:103FA0000A000900F5CFEEFF012EFBD7020E020139
:103FB000696F110E686F000101EC10F00201010140
:103FC00009D10101E85326E0010EA06FC00E9F6FDA
:103FD0009C0EF66E0B0EF76E030E0201306F0001A1
:103FE000D3EC16F0100EE96EF5C031F2F4C030F2E9
:103FF000E7EC16F00D0E0201396F0001C2EC16F06D
:10400000010E0201696FC00E686F000101EC10F033
:1040100058D00101000192EC14F002C009F201C075
:1040200008F20201095334E10851010831E3085153
:10403000091121E009C2F5F008C2F4F001019D5315
:104040000EE19D2D01D001D0000E320E02013F6F16
:104050000001EBEC06F09EEC0DF004D001019D5345
:1040600001E0000E320E02013F6F0001EBEC06F0A2
:104070009EEC0DF0020109C2F5F008C2F4F0460E04
:104080003F6F0001EBEC06F09EEC0DF01AD0020140
:10409000020EEA6E110EE96E0A0E016EF76A000E4C
:1040A00000013DEC04F00A000900F5CFEEFF012EFF
:1040B000FBD7020E0201696F110E686F000101EC5F
:1040C00010F0010187D00101E85326E0010EA06F36
:1040D000C00E9F6FA40EF66E0B0EF76E030E02015C
:1040E000306F0001D3EC16F0B4C030F21B0E0201A9
:1040F000316F00018FEC17F00D0E0201396F0001D6
:10410000C2EC16F0010E0201696FC00E686F00016B
:1041100001EC10F051D00101000192EC14F002C04A
:1041200009F201C008F2020109530DE1085101082A
:104130000AE308C2B4F00001F7EC0AF0010E010135
:10414000BE6F3AD00201020EEA6E110EE96E090E40
:10415000016EF76A000E00014AEC04F00A00090043
:10416000F5CFEEFF012EFBD7020E0201696F110E93
:10417000686F000101EC10F0010E0101A06F740ED8
:104180009F6FAC0EF66E0B0EF76E070E0201306FCE
:104190000001D3EC16F0B4C030F21B0E0201316FF7
:1041A00000018FEC17F00D0E0201396F0001C2EC17
:1041B00016F00101BE6B0ED0010E0101BE6F0AD0D8
:1041C00039EC07F09EEC0DF0010E0101BE6F02D03C
:1041D000FF000101000150EF29F00101285304E123
:1041E000000150EF29F00101EA51410802E1010EFE
:1041F000BE6F000150EF29F00101285304E10001D6
:1042000050EF29F00101EA51500A000103E0060ACB
:1042100006E00FD0010E0101BE6F00010AD00B0EA7
:10422000FF6F9F0EFE6F05EC18F0010E0101BE6FCF
:10423000000150EF29F00101285304E1000150EF83
:1042400029F00101EA51540A000104E0070AD8B438
:104250007FD0F4D00101E85326E0010EA06FC00E1C
:104260009F6FB80EF66E0B0EF76E030E0201306FE5
:104270000001D3EC16F0FAC030F21B0E0201316FD0
:1042800000018FEC17F00D0E0201396F0001C2EC36
:1042900016F0010E0201696FC00E686F000101EC9B
:1042A00010F050D00101000192EC14F002C009F2AC
:1042B00001C008F2020109530BE10851EF0808E3BD
:1042C000095303E10851010803E208C2FAF03BD0A8
:1042D000020EEA6E110EE96E090E016EF76A000E0B
:1042E00000014AEC04F00A000900F5CFEEFF012EB0
:1042F000FBD7020E0201696F110E686F000101EC1D
:1043000010F0010E0101A06F740E9F6FC00EF66ECB
:104310000B0EF76E070E0201306F0001D3EC16F0A2
:10432000FAC030F21B0E0201316F00018FEC17F062
:104330000D0E0201396F0001C2EC16F00101BE6BD7
:1043400000017CD00201010E0101BE6F000176D098
:104350000101E85326E0010EA06FC00E9F6FCC0E46
:10436000F66E0B0EF76E030E0201306F0001D3ECF8
:1043700016F0FBC030F21B0E0201316F00018FEC12
:1043800017F00D0E0201396F0001C2EC16F0010E9C
:104390000201696FC00E686F000101EC10F04BD094
:1043A0000101000192EC14F002C009F201C008F210
:1043B0000201095306E10851010803E308C2FBF0BA
:1043C0003BD0020EEA6E110EE96E090E016EF76A1D
:1043D000000E00014AEC04F00A000900F5CFEEFFE0
:1043E000012EFBD7020E0201696F110E686F0001EA
:1043F00001EC10F0010E0101A06F740E9F6FD40E3E
:10440000F66E0B0EF76E070E0201306F0001D3EC53
:1044100016F0FBC030F21B0E0201316F00018FEC71
:1044200017F00D0E0201396F0001C2EC16F0010108
:10443000BE6B000103D00201000100D050EF29F053
:104440000101285304E1000150EF29F00101EA5174
:10445000440A000104E0070AD8B47DD0ACD00101C1
:10446000E85326E0010EA06FC00E9F6FE00EF66EBF
:104470000B0EF76E030E0201306F0001D3EC16F045
:10448000B3C030F21B0E0201316F00018FEC17F048
:104490000D0E0201396F0001C2EC16F0010E02018F
:1044A000696FC00E686F000101EC10F04FD0010180
:1044B000000192EC14F002C009F201C008F20201FE
:1044C00009530AE10851030807E308C2B3F00001E9
:1044D00025EC0BF03BD00201020EEA6E110EE96EE4
:1044E000090E016EF76A000E00014AEC04F00A00A2
:1044F0000900F5CFEEFF012EFBD7020E0201696F16
:10450000110E686F000101EC10F0010E0101A06FA7
:10451000740E9F6FE80EF66E0B0EF76E070E02011B
:10452000306F0001D3EC16F0B3C030F21B0E020165
:10453000316F00018FEC17F00D0E0201396F000191
:10454000C2EC16F00101BE6B000135D0010E010175
:10455000BE6F000130D00101E85326E0010EA06FCC
:10456000C00E9F6FF40EF66E0B0EF76E030E020177
:10457000306F0001D3EC16F0100EE96EABC031F2D3
:10458000AAC030F2E7EC16F00D0E0201396F0001FF
:10459000C2EC16F0010E0201696FC00E686F0001D7
:1045A00001EC10F004D00101000119EF18F0010E28
:1045B0000101BE6F000150EF29F00101285304E111
:1045C000000150EF29F00101EA51450801E1BAD29A
:1045D000000150EF29F00101285304E1000150EFE0
:1045E00029F00101EA51450A00010DE0090AD8B499
:1045F0007BD01C0AD8B49ED01D0AD8B4D6D00E0ADF
:10460000D8B40ED14AD10101EA51450852E1010E58
:10461000A06FC00E9F6FFC0EF66E0B0EF76E030EB2
:104620000201306F0001D3EC16F0BE0EF66E080EDC
:10463000F76E7DEF18F0010EF66E0C0EF76E040E9D
:104640000201306F0001D3EC16F00B0EE96EF1C0E1
:1046500031F2F0C030F2E7EC16F00A0EF66E0C0EF6
:10466000F76E040E0201306F0001D3EC16F00B0E52
:10467000E96EEEC031F2EDC030F2E7EC16F0EFC0BB
:1046800030F2010E0201316F00018FEC17F00D0EB8
:104690000201396F0001C2EC16F0010E0201696FD0
:1046A000C00E686F000101EC10F0010E0101BE6F39
:1046B00019D0020EEA6E110EE96E090E016EF76A4C
:1046C000000E00014AEC04F00A000900F5CFEEFFED
:1046D000012EFBD7020E0201696F110E686F0001F7
:1046E00001EC10F00001D9D00101EA514C0807E1BA
:1046F00000018EEF18F0010E0101BE6F19D0020EFD
:10470000EA6E110EE96E090E016EF76A000E0001E5
:104710004AEC04F00A000900F5CFEEFF012EFBD7AA
:10472000020E0201696F110E686F000101EC10F0BA
:104730000001B3D00101E85330E0140E0001BA25A6
:1047400002012A6F000E0001BB2102012B6F010E36
:104750000101A06FC00E9F6F1A0EF66E0C0EF76E61
:10476000030E0201306F0001D3EC16F0100EE96E5B
:104770002BC231F22AC230F2E7EC16F00D0E020124
:10478000396F0001C2EC16F0010E0201696FC00E14
:10479000686F000101EC10F003D00001C7EF18F0C2
:1047A000010E0101BE6F000178D00101E85326E03F
:1047B000010EA06FC00E9F6F220EF66E0C0EF76EEC
:1047C000030E0201306F0001D3EC16F0100EE96EFB
:1047D00023C031F222C030F2E7EC16F00D0E0201D8
:1047E000396F0001C2EC16F0010E0201696FC00EB4
:1047F000686F000101EC10F012D00101000192EC91
:1048000014F002C023F001C022F0010E02012E6F4D
:1048100009C230F208C22FF2000152EC07F03DD07D
:104820000101E85326E0010EA06FC00E9F6F2A0E13
:10483000F66E0C0EF76E030E0201306F0001D3EC22
:1048400016F0100EE96E25C031F224C030F2E7EC0C
:1048500016F00D0E0201396F0001C2EC16F0010EC8
:104860000201696FC00E686F000101EC10F015D0F5
:104870000101000192EC14F002C009F201C008F23B
:1048800009C225F008C224F002012E6B09C230F2E1
:1048900008C22FF2000152EC07F050EF29F001019D
:1048A000285304E1000150EF29F00101EA515308B7
:1048B000D8A47BD0E85326E0010EA06FC00E9F6FF6
:1048C000320EF66E0C0EF76E030E0201306F000111
:1048D000D3EC16F0B1C030F21B0E0201316F0001B3
:1048E0008FEC17F00D0E0201396F0001C2EC16F0CB
:1048F000010E0201696FC00E686F000101EC10F03B
:1049000050D00101000192EC14F002C009F201C084
:1049100008F2020109530AE10851010807E308C23D
:10492000B1F0000125EC0BF03CD00201020EEA6E62
:10493000110EE96E090E016EF76A000E00014AECD5
:1049400004F00A000900F5CFEEFF012EFBD7020E9E
:104950000201696F110E686F000101EC10F0010E89
:104960000101A06F740E9F6F3A0EF66E0C0EF76E7B
:10497000070E0201306F0001D3EC16F0B1C030F227
:104980001B0E0201316F00018FEC17F00D0E0201BA
:10499000396F0001C2EC16F00101BE6B000150EF4F
:1049A00029F0010E0101BE6F7ED0EA515008D8A453
:1049B0007AD0E85326E0010EA06FC00E9F6F460E1E
:1049C000F66E0C0EF76E030E0201306F0001D3EC91
:1049D00016F0AFC030F21B0E0201316F00018FECF8
:1049E00017F00D0E0201396F0001C2EC16F0010E36
:1049F0000201696FC00E686F000101EC10F050D029
:104A00000101000192EC14F002C009F201C008F2A9
:104A1000020109530AE10851010807E308C2AFF097
:104A20000001F7EC0AF03CD00201020EEA6E110E12
:104A3000E96E090E016EF76A000E00014AEC04F0FF
:104A40000A000900F5CFEEFF012EFBD7020E02018E
:104A5000696F110E686F000101EC10F0010E010189
:104A6000A06F740E9F6F4E0EF66E0C0EF76E070E53
:104A70000201306F0001D3EC16F0AFC030F21B0E14
:104A80000201316F00018FEC17F00D0E0201396F3A
:104A90000001C2EC16F00101BE6B000150EF29F0DD
:104AA000010E0101BE6F000150EF29F001012853F2
:104AB00004E1000150EF29F00101EA51500A000120
:104AC00006E0040A3EE0060AD8B434D147D1140EF9
:104AD000016EC250830B0110C26E420E006E002E9A
:104AE000FED70000C282C2B2FED7C4CF09F20201D3
:104AF000C3CF08F2010E0101A06F740E9F6F5A0E12
:104B0000F66E0C0EF76E040E0201306F0001D3EC4E
:104B100016F0100EE96E09C231F208C230F2E7EC6D
:104B200016F00D0E0201396F0001C2EC16F00A0EEC
:104B30000201396F0001C2EC16F00101BE6B0001E9
:104B40000DD10101180E016EC250830B0110C26E0F
:104B5000420E006E002EFED70000C282C2B2FED707
:104B6000C4CF09F20201C3CF08F209C22BF208C276
:104B70002AF2000101EF19F000C02AF201C02BF265
:104B800002C02CF203C02DF203C052F202C051F257
:104B900001C050F200C04FF20201566B556B546BCE
:104BA000890E536F00015DEC0BF000C02AF201C0CA
:104BB0002BF202C02CF203C02DF203C052F202C04D
:104BC00051F201C050F200C04FF2330E0201566F95
:104BD000556F530E546F800E536F00010CEC0CF0A8
:104BE00003C007F202C006F201C005F200C004F2E1
:104BF000D88207C22DF206C22CF205C22BF204C2E3
:104C00002AF20201316B306B400E2F6F7E0E2E6F39
:104C100000013EEC11F003C007F202C006F201C031
:104C200005F200C004F207C252F206C251F205C2F8
:104C300050F204C24FF20201566B556B480E546F8E
:104C4000850E536F00010CEC0CF003C007F202C09C
:104C500006F201C005F200C004F2D89207C22DF29C
:104C600006C22CF205C22BF204C22AF20201316BF9
:104C7000306B480E2F6F830E2E6F00013EEC11F04B
:104C800003C007F202C006F201C005F200C004F240
:104C9000AC51AD112DE0010E0101A06F740E9F6F9C
:104CA000640EF66E0C0EF76E060E0201306F0001F8
:104CB000D3EC16F0050EE96E07C22DF206C22CF2F7
:104CC00005C22BF204C22AF2020E02012E6F00016D
:104CD0001DEF19F06F0EF66E0C0EF76E080E020146
:104CE000306F0001D3EC16F00101BE6B21D0000142
:104CF0000201076B066B056B046B020EEA6E110E68
:104D0000E96E150E016EF76A000E000167EC04F003
:104D10000A000900F5CFEEFF012EFBD7020E0201BB
:104D2000696F110E686F000101EC10F00101BE6B9C
:104D3000000114D0100E016EC250830B0110C26E20
:104D40001A0E006E002EFED70000C282C2B2FED73D
:104D5000C4CF05F10101C3CF04F10001A1D2A0D25B
:104D6000020EEA6E110EE96E190E016EF76A000E60
:104D70007AEC04F00A000900F5CFEEFF012EFBD714
:104D8000020E0201696F110E686F000101EC10F054
:104D9000020EEA6E110EE96E0F0E016EF76A000E3A
:104DA00057EC04F00A000900F5CFEEFF012EFBD707
:104DB000020E0201696F110E686F000101EC10F024
:104DC000010E0101A06FC00E9F6F780EF66E0C0EE3
:104DD000F76E050E0201306F0001D3EC16F0100ED5
:104DE000E96EF1C031F2F0C030F2E7EC16F0800E5F
:104DF000F66E0C0EF76E040E0201306F0001D3EC5C
:104E000016F00B0EE96EEEC031F2EDC030F2E7ECB9
:104E100016F0EFC030F2010E0201316F00018FEC8D
:104E200017F00D0E0201396F0001C2EC16F0010EF1
:104E30000201696FC00E686F000101EC10F0100EE6
:104E4000016EC250830B0110C26E1A0E006E002E4E
:104E5000FED70000C282C2B2FED7C4CF05F1010165
:104E6000C3CF04F10551020814E303E104514408DF
:104E700010E3010EEA6EEB0EE96E000E00018FECFE
:104E800004F00A000900F550EE6E0009FBE10FD0B6
:104E90000101010EEA6EEB0EE96E000E00019AECC4
:104EA00004F00A000900F550EE6E0009FBE1F8512C
:104EB000F91104E002010B6B0A6B04D002010B6BC9
:104EC000010E0A6F140E0001BA2502012A6F000EAE
:104ED0000001BB2102012B6FABC02FF2AAC02EF242
:104EE000316B640E306F0001F5EC19F002C02DF249
:104EF00001C02CF2ABC02FF2AAC02EF20201316B1E
:104F0000640E306F0001F5EC19F000C02EF203C002
:104F10002FF2010E0101A06FC00E9F6F900EF66E72
:104F20000C0EF76E080E0201306F0001D3EC16F084
:104F3000100EE96EB9C031F2B8C030F2E7EC16F0ED
:104F40009B0EF66E0C0EF76E060E0201306F00011E
:104F5000D3EC16F0010EEA6EEB0EE96E18EF1AF0C4
:104F6000A30EF66E0C0EF76E070E0201306F0001F5
:104F7000D3EC16F0100EE96E2BC231F22AC230F2D9
:104F8000E7EC16F0AD0EF66E0C0EF76E050E020194
:104F9000306F0001D3EC16F0100EE96E2DC231F225
:104FA0002CC230F2E7EC16F02E0E0201396F000130
:104FB000C2EC16F0100EE96E2FC231F22EC230F2A2
:104FC000E7EC16F0B90EF66E0C0EF76E090E020144
:104FD000306F0001D3EC16F0AEC030F21B0E0201B0
:104FE000316F00018FEC17F0C40EF66E0C0EF76EE9
:104FF000050E0201306F0001D3EC16F0B1C030F2A3
:105000001B0E0201316F00018FEC17F0CB0EF66E14
:105010000C0EF76E050E0201306F0001D3EC16F096
:10502000100EE96EADC031F2ACC030F2E7EC16F014
:105030000D0E0201396F0001C2EC16F0010E0201E3
:10504000696FC00E686F000101EC10F0140EF225BC
:1050500002012A6F000E0001F32102012B6F010EE5
:105060000101A06FC00E9F6FD60EF66E0C0EF76E8C
:10507000060E0201306F0001D3EC16F0B6C030F21C
:105080001B0E0201316F00018FEC17F0DE0EF66E81
:105090000C0EF76E050E0201306F0001D3EC16F016
:1050A000B4C030F21B0E0201316F00018FEC17F01B
:1050B000E50EF66E0C0EF76E050E0201306F000164
:1050C000D3EC16F0B0C030F21B0E0201316F0001BC
:1050D0008FEC17F0EC0EF66E0C0EF76E050E02015B
:1050E000306F0001D3EC16F0100EE96E0BC231F2F6
:1050F0000AC230F2E7EC16F0F40EF66E0C0EF76E04
:10510000050E0201306F0001D3EC16F0B2C030F290
:105110001B0E0201316F00018FEC17F0FB0EF66ED3
:105120000C0EF76E050E0201306F0001D3EC16F085
:10513000B3C030F21B0E0201316F00018FEC17F08B
:10514000020EF66E0D0EF76E050E0201306F0001B5
:10515000D3EC16F0100EE96E2BC231F22AC230F2F7
:10516000E7EC16F00A0EF66E0D0EF76E050E020154
:10517000306F0001D3EC16F0100EE96EF5C031F27D
:10518000F4C030F2E7EC16F0120EF66E0D0EF76E6C
:10519000050E0201306F0001D3EC16F0100EE96E1F
:1051A000F7C031F2F6C030F2E7EC16F01A0EF66EE8
:1051B0000D0EF76E050E0201306F0001D3EC16F0F4
:1051C000AFC030F21B0E0201316F00018FEC17F0FF
:1051D0000D0E0201396F0001C2EC16F0010E020142
:1051E000696FC00E686F000101EC10F0010E010143
:1051F000A06FC00E9F6F240EF66E0D0EF76E060E9A
:105200000201306F0001D3EC16F0FAC030F21B0E31
:105210000201316F00018FEC17F02C0EF66E0D0EAF
:10522000F76E050E0201306F0001D3EC16F0FBC0E3
:1052300030F21B0E0201316F00018FEC17F00D0EE2
:105240000201396F0001C2EC16F0010E0201696F14
:10525000C00E686F000101EC10F0010173D4000171
:105260001FD00101285303E100011AD00101020EF1
:10527000EA6E110EE96E090E016EF76A000E00016A
:105280004AEC04F00A000900F5CFEEFF012EFBD72F
:10529000020E0201696F110E686F000101EC10F03F
:1052A00002010001CEEF29F0E824F76AF736C30FB8
:1052B000F66E520EF7220A00F550FA6E0800F5500D
:1052C000F96EC640C23FDA3ED441D0411E3DD441C2
:1052D000D441D441D441D441C041D441D441D4413A
:1052E000CA3B5650000A06E0020A1BE0010AD8B485
:1052F000A6D0A5D0576A020E566EA96BA86B010105
:1053000028530DE00D0EB86F3E0EB96FBA6B010E4B
:105310000201696FB80E686F000101EC10F0000126
:105320008ED03352D8B475D0A96BA86B0FEC14F0A3
:105330000101B56B01C0B4F15750572A036A580FE9
:10534000E96E000E0320EA6EB4C1EFFF5750460825
:1053500004E2566A000173D00101B4510D0802E164
:10536000B55305E0B4513B0855E1B55353E1B45191
:105370003B080EE1B5530CE1010E575C036A580F70
:10538000E96E000E0320EA6E0D0EEF6E576A03D031
:105390000001AEEC06F000012BEF1AF001013F53C3
:1053A00005E0285303E100014AD001010D0EB86F5A
:1053B0000A0EB96F4F0EBA6F4B0EBB6F0A0EBC6F61
:1053C000BD6B010E0201696FB80E686F000101EC40
:1053D00010F00101B62D15D0B75313E1285303E1A6
:1053E00000012DD001010A0EB86F0D0EB96FBA6B16
:1053F000010E0201696FB80E686F000101EC10F038
:1054000008D0010E0201696F740E686F000101EC93
:1054100010F001015650010810E22CA20ED02C927F
:105420000001A82BD8B4A92BA951260806E2FF0A2F
:1054300003E1A851100801E2566A000100D0A7EF6D
:1054400032F08A920201056B0551070813E30251FD
:10545000800B02E18C9801D08C8800D000D08C8029
:1054600000D000D08C9000D000D00551052BD890F2
:105470000237EAD7056B0551070813E30351800B88
:1054800002E18C9801D08C8800D000D08C8000D0B4
:1054900000D08C9000D000D00551052BD890033758
:1054A000EAD78A8204C201F000011200CEC1D0F115
:1054B000CFC1D1F1020E02013F6F010E416FD00E3C
:1054C000406F0001C0EC0AF012000101CB51690AE3
:1054D000000119E0200A2FE02D0A45E0200A5DE0D6
:1054E0006F0AD8B474D0160AD8B499D0100AD8B4B8
:1054F000BED0720AD8B4E5D0610AD8B40CD1020A81
:10550000D8B415D11ED101016B2B06E16C2B6C5167
:10551000030802E26B6B6C6B0B0E0201026F6BC136
:1055200003F200018EDF0C0E0201026F6CC103F268
:10553000000187DF06D101016F2B06E1702B70514E
:10554000030802E26F6B706B0F0E0201026F6FC1F6
:1055500003F2000176DF100E0201026F70C103F248
:1055600000016FDFEED001016B076B3D07D06C07C8
:105570006C51030803E26B69030E6C6F0B0E0201A2
:10558000026F6BC103F200015CDF0C0E0201026FBF
:105590006CC103F2000155DFD4D001016F076F3DEC
:1055A00007D070077051030803E26F69030E706F34
:1055B0000F0E0201026F6FC103F2000142DF100EF5
:1055C0000201026F70C103F200013BDFBAD001019A
:1055D0006DC1CCF16E51030BCD6FCC2BD8B4CD2B5C
:1055E000CD51030802E2CD6BCC6B6E51C00BCE6F78
:1055F000000ECC13CE51CD13CCC16DF1CDC16EF1E7
:105600000B0E0201026F6DC103F200011ADF0C0ED6
:105610000201026F6EC103F2000113DF92D001019B
:1056200071C1CCF17251030BCD6FCC2BD8B4CD2B03
:10563000CD51030802E2CD6BCC6B7251C00BCE6F23
:10564000000ECC13CE51CD13CCC171F1CDC172F18E
:105650000B0E0201026F71C103F20001F2DE0C0EAB
:105660000201026F72C103F20001EBDE6AD0010198
:105670006DC1CCF16E51030BCD6FCC51D8B4CD07B9
:10568000CC07CD51030803E2030ECD6FCC696E51F8
:10569000C00BCE6F000ECC13CE51CD13CCC16DF12B
:1056A000CDC16EF10B0E0201026F6DC103F200015C
:1056B000C8DE0C0E0201026F6EC103F20001C1DEF2
:1056C00040D0010171C1CCF17251030BCD6FCC51AF
:1056D000D8B4CD07CC07CD51030803E2030ECD6F3C
:1056E000CC697251C00BCE6F000ECC13CE51CD13CE
:1056F000CCC171F1CDC172F10B0E0201026F71C10B
:1057000003F200019EDE0C0E0201026F72C103F271
:10571000000197DE16D0BC3D01D001D0BC2B010E9C
:105720000101CE6FBCC0CFF10001C0DE0AD0BC5376
:1057300001E0BC07010E0101CE6FBCC0CFF100013A
:10574000B5DEF6EF31F00D0E0201026F0A0E036FA7
:10575000046B020E696F686F000101EC10F0020E1D
:10576000EA6EE96E3D0E016EF76A000E89EC00F0FC
:105770000A000900F5CFEEFF012EFBD7020E020151
:10578000696F686F000101EC10F0020EEA6EE96EBD
:105790002E0E016EF76A000EB0EC00F00A00090050
:1057A000F5CFEEFF012EFBD7020E0201696F686F85
:1057B000000101EC10F0020EEA6EE96E420E016E7D
:1057C000F76A000ECFEC00F00A000900F5CFEEFFFB
:1057D000012EFBD7020E0201696F686F000101EC18
:1057E00010F0020EEA6EE96E230E016EF76A000EEB
:1057F000F8EC00F00A000900F5CFEEFF012EFBD710
:10580000020E0201696F686F000101EC10F0020ED8
:10581000EA6EE96E2D0E016EF76A000E12EC01F0D1
:105820000A000900F5CFEEFF012EFBD7020E0201A0
:10583000696F686F000101EC10F0020EEA6EE96E0C
:105840002E0E016EF76A000E31EC01F00A0009001D
:10585000F5CFEEFF012EFBD7020E0201696F686FD4
:10586000000101EC10F0020EEA6EE96E360E016ED8
:10587000F76A000E50EC01F00A000900F5CFEEFFC8
:10588000012EFBD7020E0201696F686F000101EC67
:1058900010F0020EEA6EE96E160E016EF76A000E47
:1058A00073EC01F00A000900F5CFEEFF012EFBD7E3
:1058B000020E0201696F686F000101EC10F0020E28
:1058C000EA6EE96E3C0E016EF76A000E86EC01F09E
:1058D0000A000900F5CFEEFF012EFBD7020E0201F0
:1058E000696F686F000101EC10F0020EEA6EE96E5C
:1058F0003D0E016EF76A000EACEC01F00A000900E3
:10590000F5CFEEFF012EFBD7020E0201696F686F23
:10591000000101EC10F00D0E0201026F0A0E036F80
:10592000046B020E696F686F000101EC10F0ABEFC1
:105930002EF0020103BF12D00F0E006E02390016C6
:105940000A0E005C03E2300E002602D0035100264E
:1059500000C039F20001C2EC16F002010F0E02176E
:105960000A0E025D02E2300E02D0039F03510227AD
:1059700002C239F20001C2EC16F0120044EC14F03D
:1059800025EC14F001500210D8B46BD00201056B65
:10599000046B036B026B000125EC14F002C008F2EB
:1059A00001C007F20201085303E107512F0805E285
:1059B000085303E10751390814E2085303E1075182
:1059C000400805E2085303E1075146080AE208537C
:1059D00003E10751600844E2085342E107516608B9
:1059E0003FE3000134EC14F001C006F2020106515D
:1059F000600806E206517A0803E30651DF0B01D086
:105A00000651066F0651390803E3300E065F02D0D7
:105A1000370E065F0235076F0335086F0435096FCF
:105A200005350A6F0737083709370A370737083748
:105A300009370A370737083709370A37F00E0717CB
:105A4000016A026A036A06510725026F01500821A4
:105A5000036F02500921046F03500A21056F9BD781
:105A6000000102C200F003C201F004C202F005C24C
:105A700003F0120044EC14F0036A01013D51580F89
:105A8000E96E000E0320EA6EEF5247E00201056B5B
:105A9000046B036B026B036A01013D51580FE96E01
:105AA000000E0320EA6EEFCF06F2020106512F0826
:105AB00033E20651390830E305C247F204C246F228
:105AC00003C245F202C244F24B6B4A6B496B0A0EA9
:105AD000486F00016CEC08F003C009F202C008F244
