:04000000A0EF34F049
:08000800046ED8CF05F0E0CF33
:1000100006F00001E9CF0CF0EACF07F0E1CF08F0DD
:10002000E2CF09F0D9CF0AF0DACF0BF0F3CF12F01C
:10003000F4CF13F0FACF14F0F5CF15F0F6CF16F099
:10004000F7CF17F000C00EF001C00FF002C010F0A3
:1000500003C011F09DA230EF00F09EB288EF05F0D2
:10006000F2A836EF00F0F2B28DEF05F0F0A63CEF0B
:1000700000F0F0B090EF05F09DAA42EF00F09EBABC
:1000800093EF05F09DA848EF00F09EB8BAEF05F099
:100090007DA04EEF00F07EB085EF05F00EC000F0C1
:1000A0000FC001F010C002F011C003F00CC0E9FF56
:1000B00007C0EAFF078E08C0E1FF09C0E2FF0AC0DF
:1000C000D9FF0BC0DAFF12C0F3FF13C0F4FF14C056
:1000D000FAFF15C0F5FF16C0F6FF17C0F7FF045072
:1000E00006C0E0FF05C0D8FF1000F76AFA0FF66EF1
:1000F000000EF7220900F55012000000DC0091818B
:100100000008C25E0018B30400003C009500000027
:100110004000F76A220FF66E010EF7220900F55033
:100120001200244149203C6368616E6E656C3E3C60
:1001300063723E2020095265717565737420616E8B
:10014000616C6F67206368616E6E656C2076616CB0
:100150007565202831302062697473290D0A00000A
:10016000F76A700FF66E010EF7220900F5501200C3
:10017000244154203C6C6576656C3E3C63723E20A5
:10018000200953657420617474656E7561746F72B3
:1001900020746F203C6C6576656C3E0D0A00F76A32
:1001A000AE0FF66E010EF7220900F550120024433F
:1001B00046203C667265713E3C63723E20200943D6
:1001C00068616E6765206672657175656E6379201A
:1001D00028323138352E30202D20323330302E3039
:1001E00020696E20302E3120696E6373290D0A005C
:1001F000F76A000FF66E020EF7220900F5501200A2
:100200002444493C63723E20200952657175657330
:1002100074206469676974616C20696E70757473A9
:100220000D0A0000F76A340FF66E020EF72209007D
:10023000F5501200244744203C616464723E3C63E4
:10024000723E202009476574204432412072656760
:10025000697374657220636F6E74656E74730D0AD2
:100260000000F76A720FF66E020EF7220900F550D1
:100270001200244746203C616464723E3C63723E37
:100280002020094765742046504741207265676900
:100290007374657220636F6E74656E74730D0A00FB
:1002A000F76AB00FF66E020EF7220900F550120041
:1002B000244F54203C6F75747075743E3C63723EDD
:1002C000202009536574206469676974616C206F2C
:1002D00075747075747320746F204845582076616A
:1002E0006C75650D0A00F76AF60FF66E020EF722BE
:1002F0000900F55012002452443C63723E2020094C
:100300005265736574204432410D0A00F76A1C0F70
:10031000F66E030EF7220900F55012002453442014
:100320003C616464723E203C646174613E3C637273
:100330003E2020095365742044324120726567696C
:1003400073746572203C616464723E20746F203C5B
:10035000646174613E0D0A00F76A680FF66E030E61
:10036000F7220900F5501200245346203C616464D2
:10037000723E203C646174613E3C63723E20200901
:1003800053657420465047412072656769737465F0
:1003900072203C616464723E20746F203C6461741E
:1003A000613E0D0A0000F76AB60FF66E030EF722E3
:1003B0000900F55012000D0A0A4E4F2054454D50C9
:1003C0002D5246204F4646200D0A0000F76ADC0FEA
:1003D000F66E030EF7220900F55012004453203C3C
:1003E0006461746120736F7572653E3C63723E2078
:1003F0002009536574206461746120736F757263A2
:10040000652028302D31290D0A00F76A1A0FF66E83
:10041000040EF7220900F55012004450203C64619C
:10042000746120706F6C61726974793E3C63723ED6
:10043000202009536574206461746120706F6C61C1
:10044000726974792028302D31290D0A0000F76A6D
:100450005E0FF66E040EF7220900F55012004445B7
:10046000203C736574757020534F5150534B3E3C84
:1004700063723E2020095365742073657475702083
:10048000534F5150534B2028302D31290D0A000075
:10049000F76AA00FF66E040EF7220900F55012005D
:1004A0005250203C706F7765722068656967687488
:1004B0003E3C63723E20200953657420706F77655F
:1004C00072206865696768742028302D31290D0A0B
:1004D0000000F76AE20FF66E040EF7220900F550ED
:1004E00012005246203C706F77657220636F6D6119
:1004F0006E643E3C63723E20200953657420706F29
:1005000077657220636F6D616E642028302D31290C
:100510000D0A0000F76A240FF66E050EF722090097
:10052000F55012005241203C72616E646F6D697A21
:1005300065723E3C63723E202009536574207769E2
:1005400074682F776974686F75742072616E646F58
:100550006D697A65722028302D31290D0A00F76AFD
:100560006E0FF66E050EF7220900F5501200465286
:10057000203C6672657175656E63793E3C63723EC0
:10058000202009536574206672657175656E637904
:100590002028323230302E302D323430302E302977
:1005A0000D0A0000F76AB40FF66E050EF722090077
:1005B000F55012004D4F203C6D6F64653E3C6372F8
:1005C0003E202009536574206D6F64652028302D0E
:1005D00033290D0A0000F76AE60FF66E050EF722C2
:1005E0000900F55012004943203C6269747261743D
:1005F000653E3C63723E2020095365742062697237
:10060000746174652028312E30302D33302E303017
:1006100044427073290D0A00F76A280FF66E060E21
:10062000F7220900F55012004944203C696E7465B8
:10063000726E616C207061747465726E3E3C6372A0
:100640003E20200953657420696E7465726E616C7A
:10065000207061747465726E2028302D33290D0A64
:100660000000F76A720FF66E060EF7220900F550C9
:1006700012005645203C63723E2020096469737065
:100680006C61792076657273696F6E20696E666F32
:100690000D0A0000F76AA40FF66E060EF722090095
:1006A000F55012005653203C6D616A6F723E2E3C2D
:1006B0006D696E6F723E203C63723E202009736547
:1006C00074207468652073657475702066696C6544
:1006D0002076657273696F6E0D0A0000F76AEC0F81
:1006E000F66E060EF7220900F55012005650203C17
:1006F000706F776572206C6576656C3E3C63723E08
:1007000020200953657420706F776572206C6576C0
:10071000656C202832302D3430290D0A0000F76A2C
:100720002E0FF66E070EF7220900F5501200564CF8
:10073000203C706F77657220686967683E3C637221
:100740003E202009536574206869676820706F77C0
:100750006572206C6576656C202832302D34302926
:100760000D0A0000F76A740FF66E070EF7220900F3
:10077000F5501200564D203C6E65676174697665D0
:1007800020706F776572206C6576656C3E3C637295
:100790003E202009536574206E6567617469766533
:1007A00020706F776572206C6576656C0D0A0000AD
:1007B000F76AC00FF66E070EF7220900F550120017
:1007C0005643203C706F73657469766520706F774F
:1007D0006572206C6576656C3E3C63723E20200934
:1007E00053657420706F73657469766520706F77D8
:1007F0006572206C6576656C0D0A0000F76A0C0F57
:10080000F66E080EF7220900F55012004353203C03
:10081000636C6F636B2070686173653E3C63723E0E
:1008200020200953657420636C6F636B20706861CE
:1008300073652028302D31290D0A0000F76A4C0F0E
:10084000F66E080EF7220900F55012005554203CB0
:10085000554152542054696D653E3C63723E2020E0
:1008600009536574207468652073746F702074690F
:100870006D652C2064656661756C742031352028A7
:10088000302D323430290D0A0000F76A9A0FF66EC7
:10089000080EF7220900F55012005553203C55412F
:1008A0005254205374617475733E3C63723E202031
:1008B000095365742074686520426C6F636B20284F
:1008C000302D31290D0A0000F76AD80FF66E080E98
:1008D000F7220900F55012004247203C554152547E
:1008E000204368616E67653E3C63723E2020095379
:1008F000657420426C6F636B207065722073656352
:100900006F6E642028312D3230290D0A0000F76AFD
:100910001E0FF66E090EF7220900F550120053560D
:10092000203C7361766520616C6C3E3C63723E20B6
:1009300020095361766520706172616D657465721E
:10094000730D0000F76A540FF66E090EF7220900C6
:10095000F55012000D092048454C50204C49535485
:10096000200D0000F76A740FF66E090EF7220900D9
:10097000F55012000D0A4641554C540D0A00F76A15
:100980008E0FF66E090EF7220900F55012000D0ABF
:100990004641494C0D0A0000F76AA80FF66E090E91
:1009A000F7220900F55012004241313431305458D9
:1009B0002056332E3400F76AC60FF66E090EF72262
:1009C0000900F55012000D0A0A4F4B20526571754F
:1009D00065737420537461747573200D0A0A0000E6
:1009E000F76AF00FF66E090EF7220900F5501200B3
:1009F000474F4F440000F76A060FF66E0A0EF722C3
:100A00000900F550120042414400F76A1A0FF66ED1
:100A10000A0EF7220900F55012000D0A4F4B0D0A7D
:100A20002A00F76A320FF66E0A0EF7220900F55017
:100A300012000D0A0A425245414B0D0A0000F76AA6
:100A40004E0FF66E0A0EF7220900F5501200010053
:100A5000E6030200F4010300610104000401050043
:100A6000D2000600AA000700900008007C000900E0
:100A70006E000A0063000B0058000C004F000D00D0
:100A800048000E0043000F003E0010003900110026
:100A900034001200320013002E0014002C00F76AFC
:100AA000AE0FF66E0A0EF7220900F5501200500044
:100AB000140066001500760016007F0017008F00F6
:100AC0001800A7001900B7001A00D0001B00E200B0
:100AD0001C0001011D0020011E0042011F006801D1
:100AE000200090012100BE012200F9012300340200
:100AF000240085022500D202260032032700E003ED
:100B00002800ED032900FF0337007E904EEF00F030
:100B1000010E336E9E924EEF00F0F2924EEF00F017
:100B2000F0904EEF00F0AECF72F2036A3550370FFF
:100B3000E96E000E0320EA6E72C2EFFF352A3550CF
:100B40001F0801E2356A34501F0801E3342A9E9AD7
:100B50004EEF00F0040E0201735F0AE3020EEA6E2C
:100B6000730EE96EEF5004E001D00000EF2EFDD7C8
:100B7000000112009D928C8A0101166B156B12C147
:100B800003F01151D8B41207110703101DE08C8A2D
:100B900016C103F01551152BD8B4162B0201726F34
:100BA000170E7225E96E010E0320EA6EEFCFADFF3E
:100BB000020E726FF90E736F0001CCDF0201722F0B
:100BC000F9D78C9A0101DBD79D989D829E980001F0
:100BD0004EEF00F00D54454D503D25362E326664E3
:100BE00065670D0A4F4B0A0024415220256C750D94
:100BF00000002443502025750D0024445220253048
:100C000032580D00200D0A2453462025303258203A
:100C1000253032580D00200D0A245344202530324F
:100C20005820253032580D00465220256C750D0095
:100C30004D4F2025750D000044532025750D0000F3
:100C40004552522044532025750D00004450202564
:100C5000750D00004552522044502025750D0000AE
:100C600044452025750D000045525220444520255D
:100C7000750D000052502025750D00004552522080
:100C800052502025750D000052462025750D00009C
:100C90004552522052462025750D00005243202512
:100CA0006C750D00524220256C750D0052412025B7
:100CB000750D00004552522052412025750D00004F
:100CC00055542025750D00004552522055542025BD
:100CD000750D000055532025750D0000455252201A
:100CE00055532025750D0000424720256C750D00D9
:100CF00045525220424720256C750D00494420255D
:100D0000750D00004552522049442025750D000004
:100D1000494320256C750D005645202573205653F8
:100D200020256C752E256C752049443D2530326C8C
:100D3000752044543D2530326C75253032750D00D8
:100D4000565320256C75256C750D000056502025D6
:100D50006C750D00564D20256C750D0056432025F1
:100D60006C750D0043532025750D0000455252202F
:100D700043532025750D000043502025750D0000BC
:100D80004552522043502025750D00000A4750203F
:100D9000256C750D0A000A475220256C750D0A0056
:100DA0000D0A49443D256C752044543D2530326C74
:100DB00075253032750D00000D0A0A465245513D29
:100DC000256C752C205245563D25732C20464657E0
:100DD000523D256C752C2049433D256C752E256CA4
:100DE000754D6270732C204D4F3D25752C2043535B
:100DF0003D25752C2052463D256C750D00000D0AD1
:100E00000A44453D25752C2052413D25752C204432
:100E1000503D25752C2052503D256C752C20445397
:100E20003D25752C2049443D25752C20564C3D25EB
:100E30006C752C2052423D256C752C2052433D256B
:100E40006C752C2043503D25750D00000D0A0A5588
:100E5000543D25752C2055533D25750D0000896A9C
:100E60008A6A8B6A8C6A8D6AE10E926EC10E936EED
:100E7000F10E946E8E0E956E96809682969496865E
:100E800062EF07F001017D6B346A34C036F036C082
:100E900035F0576A9D8A00011200480E0509BA6EA6
:100EA000630EBB6EB46AB16A000E05090F01516F83
:100EB000630E526F4D6B4E6B000E4A6F000E4B6F00
:100EC0000001CDD7C150F00BC16E210E0F01386F5C
:100ED000030E3C6F000E396F3A6F3B6FC050C00B72
:100EE0002509C06EC08EC280776A040E786E796E56
:100EF0000001C8DF9D82C00EF212E7EF34F0020E4F
:100F0000EA6E420EE96EEF500EE0050E016E006AC9
:100F1000002EFED7012EFBD72E0E006E002EFED720
:100F200000D0EF2EF2D7120002013151036E305182
:100F3000D8B43107300703101FE02F51036E2E5134
:100F40002E2BD8B42F2BE96E03C0EAFF2D51036E70
:100F50002C512C2BD8B42D2B346F03C035F2F2CF8B
:100F600036F2F29E34C2A9FFA69CA69EA680A85087
:100F700036BFF28EEF6ED9D70001D8EF07F00166C9
:100F800003D0026602D007D0022A00C0EEFF012E75
:100F9000FCD7022EFAD7E5EF07F002012D6B2C6B80
:100FA0002F6BAB0E2E6F316B580E306F0001BCD71C
:100FB000B23D01D002D0B33D08D0EA6AAB0EE96E73
:100FC000006A026A580E016EDAD712008994020193
:100FD000325302E0898801D089988986040E006E18
:100FE000002EFED700D08996040E006E002EFED78C
:100FF00000D089988986040E006E002EFED700D09E
:101000008996040E006E002EFED700D08986040E4D
:10101000006E002EFED700D08996040E006E002EC2
:10102000FED700D08986040E006E002EFED700D0B9
:101030008996040E006E002EFED700D08986000B24
:10104000006E3451020B036E0050031002E08988D9
:1010500001D08998040E006E002EFED700D089962C
:10106000040E006E002EFED700D08986000B006EA5
:101070003451010B036E0050031002E0898801D047
:101080008998899689863351800B006E036A0050D7
:10109000031002E0898801D08998040E006E002EAA
:1010A000FED700D08996040E006E002EFED700D029
:1010B00089863351400B006E036A0050031002E032
:1010C000898801D08998040E006E002EFED700D0CA
:1010D0008996040E006E002EFED700D0898633510B
:1010E000200B006E036A0050031002E0898801D0D3
:1010F0008998899689863351100B006E036A0050D7
:10110000031002E0898801D08998040E006E002E39
:10111000FED700D08996040E006E002EFED700D0B8
:1011200089863351080B006E036A0050031002E0F9
:10113000898801D08998899689863351040B006E7D
:10114000036A0050031002E0898801D08998040ED8
:10115000006E002EFED700D08996040E006E002E81
:10116000FED700D089863351020B006E036A00500F
:10117000031002E0898801D08998899689863351C5
:10118000010B006E036A0050031002E0898801D051
:101190008998040E006E002EFED700D08996040EAA
:1011A000006E002EFED700D08986040E006E002E41
:1011B000FED700D089968986040E006E002EFED7D9
:1011C00000D0040E006E002EFED700D08996040ECB
:1011D000006E002EFED700D08984040E006E002E13
:1011E000FED700D08992040E006E002EFED700D0EC
:1011F0008982040E006E002EFED700D0000112007E
:101200000201336B326B335356E13251130853E30F
:101210003235346F3335356F34373537FC0E34178C
:1012200035C203F0345100013ADC0900F5CF03F078
:10123000016E03500201315D3AE303E10150305D7C
:1012400036E3010E3225366F000E3321376F363705
:10125000373736373737FC0E361737C203F036517B
:1012600000011DDC0900F5CF03F0016E02013151D0
:10127000035C1DE303E10150305D19E23235346F48
:101280003335356F34373537FC0E3417020E3425BD
:10129000016E000E3521036E0150000100DC0900D3
:1012A000F5CF03F0016E03C002F009D00201322B2A
:1012B000D8B4332BA8D7000E016E026E00011200C5
:1012C0000201506B516B010E526FDA6AD96A020E3D
:1012D000556F480E546F020EEA6E4C0EE96E55C201
:1012E000E2FF54C2E1FF52C253F2D890E550EE0241
:1012F000F3505023F4505123532FF7D750C2DEFF41
:1013000051C250F2516BD8B0512B542BD8B4552B3D
:10131000522B52510508DFE100011200D8B204D06F
:10132000020EEA6E5A0EE96E006A016A026A036AE8
:1013300002015A6B5B6B5C6B5D6B59515811571115
:1013400056112CE0200E5E6FD89052375337543729
:1013500055375A375B375C375D3759515D5D08E16A
:1013600058515C5D05E157515B5D02E156515A5D94
:101370000FE356515A5F5751D8A0573D5B5F585104
:10138000D8A0583D5C5F5951D8A0593D5D5FD880C9
:1013900000360136023603365E2FD6D75AC2EFFF2B
:1013A0005BC2ECFF5CC2ECFF5DC2ECFF000112000F
:1013B0000201436B426B416B020E406F04003F6BB6
:1013C0003E6B37C23DF236C23CF20101456B950ED1
:1013D000446F436B3C0E426F02013751540812E2D6
:1013E000FF0A03E13651EF080DE2436B426B416B9C
:1013F000010E406F0101456B850E446F436B3C0E3F
:10140000426F020104003FC24BF23EC24AF23DC2AB
:1014100049F23CC248F243C24FF242C24EF241C2CC
:101420004DF240C24CF200014BDF03C047F202C054
:1014300046F201C045F200C044F203C04BF202C0C4
:101440004AF201C049F200C048F202014F6B4E6BF4
:101450004D6B640E4C6F000133DF03C03FF202C0DE
:101460003EF201C03DF200C03CF20400D8923FC2FF
:1014700055F23EC254F23DC253F23CC252F2020156
:10148000596B586B270E576F100E566F000146DFD1
:1014900003C035F102C034F101C033F100C032F1B4
:1014A000040035C14BF234C14AF233C149F232C1B2
:1014B00048F202014F6B4E6B270E4D6F100E4C6FB2
:1014C0000001FEDE005002013C5D446F01503D59B9
:1014D000456F02503E59466F03503F59476F4B6B63
:1014E0004A6B496B640E486F43C24FF242C24EF2E0
:1014F00041C24DF240C24CF20001E2DE03C04BF2A9
:1015000002C04AF201C049F200C048F2D89247C274
:1015100055F246C254F245C253F244C252F203C0DD
:1015200059F202C058F201C057F200C056F2F6DE7E
:1015300003C039F102C038F101C037F100C036F103
:10154000D8920201556B546B536B640E526F43C2B9
:1015500059F242C258F241C257F240C256F200015B
:10156000DDDE03C047F202C046F201C045F200C012
:1015700044F202010034006E0134016E0234026E46
:101580000334036E00360136023603360036013668
:1015900002360336F80E0016080E0324476F010EBC
:1015A000002401013A6F000E0201012001013B6F8E
:1015B000000E0201022001013C6F000E02014721D2
:1015C00001013D6F0400010E02013827D8B0392B0C
:1015D000D8B43A2BD8B43B2B00011200080E0201FC
:1015E000406F40531EE03FAF02D08B8601D08B96F8
:1015F0000C0E006E002EFED700D000008B840C0E67
:10160000006E002EFED700D000008B94200E006EDE
:10161000002EFED700D0000040514007D8903F3741
:10162000E0D78B968B94000112000400F29CF29E8E
:10163000F2BEFDD73DC23EF23DC23FF2CFDF3CC21B
:101640003EF23CC23FF2CADF3BC23EF23BC23FF237
:10165000C5DF3AC23EF23AC23FF2C0DF340E006E3E
:10166000002EFED700D000008B82060E006E002EEA
:10167000FED700008B928B96C00EF212040012006F
:1016800002013B6B0101323502013C6F0101333530
:1016900002013D6F0101343502013E6F3C373D3799
:1016A0003E373C373D373E373C373D373E373C379A
:1016B0003D373E373C373D373E373C373D373E3789
:1016C000800E3C1701013635006E3735016E383516
:1016D000026E3935036E00360136023603360036A7
:1016E000013602360336F80E0016005002013B2583
:1016F000366F01503C21376F02503D21386F035047
:101700003E21396F39C241F138C240F137C23FF151
:1017100036C23EF1040039C23DF238C23CF237C253
:101720003BF236C23AF2000180DF1A0E006E002E44
:10173000FED7000004003DC13DF23CC13CF23BC17C
:101740003BF23AC13AF271DF1A0E006E002EFED75C
:101750000000040045C13DF244C13CF243C13BF2EC
:1017600042C13AF262DF12008A940C0E006E002E23
:10177000FED700D00000020142514207000A22E0D9
:1017800044C203F04351432BD8B4442BE96E03C049
:10179000EAFFEFCF45F2466B4651070812E345AF2B
:1017A00002D08C8801D08C9800D000D08C8000D0E2
:1017B00000D08C9000D000D04651462BD8904537B1
:1017C000EBD7DAD70C0E006E002EFED700D000004B
:1017D0008A84000112000201366B0001B039006EEC
:1017E000F00E00160050AF1102013E6F0001B1393A
:1017F000006E0036E00E0016005002013E1300019C
:10180000B539006E00360036C00E001600500201D9
:101810003E13006A0001B7B1008E005002013E1174
:10182000376F020E426F446F360E436F00019CDF2C
:101830001200060E0201366FD8900001B335B211C6
:1018400002013E6F0001B435006E0036FC0E00163A
:10185000005002013E11376F020E426F446F360E88
:10186000436F000181DF1200B60E006E036A026A48
:10187000016A0201525153115411551102E1006ADB
:101880000DD0D89001BE09D0523753375437553751
:10189000033602360136002EF4D7019E0001A5EF73
:1018A0000DF002015251D8B4A5D05E6F5651D8B494
:1018B000A1D05E5F05E37F0E5E27D8B09BD006D037
:1018C000810E5E5FD8A096D0D8B494D05EC200F0EE
:1018D000016A026A036A5D6B53C25CF25C8F54C298
:1018E0005BF255C25AF2190E5E6F59515A5F0DE202
:1018F000010E5B5F0AE25C5F08E25D5F06E25D2B62
:101900005C2B5B2B59515A2728D058515B5F12E250
:10191000010E5C5F0FE25D5F0DE25D2B5C2B5851A9
:101920005B2759515A2719E35B2B17E15C2B15E113
:101930005D2B13D0575180095C5F0EE2010E5D5F95
:101940000BE25D2B575180095C2758515B27E9E377
:101950005C2BE7E15D2BE5D703805E2F01D00BD038
:10196000D8905A375B375C375D37D89003360236EC
:1019700001365F37BAD75FA106D0D8900132023264
:1019800003325F3302D0000635E05FBF1ED0D8902F
:101990005A375B375C375D3759515A5F07E2010EA2
:1019A0005B5F04E25C5F02E25D5F1AE358515B5FDC
:1019B00005E2010E5C5F02E25D5F12E357518009B0
:1019C0005C5F03E2010E5D5F0BE3032A09E1022A7B
:1019D00007E1012A05E1002A0DE00132023203325B
:1019E00053C25EF257515E1B5EAF02D0018E06D02D
:1019F000019E04D0006A016A026A036A00011200B3
:101A000002015251D8B471D0006E5651D8B46DD085
:101A1000002604E3810E002668E204D07F0E005EFB
:101A200064E363E053C25AF257515A1B538F578FE6
:101A300055515903F4CF5CF254515803F4CF03F0DD
:101A4000F3CF5BF25903F3505C27F4505B23000E95
:101A5000032255515803F3505C27F4505B23000ECA
:101A6000026A0322022253515903F3505B27F450B8
:101A70000322000E022253515803F3500326F45060
:101A80000222000E016A012255515703F3505B27D1
:101A9000F4500322000E0222012254515703F35046
:101AA0000326F4500222000E012253515703F35033
:101AB0000226F4500122002A01BE05D05B3703360E
:101AC000023601360006000E5BAF0AD0032A02225E
:101AD0000122015005E1025003E1035001E1002A17
:101AE0005ABF018E5AAF019E04D0006A016A026A91
:101AF000036A0001120002015251B608526F036AD4
:101B000053C256F2538FD890533354335533033264
:101B1000023201320032522FF6D756AF0BD0001EE0
:101B2000011E021E031E002AD8B4012AD8B4022ABC
:101B3000D8B4032A0001120049C255F248C254F237
:101B400047C253F246C252F28FD603C04DF202C0D2
:101B50004CF201C04BF200C04AF24DC255F24CC2E9
:101B600054F24BC253F24AC252F2C00E0201596FF4
:101B7000E10E586F640E576F9A0E566F000191DE9A
:101B800003C051F202C050F201C04FF200C04EF249
:101B900051C255F250C254F24FC253F24EC252F2E9
:101BA0000201596B586B576B8F0E566F000128DF7F
:101BB00003C051F202C050F201C04FF200C04EF219
:101BC00051C255F250C254F24FC253F24EC252F2B9
:101BD0000201596B586B576B8F0E566F000110DF67
:101BE00003C051F202C050F201C04FF200C04EF2E9
:101BF00051C255F250C254F24FC253F24EC252F289
:101C00007ADF03C055F202C054F201C053F200C0A3
:101C100052F2010E0201005C006E000E0158016ECE
:101C2000000E0258026E000E0358036E00011200EF
:101C30000201456B446BACC043F2ABC042F245C2FB
:101C40004BF244C24AF2ACC049F2ABC048F24F6B0F
:101C50004E6B270E4D6F100E4C6F000160EC09F0BB
:101C600003C045F202C044F201C043F200C042F298
:101C700003C049F202C048F201C047F200C046F278
:101C80005BDF03C041F202C040F201C03FF200C07E
:101C90003EF2020E0201366F3EC237F2020E426F72
:101CA000446F360E436F00015FDD0A0E0201426F82
:101CB00000017FEC07F0030E0201366F3FC237F2DE
:101CC000020E426F446F360E436F00014DDD0A0E67
:101CD0000201426F00017FEC07F0040E0201366F33
:101CE00040C237F2020E426F446F360E436F00015E
:101CF0003BDD0A0E0201426F00017FEC07F0050E8A
:101D00000201366F41C237F2020E426F446F360E47
:101D1000436F000129DD0A0E0201426F00017FECD2
:101D200007F01200BAC033F2B9C032F2050E020158
:101D3000426F00017FEC07F033C237F232C236F255
:101D4000D8EC09F0050E0201426F00017FEC07F0AC
:101D500097DC050E0201426F00017FEC07F03BDDCE
:101D6000050E0201426F00017FEC07F062DD050EF7
:101D70000201426F00017FEC07F05ADFACC035F280
:101D8000ABC034F2030E1F6EE80E1E6E1200000E82
:101D900083BE010E0201326F0001AD51F55D03E11A
:101DA000AE51F65D02E0000E01D0010E02013219C3
:101DB000306F316B3051311102E08C8C0DD08C9C26
:101DC0000001F52D09D0F65307E10201326B346BA7
:101DD000336B0001E6EC07F00101AA5314E1AB53A9
:101DE00012E10201302D01D002D001010CD031539B
:101DF000D8B402D0010107D0320E426F00017FEC4F
:101E000007F090DF010131C2ABF130C2AAF131C25B
:101E10000EF130C20DF10001C8EF0FF01DC031F21C
:101E20001CC030F21BC033F21AC032F2F751010B62
:101E30000201356F366B000E83B4010E0001F95DAF
:101E400002E1FA5302E0000E01D0010E0201351941
:101E5000346FD8903435036A300FE96E020E0320D8
:101E6000EA6EECCF03F0ED52EFCF0BF1010103C0AE
:101E70000CF1D89002013435036A300FE96E020E7E
:101E80000320EA6EEFCF01F0E92AEF50E906026E77
:101E90000001C9EF0FF0243C03D0253C01D02BD02A
:101EA0002BA628D02B960201326B25C034F224C019
:101EB00033F20001E6EC07F0140E016EC250830B02
:101EC0000110C26E1A0E006E002EFED70000C282F4
:101ED000C2B2FED7C4CF2DF20201C3CF2CF22DC265
:101EE00031F22CC230F2000100EC09F002C00AF11C
:101EF00001C009F193D0BA5158080FE303E1B95179
:101F000029080BE3010E0201326FBFC034F2BEC0DC
:101F100033F20001E6EC07F01CD0BA515A080FE387
:101F200003E1B951F9080BE3010E0201326FC1C0A0
:101F300034F2C0C033F20001E6EC07F00AD0010E23
:101F40000201326FC3C034F2C2C033F20001E6ECCA
:101F500007F0140E016EC250830B0110C26E1A0EF0
:101F6000006E002EFED70000C282C2B2FED7C4CFE0
:101F70002DF20201C3CF2CF22DC231F22CC230F26D
:101F8000000100EC09F002C00AF101C009F1FFD61E
:101F900045D702C02FF201C02EF2060E02012E25F7
:101FA000016E000E2F21036E03502D5D04E312E13C
:101FB0002C51015C0FE3060E2E5D006E000E2F59B2
:101FC000036E00C001F02D51035C29E303E10150D1
:101FD0002C5D25E22D512F5D0EE303E12E512C5D8A
:101FE0000AE21F5203E11E50950804E2030E1E5E32
:101FF000000E1F5A0BD01F50030808E303E11E50C8
:10200000F20804E3030E1E26000E1F22326B1FC0CF
:1020100034F21EC033F20001E6EC07F002010001C9
:1020200012000101C16B050EC06FC151050836E3F6
:10203000C051040DF350036A000175EC00F0090073
:10204000F5CF01F00900F5CF02F00900F5CF03F05C
:1020500003C0BFF102C0BEF101C0BDF1E8CFBCF1C9
:10206000C0C100F0016A026A036A00500101BC139A
:102070000150BD130250BE130350BF13BFC13DF248
:10208000BEC13CF2BDC13BF2BCC13AF2000115EC4D
:102090000BF00101C151C12BC007C7D7FA0E0201D5
:1020A000426F00017FEC07F0BFC13DF2BEC13CF2C0
:1020B000BDC13BF2BCC13AF215EC0BF0FA0E0201C5
:1020C000426F00017FEC07F02CEF35F09D9A8C8A6F
:1020D000840E006E002EFED700D0000002016E6B51
:1020E0006CC203F06BC2E9FF6CC2EAFFEF5246E03C
:1020F0006CC203F06B516B2BD8B46C2BE96E03C030
:10210000EAFFEFCF6DF26D51090816E06DC2ADFF29
:102110006E2B020E706F196AF2BE198EF29E950E2A
:10212000736F0001AAEC05F019BEF28E0201702F48
:10213000F2D7AECF6DF221D0200E6F6F6F516E5D72
:1021400003E3020E6E256F6F6F516E5D16E2200E77
:10215000AD6E6E2B020E706F196AF2BE198EF29E72
:10216000950E736F0001AAEC05F019BEF28E020104
:10217000702FF2D7AECF6DF2E7D7B2D7840E006ED4
:10218000002EFED700D000008C9AAECF6DF29D8A53
:10219000000112000101BE6BBDC112F1BCC111F101
:1021A0009E989D88000107EF11F0332C4FD0336AC1
:1021B0002E2AD8B42F2A010100512F5C29E308E10F
:1021C0000001FF512E5CD8B002D0010121D00101E5
:1021D000322C1ED00001FC2D01D002D0010118D0FC
:1021E00001010F2D02D0105304E00F5311E11053E1
:1021F0000FE12F6A2E6A010E306E132BD8B4142B08
:10220000315306E1BD6B1A0EBC6F0001C3D701014B
:10221000272A275009081BE2276A2E2AD8B42F2A1A
:10222000282A29682A2A2A50090811E22A6A2B68D2
:102230002C2A2C5009080BE22C6A2D68312A000147
:10224000FB51315C03E3316A010E326E0101000182
:102250008CEF35F00101C46BC46B0001B3A103D056
:102260000101C42B0001000EB1B1010E006ED89027
:10227000003600500101C427000E0001B5B1010E67
:10228000006E00360036FC0E001600500101C42717
:10229000000E0001B2B1010E006E003600360036AD
:1022A000F80E001600500101C427000E0001B0B165
:1022B000010E006E003AF00E001600500101C42716
:1022C000000E0001B7B1010E006E003A0036E00EBC
:1022D000001600500101C427036AC4C101F003C005
:1022E00002F0000115EF14F0100E016EC250830BC6
:1022F0000110C26E1A0E006E002EFED70000C282C0
:10230000C2B2FED7C4CF06F10101C3CF05F1065119
:10231000020806E303E10551440802E3A79101D056
:10232000A781C46BC46B0001F5A103D00101C42BCC
:102330000001000EF7B1010E006ED890003600507B
:102340000101C427000E0DB1010E006E00360036EB
:10235000FC0E00160050C4271C500B5D03E11D50FD
:102360000C5D02E0000E01D0010E016E000E01B006
:10237000010E006E003600360036F80E00160050D2
:10238000C427000E0001FCB1010E006E003AF00EF1
:10239000001600500101C427000EA7B1010E006E07
:1023A000003A0036E00E00160050C427036AC4C18C
:1023B00001F003C002F0000118EF14F08E0E006E61
:1023C00048C201F047C202F0036A01AE05D0011E07
:1023D000021E022A01E1012A015209E102C001F0B4
:1023E000026A080E005E015202E1006A0DD0D89028
:1023F00001BE04D0023601360006F9D7020148AF0B
:1024000002D0000101D0019E00015CEF13F0800EAC
:10241000D8A202D002014C1B0201516B526B48C280
:1024200050F24C51501B4751D8B4DFD04F6F006E63
:102430004B51D8B4E3D04F5FD8B483D03EE34CC205
:1024400055F2558F4DC254F24EC253F2526BD89092
:1024500055335433533352334F2FF8D750AF03D043
:102460005181E0D051914F915189020EEA6E4A0E8E
:10247000E96EEBD0519950BF0AD04FA113D055331C
:10248000543353335233002AD8B4C7D00BD055BF7E
:102490000CD0D89052375337543755370006D8B43C
:1024A000BCD0F5D7518D6DD0519D48C250F248AF88
:1024B00002D0558FABD0559FA9D04BC24FF24BC223
:1024C00000F047514F5F48C255F2558F49C254F250
:1024D0004AC253F2526BD89055335433533352336C
:1024E0004F2FF8D750AF03D051839CD051934F91C9
:1024F000518B020EEA6E4E0EE96EA7D0519B50BF73
:102500000AD04FA113D05533543353335233002ADA
:10251000D8B483D00BD055BF0CD0D8905237533796
:10252000543755370006D8B478D0F5D7518F29D015
:10253000519F4CC250F24CAF02D0558F67D0559F7F
:1025400065D04CC255F2558F4DC254F24EC253F273
:1025500050AF04D0559F518565D05195526B4F9126
:10256000020EEA6E4A0EE96E70D050BF1CD048C20F
:1025700050F24FA106D05533543353335233002A0F
:102580004CE052AF0BD0532B09E1542B07E1552BF4
:1025900005E1553354335333002A3FE051BD84D70E
:1025A00051BFC6D71CD0800E551B55AF04D03AD0B2
:1025B0004CC250F20AD048C250F2555306E154536F
:1025C00004E1535302E1006A21D055BF08D0D890EE
:1025D0005237533754375537002EF7D71ED050AFE8
:1025E00002D0558F13D0559F11D04BC200F04CC272
:1025F00055F24DC254F24EC253F208D047C200F019
:1026000048C255F249C254F24AC253F255C201F0CF
:1026100054C202F053C203F034D0006A016A026A65
:10262000036A2FD0526B531F541F551F521F522B3A
:1026300005E1532B03E1542B01E1552B51B112D786
:1026400051B354D751B589D7B3D7EF50532705E3CA
:10265000542B03E1552BD8B44F81ED52EF50542742
:1026600003E3552BD8B44F81ED52EF50EFBE01D0AC
:10267000800A5527D8B04F8151B9FCD651BB3ED7FF
:1026800074D700011200180E016EC250830B0110A6
:10269000C26E420E006E002EFED70000C282C2B291
:1026A000FED7C4CF46F20201C3CF45F246C248F27C
:1026B00045C247F2000182D600C047F201C048F28D
:1026C00002C049F203C04AF203C055F202C054F2FC
:1026D00001C053F200C052F20201596B586B576BA4
:1026E000890E566F000151EC0CF000C047F201C09A
:1026F00048F202C049F203C04AF203C055F202C0D8
:1027000054F201C053F200C052F2330E0201596F6D
:10271000586F530E576F800E566F000100EC0DF08E
:1027200003C044F202C043F201C042F200C041F2D1
:10273000D88244C24AF243C249F242C248F241C27C
:1027400047F202014E6B4D6B400E4C6F7E0E4B6F8D
:1027500000015DDE03C044F202C043F201C042F258
:1027600000C041F244C255F243C254F242C253F295
:1027700041C252F20201596B586B480E576F850ED9
:10278000566F000100EC0DF003C044F202C043F2AA
:1027900001C042F200C041F2D89244C24AF243C2A0
:1027A00049F242C248F241C247F202014E6B4D6B00
:1027B000480E4C6F830E4B6F000129DE03C044F2BC
:1027C00002C043F201C042F200C041F241C200F037
:1027D00042C201F043C202F044C203F012008E0E66
:1027E000006E0101C451005EC5C102F0C6C101F016
:1027F000028E005209E0D890025202E1015204E038
:1028000002320132002EF7D7C5AF05D0011E021EDD
:10281000012AD8B4022A00013EEF14F00101BD6B79
:10282000BC6B00014BEC0FF015D501C0C2F15CD5BB
:1028300001C0C3F128DF00C0C4F101C0C5F102C06E
:10284000C6F103C0C7F103C055F202C054F201C083
:1028500053F200C052F20201596B586B480E576F89
:10286000850E566F000100EC0DF003C0C7F102C0E9
:10287000C6F101C0C5F100C0C4F1B1D702C0C1F1B9
:1028800001C0C0F1FB0E0101176F600E186F13C17C
:1028900019F1BAC01AF1B9C01BF10101AFC01CF1A6
:1028A000C2C11DF10001AD51AE110DE001010D518C
:1028B0000E11D8A402D0000106D0C1C11EF1C0C1C2
:1028C0001FF105D000017F0E01011E6F1F69ACC012
:1028D00020F1ABC021F1010109C122F1B4C023F103
:1028E000C3C124F1FDC025F1FEC026F1D890063108
:1028F0000531276F220E286FF2C029F1F1C02AF1AD
:10290000010102C12BF101C12CF1AA0E2D6F2E6F16
:10291000BF6BBE6BBF5311E1BE5117080EE3170E1C
:10292000BE25E96E010EBF21EA6EEF50BC27000EF6
:10293000BD23BE2BD8B4BF2BEDD7BCC12FF1BDC179
:1029400030F10001AFEF35F0036A3650370FE96E12
:10295000000E0320EA6EEFCFD5F10101362A365082
:102960001F0801E2366A345201E03406D5C101F095
:1029700000011200036A01014651590FE96E000E71
:102980000320EA6E036AEFCF01F003C002F00001FA
:10299000120001014651462B036A590FE96E000EE1
:1029A0000320EA6E036AEFCF01F003C002F00001DA
:1029B0001200036A01014651590FE96E000E03200F
:1029C000EA6EEF5218E0036A4651590FE96E000EA5
:1029D0000320EA6EEF502C080AE0036A4651590FB3
:1029E000E96E000E0320EA6EEF50200804E1462B4A
:1029F0000001DFD7010100011200020139513B192A
:102A0000800B3D6F39AF05D0381F391F382BD8B434
:102A1000392B3BAF05D03A1F3B1F3A2BD8B43B2B89
:102A200038513A03F3CF01F0F4CF00F03B03F350F9
:102A3000002639513A03F3500020026E3DAF05D015
:102A4000011E021E012AD8B4022A0001120002014E
:102A5000376B010E366F0001ACDF036A010146518E
:102A6000590FE96E000E0320EA6EEF5244E00201B6
:102A7000356B346B00017EDF02C039F201C038F2E1
:102A8000020101502D0807E1395305E13769366924
:102A900000017FDF0201036A01014651590FE96E0F
:102AA000000E0320EA6EEFCF38F2020138512F08F2
:102AB00022E2385139081FE335C239F234C238F204
:102AC0003B6B0A0E3A6F000198DF02C039F201C079
:102AD00038F201014651462B036A590FE96E000E88
:102AE0000320EA6E300EEF5C02010124346F000E09
:102AF0000220356FD0D735C239F234C238F237C22E
:102B00003BF236C23AF2000178DF02C003F002C0A5
:102B100002F012000D0E02012C6F0A0E2D6F2E6FA7
:102B20002F6B020E6C6F2C0E6B6F000166EC10F0B9
:102B3000020EEA6E2C0EE96E2E0E016EF76A000E82
:102B4000E6EC01F00A000900F5CFEEFF012EFBD7FD
:102B5000020E02016C6F2C0E6B6F000166EC10F020
:102B6000020EEA6E2C0EE96E330E016EF76A000E4D
:102B700005EC02F00A000900F5CFEEFF012EFBD7AD
:102B8000020E02016C6F2C0E6B6F000166EC10F0F0
:102B9000020EEA6E2C0EE96E310E016EF76A000E1F
:102BA00027EC02F00A000900F5CFEEFF012EFBD75B
:102BB000020E02016C6F2C0E6B6F000166EC10F0C0
:102BC000020EEA6E2C0EE96E310E016EF76A000EEF
:102BD00048EC02F00A000900F5CFEEFF012EFBD70A
:102BE000020E02016C6F2C0E6B6F000166EC10F090
:102BF000020EEA6E2C0EE96E310E016EF76A000EBF
:102C000069EC02F00A000900F5CFEEFF012EFBD7B8
:102C1000020E02016C6F2C0E6B6F000166EC10F05F
:102C2000020EEA6E2C0EE96E3A0E016EF76A000E85
:102C30008AEC02F00A000900F5CFEEFF012EFBD767
:102C4000020E02016C6F2C0E6B6F000166EC10F02F
:102C5000020EEA6E2C0EE96E350E016EF76A000E5A
:102C6000AFEC02F00A000900F5CFEEFF012EFBD712
:102C7000020E02016C6F2C0E6B6F000166EC10F0FF
:102C8000020EEA6E2C0EE96E210E016EF76A000E3E
:102C9000D2EC02F00A000900F5CFEEFF012EFBD7BF
:102CA000020E02016C6F2C0E6B6F000166EC10F0CF
:102CB000020EEA6E2C0EE96E320E016EF76A000EFD
:102CC000EBEC02F00A000900F5CFEEFF012EFBD776
:102CD000020E02016C6F2C0E6B6F000166EC10F09F
:102CE000020EEA6E2C0EE96E390E016EF76A000EC6
:102CF0000CEC03F00A000900F5CFEEFF012EFBD724
:102D0000020E02016C6F2C0E6B6F000166EC10F06E
:102D1000020EEA6E2C0EE96E210E016EF76A000EAD
:102D200031EC03F00A000900F5CFEEFF012EFBD7CE
:102D3000020E02016C6F2C0E6B6F000166EC10F03E
:102D4000020EEA6E2C0EE96E370E016EF76A000E67
:102D50004AEC03F00A000900F5CFEEFF012EFBD785
:102D6000020E02016C6F2C0E6B6F000166EC10F00E
:102D7000020EEA6E2C0EE96E310E016EF76A000E3D
:102D80006EEC03F00A000900F5CFEEFF012EFBD731
:102D9000020E02016C6F2C0E6B6F000166EC10F0DE
:102DA000020EEA6E2C0EE96E350E016EF76A000E09
:102DB0008FEC03F00A000900F5CFEEFF012EFBD7E0
:102DC000020E02016C6F2C0E6B6F000166EC10F0AE
:102DD000020EEA6E2C0EE96E3B0E016EF76A000ED3
:102DE000B2EC03F00A000900F5CFEEFF012EFBD78D
:102DF000020E02016C6F2C0E6B6F000166EC10F07E
:102E0000020EEA6E2C0EE96E3B0E016EF76A000EA2
:102E1000D8EC03F00A000900F5CFEEFF012EFBD736
:102E2000020E02016C6F2C0E6B6F000166EC10F04D
:102E3000020EEA6E2C0EE96E2F0E016EF76A000E7E
:102E4000FEEC03F00A000900F5CFEEFF012EFBD7E0
:102E5000020E02016C6F2C0E6B6F000166EC10F01D
:102E6000020EEA6E2C0EE96E3D0E016EF76A000E40
:102E70001EEC04F00A000900F5CFEEFF012EFBD78F
:102E8000020E02016C6F2C0E6B6F000166EC10F0ED
:102E9000020EEA6E2C0EE96E2D0E016EF76A000E20
:102EA00045EC04F00A000900F5CFEEFF012EFBD738
:102EB000020E02016C6F2C0E6B6F000166EC10F0BD
:102EC000020EEA6E2C0EE96E350E016EF76A000EE8
:102ED00064EC04F00A000900F5CFEEFF012EFBD7E9
:102EE000020E02016C6F2C0E6B6F000166EC10F08D
:102EF000020EEA6E2C0EE96E250E016EF76A000EC8
:102F000087EC04F00A000900F5CFEEFF012EFBD795
:102F1000020E02016C6F2C0E6B6F000166EC10F05C
:102F20000D0E02012C6F0A0E2D6F2E6B020E6C6FB0
:102F30002C0E6B6F000166EC10F033EF2BF0A9C183
:102F4000EAFFA8C1E9FF020152C2EFFFE92AD8B4A3
:102F5000EA2AEF6A0101A82BD8B4A92B00011200BC
:102F60000900F6CF46F2F7CF47F2F5CF52F2E7DF8E
:102F700046C2F6FF47C2F7FF0201452F01D002D03B
:102F80000001EED700011200EACF38F2E9CF37F2A4
:102F900002013139F009336F3327E20F346F320FFA
:102FA000366F31510F0B342734273627E90F356F31
:102FB0003527352730390F0B352736273537363744
:102FC000361F363730510F0B36273337070E326F27
:102FD0000A0E35073627FDE334073527FDE33307AF
:102FE0003427FDE332073327FDE3020EEA6E320E8B
:102FF000E96E070E3715379DE926360EE95CD8B421
:10300000378DEF50006E08E137BD06D037B915D0C7
:1030100037B702D0200E03D037873799300E0026FD
:10302000EACF31F2E9CF30F200C052F2000187DF7F
:1030300031C2EAFF30C2E9FF0201EE5037ADDDD701
:103040000001120004DD02C02FF201C02EF202C006
:1030500039F201C038F202013B6B0A0E3A6F0001EF
:10306000CCDC02C02DF2020101C02CF2000182DC96
:1030700002C02FF201C02EF2020101502E0810E111
:103080002F530EE1000185DC84DC300E0201015C6F
:10309000006E000E0258036E00502C2703502D23A3
:1030A0002CC201F02DC202F00001120002013351C6
:1030B000016A325D03E232C200F00CD0006A080EF1
:1030C000346F323700363351005CD8B0006E0136B1
:1030D000342FF7D700011200015030C232F2640ED3
:1030E0000201336F0001E2DF00C030F20150300E08
:1030F00008E1020131A30FD031B70DD031B9200E54
:1031000004D00201319731993181012601C052F278
:10311000000115DF020130C232F20A0E336F0001E6
:10312000C5DF00C030F20150300E08E1020131B7B6
:103130000AD031A108D031B9200E0001012601C00A
:1031400052F2FDDE0201300E302730C252F2000191
:10315000F6DE120002013151036E3051D8B431074E
:10316000300703102CE02D51036E2C512C2BD8B4BA
:103170002D2B326F03C033F22F51036E2E512E2BA5
:10318000D8B42F2BE96E03C0EAFFEFCF34F2F25030
:10319000006EF29E32C2A9FF34C2A8FFA69CA69E72
:1031A000A6840F01550EA76EAA0EA76EA682A6B220
:1031B000FED7A6940050F2120001CCD70201000104
:1031C000F4EF18F0010103519F080FE104510B08BF
:1031D0000CE102012D6B2C6B2F6BAB0E2E6F316B44
:1031E000580E306F0001B6D70101046B036B00016C
:1031F00012000201316B306B315359E13051130829
:1032000056E33035326F3135336F32373337FC0E9A
:10321000321733C203F0325100011FEC05F00900F0
:10322000F5CF03F0016E035002012F5D3CE303E193
:1032300001502E5D38E3010E3025346F000E312130
:10324000356F3437353734373537FC0E341735C2E0
:1032500003F0345100011FEC05F00900F5CF03F035
:10326000016E02012F51035C1EE303E101502E5D4C
:103270001AE23035326F3135336F32373337FC0E67
:103280003217020E3225016E000E3321036E0150FB
:1032900000011FEC05F00900F5CF03F0016E03C03B
:1032A00002F008D00201302BD8B4312BA5D7000E84
:1032B000016E026E0001E4EF23F027EC15F001C06F
:1032C00000F002C001F0026A036A03C02FF202C0DC
:1032D0002EF201C02DF200C02CF2C9EC14F027EC44
:1032E00015F001C000F002C001F0026A036A03C0D9
:1032F00033F202C032F201C031F200C030F2BAEC57
:1033000014F002C035F201C034F2020101502E085F
:103310001EE135531CE10001C9EC14F027EC15F057
:1033200001C000F002C001F0026A036A03C033F278
:1033300002C032F201C031F200C030F2020130515D
:103340002C2731512D2332512E2333512F232FC2BD
:103350004BF22EC24AF22DC249F22CC248F24F6BF8
:103360004E6B4D6B640E4C6F000160EC09F0020176
:10337000305100240001AB6F0201315101200001E6
:10338000AC6F18EC0EF0E1EF24F0E95002014A6F47
:1033900049514C6F1CE048C255F247C254F246C234
:1033A00053F245C252F2596B586B200E576F820E82
:1033B000566F000100EC0DF003C048F202C047F266
:1033C00001C046F200C045F202014C2FE4D748C2CA
:1033D00055F247C254F246C253F245C252F20001BE
:1033E0007BEC0DF003C048F202C047F201C046F288
:1033F00000C045F2020148AF0DD04A074A8B451F75
:10340000461F471F481F452BD8B4462BD8B4472B1F
:10341000D8B4482B3B0E516F9A0E506FCA0E4F6FA7
:103420004E6B0A0E4C6F4951D8B44A2BD882020E0B
:10343000EA6E450EE96E48C255F247C254F246C2E2
:1034400053F245C252F251C259F250C258F24FC221
:1034500057F24EC256F200018EEC09F001500052B4
:1034600013E1020149294C5DD8A402D000010CD01F
:103470004A510DE00F0B4C5D01E040E24ABF3ED0E7
:103480004ABD05D0200E34D0200E02014A174AABA7
:103490000ED04A9B4951D8A44A0700504A6F2D0EBE
:1034A000526F00014CDD02014A51006E4A6B4951D6
:1034B0004C5D0CE100504A6F2E0E526F00013FDD53
:1034C00002014A51006E200E4A17000E300E4AAB20
:1034D0000FD04A9B4951D8A44A0700504A6F2D0E7D
:1034E000526F00012CDD02014A51006E4A6B300E12
:1034F000002600C052F2000122DD0201D89251C222
:1035000055F250C254F24FC253F24EC252F2596BAE
:10351000586B576B0A0E566F00018EEC09F003C012
:1035200051F202C050F201C04FF200C04EF202014F
:103530004C2F7CD70001C7EF1AF0AD51AE1131E02E
:1035400043EC13F000C041F201C042F202C043F26A
:1035500003C044F2010E0101A96F7D0EA86FD40EC5
:10356000F66E0B0EF76E060E0201456F0001F8DCD9
:10357000050EE96E44C248F243C247F242C246F227
:1035800041C245F2020E0201496F0001FED6DF0E74
:10359000F66E0B0EF76E080E0201456F0001E0DCBF
:1035A00018D0020EEA6E2C0EE96E150E016EF76A47
:1035B000000ED3EC01F00A000900F5CFEEFF012E5A
:1035C000FBD7020E02016C6F2C0E6B6F000166ECD4
:1035D00010F012000900F5520CE0F6CF30F2F7CFF0
:1035E00031F2F5CF52F2ABDC30C2F6FF31C2F7FF59
:1035F000F1D736EF25F027EC15F002C02DF201C00F
:103600002CF22CC2FDF002012D5329E12C51280887
:1036100026E32D5303E12C51130821E2140E2C5DF7
:103620000001F36F000E02012D590001F46FD890D4
:10363000F335026EF435036E0250C40FE96E000ECE
:103640000320EA6EECCF03F0ED52EFCF1AF003C087
:103650001BF0010E016E000E026E04D00201000E7E
:10366000016E026E000139EF26F027EC15F002C062
:103670002DF201C02CF22CC2FEF002012D5329E1E3
:103680002C51280826E32D5303E12C51130821E285
:10369000140E2C5D0001BB6F000E02012D590001BC
:1036A000BC6FD890BB35026EBC35036E0250C40FA0
:1036B000E96E000E0320EA6EECCF03F0ED52EFCF7F
:1036C0001CF003C01DF0010E016E000E026E04D04E
:1036D0000201000E016E026E00018EEF26F0016AFB
:1036E000026A006A036A0201315102E1305118E0B6
:1036F000100E326FD8902E372F37003603363151E7
:10370000035C02E13051005C07E33051005ED8A059
:1037100003063151035ED88001360236322FEAD7D4
:1037200000011200EF520FE0EACF31F2E9CF30F2A0
:10373000EFCF52F204DC31C2EAFF30C2E9FFE92ADE
:10374000D8B4EA2AEFD791EF29F00101C86BF26BE8
:10375000020EC96F466B0001BAEC14F002C02DF2E4
:1037600001C02CF2020101503A081EE12D531CE168
:103770000001C9EC14F027EC15F001C001F2C9EC0E
:1037800014F002C02DF201C02CF2020101503A08DF
:1037900002E12D5300E101510001F15D02E1F2531C
:1037A00002E033EF2BF002010001C9EC14F002C07B
:1037B0002DF201C02CF202012D5303E12C516008BF
:1037C00008E22D5306E12C517A0803E32C51DF0B5C
:1037D00001D02C510101F36F0001C9EC14F002C0BB
:1037E0002DF201C02CF202012D5303E12C5160088F
:1037F00008E22D5306E12C517A0803E32C51DF0B2C
:1038000001D02C510101F46F0001D9EC14F0BAEC95
:1038100014F002C02DF201C02CF2020101500D087B
:1038200006E12D5304E1010E0101F26F02010101D5
:10383000F3514C0A00013BE0680A5BE06C0AD8B423
:1038400087D00E0AD8B4A8D00B0AD8B421D1090A5F
:10385000D8B4A1D1160AD8B425D3050AD8B44BEFF1
:1038600022F0040AD8B45AEF22F0060AD8B47BEF4B
:1038700022F0170AD8B480EF23F00B0AD8B42AEF4D
:1038800024F01D0AD8B4E7EF24F0020AD8B4F9EF07
:1038900024F0150AD8B40DEF27F0040AD8B411EFBC
:1038A00028F0160AD8B49BEF28F014EF2BF0010192
:1038B000F451490A000103E0060A16E018D027EC8B
:1038C00015F002C00BF201C00AF202010A51B80859
:1038D00006E10B51440803E1010E0101316F010EB5
:1038E0000101486F000103D00101316B000133EF8A
:1038F0002BF00101315304E1000133EF2BF0010102
:10390000F451520822E1000127EC15F002C00BF23D
:1039100001C00AF202010A51B70803E10B51440841
:1039200002E034EF2BF00101476B0D0E02010E6F28
:103930000A0E0F6F106F2A0E116F126B020E6C6F52
:103940000E0E6B6F000166EC10F0000133EF2BF0F0
:103950000101315304E1000133EF2BF00101020EAC
:10396000EA6E130EE96E0F0E016EF76A000E00018B
:10397000A2EC04F00A000900F5CFEEFF012EFBD700
:10398000020E02016C6F130E6B6F000166EC10F0FB
:103990008AEF15F033EF2BF00101315304E1000100
:1039A00033EF2BF00101F451520A000101E06ED017
:1039B0000101F451520851E1F25326E0010EA96FC2
:1039C000CA0EA86F280EF66E0C0EF76E030E0201DB
:1039D000456F0001B0EC17F0100EE96EBAC031F27D
:1039E000B9C030F2C4EC17F00D0E0201526F0001A5
:1039F0009FEC17F0010E02016C6FCA0E6B6F000195
:103A000066EC10F028D00101000122EC18F0020150
:103A1000056B046B02C003F201C002F203C2BAF0EC
:103A200002C2B9F003C22DF202C22CF203C237F275
:103A300002C236F20001D8EC09F040EC0BF0320E75
:103A40000201426F00017FEC07F040EC0BF0010E29
:103A50000101C86F00011AD00101020EEA6E130EB7
:103A6000E96E0A0E016EF76A000E0001B2EC04F076
:103A70000A000900F5CFEEFF012EFBD7020E02016E
:103A80006C6F130E6B6F000166EC10F033EF2BF0D0
:103A90000101315304E1000133EF2BF00101F45136
:103AA0004F085DE1F25324E0010EA96FCA0EA86F22
:103AB000300EF66E0C0EF76E030E0201456F00011C
:103AC000B0EC17F0AFC030F21B0E0201316F0001F5
:103AD0006CEC18F00D0E0201526F00019FEC17F014
:103AE000010E02016C6FCA0E6B6F000166EC10F0E4
:103AF000000127EC15F002C00BF201C00AF202012E
:103B00000B530DE10A5103080AE30AC2AFF00001AA
:103B1000EBEC0BF0010E0101C86F20D00201020E88
:103B2000EA6E130EE96E090E016EF76A000E0001CF
:103B3000BFEC04F00A000900F5CFEEFF012EFBD721
:103B4000020E02016C6F130E6B6F000166EC10F039
:103B50000101C86B000133EF2BF0010119D0020EF7
:103B6000EA6E130EE96E090E016EF76A000E00018F
:103B7000BFEC04F00A000900F5CFEEFF012EFBD7E1
:103B8000020E02016C6F130E6B6F000166EC10F0F9
:103B9000000133EF2BF00101315304E1000133EF59
:103BA0002BF00101F451530A000107E0030AD8B4D5
:103BB00080D0150AD8B4F9D073D10101F25326E0B0
:103BC000010EA96FCA0EA86F380EF66E0C0EF76EB6
:103BD000030E0201456F0001B0EC17F0B3C030F2E4
:103BE0001B0E0201316F00016CEC18F00D0E02018A
:103BF000526F00019FEC17F0010E02016C6FCA0EAC
:103C00006B6F000166EC10F04FD00101000127EC52
:103C100015F002C00BF201C00AF202010B530AE1D7
:103C20000A51010807E30AC2B3F0000119EC0CF0D5
:103C30003BD00201020EEA6E130EE96E090E016E10
:103C4000F76A000E0001BFEC04F00A000900F5CF8E
:103C5000EEFF012EFBD7020E02016C6F130E6B6F8D
:103C6000000166EC10F0010E0101A96F7D0EA86F36
:103C7000400EF66E0C0EF76E070E0201456F000146
:103C8000B0EC17F0B3C030F21B0E0201316F00012F
:103C90006CEC18F00D0E0201526F00019FEC17F052
:103CA0000101C86B0001FCD0010E0101C86F0001C9
:103CB000F7D00101F25326E0010EA96FCA0EA86FDA
:103CC0004C0EF66E0C0EF76E030E0201456F0001EE
:103CD000B0EC17F0B1C030F21B0E0201316F0001E1
:103CE0006CEC18F00D0E0201526F00019FEC17F002
:103CF000010E02016C6FCA0E6B6F000166EC10F0D2
:103D00004FD00101000127EC15F002C00BF201C0F9
:103D10000AF202010B530AE10A51010807E30AC241
:103D2000B1F00001EBEC0BF03BD00201020EEA6EA9
:103D3000130EE96E090E016EF76A000E0001BFEC6A
:103D400004F00A000900F5CFEEFF012EFBD7020EAA
:103D500002016C6F130E6B6F000166EC10F0010E28
:103D60000101A96F7D0EA86F540EF66E0C0EF76E52
:103D7000070E0201456F0001B0EC17F0B1C030F240
:103D80001B0E0201316F00016CEC18F00D0E0201E8
:103D9000526F00019FEC17F00101C86B000180D049
:103DA000010E0101C86F00017BD00101F25326E032
:103DB000010EA96FCA0EA86F600EF66E0C0EF76E9C
:103DC000030E0201456F0001B0EC17F0B7C030F2EE
:103DD0001B0E0201316F00016CEC18F00D0E020198
:103DE000526F00019FEC17F0010E02016C6FCA0EBA
:103DF0006B6F000166EC10F04FD00101000127EC61
:103E000015F002C00BF201C00AF202010B530AE1E5
:103E10000A51010807E30AC2B7F00001EBEC0BF00E
:103E20003BD00201020EEA6E130EE96E090E016E1E
:103E3000F76A000E0001BFEC04F00A000900F5CF9C
:103E4000EEFF012EFBD7020E02016C6F130E6B6F9B
:103E5000000166EC10F0010E0101A96F7D0EA86F44
:103E6000680EF66E0C0EF76E070E0201456F00012C
:103E7000B0EC17F0B7C030F21B0E0201316F000139
:103E80006CEC18F00D0E0201526F00019FEC17F060
:103E90000101C86B000104D0010E0101C86F0001CF
:103EA00033EF2BF00101315304E1000133EF2BF02C
:103EB0000101410EF45DF00FD8B0EAD2100F0001FD
:103EC00037EF2BF00101F25326E0010EA96FCA0E65
:103ED000A86F740EF66E0C0EF76E030E0201456F9E
:103EE0000001B0EC17F0B6C030F21B0E0201316FCA
:103EF00000016CEC18F00D0E0201526F00019FECF6
:103F000017F0010E02016C6FCA0E6B6F000166ECB8
:103F100010F07ED00101000127EC15F002C00BF279
:103F200001C00AF202010B5339E10A51010836E3DC
:103F30000001F72D0FD0F8530DE102010A5307E1FC
:103F40000B5305E10001FA6B010EF96F03D000017C
:103F5000FA6BF96B02010A2D11D00B530FE100012E
:103F6000FA6BF96BF9C0A5F1320E0201426F000144
:103F70007FEC07F092EC0EF00FD002010001FA6B1B
:103F8000010EF96FF9C0A5F1320E0201426F000176
:103F90007FEC07F092EC0EF03BD00201020EEA6ECD
:103FA000130EE96E090E016EF76A000E0001BFECF8
:103FB00004F00A000900F5CFEEFF012EFBD7020E38
:103FC00002016C6F130E6B6F000166EC10F0010EB6
:103FD0000101A96F7D0EA86F7C0EF66E0C0EF76EB8
:103FE000070E0201456F0001B0EC17F0A5C130F2D9
:103FF0001B0E0201316F00016CEC18F00D0E020176
:10400000526F00019FEC17F00101C86B41D2000113
:10401000010E0101C86F3CD20101F25326E0010EEE
:10402000A96FCA0EA86F880EF66E0C0EF76E030EFF
:104030000201456F0001B0EC17F0A6C130F21B0E73
:104040000201316F00016CEC18F00D0E0201526F8D
:1040500000019FEC17F0010E02016C6FCA0E6B6F2E
:10406000000166EC10F0B2D00101000127EC15F060
:1040700002C00BF201C00AF202010A5334E10B53F1
:1040800032E10001F551F61103E1F751F81113E0A7
:104090000101A66B0001AE6BA6C1ADF03C0E0201A2
:1040A000426F00017FEC07F092EC0EF0010E01016F
:1040B000C86F17D00001F55302E1F65303E0F75142
:1040C000F8110EE00101A66B0001AE6BA6C1ADF0C8
:1040D0003C0E0201426F00017FEC07F092EC0EF003
:1040E000010173D002010A2D37D00B5335E10001D5
:1040F000F551F61116E0010E0101A66F0001AE6B3D
:10410000A6C1ADF04BEC0FF0320E0201426F000180
:104110007FEC07F0010E0101C86F000192EC0EF078
:1041200019D0F55317E1F65315E1010E0101A66F01
:104130000001AE6BA6C1ADF04BEC0FF0320E0201E8
:10414000426F00017FEC07F0010E0101C86F000112
:1041500092EC0EF03BD00201020EEA6E130EE96EF5
:10416000090E016EF76A000E0001BFEC04F00A00B0
:104170000900F5CFEEFF012EFBD7020E02016C6F96
:10418000130E6B6F000166EC10F0010E0101A96FB8
:104190007D0EA86F900EF66E0C0EF76E070E0201E4
:1041A000456F0001B0EC17F0A6C130F21B0E020102
:1041B000316F00016CEC18F00D0E0201526F00011E
:1041C0009FEC17F00101C86B63D10001010E0101E2
:1041D000C86F5ED10101F25326E0010EA96FCA0E2D
:1041E000A86F9C0EF66E0C0EF76E030E0201456F63
:1041F0000001B0EC17F0100EE96EF8C031F2F7C014
:1042000030F2C4EC17F00D0E0201526F00019FEC6A
:1042100017F0010E02016C6FCA0E6B6F000166ECA5
:1042200010F049D00101000127EC15F002C00BF29B
:1042300001C00AF202010B5325E10A51010822E3F1
:104240000A530EE10B530CE10001F86BF76B320ED1
:104250000201426F00017FEC07F092EC0EF00201C8
:104260000A2D0FD00B530DE10001F86B010EF76F13
:10427000320E0201426F00017FEC07F092EC0EF06B
:1042800002011AD0020EEA6E130EE96E0A0E016EDA
:10429000F76A000E0001B2EC04F00A000900F5CF45
:1042A000EEFF012EFBD7020E02016C6F130E6B6F37
:1042B000000166EC10F002010101EAD00101F253A5
:1042C00026E0010EA96FCA0EA86FA40EF66E0C0EA2
:1042D000F76E030E0201456F0001B0EC17F0100EEF
:1042E000E96EF6C031F2F5C030F2C4EC17F00D0EF5
:1042F0000201526F00019FEC17F0010E02016C6F7A
:10430000CA0E6B6F000166EC10F039D0010100019C
:1043100027EC15F002C00BF201C00AF202010B53A8
:1043200015E10A51010812E30BC2F6F00AC2F5F0DA
:104330000101A62B010EA617320E0201426F0001E9
:104340007FEC07F092EC0EF01AD00201020EEA6E3A
:10435000130EE96E0A0E016EF76A000E0001B2EC50
:1043600004F00A000900F5CFEEFF012EFBD7020E84
:1043700002016C6F130E6B6F000166EC10F001010F
:1043800087D00101F25326E0010EA96FCA0EA86F73
:10439000AC0EF66E0C0EF76E030E0201456F0001B7
:1043A000B0EC17F0B5C030F21B0E0201316F000106
:1043B0006CEC18F00D0E0201526F00019FEC17F02B
:1043C000010E02016C6FCA0E6B6F000166EC10F0FB
:1043D00051D00101000127EC15F002C00BF201C021
:1043E0000AF202010B530DE10A5101080AE30AC265
:1043F000B5F00001EBEC0BF0010E0101C86F3AD0F3
:104400000201020EEA6E130EE96E090E016EF76AE2
:10441000000E0001BFEC04F00A000900F5CFEEFF2A
:10442000012EFBD7020E02016C6F130E6B6F0001A1
:1044300066EC10F0010E0101A96F7D0EA86FB40E9D
:10444000F66E0C0EF76E070E0201456F0001B0EC20
:1044500017F0B5C030F21B0E0201316F00016CEC99
:1044600018F00D0E0201526F00019FEC17F00101D0
:10447000C86B0ED0010E0101C86F0AD0CDEC07F059
:1044800092EC0EF0010E0101C86F02D0FF00010195
:10449000000133EF2BF00101315304E1000133EF50
:1044A0002BF00101F451410802E1010EC86F000137
:1044B00033EF2BF00101315304E1000133EF2BF016
:1044C0000101F451500A000103E0060A06E011D090
:1044D000010E0101C86F00010CD00B0E0101046F29
:1044E0009F0E036F0001E2EC18F0010E0101C86F8E
:1044F000000133EF2BF00101315304E1000133EFF0
:104500002BF00101F451540A000104E0070AD8B469
:104510007FD0F4D00101F25326E0010EA96FCA0E3C
:10452000A86FC00EF66E0C0EF76E030E0201456FFB
:104530000001B0EC17F0FBC030F21B0E0201316F2E
:1045400000016CEC18F00D0E0201526F00019FEC9F
:1045500017F0010E02016C6FCA0E6B6F000166EC62
:1045600010F050D00101000127EC15F002C00BF251
:1045700001C00AF202010B530BE10A51EF0808E3F4
:104580000B5303E10A510A0803E20AC2FBF03BD0D5
:10459000020EEA6E130EE96E090E016EF76A000E46
:1045A0000001BFEC04F00A000900F5CFEEFF012E78
:1045B000FBD7020E02016C6F130E6B6F000166ECED
:1045C00010F0010E0101A96F7D0EA86FC80EF66EE6
:1045D0000C0EF76E070E0201456F0001B0EC17F0EC
:1045E000FBC030F21B0E0201316F00016CEC18F0C1
:1045F0000D0E0201526F00019FEC17F00101C86B14
:1046000000017CD00201010E0101C86F000176D0CB
:104610000101F25326E0010EA96FCA0EA86FD40E55
:10462000F66E0C0EF76E030E0201456F0001B0EC42
:1046300017F0FCC030F21B0E0201316F00016CEC70
:1046400018F00D0E0201526F00019FEC17F0010EE1
:1046500002016C6FCA0E6B6F000166EC10F04BD05C
:104660000101000127EC15F002C00BF201C00AF2B3
:1046700002010B5306E10A51010803E30AC2FCF0F0
:104680003BD0020EEA6E130EE96E090E016EF76A58
:10469000000E0001BFEC04F00A000900F5CFEEFFA8
:1046A000012EFBD7020E02016C6F130E6B6F00011F
:1046B00066EC10F0010E0101A96F7D0EA86FDC0EF3
:1046C000F66E0C0EF76E070E0201456F0001B0EC9E
:1046D00017F0FCC030F21B0E0201316F00016CECD0
:1046E00018F00D0E0201526F00019FEC17F001014E
:1046F000C86B000103D00201000100D033EF2BF0A2
:104700000101315304E1000133EF2BF00101F451B9
:10471000470A000101E09CD00101F25326E0010E9E
:10472000A96FCA0EA86FE80EF66E0C0EF76E030E98
:104730000201456F0001B0EC17F0100EE96E00C1E8
:1047400031F2FFC030F2C4EC17F00D0E0201526FCF
:1047500000019FEC17F0010E02016C6FCA0E6B6F27
:10476000000166EC10F070D00101000127EC15F09B
:1047700001C000F002C001F0026A036A03C009F23E
:1047800002C008F201C007F200C006F2020109539C
:1047900007E1085305E1075303E1065100081AE257
:1047A000095318E1085316E1075314E1065128088C
:1047B00011E307C22DF206C22CF207C22FF206C285
:1047C0002EF20001F9EF18F002C000F101C0FFF075
:1047D0003BD00201020EEA6E130EE96E090E016E65
:1047E000F76A000E0001BFEC04F00A000900F5CFE3
:1047F000EEFF012EFBD7020E02016C6F130E6B6FE2
:10480000000166EC10F0010E0101A96F7D0EA86F8A
:10481000F00EF66E0C0EF76E070E0201456F0001EA
:10482000B0EC17F0100EE96E00C131F2FFC030F2AB
:10483000C4EC17F00D0E0201526F00019FEC17F04F
:104840000101C86B000104D0010E0101C86F000115
:1048500033EF2BF00101315304E1000133EF2BF072
:104860000101F451440A000104E0070AD8B47DD0E4
:10487000ACD00101F25326E0010EA96FCA0EA86F59
:10488000FC0EF66E0C0EF76E030E0201456F000172
:10489000B0EC17F0B4C030F21B0E0201316F000112
:1048A0006CEC18F00D0E0201526F00019FEC17F036
:1048B000010E02016C6FCA0E6B6F000166EC10F006
:1048C0004FD00101000127EC15F002C00BF201C02E
:1048D0000AF202010B530AE10A51030807E30AC274
:1048E000B4F0000119EC0CF03BD00201020EEA6EAC
:1048F000130EE96E090E016EF76A000E0001BFEC9F
:1049000004F00A000900F5CFEEFF012EFBD7020EDE
:1049100002016C6F130E6B6F000166EC10F0010E5C
:104920000101A96F7D0EA86F040EF66E0D0EF76ED5
:10493000070E0201456F0001B0EC17F0B4C030F271
:104940001B0E0201316F00016CEC18F00D0E02011C
:10495000526F00019FEC17F00101C86B000135D0C8
:10496000010E0101C86F000130D00101F25326E0B1
:10497000010EA96FCA0EA86F100EF66E0D0EF76E1F
:10498000030E0201456F0001B0EC17F0100EE96E46
:10499000ACC031F2ABC030F2C4EC17F00D0E020126
:1049A000526F00019FEC17F0010E02016C6FCA0EEE
:1049B0006B6F000166EC10F004D0010100015DEFA7
:1049C00019F0010E0101C86F000133EF2BF0010156
:1049D000315304E1000133EF2BF00101F45145089C
:1049E00005E100019DEC1AF00101C86B000133EFF5
:1049F0002BF00101315304E1000133EF2BF00101F1
:104A0000F451450A000110E0160AD8B4A8D01F0AD4
:104A1000D8B428D11C0AD8B44BD11D0AD8B483D13C
:104A20000E0AD8B4BBD1F7D10101F45145087CE19D
:104A300002C12CF202012D6B2D6B01C12EF202017D
:104A40002F6B010E0101A96FCA0EA86F180EF66E2A
:104A50000D0EF76E030E0201456F0001B0EC17F06A
:104A6000A80EF66E090EF76EEAEF1AF01D0EF66E3E
:104A70000D0EF76E040E0201456F0001B0EC17F049
:104A8000100EE96E2DC231F22CC230F2C4EC17F0D8
:104A90002E0E0201526F00019FEC17F0100EE96E0E
:104AA0002FC231F22EC230F2C4EC17F0280EF66E8F
:104AB0000D0EF76E040E0201456F0001B0EC17F009
:104AC0000B0EE96EF2C031F2F1C030F2C4EC17F017
:104AD000310EF66E0D0EF76E040E0201456F0001E9
:104AE000B0EC17F00B0EE96EEFC031F2EEC030F211
:104AF000C4EC17F0F0C030F2010E0201316F00017A
:104B00006CEC18F00D0E0201526F00019FEC17F0D3
:104B1000010E02016C6FCA0E6B6F000166EC10F0A3
:104B2000010E0101C86F19D0020EEA6E130EE96E74
:104B3000090E016EF76A000E0001BFEC04F00A00D6
:104B40000900F5CFEEFF012EFBD7020E02016C6FBC
:104B5000130E6B6F000166EC10F000015CD10101D7
:104B6000F2533AE002C12CF202012D6B2D6B01C110
:104B70002EF202012F6B010E0101A96FCA0EA86F60
:104B8000400EF66E0D0EF76E030E0201456F00012A
:104B9000B0EC17F0100EE96E2DC231F22CC230F2DB
:104BA000C4EC17F0100EE96E2FC231F22EC230F2B3
:104BB000C4EC17F00D0E0201526F00019FEC17F0CC
:104BC000010E02016C6FCA0E6B6F000166EC10F0F3
:104BD000010E0101C86F44D0000127EC15F002C09E
:104BE0000BF201C00AF2BAEC14F002C02DF201C0BF
:104BF0002CF2020101502E081AE12D5318E1000198
:104C0000C9EC14F027EC15F002C00DF201C00CF253
:104C1000000E02010C270A510D230DC202F10CC235
:104C200001F1010E0101C86F0001F5D00201020E71
:104C3000EA6E130EE96E090E016EF76A000E0001AE
:104C4000BFEC04F00A000900F5CFEEFF012EFBD700
:104C5000020E02016C6F130E6B6F000166EC10F018
:104C60000001D9D00101F4514C0807E10001FBEF2C
:104C70001AF0010E0101C86F19D0020EEA6E130E70
:104C8000E96E090E016EF76A000E0001BFEC04F038
:104C90000A000900F5CFEEFF012EFBD7020E02013C
:104CA0006C6F130E6B6F000166EC10F00001B3D057
:104CB0000101F25330E0140E0001BB2502012C6FFC
:104CC000000E0001BC2102012D6F010E0101A96F30
:104CD000CA0EA86F4C0EF66E0D0EF76E030E020193
:104CE000456F0001B0EC17F0100EE96E2DC231F2E5
:104CF0002CC230F2C4EC17F00D0E0201526F00010D
:104D00009FEC17F0010E02016C6FCA0E6B6F000171
:104D100066EC10F003D0000135EF1BF0010E01012D
:104D2000C86F000178D00101F25326E0010EA96F8F
:104D3000CA0EA86F540EF66E0D0EF76E030E02012A
:104D4000456F0001B0EC17F0100EE96E23C031F290
:104D500022C030F2C4EC17F00D0E0201526F0001B8
:104D60009FEC17F0010E02016C6FCA0E6B6F000111
:104D700066EC10F012D00101000127EC15F002C022
:104D800023F001C022F0010E0201326F0BC234F297
:104D90000AC233F20001E6EC07F03DD00101F25304
:104DA00026E0010EA96FCA0EA86F5C0EF66E0D0EFE
:104DB000F76E030E0201456F0001B0EC17F0100E04
:104DC000E96E25C031F224C030F2C4EC17F00D0EAC
:104DD0000201526F00019FEC17F0010E02016C6F8F
:104DE000CA0E6B6F000166EC10F015D001010001D6
:104DF00027EC15F002C00BF201C00AF20BC225F03D
:104E00000AC224F00201326B0BC234F20AC233F23E
:104E10000001E6EC07F033EF2BF00101315304E120
:104E2000000133EF2BF00101F4515308D8A47AD0DC
:104E3000F25326E0010EA96FCA0EA86F640EF66E3B
:104E40000D0EF76E030E0201456F0001B0EC17F076
:104E5000B2C030F21B0E0201316F00016CEC18F091
:104E60000D0E0201526F00019FEC17F0010E0201BE
:104E70006C6FCA0E6B6F000166EC10F04FD0010131
:104E8000000127EC15F002C00BF201C00AF202018A
:104E90000B530AE10A51010807E30AC2B2F000010C
:104EA00019EC0CF03BD00201020EEA6E130EE96E13
:104EB000090E016EF76A000E0001BFEC04F00A0053
:104EC0000900F5CFEEFF012EFBD7020E02016C6F39
:104ED000130E6B6F000166EC10F0010E0101A96F5B
:104EE0007D0EA86F6C0EF66E0D0EF76E070E0201AA
:104EF000456F0001B0EC17F0B2C030F21B0E02019A
:104F0000316F00016CEC18F00D0E0201526F0001C0
:104F10009FEC17F00101C86B0001A5D3010E010140
:104F2000C86F7DD0F4515008D8A479D0F25326E050
:104F3000010EA96FCA0EA86F780EF66E0D0EF76EF1
:104F4000030E0201456F0001B0EC17F0B0C030F263
:104F50001B0E0201316F00016CEC18F00D0E020106
:104F6000526F00019FEC17F0010E02016C6FCA0E28
:104F70006B6F000166EC10F04FD00101000127ECCF
:104F800015F002C00BF201C00AF202010B530AE154
:104F90000A51010807E30AC2B0F00001EBEC0BF084
:104FA0003BD00201020EEA6E130EE96E090E016E8D
:104FB000F76A000E0001BFEC04F00A000900F5CF0B
:104FC000EEFF012EFBD7020E02016C6F130E6B6F0A
:104FD000000166EC10F0010E0101A96F7D0EA86FB3
:104FE000800EF66E0D0EF76E070E0201456F000182
:104FF000B0EC17F0B0C030F21B0E0201316F0001AF
:105000006CEC18F00D0E0201526F00019FEC17F0CE
:105010000101C86B000127D3010E0101C86F000117
:1050200022D30101315303E100011DD30101F451E9
:10503000500A000105E0040A3DE0060A41E079D08B
:10504000140E016EC250830B0110C26E420E006E30
:10505000002EFED70000C282C2B2FED7C4CF0BF230
:105060000201C3CF0AF2010E0101A96F7D0EA86FE4
:105070008C0EF66E0D0EF76E040E0201456F0001E8
:10508000B0EC17F0100EE96E0BC231F20AC230F22A
:10509000C4EC17F00D0E0201526F00019FEC17F0E7
:1050A0000A0E0201526F00019FEC17F00101C86B5C
:1050B00000013FD09DEC1AF00101C86B000139D00E
:1050C000100E016EC250830B0110C26E1A0E006EDC
:1050D000002EFED70000C282C2B2FED7C4CF0BF2B0
:1050E0000201C3CF0AF2010E0101A96F7D0EA86F64
:1050F000960EF66E0D0EF76E040E0201456F00015E
:10510000B0EC17F0100EE96E0BC231F20AC230F2A9
:10511000C4EC17F00D0E0201526F00019FEC17F066
:105120000A0E0201526F00019FEC17F00101C86BDB
:10513000000199D298D2020EEA6E130EE96E190E92
:10514000016EF76A000EDBEC04F00A000900F5CFEF
:10515000EEFF012EFBD7020E02016C6F130E6B6F78
:10516000000166EC10F0020EEA6E130EE96E0E0EF0
:10517000016EF76A000ECCEC04F00A000900F5CFCE
:10518000EEFF012EFBD7020E02016C6F130E6B6F48
:10519000000166EC10F0010E0101A96FCA0EA86FA4
:1051A000A00EF66E0D0EF76E050E0201456F0001A2
:1051B000B0EC17F0100EE96EF2C031F2F1C030F22F
:1051C000C4EC17F0A80EF66E0D0EF76E040E020179
:1051D000456F0001B0EC17F00B0EE96EEFC031F235
:1051E000EEC030F2C4EC17F0F0C030F2010E020154
:1051F000316F00016CEC18F00D0E0201526F0001CE
:105200009FEC17F0010E02016C6FCA0E6B6F00016C
:1052100066EC10F0100E016EC250830B0110C26ECE
:105220001A0E006E002EFED70000C282C2B2FED758
:10523000C4CF06F10101C3CF05F10651020814E302
:1052400003E10551440810E3010EEA6EF50EE96E24
:10525000000E0001F0EC04F00A000900F550EE6EBB
:105260000009FBE10FD00101010EEA6EF50EE96EB7
:10527000000E0001FBEC04F00A000900F550EE6E90
:105280000009FBE1F951FA1104E002010D6B0C6B0E
:1052900004D002010D6B010E0C6FACC02FF2ABC03D
:1052A0002EF2316B640E306F00016FEC1BF002C008
:1052B0002DF201C02CF2ACC02FF2ABC02EF20201D5
:1052C000316B640E306F00016FEC1BF000C02EF2EA
:1052D00003C02FF2010E0101A96FCA0EA86FB80E0C
:1052E000F66E0D0EF76E080E0201456F0001B0EC70
:1052F00017F0100EE96EBAC031F2B9C030F2C4EC4A
:1053000017F0C30EF66E0D0EF76E060E0201456F16
:105310000001B0EC17F0010EEA6EF50EE96E92EFA7
:105320001BF0CB0EF66E0D0EF76E070E0201456FE9
:105330000001B0EC17F0100EE96E0AC131F209C19C
:1053400030F2C4EC17F0D50EF66E0D0EF76E050EAA
:105350000201456F0001B0EC17F0100EE96E2DC28E
:1053600031F22CC230F2C4EC17F02E0E0201526F53
:1053700000019FEC17F0100EE96E2FC231F22EC221
:1053800030F2C4EC17F0E10EF66E0D0EF76E090E5A
:105390000201456F0001B0EC17F0AFC030F21B0EF8
:1053A0000201316F00016CEC18F0EC0EF66E0D0E80
:1053B000F76E050E0201456F0001B0EC17F0B2C0A8
:1053C00030F21B0E0201316F00016CEC18F0F30E8D
:1053D000F66E0D0EF76E050E0201456F0001B0EC82
:1053E00017F0100EE96EAEC031F2ADC030F2C4EC71
:1053F00017F00D0E0201526F00019FEC17F0010E25
:1054000002016C6FCA0E6B6F000166EC10F0140E97
:10541000F32502012C6F000E0001F42102012D6F13
:10542000010E0101A96FCA0EA86FFE0EF66E0D0ED9
:10543000F76E060E0201456F0001B0EC17F0B7C021
:1054400030F21B0E0201316F00016CEC18F0060EF9
:10545000F66E0E0EF76E050E0201456F0001B0EC00
:1054600017F0B5C030F21B0E0201316F00016CEC79
:1054700018F00D0EF66E0E0EF76E050E0201456F5A
:105480000001B0EC17F0B1C030F21B0E0201316F19
:1054900000016CEC18F0140EF66E0E0EF76E050E91
:1054A0000201456F0001B0EC17F0100EE96E0DC25D
:1054B00031F20CC230F2C4EC17F01C0EF66E0E0E78
:1054C000F76E050E0201456F0001B0EC17F0B3C096
:1054D00030F21B0E0201316F00016CEC18F0230E4C
:1054E000F66E0E0EF76E050E0201456F0001B0EC70
:1054F00017F0B4C030F21B0E0201316F00016CECEA
:1055000018F02A0EF66E0E0EF76E050E0201456FAC
:105510000001B0EC17F0100EE96E2DC231F22CC272
:1055200030F2C4EC17F0320EF66E0E0EF76E050E6A
:105530000201456F0001B0EC17F0100EE96EF6C0E5
:1055400031F2F5C030F2C4EC17F03A0EF66E0E0EE2
:10555000F76E050E0201456F0001B0EC17F0100E5A
:10556000E96EF8C031F2F7C030F2C4EC17F0420E29
:10557000F66E0E0EF76E050E0201456F0001B0ECDF
:1055800017F0B0C030F21B0E0201316F00016CEC5D
:1055900018F00D0E0201526F00019FEC17F0010E82
:1055A00002016C6FCA0E6B6F000166EC10F0010E09
:1055B0000101A96FCA0EA86F4C0EF66E0E0EF76EA3
:1055C000060E0201456F0001B0EC17F0FBC030F28F
:1055D0001B0E0201316F00016CEC18F0540EF66ED8
:1055E0000E0EF76E050E0201456F0001B0EC17F0CC
:1055F000FCC030F21B0E0201316F00016CEC18F0A0
:105600000D0E0201526F00019FEC17F0010E020116
:105610006C6FCA0E6B6F000166EC10F09DEC1AF017
:105620000101C86B00011FD00101315303E10001EA
:105630001AD00101020EEA6E130EE96E090E016E18
:10564000F76A000E0001BFEC04F00A000900F5CF74
:10565000EEFF012EFBD7020E02016C6F130E6B6F73
:10566000000166EC10F002010001B1EF2BF0E8241C
:10567000F76AF736890FF66E560EF7220A00F550D4
:10568000FA6E0800F550F96E8243BC42D441904452
:105690008C441840904490449044904490447C44FE
:1056A000904490449044C43E5750000A06E0020AD9
:1056B0001BE0010AD8B4A6D0A5D0586A020E576ED6
:1056C000AA6BA96B010131530DE00D0EC26F3E0EA6
:1056D000C36FC46B010E02016C6FC20E6B6F0001D1
:1056E00066EC10F000018ED03452D8B475D0AA6B9D
:1056F000A96BA4EC14F00101BF6B01C0BEF15850BE
:10570000582A036A590FE96E000E0320EA6EBEC1E3
:10571000EFFF5850460804E2576A000173D00101B8
:10572000BE510D0802E1BF5305E0BE513B0855E1F3
:10573000BF5353E1BE513B080EE1BF530CE1010ED4
:10574000585C036A590FE96E000E0320EA6E0D0ED5
:10575000EF6E586A03D0000142EC07F00001A5EF9C
:105760001BF00101485305E0315303E100014AD029
:1057700001010D0EC26F0A0EC36F4F0EC46F4B0EA8
:10578000C56F0A0EC66FC76B010E02016C6FC20EA9
:105790006B6F000166EC10F00101C02D15D0C153F4
:1057A00013E1315303E100012DD001010A0EC26F54
:1057B0000D0EC36FC46B010E02016C6FC20E6B6FD6
:1057C000000166EC10F008D0010E02016C6F7D0E36
:1057D0006B6F000166EC10F001015750010810E2F8
:1057E0002BA20ED02B920001A92BD8B4AA2BAA5120
:1057F000260806E2FF0A03E1A951100801E2576AF0
:10580000000100D09EEF34F08A9202010F6B0F511D
:10581000070813E30C51800B02E18C9801D08C88AF
:1058200000D000D08C8000D000D08C9000D000D070
:105830000F510F2BD8900C37EAD70F6B0F51070879
:1058400013E30D51800B02E18C9801D08C8800D0BD
:1058500000D08C8000D000D08C9000D000D00F51B0
:105860000F2BD8900D37EAD78A820EC201F00001C3
:105870001200D8C1DAF1D9C1DBF1020E0201426F88
:10588000010E446FDA0E436F0001B4EC0BF012000E
:105890000101D551690A000119E0200A2FE02D0A03
:1058A00045E0200A5DE06F0AD8B474D0160AD8B477
:1058B00099D0100AD8B4BED0720AD8B4E5D0610A23
:1058C000D8B40CD1020AD8B415D11ED10101742B61
:1058D00006E1752B7551030802E2746B756B0B0EB4
:1058E00002010C6F74C10DF200018EDF0C0E02017B
:1058F0000C6F75C10DF2000187DF06D10101782B15
:1059000006E1792B7951030802E2786B796B0F0E6F
:1059100002010C6F78C10DF2000176DF100E02015A
:105920000C6F79C10DF200016FDFEED00101740739
:10593000743D07D075077551030803E27469030EBF
:10594000756F0B0E02010C6F74C10DF200015CDF6C
:105950000C0E02010C6F75C10DF2000155DFD4D0A1
:1059600001017807783D07D079077951030803E2F0
:105970007869030E796F0F0E02010C6F78C10DF27A
:10598000000142DF100E02010C6F79C10DF200011F
:105990003BDFBAD0010176C1D6F17751030BD76F47
:1059A000D62BD8B4D72BD751030802E2D76BD66BCE
:1059B0007751C00BD86F000ED613D851D713D6C16C
:1059C00076F1D7C177F10B0E02010C6F76C10DF2A3
:1059D00000011ADF0C0E02010C6F77C10DF20001FD
:1059E00013DF92D001017AC1D6F17B51030BD76F3F
:1059F000D62BD8B4D72BD751030802E2D76BD66B7E
:105A00007B51C00BD86F000ED613D851D713D6C117
:105A10007AF1D7C17BF10B0E02010C6F7AC10DF246
:105A20000001F2DE0C0E02010C6F7BC10DF20001D1
:105A3000EBDE6AD0010176C1D6F17751030BD76F47
:105A4000D651D8B4D707D607D751030803E2030EBF
:105A5000D76FD6697751C00BD86F000ED613D851C7
:105A6000D713D6C176F1D7C177F10B0E02010C6FB7
:105A700076C10DF20001C8DE0C0E02010C6F77C179
:105A80000DF20001C1DE40D001017AC1D6F17B5197
:105A9000030BD76FD651D8B4D707D607D751030811
:105AA00003E2030ED76FD6697B51C00BD86F000E8F
:105AB000D613D851D713D6C17AF1D7C17BF10B0ECB
:105AC00002010C6F7AC10DF200019EDE0C0E020184
:105AD0000C6F7BC10DF2000197DE16D0BD3D01D0E9
