:040000004AEF34F09F
:08000800046ED8CF05F0E0CF33
:1000100006F00001E9CF0CF0EACF07F0E1CF08F0DD
:10002000E2CF09F0D9CF0AF0DACF0BF0F3CF12F01C
:10003000F4CF13F0FACF14F0F5CF15F0F6CF16F099
:10004000F7CF17F000C00EF001C00FF002C010F0A3
:1000500003C011F09DA230EF00F09EB21FEF05F03B
:10006000F2A836EF00F0F2B275EF05F0F0A63CEF23
:1000700000F0F0B078EF05F09DAA42EF00F09EBAD4
:100080007BEF05F09DA848EF00F09EB8A2EF05F0C9
:100090007DA04EEF00F07EB011EF05F00EC000F035
:1000A0000FC001F010C002F011C003F00CC0E9FF56
:1000B00007C0EAFF078E08C0E1FF09C0E2FF0AC0DF
:1000C000D9FF0BC0DAFF12C0F3FF13C0F4FF14C056
:1000D000FAFF15C0F5FF16C0F6FF17C0F7FF045072
:1000E00006C0E0FF05C0D8FF1000F76AFA0FF66EF1
:1000F000000EF7220900F55012000000DC0091818B
:100100000008C25E0018B30400003C009500000027
:100110004000F76A220FF66E010EF7220900F55033
:100120001200244149203C6368616E6E656C3E3C60
:1001300063723E2020095265717565737420616E8B
:10014000616C6F67206368616E6E656C2076616CB0
:100150007565202831302062697473290D0A00000A
:10016000F76A700FF66E010EF7220900F5501200C3
:10017000244154203C6C6576656C3E3C63723E20A5
:10018000200953657420617474656E7561746F72B3
:1001900020746F203C6C6576656C3E0D0A00F76A32
:1001A000AE0FF66E010EF7220900F550120024433F
:1001B00046203C667265713E3C63723E20200943D6
:1001C00068616E6765206672657175656E6379201A
:1001D00028323138352E30202D20323330302E3039
:1001E00020696E20302E3120696E6373290D0A005C
:1001F000F76A000FF66E020EF7220900F5501200A2
:100200002444493C63723E20200952657175657330
:1002100074206469676974616C20696E70757473A9
:100220000D0A0000F76A340FF66E020EF72209007D
:10023000F5501200244744203C616464723E3C63E4
:10024000723E202009476574204432412072656760
:10025000697374657220636F6E74656E74730D0AD2
:100260000000F76A720FF66E020EF7220900F550D1
:100270001200244746203C616464723E3C63723E37
:100280002020094765742046504741207265676900
:100290007374657220636F6E74656E74730D0A00FB
:1002A000F76AB00FF66E020EF7220900F550120041
:1002B000244F54203C6F75747075743E3C63723EDD
:1002C000202009536574206469676974616C206F2C
:1002D00075747075747320746F204845582076616A
:1002E0006C75650D0A00F76AF60FF66E020EF722BE
:1002F0000900F55012002452443C63723E2020094C
:100300005265736574204432410D0A00F76A1C0F70
:10031000F66E030EF7220900F55012002453442014
:100320003C616464723E203C646174613E3C637273
:100330003E2020095365742044324120726567696C
:1003400073746572203C616464723E20746F203C5B
:10035000646174613E0D0A00F76A680FF66E030E61
:10036000F7220900F5501200245346203C616464D2
:10037000723E203C646174613E3C63723E20200901
:1003800053657420465047412072656769737465F0
:1003900072203C616464723E20746F203C6461741E
:1003A000613E0D0A0000F76AB60FF66E030EF722E3
:1003B0000900F55012004453203C646174612073BD
:1003C0006F7572653E3C63723E2020095365742050
:1003D0006461746120736F757273652028302D31EC
:1003E000290D0A00F76AF40FF66E030EF7220900D2
:1003F000F55012004450203C6461746120706F6CB1
:1004000061726974793E3C63723E202009536574C1
:10041000206461746120706F6C6172697479202846
:10042000302D31290D0A0000F76A380FF66E040EE0
:10043000F7220900F55012004445203C736574759D
:100440007020534F5150534B3E3C63723E20200965
:1004500053657420736574757020534F5150534B1E
:100460002028302D31290D0A0000F76A7A0FF66E28
:10047000040EF7220900F55012005250203C706F14
:100480007765722068696774683E3C63723E20201D
:100490000953657420706F776572206869677468A6
:1004A0002028302D31290D0A0000F76ABA0FF66EA8
:1004B000040EF7220900F55012005246203C706FDE
:1004C00077657220636F6D616E643E3C63723E209F
:1004D000200953657420706F77657220636F6D61BA
:1004E0006E642028302D31290D0A0000F76AFC0FB8
:1004F000F66E040EF7220900F55012005241203C1E
:1005000072616E646F6D697A65723E3C63723E2003
:10051000200973657420776974682F776974686F30
:1005200075742072616E646F6D697A65722028300F
:100530002D31290D0A00F76A460FF66E050EF722D7
:100540000900F55012004652203C667265717565CF
:100550006E63793E3C63723E2020095365742066C9
:1005600072657175656E63792028323230302E30B5
:100570002D323430302E30290D0A0000F76A8C0FEE
:10058000F66E050EF7220900F55012004D4F203C83
:100590006D6F64653E3C63723E2020095365742094
:1005A0006D6F64652028302D33290D0A0000F76A2D
:1005B000BE0FF66E050EF7220900F55012004943F2
:1005C000203C626974726174653E3C63723E202017
:1005D0000953657420626972746174652028312E34
:1005E00030302D33302E303044427073290D0A00E4
:1005F000F76A000FF66E060EF7220900F55012009A
:100600004944203C696E7465726E616C207061743F
:100610007465726E3E3C63723E20200953657420FF
:10062000696E7465726E616C207061747465726E4F
:100630002028302D33290D0A0000F76A4A0FF66E84
:10064000060EF7220900F55012005650203C706F3C
:10065000776572206C6576656C3E3C63723E202047
:100660000953657420706F776572206C6576656CD0
:10067000202832302D3430290D0A0000F76A8C0F03
:10068000F66E060EF7220900F5501200564C203C7B
:10069000706F77657220686967683E3C63723E20C0
:1006A0002009536574206869676820706F776572E8
:1006B000206C6576656C202832302D3430290D0A87
:1006C0000000F76AD20FF66E060EF7220900F55009
:1006D0001200564D203C6E65676174697665207026
:1006E0006F776572206C6576656C3E3C63723E2068
:1006F0002009536574206E656761746976652070A2
:100700006F776572206C6576656C0D0A0000F76A7C
:100710001E0FF66E070EF7220900F5501200564321
:10072000203C706F73657469766520706F776572B1
:10073000206C6576656C3E3C63723E2020095365F3
:100740007420706F73657469766520706F77657259
:10075000206C6576656C0D0A0000F76A6A0FF66E0C
:10076000070EF7220900F55012004353203C636C3A
:100770006F636B2070686173653E3C63723E20203E
:100780000953657420636C6F636B207068617365D7
:100790002028302D31290D0A0000F76AAA0FF66EC5
:1007A000070EF7220900F55012005554203C554120
:1007B00052542054696D653E3C63723E20200953BB
:1007C0006574207468652073746F702074696D653A
:1007D0002063757272656E742031352028302D3299
:1007E0003430290D0A00F76AF60FF66E070EF7226D
:1007F0000900F55012005553203C554152542053E6
:1008000074617475733E3C63723E202009536574B5
:100810002074686520426C6F636B2028302D31296D
:100820000D0A0000F76A340FF66E080EF722090071
:10083000F55012004247203C554152542043686114
:100840006E67653E3C63723E20200953657420420A
:100850006C6F636B20706572207365636F6E6420CC
:1008600028312D3230290D0A0000F76A7A0FF66E12
:10087000080EF7220900F55012005356203C736110
:10088000766520616C6C3E3C63723E2020095361AA
:10089000766520706172616D65746572730D00001C
:1008A000F76AB00FF66E080EF7220900F550120035
:1008B0000D092048454C50204C495354200D000050
:1008C000F76AD00FF66E080EF7220900F5501200F5
:1008D0000D0A4641554C540D0A00F76AEA0FF66EB0
:1008E000080EF7220900F55012000D0A4641494C46
:1008F0000D0A0000F76A040FF66E090EF7220900D0
:10090000F5501200204241313431305458205633D2
:100910002E330000F76A240FF66E090EF722090045
:10092000F55012000D0A0A4E4F2054454D502D52DD
:1009300046204F4646200D0A0000F76A4A0FF66E21
:10094000090EF7220900F55012000D0A0A4F4B203C
:100950005265717565737420537461747573200DDD
:100960000A0A0000F76A740FF66E090EF7220900F2
:10097000F5501200474F4F440000F76A8A0FF66E99
:10098000090EF7220900F550120042414400F76AAF
:100990009E0FF66E090EF7220900F55012000D0A9F
:1009A0004F4B0D0A2A00F76AB60FF66E090EF722B2
:1009B0000900F55012000D0A0A425245414B0D0A3A
:1009C0000000F76AD20FF66E090EF7220900F55003
:1009D00012000100E6030200F401030061010400BB
:1009E00004010500D2000600AA00070090000800DC
:1009F0007C0009006E000A0063000B0058000C0028
:100A00004F000D0048000E0043000F003E00100094
:100A10003900110034001200320013002E001400BF
:100A20002C007E904EEF00F00201756B74C20EF147
:100A300073C20DF19E989D88000151EF05F0266864
:100A4000272A2F2AD8B4302A01010051305C2AE32A
:100A500008E10001FF512F5CD8B002D0010122D083
:100A60000101332C1FD00001FC2D01D002D0010167
:100A700019D001010B2D02D00C5304E00B5312E1ED
:100A80000C5310E1306A2F6A010E316E0F2BD8B46F
:100A9000102B2C5307E10201746B190E736F0001C8
:100AA000C3D70101282A285009081BE2286A2F2AE7
:100AB000D8B4302A292A2A682B2A2B50090811E297
:100AC0002B6A2C682D2A2D5009080BE22D6A2E68FE
:100AD000322A0001FB51325C03E3326A010E336EAD
:100AE00001019E9200014EEF00F0F2924EEF00F0F5
:100AF000F0904EEF00F0AECF73F2036A3550370F2F
:100B0000E96E000E0320EA6E73C2EFFF352A3550FE
:100B10001F0801E2356A34501F0801E3342A9E9A07
:100B20004EEF00F0040E0201745F0AE3020EEA6E5B
:100B3000740EE96EEF5004E001D00000EF2EFDD7F7
:100B4000000112008C8A0101126B116B0EC103F0BF
:100B50000D51D8B40E070D0703101DE08C8A12C189
:100B600003F01151112BD8B4122B0201736F130E25
:100B70007325E96E010E0320EA6EEFCFADFF020E82
:100B8000736FF90E746F0001CDDF0201732FF9D777
:100B90008C9A0101DBD79D989E9800014EEF00F0E2
:100BA00024415220256C750D0000244350202575EA
:100BB0000D0024445220253032580D00200D0A2407
:100BC0005346202530325820253032580D00200D54
:100BD0000A245344202530325820253032580D0045
:100BE000465220256C750D004D4F2025750D0000D7
:100BF00044532025750D00004552522044532025B2
:100C0000750D000044502025750D000045525220FE
:100C100044502025750D000044452025750D000029
:100C20004552522044452025750D00005250202584
:100C3000750D00004552522052502025750D0000C0
:100C400052462025750D000045525220524620255F
:100C5000750D0000524320256C750D005242202571
:100C60006C750D0052412025750D00004552522033
:100C700052412025750D000055542025750D0000AA
:100C80004552522055542025750D000055532025FE
:100C9000750D00004552522055532025750D00005A
:100CA000424720256C750D004552522042472025B1
:100CB0006C750D0049442025750D000045525220E9
:100CC00049442025750D0000494320256C750D0011
:100CD00056452025732049443D2530326C7520440B
:100CE000543D2530326C75253032750D000056505C
:100CF00020256C750D00564D20256C750D00564352
:100D000020256C750D0043532025750D00004552BC
:100D1000522043532025750D000043502025750DAA
:100D200000004552522043502025750D00000A470F
:100D30005020256C750D0A000D54454D503D25364B
:100D40002E32666465670D0A4F4B0A000D0A49444E
:100D50003D256C752044543D2530326C752530326C
:100D6000750D00000D0A0A465245513D256C752C43
:100D7000205245563D25732C20464657523D256C42
:100D8000752C2049433D256C752E256C754D627080
:100D9000732C204D4F3D25752C2043533D25752C3C
:100DA0002052463D256C750D00000D0A0A44453D54
:100DB00025752C2052413D25752C2044503D25752C
:100DC0002C2052503D256C752C2044533D25752C0C
:100DD0002049443D25752C20564C3D256C752C2012
:100DE00052423D256C752C2052433D256C752C20BC
:100DF00043503D25750D00000D0A0A55543D2575DB
:100E00002C2055533D25750D0000896A8A6A8B6A2E
:100E10008C6A8D6AE10E926EC10E936EF10E946E25
:100E20008E0E956E968096829694968638EF07F091
:100E30000101786B346A34C036F036C035F0576A39
:100E40009D8A00011200480E0509BA6E630EBB6E42
:100E5000B46AB16A000E05090F01516F630E526F3B
:100E60004D6B4E6B000E4A6F000E4B6F0001CDD7DD
:100E7000C150F00BC16E210E0F01386F030E3C6F95
:100E8000000E396F3A6F3B6FC050C00B2509C06E22
:100E9000C08EC280776A040E786E796E0001C8DF5A
:100EA0009D82C00EF2128FEF34F0020EEA6E430EF6
:100EB000E96EEF500EE0050E016E006A002EFED7BF
:100EC000012EFBD72E0E006E002EFED700D0EF2E87
:100ED000F2D7120002013351036E3251D8B43307F6
:100EE000320703101FE03151036E3051302BD8B45C
:100EF000312BE96E03C0EAFF2F51036E2E512E2BCA
:100F0000D8B42F2B366F03C037F2F2CF38F2F29EEF
:100F100036C2A9FFA69CA69EA680A85038BFF28E16
:100F2000EF6ED9D70001AEEF07F0016603D002667D
:100F300002D007D0022A00C0EEFF012EFCD7022EFD
:100F4000FAD7BBEF07F002012F6B2E6B316BAB0EA4
:100F5000306F336B560E326F0001BCD7B23D01D0FB
:100F600002D0B33D08D0EA6AAB0EE96E006A026AAD
:100F7000560E016EDAD7120089940201325302E054
:100F8000898801D089988986040E006E002EFED7CC
:100F900000D08996040E006E002EFED700D08998EE
:100FA0008986040E006E002EFED700D08996040EAE
:100FB000006E002EFED700D08986040E006E002E33
:100FC000FED700D08996040E006E002EFED700D00A
:100FD0008986040E006E002EFED700D08996040E7E
:100FE000006E002EFED700D08986000B006E3451B3
:100FF000020B036E0050031002E0898801D089982B
:10100000040E006E002EFED700D08996040E006EEE
:10101000002EFED700D08986000B006E3451010BE4
:10102000036E0050031002E0898801D089988996E8
:1010300089863351800B006E036A0050031002E072
:10104000898801D08998040E006E002EFED700D04A
:101050008996040E006E002EFED700D0898633518B
:10106000400B006E036A0050031002E0898801D033
:101070008998040E006E002EFED700D08996040ECB
:10108000006E002EFED700D089863351200B006EF3
:10109000036A0050031002E0898801D0899889967C
:1010A00089863351100B006E036A0050031002E072
:1010B000898801D08998040E006E002EFED700D0DA
:1010C0008996040E006E002EFED700D0898633511B
:1010D000080B006E036A0050031002E0898801D0FB
:1010E0008998899689863351040B006E036A0050F3
:1010F000031002E0898801D08998040E006E002E4A
:10110000FED700D08996040E006E002EFED700D0C8
:1011100089863351020B006E036A0050031002E00F
:10112000898801D08998899689863351010B006E90
:10113000036A0050031002E0898801D08998040EE8
:10114000006E002EFED700D08996040E006E002E91
:10115000FED700D08986040E006E002EFED700D088
:1011600089968986040E006E002EFED700D0040EEC
:10117000006E002EFED700D08996040E006E002E61
:10118000FED700D08984040E006E002EFED700D05A
:101190008992040E006E002EFED700D08982040EC4
:1011A000006E002EFED700D0000112000201506B2D
:1011B000516B010E526FDA6AD96A020E556F480EF2
:1011C000546F020EEA6E4C0EE96E55C2E2FF54C235
:1011D000E1FF52C253F2D890E550EE02F350502393
:1011E000F4505123532FF7D750C2DEFF51C250F2B3
:1011F000516BD8B0512B542BD8B4552B522B525184
:101200000508DFE100011200D8B204D0020EEA6E38
:10121000540EE96E006A016A026A036A0201546BA5
:10122000556B566B576B53515211511150112CE0A5
:10123000200E586FD8904C374D374E374F375437B4
:101240005537563757375351575D08E15251565D60
:1012500005E15151555D02E15051545D0FE350518C
:10126000545F5151D8A0513D555F5251D8A0523DC5
:10127000565F5351D8A0533D575FD8800036013692
:1012800002360336582FD6D754C2EFFF55C2ECFFB3
:1012900056C2ECFF57C2ECFF000112000201436B83
:1012A000426B416B020E406F04003F6B3E6B37C2D6
:1012B0003DF236C23CF20101406B950E3F6F3E6B32
:1012C0003C0E3D6F02013751540812E2FF0A03E160
:1012D0003651EF080DE2436B426B416B010E406FDC
:1012E0000101406B850E3F6F3E6B3C0E3D6F02016E
:1012F00004003FC24BF23EC24AF23DC249F23CC238
:1013000048F243C24FF242C24EF241C24DF240C2D5
:101310004CF200014BDF03C047F202C046F201C0AD
:1013200045F200C044F203C04BF202C04AF201C0D1
:1013300049F200C048F202014F6B4E6B4D6B640ED8
:101340004C6F000133DF03C03FF202C03EF201C028
:101350003DF200C03CF20400D8923FC24FF23EC2C0
:101360004EF23DC24DF23CC24CF20201536B526B45
:10137000270E516F100E506F000146DF03C030F191
:1013800002C02FF101C02EF100C02DF1040030C1C8
:101390004BF22FC14AF22EC149F22DC148F202018F
:1013A0004F6B4E6B270E4D6F100E4C6F0001FEDE23
:1013B000005002013C5D446F01503D59456F0250A1
:1013C0003E59466F03503F59476F4B6B4A6B496B11
:1013D000640E486F43C24FF242C24EF241C24DF218
:1013E00040C24CF20001E2DE03C04BF202C04AF2FE
:1013F00001C049F200C048F2D89247C24FF246C23B
:101400004EF245C24DF244C24CF203C053F202C048
:1014100052F201C051F200C050F2F6DE03C034F1C6
:1014200002C033F101C032F100C031F1D8920201A3
:101430004F6B4E6B4D6B640E4C6F43C253F242C206
:1014400052F241C251F240C250F20001DDDE03C04F
:1014500047F202C046F201C045F200C044F2020168
:101460000034006E0134016E0234026E0334036EE8
:1014700000360136023603360036013602360336B0
:10148000F80E0016080E0324476F010E0024010118
:10149000356F000E020101200101366F000E0201BE
:1014A00002200101376F000E020147210101386F50
:1014B0000400010E02013827D8B0392BD8B43A2BDA
:1014C000D8B43B2B00011200080E0201406F4053BC
:1014D0001EE03FAF02D08B8601D08B960C0E006EC3
:1014E000002EFED700D000008B840C0E006E002E64
:1014F000FED700D000008B94200E006E002EFED789
:1015000000D0000040514007D8903F37E0D78B967D
:101510008B94000112000400F29CF29EF2BEFDD7F3
:101520003DC23EF23DC23FF2CFDF3CC23EF23CC282
:101530003FF2CADF3BC23EF23BC23FF2C5DF3AC2D6
:101540003EF23AC23FF2C0DF340E006E002EFED7EC
:1015500000D000008B82060E006E002EFED7000029
:101560008B928B96C00EF2120400120002013B6BAC
:1015700001012D3502013C6F01012E3502013D6F45
:1015800001012F3502013E6F3C373D373E373C3776
:101590003D373E373C373D373E373C373D373E37AA
:1015A0003C373D373E373C373D373E37800E3C17A2
:1015B00001013135006E3235016E3335026E34353E
:1015C000036E003601360236033600360136023627
:1015D0000336F80E0016005002013B25366F01500D
:1015E0003C21376F02503D21386F03503E21396F47
:1015F00039C23CF138C23BF137C23AF136C239F157
:10160000040039C23DF238C23CF237C23BF236C266
:101610003AF2000180DF1A0E006E002EFED70000A5
:10162000040038C13DF237C13CF236C13BF235C14E
:101630003AF271DF1A0E006E002EFED70000040091
:1016400040C13DF23FC13CF23EC13BF23DC13AF2E6
:1016500062DF12008A940C0E006E002EFED700D0BE
:101660000000020143514307000A22E045C203F093
:101670004451442BD8B4452BE96E03C0EAFFEFCFA9
:1016800046F2476B4751070812E346AF02D08C88F9
:1016900001D08C9800D000D08C8000D000D08C90ED
:1016A00000D000D04751472BD8904637EBD7DAD738
:1016B0000C0E006E002EFED700D000008A840001C0
:1016C00012000201366B0001B039006EF00E0016F8
:1016D0000050AF1102013F6F0001B139006E0036BA
:1016E000E00E0016005002013F130001B539006EF4
:1016F00000360036C00E0016005002013F13006A8B
:101700000001B7B1008E005002013F11376F020E89
:10171000436F456F360E446F00019CDF1200060ECA
:101720000201366FD8900001B335B21102013F6F4C
:101730000001B435006E0036FC0E001600500201A8
:101740003F11376F020E436F456F360E446F000135
:1017500081DF1200B60E006E036A026A016A02019E
:10176000535154115511561102E1006A0DD0D89011
:1017700001BE09D053375437553756370336023632
:101780000136002EF4D7019E00011BEF0DF002017F
:101790005351D8B4A5D05F6F5751D8B4A1D05F5F73
:1017A00005E37F0E5F27D8B09BD006D0810E5F5F28
:1017B000D8A096D0D8B494D05FC200F0016A026A73
:1017C000036A5E6B54C25DF25D8F55C25CF256C215
:1017D0005BF2190E5F6F5A515B5F0DE2010E5C5FA9
:1017E0000AE25D5F08E25E5F06E25E2B5D2B5C2B2A
:1017F0005A515B2728D059515C5F12E2010E5D5FA0
:101800000FE25E5F0DE25E2B5D2B59515C275A5152
:101810005B2719E35C2B17E15D2B15E15E2B13D0E1
:10182000585180095D5F0EE2010E5E5F0BE25E2B98
:10183000585180095D2759515C27E9E35D2BE7E1A9
:101840005E2BE5D703805F2F01D00BD0D8905B379C
:101850005C375D375E37D890033602360136603725
:10186000BAD760A106D0D890013202320332603379
:1018700002D0000635E060BF1ED0D8905B375C37E1
:101880005D375E375A515B5F07E2010E5C5F04E231
:101890005D5F02E25E5F1AE359515C5F05E2010E93
:1018A0005D5F02E25E5F12E3585180095D5F03E213
:1018B000010E5E5F0BE3032A09E1022A07E1012A18
:1018C00005E1002A0DE001320232033254C25FF218
:1018D00058515F1B5FAF02D0018E06D0019E04D02D
:1018E000006A016A026A036A000112000201535190
:1018F000D8B471D0006E5751D8B46DD0002604E32F
:10190000810E002668E204D07F0E005E64E363E08F
:1019100054C25BF258515B1B548F588F56515A0377
:10192000F4CF5DF255515903F4CF03F0F3CF5CF2DD
:101930005A03F3505D27F4505C23000E03225651E6
:101940005903F3505D27F4505C23000E026A032212
:10195000022254515A03F3505C27F4500322000E24
:10196000022254515903F3500326F4500222000E70
:10197000016A012256515803F3505C27F4500322A8
:10198000000E0222012255515803F3500326F45051
:101990000222000E012254515803F3500226F45043
:1019A0000122002A01BE05D05C370336023601361B
:1019B0000006000E5CAF0AD0032A02220122015069
:1019C00005E1025003E1035001E1002A5BBF018EF3
:1019D0005BAF019E04D0006A016A026A036A0001DB
:1019E000120002015351B608536F036A54C257F2F2
:1019F000548FD89054335533563303320232013268
:101A00000032532FF6D757AF0BD0001E011E021E17
:101A1000031E002AD8B4012AD8B4022AD8B4032A53
:101A2000000112004AC256F249C255F248C254F2AD
:101A300047C253F28FD603C04EF202C04DF201C02E
:101A40004CF200C04BF24EC256F24DC255F24CC29F
:101A500054F24BC253F2C00E02015A6FE10E596F9D
:101A6000640E586F9A0E576F000191DE03C052F258
:101A700002C051F201C050F200C04FF252C256F201
:101A800051C255F250C254F24FC253F202015A6B86
:101A9000596B586B8F0E576F000128DF03C052F24D
:101AA00002C051F201C050F200C04FF252C256F2D1
:101AB00051C255F250C254F24FC253F202015A6B56
:101AC000596B586B8F0E576F000110DF03C052F235
:101AD00002C051F201C050F200C04FF252C256F2A1
:101AE00051C255F250C254F24FC253F27ADF03C0D2
:101AF00056F202C055F201C054F200C053F2010E7A
:101B00000201005C006E000E0158016E000E0258CA
:101B1000026E000E0358036E000112000201466BB4
:101B2000456BACC044F2ABC043F246C24BF245C277
:101B30004AF2ACC049F2ABC048F24F6B4E6B270E75
:101B40004D6F100E4C6F0001D6EC08F003C046F24A
:101B500002C045F201C044F200C043F203C04AF2A1
:101B600002C049F201C048F200C047F25BDF03C087
:101B700042F202C041F201C040F200C03FF2020E48
:101B80000201366F3FC237F2020E436F456F360EC9
:101B9000446F00015FDD0A0E0201436F000155EC46
:101BA00007F0030E0201366F40C237F2020E436F98
:101BB000456F360E446F00014DDD0A0E0201436F82
:101BC000000155EC07F0040E0201366F41C237F2F6
:101BD000020E436F456F360E446F00013BDD0A0E67
:101BE0000201436F000155EC07F0050E0201366F4C
:101BF00042C237F2020E436F456F360E446F00014A
:101C000029DD0A0E0201436F000155EC07F01200B6
:101C1000BAC033F2B9C032F2050E0201436F0001BF
:101C200055EC07F033C237F232C236F24EEC09F00F
:101C3000050E0201436F000155EC07F097DC050E1D
:101C40000201436F000155EC07F03BDD050E020178
:101C5000436F000155EC07F062DD050E0201436F92
:101C6000000155EC07F05ADFACC035F2ABC034F2DE
:101C7000030E1F6EE80E1E6E1200243C03D0253C9E
:101C800001D021D02CA61ED02C960201326B25C08B
:101C900034F224C033F20001BCEC07F0140E016EE4
:101CA000C250830B0110C26E1A0E006E002EFED7BA
:101CB0000000C282C2B2FED7C4CF2FF20201C3CF4E
:101CC0002EF20001B0D183AE2DD0F5532BE1F653A7
:101CD00029E1AD2D21D0AE531FE18C8C0101032BE6
:101CE000D8B4042B032D0BD0045309E18C8C320E95
:101CF0000201436F000155EC07F08ADF0101045136
:101D0000E90808E2FF0A03E10351600803E2046BFB
:101D1000020E036F05D000018C9C0101046B036B64
:101D20002ED0000183BE2CD0F5532AE1F65328E1D2
:101D3000AD2D08D0AE5306E18C9C0101046B036B02
:101D400006D000018C8C0101032BD8B4042B032D89
:101D50000BD0045309E18C8C320E0201436F000159
:101D600055EC07F055DF01010451E90808E2FF0ACC
:101D700003E10351600803E2046B020E036F0001EC
:101D800083BE37D0F52D35D0F65333E1AD2D20D0BD
:101D9000AE531EE18C8C0101052BD8B4062B052D0A
:101DA0000BD0065309E18C8C3C0E0201436F0001FD
:101DB00055EC07F02DDF01010651E90808E2FF0AA2
:101DC00003E10551600803E2066B020E056F000196
:101DD000AD530EE1AE530CE18C9C0201326B346BBF
:101DE000336B0001BCEC07F00101066B056B0001D1
:101DF00045D083AE43D0F52D41D0F6533FE1AD2D14
:101E00000ED0AE530CE18C9C0201326B346B336B01
:101E10000001BCEC07F00101066B056B0001AD533E
:101E200013E1AE5311E10101052D0ED006530CE173
:101E30008C8C3C0E0201436F000155EC07F0E8DE8C
:101E40000101052BD8B4062B0101052D0BD006533B
:101E500009E18C8C320E0201436F000155EC07F052
:101E6000D7DE01010451E90808E2FF0A03E103514A
:101E7000600803E2066B020E056F0001BA515808B4
:101E80000FE303E1B95129080BE3010E0201326FA0
:101E9000BFC034F2BEC033F20001BCEC07F01CD06E
:101EA000BA515A080FE303E1B951F9080BE3010EE7
:101EB0000201326FC1C034F2C0C033F20001BCEC89
:101EC00007F00AD0010E0201326FC3C034F2C2C063
:101ED00033F20001BCEC07F0140E016EC250830B0C
:101EE0000110C26E1A0E006E002EFED70000C282D4
:101EF000C2B2FED7C4CF2FF20201C3CF2EF200012F
:101F0000F72D27D0F85325E183A409D0F92D07D068
:101F1000FA5305E11DC031F21CC030F21AD083A47F
:101F200009D0F95307E1FA5305E11BC031F21AC099
:101F300030F20FD083B409D0F95307E1FA5305E129
:101F40001DC031F21CC030F204D01BC031F21AC0E7
:101F500030F2F75327E1F85325E183A409D0F95370
:101F600007E1FA5305E11DC031F21CC030F21AD06E
:101F700083B409D0F92D07D0FA5305E11DC031F221
:101F80001CC030F20FD083A409D0F92D07D0FA532A
:101F900005E11BC031F21AC030F204D01BC031F28F
:101FA0001AC030F2060E02013025016E000E3121FA
:101FB000036E03502F5D04E312E12E51015C0FE329
:101FC000060E305D006E000E3159036E00C001F048
:101FD0002F51035C29E303E101502E5D25E22F51CF
:101FE000315D0EE303E130512E5D0AE21F5203E141
:101FF0001E50950804E2030E1E5E000E1F5A0BD001
:102000001F50030808E303E11E50F20804E3030E27
:102010001E26000E1F22326B1FC034F21EC033F288
:102020000001BCEC07F00201000112000101BB6BD2
:10203000050EBA6FBB51050836E3BA51040DF350D3
:10204000036A000175EC00F00900F5CF01F009000A
:10205000F5CF02F00900F5CF03F003C0B9F102C0DB
:10206000B8F101C0B7F1E8CFB6F1BAC100F0016A2A
:10207000026A036A00500101B6130150B7130250FF
:10208000B8130350B913B9C13DF2B8C13CF2B7C19E
:102090003BF2B6C13AF200018BEC0AF00101BB51F0
:1020A000BB2BBA07C7D7FA0E0201436F000155ECEC
:1020B00007F0B9C13DF2B8C13CF2B7C13BF2B6C1BD
:1020C0003AF28BEC0AF0FA0E0201436F000155EC74
:1020D00007F0D4EF34F09D9A8C8A840E006E002EA7
:1020E000FED700D0000002016F6B6DC203F06CC21E
:1020F000E9FF6DC2EAFFEF5246E06DC203F06C519A
:102100006C2BD8B46D2BE96E03C0EAFFEFCF6EF2F3
:102110006E51090816E06EC2ADFF6F2B020E716F93
:10212000196AF2BE198EF29E950E746F000192EC40
:1021300005F019BEF28E0201712FF2D7AECF6EF20A
:1021400021D0200E706F70516F5D03E3020E6F257A
:10215000706F70516F5D16E2200EAD6E6F2B020E28
:10216000716F196AF2BE198EF29E950E746F00019E
:1021700092EC05F019BEF28E0201712FF2D7AECFAC
:102180006EF2E7D7B2D7840E006E002EFED700D0D5
:1021900000008C9AAECF6EF29D8A00011200010100
:1021A000BC6BBC6B0001B3A103D00101BC2B0001CF
:1021B000000EB1B1010E006ED89000360050010142
:1021C000BC27000E0001B5B1010E006E00360036CE
:1021D000FC0E001600500101BC27000E0001B2B138
:1021E000010E006E003600360036F80E0016005064
:1021F0000101BC27000E0001B0B1010E006E003AD3
:10220000F00E001600500101BC27000E0001B7B10E
:10221000010E006E003A0036E00E0016005001017B
:10222000BC27036ABCC101F003C002F00001FAEF51
:1022300013F001010851020806E303E107514408C5
:1022400002E3A29101D0A281BC6BBC6B0001F5A19D
:1022500003D00101BC2B0001000EF7B1010E006E8E
:10226000D890003600500101BC27000E0001ADB12E
:10227000010E006E00360036FC0E00160050010103
:10228000BC27000E0001F9B1010E006E00360036C9
:102290000036F80E001600500101BC27000E0001A8
:1022A000FCB1010E006E003AF00E00160050010164
:1022B000BC27000EA2B1010E006E003A0036E00EFF
:1022C00000160050BC27036ABCC101F003C002F035
:1022D0000001FDEF13F08E0E006EC5C101F0C4C108
:1022E00002F0036A01AE05D0011E021E022A01E1BE
:1022F000012A015209E102C001F0026A080E005EE3
:10230000015202E1006A0DD0D89001BE04D002361D
:1023100001360006F9D70101C5AF02D0000101D096
:10232000019E000108EF13F0800ED8A202D0020136
:10233000331B0201386B396B2FC237F23351371B15
:102340002E51D8B4DFD0366F006E3251D8B4E3D0FE
:10235000365FD8B483D03EE333C23CF23C8F34C204
:102360003BF235C23AF2396BD8903C333B333A33C7
:102370003933362FF8D737AF03D03881E0D03891D2
:1023800036913889020EEA6E310EE96EEBD038993B
:1023900037BF0AD036A113D03C333B333A333933FD
:1023A000002AD8B4C7D00BD03CBF0CD0D890393756
:1023B0003A373B373C370006D8B4BCD0F5D7388D18
:1023C0006DD0389D2FC237F22FAF02D03C8FABD0EB
:1023D0003C9FA9D032C236F232C200F02E51365F95
:1023E0002FC23CF23C8F30C23BF231C23AF2396B21
:1023F000D8903C333B333A333933362FF8D737AFA5
:1024000003D038839CD038933691388B020EEA6E15
:10241000350EE96EA7D0389B37BF0AD036A113D04E
:102420003C333B333A333933002AD8B483D00BD012
:102430003CBF0CD0D89039373A373B373C37000691
:10244000D8B478D0F5D7388F29D0389F33C237F237
:1024500033AF02D03C8F67D03C9F65D033C23CF293
:102460003C8F34C23BF235C23AF237AF04D03C9FC6
:10247000388565D03895396B3691020EEA6E310E8B
:10248000E96E70D037BF1CD02FC237F236A106D00C
:102490003C333B333A333933002A4CE039AF0BD06D
:1024A0003A2B09E13B2B07E13C2B05E13C333B3365
:1024B0003A33002A3FE038BD84D738BFC6D71CD096
:1024C000800E3C1B3CAF04D03AD033C237F20AD066
:1024D0002FC237F23C5306E13B5304E13A5302E189
:1024E000006A21D03CBF08D0D89039373A373B3703
:1024F0003C37002EF7D71ED037AF02D03C8F13D019
:102500003C9F11D032C200F033C23CF234C23BF2E5
:1025100035C23AF208D02EC200F02FC23CF230C2CF
:102520003BF231C23AF23CC201F03BC202F03AC285
:1025300003F034D0006A016A026A036A2FD0396B53
:102540003A1F3B1F3C1F391F392B05E13A2B03E192
:102550003B2B01E13C2B38B112D738B354D738B5F7
:1025600089D7B3D7EF503A2705E33B2B03E13C2B48
:10257000D8B43681ED52EF503B2703E33C2BD8B45F
:102580003681ED52EF50EFBE01D0800A3C27D8B023
:10259000368138B9FCD638BB3ED774D7000112005B
:1025A0008E0E006E0101C451005EC5C102F0C6C1AD
:1025B00001F0028E005209E0D890025202E101526D
:1025C00004E002320132002EF7D7C5AF05D0011E5C
:1025D000021E012AD8B4022A0001ADEF13F0180E32
:1025E000016EC250830B0110C26E420E006E002EAF
:1025F000FED70000C282C2B2FED7C4CFC3F1010130
:10260000C3CFC2F1C3C1C5F1C2C1C4F1000163D6D9
:1026100000C0C4F101C0C5F102C0C6F103C0C7F1DA
:1026200003C056F202C055F201C054F200C053F28A
:1026300002015A6B596B586B890E576F0001C7EC3A
:102640000BF000C0C4F101C0C5F102C0C6F103C067
:10265000C7F103C056F202C055F201C054F200C0E7
:1026600053F2330E02015A6F596F530E586F800E9A
:10267000576F000176EC0CF003C0BFF102C0BEF151
:1026800001C0BDF100C0BCF1D882BFC131F2BEC1F2
:1026900030F2BDC12FF2BCC12EF20201356B346B9A
:1026A000400E336F7E0E326F00013EDE03C0BFF17D
:1026B00002C0BEF101C0BDF100C0BCF1BFC156F205
:1026C000BEC155F2BDC154F2BCC153F202015A6BF6
:1026D000596B480E586F850E576F000176EC0CF061
:1026E00003C0BFF102C0BEF101C0BDF100C0BCF12A
:1026F000D892BFC131F2BEC130F2BDC12FF2BCC110
:102700002EF20201356B346B480E336F830E326F3D
:1027100000010ADE03C0BFF102C0BEF101C0BDF17D
:1027200000C0BCF1BFC156F2BEC155F2BDC154F2EA
:10273000BCC153F202015A6B596B480E586F850E9B
:10274000576F000176EC0CF003C0C7F102C0C6F170
:1027500001C0C5F100C0C4F123D702C0C1F101C05E
:10276000C0F10101C0C101F0C1C102F0000100EFE0
:1027700014F00101BD51BF19800BC16FBDAF05D071
:10278000BC1FBD1FBC2BD8B4BD2BBFAF05D0BE1F17
:10279000BF1FBE2BD8B4BF2B016A026A006A036A4E
:1027A000BF5102E1BE5118E0100EC06FD890BC3787
:1027B000BD3700360336BF51035C02E1BE51005CF9
:1027C00007E3BE51005ED8A00306BF51035ED88068
:1027D00001360236C02FEAD7C1AF05D0011E021E56
:1027E000012AD8B4022A000112000101B76BB66BAE
:1027F0000001D5D401C0BAF11CD501C0BBF1EFD6A0
:1028000002C00AF101C009F1FB0E0101136F600E55
:10281000146F0FC115F1BAC016F1B9C017F101015B
:10282000AFC018F1BAC119F10AC1BDF109C1BCF1BB
:10283000010EBF6FBE6B00019CDF01C01AF10101E8
:102840000AC1BDF109C1BCF1010EBF6FBE6B000131
:1028500090DF00C01BF10101ACC01CF1ABC01DF149
:102860000101140E0001BB2501011E6FB4C01FF150
:10287000BBC120F1FDC021F1FEC022F1AA0E236FE1
:10288000246FF2C025F1F1C026F10101AA0E276FD5
:10289000286F296FB96BB86BB95311E1B85118089B
:1028A0000EE3130EB825E96E010EB921EA6EEF5062
:1028B000B627000EB723B82BD8B4B92BEDD7B7C1C4
:1028C0002AF1B6C12BF1000155EF35F0036A3650FD
:1028D000370FE96E000E0320EA6EEFCFCFF1010152
:1028E000362A36501F0801E2366A345201E03406B7
:1028F000CFC101F000011200036A01014151590FDB
:10290000E96E000E0320EA6E036AEFCF01F003C008
:1029100002F00001120001014151412B036A590FDD
:10292000E96E000E0320EA6E036AEFCF01F003C0E8
:1029300002F000011200036A01014151590FE96ED2
:10294000000E0320EA6EEF5218E0036A4151590F5E
:10295000E96E000E0320EA6EEF502C080AE0036ACD
:102960004151590FE96E000E0320EA6EEF50200826
:1029700004E1412B0001DFD7010100011200020137
:102980003B513D19800B3F6F3BAF05D03A1F3B1FBA
:102990003A2BD8B43B2B3DAF05D03C1F3D1F3C2B01
:1029A000D8B43D2B3A513C03F3CF01F0F4CF00F003
:1029B0003D03F35000263B513C03F3500020026ED0
:1029C0003FAF05D0011E021E012AD8B4022A000121
:1029D00012000201396B010E386F0001ACDF036A8F
:1029E00001014151590FE96E000E0320EA6EEF52CA
:1029F00044E00201376B366B00017EDF02C03BF220
:102A000001C03AF2020101502D0807E13B5305E1F4
:102A10003969386900017FDF0201036A0101415110
:102A2000590FE96E000E0320EA6EEFCF3AF2020171
:102A30003A512F0822E23A5139081FE337C23BF2DC
:102A400036C23AF23D6B0A0E3C6F000198DF02C0BD
:102A50003BF201C03AF201014151412B036A590F87
:102A6000E96E000E0320EA6E300EEF5C02010124D5
:102A7000366F000E0220376FD0D737C23BF236C216
:102A80003AF239C23DF238C23CF2000178DF02C0AE
:102A900003F002C002F012000D0E02012E6F0A0EAA
:102AA0002F6F306F316B020E6D6F2E0E6C6F000149
:102AB0006BEC10F0020EEA6E2E0EE96E016EF76AF4
:102AC000000ED3EC01F00A000900F5CFEEFF012E55
:102AD000FBD7020E02016D6F2E0E6C6F00016BECC6
:102AE00010F0020EEA6E2E0EE96E330E016EF76ADA
:102AF000000EF2EC01F00A000900F5CFEEFF012E06
:102B0000FBD7020E02016D6F2E0E6C6F00016BEC95
:102B100010F0020EEA6E2E0EE96E310E016EF76AAB
:102B2000000E14EC02F00A000900F5CFEEFF012EB2
:102B3000FBD7020E02016D6F2E0E6C6F00016BEC65
:102B400010F0020EEA6E2E0EE96E2F0E016EF76A7D
:102B5000000E35EC02F00A000900F5CFEEFF012E61
:102B6000FBD7020E02016D6F2E0E6C6F00016BEC35
:102B700010F0020EEA6E2E0EE96E310E016EF76A4B
:102B8000000E55EC02F00A000900F5CFEEFF012E11
:102B9000FBD7020E02016D6F2E0E6C6F00016BEC05
:102BA00010F0020EEA6E2E0EE96E3A0E016EF76A12
:102BB000000E76EC02F00A000900F5CFEEFF012EC0
:102BC000FBD7020E02016D6F2E0E6C6F00016BECD5
:102BD00010F0020EEA6E2E0EE96E350E016EF76AE7
:102BE000000E9BEC02F00A000900F5CFEEFF012E6B
:102BF000FBD7020E02016D6F2E0E6C6F00016BECA5
:102C000010F0020EEA6E2E0EE96E210E016EF76ACA
:102C1000000EBEEC02F00A000900F5CFEEFF012E17
:102C2000FBD7020E02016D6F2E0E6C6F00016BEC74
:102C300010F0020EEA6E2E0EE96E320E016EF76A89
:102C4000000ED7EC02F00A000900F5CFEEFF012ECE
:102C5000FBD7020E02016D6F2E0E6C6F00016BEC44
:102C600010F0020EEA6E2E0EE96E390E016EF76A52
:102C7000000EF8EC02F00A000900F5CFEEFF012E7D
:102C8000FBD7020E02016D6F2E0E6C6F00016BEC14
:102C900010F0020EEA6E2E0EE96E310E016EF76A2A
:102CA000000E1DEC03F00A000900F5CFEEFF012E27
:102CB000FBD7020E02016D6F2E0E6C6F00016BECE4
:102CC00010F0020EEA6E2E0EE96E350E016EF76AF6
:102CD000000E3EEC03F00A000900F5CFEEFF012ED6
:102CE000FBD7020E02016D6F2E0E6C6F00016BECB4
:102CF00010F0020EEA6E2E0EE96E3B0E016EF76AC0
:102D0000000E61EC03F00A000900F5CFEEFF012E82
:102D1000FBD7020E02016D6F2E0E6C6F00016BEC83
:102D200010F0020EEA6E2E0EE96E3B0E016EF76A8F
:102D3000000E87EC03F00A000900F5CFEEFF012E2C
:102D4000FBD7020E02016D6F2E0E6C6F00016BEC53
:102D500010F0020EEA6E2E0EE96E2F0E016EF76A6B
:102D6000000EADEC03F00A000900F5CFEEFF012ED6
:102D7000FBD7020E02016D6F2E0E6C6F00016BEC23
:102D800010F0020EEA6E2E0EE96E3C0E016EF76A2E
:102D9000000ECDEC03F00A000900F5CFEEFF012E86
:102DA000FBD7020E02016D6F2E0E6C6F00016BECF3
:102DB00010F0020EEA6E2E0EE96E2D0E016EF76A0D
:102DC000000EF3EC03F00A000900F5CFEEFF012E30
:102DD000FBD7020E02016D6F2E0E6C6F00016BECC3
:102DE00010F0020EEA6E2E0EE96E350E016EF76AD5
:102DF000000E12EC04F00A000900F5CFEEFF012EE0
:102E0000FBD7020E02016D6F2E0E6C6F00016BEC92
:102E100010F0020EEA6E2E0EE96E250E016EF76AB4
:102E2000000E35EC04F00A000900F5CFEEFF012E8C
:102E3000FBD7020E02016D6F2E0E6C6F00016BEC62
:102E400010F00D0E02012E6F0A0E2F6F306B020E66
:102E50006D6F2E0E6C6F00016BEC10F0D9EF2AF045
:102E6000A4C1EAFFA3C1E9FF02013DC2EFFFE92AC5
:102E7000D8B4EA2AEF6A0101A32BD8B4A42B00012D
:102E800012000900F6CF35F2F7CF36F2F5CF3DF25A
:102E9000E7DF35C2F6FF36C2F7FF0201342F01D05B
:102EA00002D00001EED700011200EACF3CF2E9CFD8
:102EB0003BF202013539F009376F3727E20F386FDF
:102EC000320F3A6F35510F0B382738273A27E90F61
:102ED000396F3927392734390F0B39273A273937D2
:102EE0003A373A1F3A3734510F0B3A273737070E24
:102EF000366F0A0E39073A27FDE338073927FDE315
:102F000037073827FDE336073727FDE3020EEA6E61
:102F1000360EE96E070E3B153B9DE9263A0EE95C3D
:102F2000D8B43B8DEF50006E08E13BBD06D03BB9F5
:102F300015D03BB702D0200E03D03B873B99300E13
:102F40000026EACF35F2E9CF34F200C03DF20001AD
:102F500087DF35C2EAFF34C2E9FF0201EE503BAD24
:102F6000DDD70001120035DD02C031F201C030F2C0
:102F700002C03BF201C03AF202013D6B0A0E3C6F07
:102F80000001FDDC02C02FF2020101C02EF200019F
:102F9000B3DC02C031F201C030F2020101502E0850
:102FA00010E131530EE10001B6DCB5DC300E020158
:102FB000015C006E000E0258036E00502E27035075
:102FC0002F232EC201F02FC202F0000112000201D5
:102FD0003751016A365D03E236C200F00CD0006A58
:102FE000080E386F363700363751005CD8B0006EA7
:102FF0000136382FF7D700011200015034C236F2E3
:10300000640E0201376F0001E2DF00C034F20150AC
:10301000300E08E1020135A30FD035B70DD035B918
:10302000200E04D00201359735993581012601C063
:103030003DF2000115DF020134C236F20A0E376F8D
:103040000001C5DF00C034F20150300E08E102017A
:1030500035B70AD035A108D035B9200E00010126B8
:1030600001C03DF2FDDE0201300E342734C23DF2D4
:103070000001F6DE120002013351036E3251D8B462
:103080003307320703102CE02F51036E2E512E2BE5
:10309000D8B42F2B346F03C035F23151036E305149
:1030A000302BD8B4312BE96E03C0EAFFEFCF36F2F4
:1030B000F250006EF29E34C2A9FF36C2A8FFA69C51
:1030C000A69EA6840F01550EA76EAA0EA76EA68215
:1030D000A6B2FED7A6940050F2120001CCD702018E
:1030E000000185EF18F0010101519F080FE1025125
:1030F0000B080CE102012F6B2E6B316BAB0E306FA6
:10310000336B560E326F0001B6D70101026B016BB3
:10311000000112000201336B326B335359E132511B
:10312000130856E33235346F3335356F343735375E
:10313000FC0E341735C203F034510001E1EC04F009
:103140000900F5CF03F0016E03500201315D3CE34D
:1031500003E10150305D38E3010E3225366F000E79
:103160003321376F3637373736373737FC0E361758
:1031700037C203F036510001E1EC04F00900F5CF4D
:1031800003F0016E02013151035C1EE303E10150C3
:10319000305D1AE23235346F3335356F34373537B9
:1031A000FC0E3417020E3425016E000E3521036E1D
:1031B00001500001E1EC04F00900F5CF03F0016ECD
:1031C00003C002F008D00201322BD8B4332BA5D7AC
:1031D000000E016E026E000164EF23F0E9EC14F0C2
:1031E00001C000F002C001F0026A036A03C031F2BC
:1031F00002C030F201C02FF200C02EF28BEC14F0AE
:10320000E9EC14F001C000F002C001F0026A036AA8
:1032100003C035F202C034F201C033F200C032F212
:103220007CEC14F002C037F201C036F2020101500A
:103230002E081EE137531CE100018BEC14F0E9EC81
:1032400014F001C000F002C001F0026A036A03C07A
:1032500035F202C034F201C033F200C032F2020192
:1032600032512E2733512F233451302335513123FE
:1032700031C24BF230C24AF22FC249F22EC248F29A
:103280004F6B4E6B4D6B640E4C6F0001D6EC08F02B
:103290000201325100240001AB6F020133510120C1
:1032A0000001AC6F8EEC0DF061EF24F00900F552D7
:1032B0000CE0F6CF2EF2F7CF2FF2F5CF3DF2D0DDB6
:1032C0002EC2F6FF2FC2F7FFF1D7A5EF24F0E9ECED
:1032D00014F002C02FF201C02EF22EC2FDF0020146
:1032E0002F5329E12E51280826E32F5303E12E51B5
:1032F000130821E2140E2E5D0001F36F000E02018F
:103300002F590001F46FD890F335026EF435036E37
:103310000250C40FE96E000E0320EA6EECCF03F0FA
:10332000ED52EFCF1AF003C01BF0010E016E000E3C
:10333000026E04D00201000E016E026E000105EF64
:1033400025F0E9EC14F002C02FF201C02EF22EC2DB
:10335000FEF002012F5329E12E51280826E32F53B6
:1033600003E12E51130821E2140E2E5D0001BB6F04
:10337000000E02012F590001BC6FD890BB35026EC0
:10338000BC35036E0250C40FE96E000E0320EA6ED6
:10339000ECCF03F0ED52EFCF1CF003C01DF0010E97
:1033A000016E000E026E04D00201000E016E026E6C
:1033B00000015AEF25F08E0E006E2FC201F02EC2D2
:1033C00002F0036A015209E102C001F0026A080E2C
:1033D000005E015202E1006A08D0D89001BE04D01C
:1033E000023601360006F9D7019E46EF27F0E95074
:1033F0000201336F3251356F1CE031C256F230C2D8
:1034000055F22FC254F22EC253F25A6B596B200E52
:10341000586F820E576F000176EC0CF003C031F24A
:1034200002C030F201C02FF200C02EF20201352F8F
:10343000E4D731C256F230C255F22FC254F22EC236
:1034400053F20001F1EC0CF003C031F202C030F293
:1034500001C02FF200C02EF2020131AF0DD03307B0
:10346000338B2E1F2F1F301F311F2E2BD8B42F2B25
:10347000D8B4302BD8B4312B3B0E3A6F9A0E396F3B
:10348000CA0E386F376B0A0E356F3251D8B4332BF2
:10349000D882020EEA6E2E0EE96E31C24FF230C2B1
:1034A0004EF22FC24DF22EC24CF23AC253F239C242
:1034B00052F238C251F237C250F2000104EC09F066
:1034C0000150005213E102013229355DD8A402D027
:1034D00000010CD033510DE00F0B355D01E040E2EF
:1034E00033BF3ED033BD05D0200E34D0200E0201B4
:1034F000331733AB0ED0339B3251D8A4330700506F
:10350000336F2D0E3D6F0001ABDC02013351006EB5
:10351000336B3251355D0CE10050336F2E0E3D6F31
:1035200000019EDC02013351006E200E3317000EA5
:10353000300E33AB0FD0339B3251D8A43307005039
:10354000336F2D0E3D6F00018BDC02013351006E95
:10355000336B300E002600C03DF2000181DC020119
:10356000D8923AC24FF239C24EF238C24DF237C247
:103570004CF2536B526B516B0A0E506F000104EC0E
:1035800009F003C03AF202C039F201C038F200C0BB
:1035900037F20201352F7CD70001F4EF27F0016AE2
:1035A000026A006A036A0201355102E1345118E0EF
:1035B000100E366FD8903237333700360336355118
:1035C000035C02E13451005C07E33451005ED8A093
:1035D00003063551035ED88001360236362FEAD70E
:1035E00000011200EF520FE0EACF35F2E9CF34F2DA
:1035F000EFCF3DF235DC35C2EAFF34C2E9FFE92AFC
:10360000D8B4EA2AEFD739EF29F00101C26BEC6B8D
:10361000020EC36F416B00017CEC14F002C02FF26C
:1036200001C02EF2020101503A081FE12F531DE1A3
:1036300000018BEC14F0E9EC14F001C0FBF18BEC11
:1036400014F002C02FF201C02EF2020101503A081C
:1036500002E12F5300E10101FB510001F15D02E1A4
:10366000F25302E0D9EF2AF0020100018BEC14F0D2
:1036700002C02FF201C02EF202012F5303E12E519E
:10368000600808E22F5306E12E517A0803E32E5119
:10369000DF0B01D02E510101ED6F00018BEC14F016
:1036A00002C02FF201C02EF202012F5303E12E516E
:1036B000600808E22F5306E12E517A0803E32E51E9
:1036C000DF0B01D02E510101EE6F00019BEC14F0D5
:1036D0007CEC14F002C02FF201C02EF20201015066
:1036E0000D0806E12F5304E1010E0101EC6F020108
:1036F0000101ED514C0A00013BE0680A5BE06C0AF5
:10370000D8B487D00E0AD8B4A8D00B0AD8B421D127
:10371000090AD8B4A1D1160AD8B425D3050AD8B459
:10372000CBEF21F0040AD8B4DAEF21F0060AD8B4BE
:10373000FBEF21F0170AD8B400EF23F00B0AD8B43E
:10374000AAEF23F01D0AD8B467EF24F0020AD8B418
:1037500075EF24F0150AD8B4D9EF25F0040AD8B4CF
:10376000E0EF26F0160AD8B439EF28F0BAEF2AF0C5
:103770000101EE51490A000103E0060A16E018D0E3
:10378000E9EC14F002C00DF201C00CF202010C5180
:10379000B80806E10D51440803E1010E01012C6F48
:1037A000010E0101436F000103D001012C6B0001E8
:1037B000D9EF2AF001012C5304E10001D9EF2AF0DE
:1037C0000101EE51520822E10001E9EC14F002C0BF
:1037D0000DF201C00CF202010C51B70803E10D51CA
:1037E000440802E0DAEF2AF00101426B0D0E0201FB
:1037F000106F0A0E116F126F2A0E136F146B020EE8
:103800006D6F100E6C6F00016BEC10F00001D9EFC2
:103810002AF001012C5304E10001D9EF2AF0010143
:10382000020EEA6E150EE96E0F0E016EF76A000EBB
:10383000000150EC04F00A000900F5CFEEFF012E64
:10384000FBD7020E02016D6F150E6C6F00016BEC61
:1038500010F04CEF15F0D9EF2AF001012C5304E1E0
:103860000001D9EF2AF00101EE51520A000101E0F6
:103870006ED00101EE51520851E1EC5326E0010EE9
:10388000A46FC40EA36FE00EF66E0B0EF76E030E60
:103890000201346F000141EC17F0100EE96EBAC05E
:1038A00035F2B9C034F255EC17F00D0E02013D6F40
:1038B000000130EC17F0010E02016D6FC40E6C6F49
:1038C00000016BEC10F028D001010001B3EC17F0FF
:1038D0000101FF6BFE6B02C0FDF101C0FCF1FDC1F7
:1038E000BAF0FCC1B9F0FDC12FF2FCC12EF2FDC14E
:1038F00037F2FCC136F200014EEC09F0B6EC0AF0EA
:10390000320E0201436F000155EC07F0B6EC0AF0ED
:10391000010E0101C26F00011AD00101020EEA6E10
:10392000150EE96E0A0E016EF76A000E000160ECDA
:1039300004F00A000900F5CFEEFF012EFBD7020EBE
:1039400002016D6F150E6C6F00016BEC10F0D9EF7A
:103950002AF001012C5304E10001D9EF2AF0010102
:10396000EE514F085DE1EC5324E0010EA46FC40E4C
:10397000A36FE80EF66E0B0EF76E030E0201346FA6
:10398000000141EC17F0AFC034F21B0E0201356F9D
:103990000001FDEC17F00D0E02013D6F000130EC4F
:1039A00017F0010E02016D6FC40E6C6F00016BEC1D
:1039B00010F00001E9EC14F002C00DF201C00CF2AD
:1039C00002010D530DE10C5103080AE30CC2AFF0E4
:1039D000000161EC0BF0010E0101C26F20D0020169
:1039E000020EEA6E150EE96E090E016EF76A000E00
:1039F00000016DEC04F00A000900F5CFEEFF012E86
:103A0000FBD7020E02016D6F150E6C6F00016BEC9F
:103A100010F00101C26B0001D9EF2AF0010119D0A9
:103A2000020EEA6E150EE96E090E016EF76A000EBF
:103A300000016DEC04F00A000900F5CFEEFF012E45
:103A4000FBD7020E02016D6F150E6C6F00016BEC5F
:103A500010F00001D9EF2AF001012C5304E100011C
:103A6000D9EF2AF00101EE51530A000107E0030AE1
:103A7000D8B480D0150AD8B4F9D073D10101EC5371
:103A800026E0010EA46FC40EA36FF00EF66E0B0EAF
:103A9000F76E030E0201346F000141EC17F0B3C062
:103AA00034F21B0E0201356F0001FDEC17F00D0E14
:103AB00002013D6F000130EC17F0010E02016D6F45
:103AC000C40E6C6F00016BEC10F04FD001010001CF
:103AD000E9EC14F002C00DF201C00CF202010D532A
:103AE0000AE10C51010807E30CC2B3F000018FECAE
:103AF0000BF03BD00201020EEA6E150EE96E090EC4
:103B0000016EF76A000E00016DEC04F00A00090076
:103B1000F5CFEEFF012EFBD7020E02016D6F150EE1
:103B20006C6F00016BEC10F0010E0101A46F780EB8
:103B3000A36FF80EF66E0B0EF76E070E0201346FD0
:103B4000000141EC17F0B3C034F21B0E0201356FD7
:103B50000001FDEC17F00D0E02013D6F000130EC8D
:103B600017F00101C26B0001FCD0010E0101C26F10
:103B70000001F7D00101EC5326E0010EA46FC40E42
:103B8000A36F040EF66E0C0EF76E030E0201346F77
:103B9000000141EC17F0B1C034F21B0E0201356F89
:103BA0000001FDEC17F00D0E02013D6F000130EC3D
:103BB00017F0010E02016D6FC40E6C6F00016BEC0B
:103BC00010F04FD001010001E9EC14F002C00DF239
:103BD00001C00CF202010D530AE10C51010807E388
:103BE0000CC2B1F0000161EC0BF03BD00201020EFF
:103BF000EA6E150EE96E090E016EF76A000E0001FD
:103C00006DEC04F00A000900F5CFEEFF012EFBD7A2
:103C1000020E02016D6F150E6C6F00016BEC10F05F
:103C2000010E0101A46F780EA36F0C0EF66E0C0E40
:103C3000F76E070E0201346F000141EC17F0B1C0BE
:103C400034F21B0E0201356F0001FDEC17F00D0E72
:103C500002013D6F000130EC17F00101C26B000161
:103C600080D0010E0101C26F00017BD00101EC5335
:103C700026E0010EA46FC40EA36F180EF66E0C0E94
:103C8000F76E030E0201346F000141EC17F0B7C06C
:103C900034F21B0E0201356F0001FDEC17F00D0E22
:103CA00002013D6F000130EC17F0010E02016D6F53
:103CB000C40E6C6F00016BEC10F04FD001010001DD
:103CC000E9EC14F002C00DF201C00CF202010D5338
:103CD0000AE10C51010807E30CC2B7F0000161ECE6
:103CE0000BF03BD00201020EEA6E150EE96E090ED2
:103CF000016EF76A000E00016DEC04F00A00090085
:103D0000F5CFEEFF012EFBD7020E02016D6F150EEF
:103D10006C6F00016BEC10F0010E0101A46F780EC6
:103D2000A36F200EF66E0C0EF76E070E0201346FB5
:103D3000000141EC17F0B7C034F21B0E0201356FE1
:103D40000001FDEC17F00D0E02013D6F000130EC9B
:103D500017F00101C26B000104D0010E0101C26F16
:103D60000001D9EF2AF001012C5304E10001D9EF41
:103D70002AF00101410EEE5DF00FD8B009D3100F0B
:103D80000001DDEF2AF00101EC5326E0010EA46FE3
:103D9000C40EA36F2C0EF66E0C0EF76E030E02010E
:103DA000346F000141EC17F0B6C034F21B0E020173
:103DB000356F0001FDEC17F00D0E02013D6F0001A3
:103DC00030EC17F0010E02016D6FC40E6C6F000134
:103DD0006BEC10F07ED001010001E9EC14F002C0A0
:103DE0000DF201C00CF202010D5339E10C51010832
:103DF00036E30001F72D0FD0F8530DE102010C530B
:103E000007E10D5305E10001FA6B010EF96F03D0D4
:103E10000001FA6BF96B02010C2D11D00D530FE16B
:103E20000001FA6BF96BF9C0A0F1320E0201436F89
:103E3000000155EC07F008EC0EF00FD00201000174
:103E4000FA6B010EF96FF9C0A0F1320E0201436F57
:103E5000000155EC07F008EC0EF03BD00201020E19
:103E6000EA6E150EE96E090E016EF76A000E00018A
:103E70006DEC04F00A000900F5CFEEFF012EFBD730
:103E8000020E02016D6F150E6C6F00016BEC10F0ED
:103E9000010E0101A46F780EA36F340EF66E0C0EA6
:103EA000F76E070E0201346F000141EC17F0A0C15C
:103EB00034F21B0E0201356F0001FDEC17F00D0E00
:103EC00002013D6F000130EC17F00101C26B60D2BE
:103ED0000001010E0101C26F5BD20101EC5326E02B
:103EE000010EA46FC40EA36F400EF66E0C0EF76E9B
:103EF000030E0201346F000141EC17F0A1C134F24E
:103F00001B0E0201356F0001FDEC17F00D0E0201D2
:103F10003D6F000130EC17F0010E02016D6FC40E11
:103F20006C6F00016BEC10F0B2D001010001E9EC04
:103F300014F002C00DF201C00CF202010C5334E186
:103F40000D5332E10001F551F61103E1F751F8117B
:103F500013E00101A16B0001AE6BA1C1ADF03C0EFD
:103F60000201436F000155EC07F008EC0EF0010E62
:103F70000101C26F17D00001F55302E1F65303E0CF
:103F8000F751F8110EE00101A16B0001AE6BA1C168
:103F9000ADF03C0E0201436F000155EC07F008EC58
:103FA0000EF0010173D002010C2D37D00D5335E115
:103FB0000001F551F61116E0010E0101A16F00019B
:103FC000AE6BA1C1ADF03DEC0EF0320E0201436FBD
:103FD000000155EC07F0010E0101C26F000108EC71
:103FE0000EF019D0F55317E1F65315E1010E01015A
:103FF000A16F0001AE6BA1C1ADF03DEC0EF0320E31
:104000000201436F000155EC07F0010E0101C26F80
:10401000000108EC0EF03BD00201020EEA6E150E14
:10402000E96E090E016EF76A000E00016DEC04F0F6
:104030000A000900F5CFEEFF012EFBD7020E0201A8
:104040006D6F150E6C6F00016BEC10F0010E01012D
:10405000A46F780EA36F480EF66E0C0EF76E070E67
:104060000201346F000141EC17F0A1C134F21B0EC4
:104070000201356F0001FDEC17F00D0E02013D6FDE
:10408000000130EC17F00101C26B82D10001010E7A
:104090000101C26F7DD10101EC5326E0010EA46F36
:1040A000C40EA36F540EF66E0C0EF76E030E0201D3
:1040B000346F000141EC17F0100EE96EF8C035F2D4
:1040C000F7C034F255EC17F00D0E02013D6F000100
:1040D00030EC17F0010E02016D6FC40E6C6F000121
:1040E0006BEC10F049D001010001E9EC14F002C0C2
:1040F0000DF201C00CF202010D5325E10C51010833
:1041000022E30C530EE10D530CE10001F86BF76B49
:10411000320E0201436F000155EC07F008EC0EF07F
:1041200002010C2D0FD00D530DE10001F86B010EB3
:10413000F76F320E0201436F000155EC07F008ECF7
:104140000EF002011AD0020EEA6E150EE96E0A0E8A
:10415000016EF76A000E000160EC04F00A0009002D
:10416000F5CFEEFF012EFBD7020E02016D6F150E8B
:104170006C6F00016BEC10F00201010109D101012B
:10418000EC5326E0010EA46FC40EA36F5C0EF66E16
:104190000C0EF76E030E0201346F000141EC17F0B4
:1041A000100EE96EF6C035F2F5C034F255EC17F09A
:1041B0000D0E02013D6F000130EC17F0010E0201FF
:1041C0006D6FC40E6C6F00016BEC10F058D00101E4
:1041D0000001E9EC14F002C00DF201C00CF2020182
:1041E0000D5334E10C51010831E30C510D1121E064
:1041F0000DC2F6F00CC2F5F00101A1530EE1A12DA4
:1042000001D001D0000E320E0201436F000155ECC7
:1042100007F008EC0EF004D00101A15301E0000EFC
:10422000320E0201436F000155EC07F008EC0EF06E
:1042300002010DC2F6F00CC2F5F0460E436F00010C
:1042400055EC07F008EC0EF01AD00201020EEA6EEF
:10425000150EE96E0A0E016EF76A000E000160ECA1
:1042600004F00A000900F5CFEEFF012EFBD7020E85
:1042700002016D6F150E6C6F00016BEC10F0010107
:1042800087D00101EC5326E0010EA46FC40EA36F8A
:10429000640EF66E0C0EF76E030E0201346F000111
:1042A00041EC17F0B5C034F21B0E0201356F00016E
:1042B000FDEC17F00D0E02013D6F000130EC17F020
:1042C000010E02016D6FC40E6C6F00016BEC10F0FB
:1042D00051D001010001E9EC14F002C00DF201C05F
:1042E0000CF202010D530DE10C5101080AE30CC25E
:1042F000B5F0000161EC0BF0010E0101C26F3AD084
:104300000201020EEA6E150EE96E090E016EF76AE1
:10431000000E00016DEC04F00A000900F5CFEEFF7D
:10432000012EFBD7020E02016D6F150E6C6F00019E
:104330006BEC10F0010E0101A46F780EA36F6C0EF0
:10434000F66E0C0EF76E070E0201346F000141ECA1
:1043500017F0B5C034F21B0E0201356F0001FDEC01
:1043600017F00D0E02013D6F000130EC17F0010156
:10437000C26B0ED0010E0101C26F0AD0A3EC07F090
:1043800008EC0EF0010E0101C26F02D0FF00010126
:104390000001D9EF2AF001012C5304E10001D9EF0B
:1043A0002AF00101EE51410802E1010EC26F000145
:1043B000D9EF2AF001012C5304E10001D9EF2AF0D2
:1043C0000101EE51500A000103E0060A06E011D097
:1043D000010E0101C26F00010CD00B0E0101026F32
:1043E0009F0E016F000173EC18F0010E0101C26F06
:1043F0000001D9EF2AF001012C5304E10001D9EFAB
:104400002AF00101EE51540A000104E0070AD8B471
:104410007FD0F4D00101EC5326E0010EA46FC40E4E
:10442000A36F780EF66E0C0EF76E030E0201346F5A
:10443000000141EC17F0FBC034F21B0E0201356F96
:104440000001FDEC17F00D0E02013D6F000130EC94
:1044500017F0010E02016D6FC40E6C6F00016BEC62
:1044600010F050D001010001E9EC14F002C00DF28F
:1044700001C00CF202010D530BE10C51EF0808E3EF
:104480000D5303E10C51010803E20CC2FBF03BD0D9
:10449000020EEA6E150EE96E090E016EF76A000E45
:1044A00000016DEC04F00A000900F5CFEEFF012ECB
:1044B000FBD7020E02016D6F150E6C6F00016BECE5
:1044C00010F0010E0101A46F780EA36F800EF66E3E
:1044D0000C0EF76E070E0201346F000141EC17F06D
:1044E000FBC034F21B0E0201356F0001FDEC17F02A
:1044F0000D0E02013D6F000130EC17F00101C26B9F
:1045000000017CD00201010E0101C26F000176D0D2
:104510000101EC5326E0010EA46FC40EA36F8C0EB4
:10452000F66E0C0EF76E030E0201346F000141ECC3
:1045300017F0FCC034F21B0E0201356F0001FDECD8
:1045400017F00D0E02013D6F000130EC17F0010E67
:1045500002016D6FC40E6C6F00016BEC10F04BD05C
:1045600001010001E9EC14F002C00DF201C00CF2EF
:1045700002010D5306E10C51010803E30CC2FCF0EB
:104580003BD0020EEA6E150EE96E090E016EF76A57
:10459000000E00016DEC04F00A000900F5CFEEFFFB
:1045A000012EFBD7020E02016D6F150E6C6F00011C
:1045B0006BEC10F0010E0101A46F780EA36F940E46
:1045C000F66E0C0EF76E070E0201346F000141EC1F
:1045D00017F0FCC034F21B0E0201356F0001FDEC38
:1045E00017F00D0E02013D6F000130EC17F00101D4
:1045F000C26B000103D00201000100D0D9EF2AF004
:1046000001012C5304E10001D9EF2AF00101EE5120
:10461000470A000101E09CD00101EC5326E0010EA5
:10462000A46FC40EA36FA00EF66E0C0EF76E030EF1
:104630000201346F000141EC17F0100EE96E00C169
:1046400035F2FFC034F255EC17F00D0E02013D6F4C
:10465000000130EC17F0010E02016D6FC40E6C6F9B
:1046600000016BEC10F070D001010001E9EC14F0D6
:1046700001C000F002C001F0026A036A03C007F241
:1046800002C006F201C005F200C004F202010753A5
:1046900007E1065305E1055303E1045100081AE25E
:1046A000075318E1065316E1055314E10451280895
:1046B00011E305C22FF204C22EF205C231F204C288
:1046C00030F200018AEF18F002C000F101C0FFF0E3
:1046D0003BD00201020EEA6E150EE96E090E016E64
:1046E000F76A000E00016DEC04F00A000900F5CF36
:1046F000EEFF012EFBD7020E02016D6F150E6C6FDF
:1047000000016BEC10F0010E0101A46F780EA36F95
:10471000A80EF66E0C0EF76E070E0201346F000144
:1047200041EC17F0100EE96E00C135F2FFC034F213
:1047300055EC17F00D0E02013D6F000130EC17F043
:104740000101C26B000104D0010E0101C26F000122
:10475000D9EF2AF001012C5304E10001D9EF2AF02E
:104760000101EE51440A000104E0070AD8B47DD0EB
:10477000ACD00101EC5326E0010EA46FC40EA36F70
:10478000B40EF66E0C0EF76E030E0201346F0001CC
:1047900041EC17F0B4C034F21B0E0201356F00017A
:1047A000FDEC17F00D0E02013D6F000130EC17F02B
:1047B000010E02016D6FC40E6C6F00016BEC10F006
:1047C0004FD001010001E9EC14F002C00DF201C06C
:1047D0000CF202010D530AE10C51030807E30CC26D
:1047E000B4F000018FEC0BF03BD00201020EEA6E38
:1047F000150EE96E090E016EF76A000E00016DECF0
:1048000004F00A000900F5CFEEFF012EFBD7020EDF
:1048100002016D6F150E6C6F00016BEC10F0010E54
:104820000101A46F780EA36FBC0EF66E0C0EF76E2E
:10483000070E0201346F000141EC17F0B4C034F2EE
:104840001B0E0201356F0001FDEC17F00D0E020189
:104850003D6F000130EC17F00101C26B000135D053
:10486000010E0101C26F000130D00101EC5326E0BE
:10487000010EA46FC40EA36FC80EF66E0C0EF76E79
:10488000030E0201346F000141EC17F0100EE96EC7
:10489000ACC035F2ABC034F255EC17F00D0E02018E
:1048A0003D6F000130EC17F0010E02016D6FC40E78
:1048B0006C6F00016BEC10F004D001010001EEEF11
:1048C00018F0010E0101C26F0001D9EF2AF00101B9
:1048D0002C5304E10001D9EF2AF00101EE51450803
:1048E00001E1BAD20001D9EF2AF001012C5304E111
:1048F0000001D9EF2AF00101EE51450A00010DE057
:10490000090AD8B47BD01C0AD8B49ED01D0AD8B4EA
:10491000D6D00E0AD8B40ED14AD10101EE514508C5
:1049200052E1010EA46FC40EA36FD00EF66E0C0EF2
:10493000F76E030E0201346F000141EC17F0040E14
:10494000F66E090EF76E56EF19F0D50EF66E0C0ED8
:10495000F76E040E0201346F000141EC17F00B0EEC
:10496000E96EF2C035F2F1C034F255EC17F0DE0E0C
:10497000F66E0C0EF76E040E0201346F000141EC6E
:1049800017F00B0EE96EEFC035F2EEC034F255ECC5
:1049900017F0F0C034F2010E0201356F0001FDEC9A
:1049A00017F00D0E02013D6F000130EC17F0010E03
:1049B00002016D6FC40E6C6F00016BEC10F0010E04
:1049C0000101C26F19D0020EEA6E150EE96E090ED2
:1049D000016EF76A000E00016DEC04F00A00090098
:1049E000F5CFEEFF012EFBD7020E02016D6F150E03
:1049F0006C6F00016BEC10F00001D9D00101EE5199
:104A00004C0807E1000167EF19F0010E0101C26FC8
:104A100019D0020EEA6E150EE96E090E016EF76AE4
:104A2000000E00016DEC04F00A000900F5CFEEFF66
:104A3000012EFBD7020E02016D6F150E6C6F000187
:104A40006BEC10F00001B3D00101EC5330E0140E18
:104A50000001BB2502012E6F000E0001BC210201E6
:104A60002F6F010E0101A46FC40EA36FEE0EF66E40
:104A70000C0EF76E030E0201346F000141EC17F0CB
:104A8000100EE96E2FC235F22EC234F255EC17F03B
:104A90000D0E02013D6F000130EC17F0010E020116
:104AA0006D6FC40E6C6F00016BEC10F003D0000151
:104AB000A1EF19F0010E0101C26F000178D00101D0
:104AC000EC5326E0010EA46FC40EA36FF60EF66E33
:104AD0000C0EF76E030E0201346F000141EC17F06B
:104AE000100EE96E23C035F222C034F255EC17F0F7
:104AF0000D0E02013D6F000130EC17F0010E0201B6
:104B00006D6FC40E6C6F00016BEC10F012D00101E0
:104B10000001E9EC14F002C023F001C022F0010E04
:104B20000201326F0DC234F20CC233F20001BCEC50
:104B300007F03DD00101EC5326E0010EA46FC40E36
:104B4000A36FFE0EF66E0C0EF76E030E0201346FAD
:104B5000000141EC17F0100EE96E25C035F224C0BB
:104B600034F255EC17F00D0E02013D6F000130ECF0
:104B700017F0010E02016D6FC40E6C6F00016BEC3B
:104B800010F015D001010001E9EC14F002C00DF2A3
:104B900001C00CF20DC225F00CC224F00201326BF0
:104BA0000DC234F20CC233F20001BCEC07F0D9EFB5
:104BB0002AF001012C5304E10001D9EF2AF0010190
:104BC000EE515308D8A47BD0EC5326E0010EA46F1D
:104BD000C40EA36F060EF66E0D0EF76E030E0201E5
:104BE000346F000141EC17F0B2C034F21B0E020129
:104BF000356F0001FDEC17F00D0E02013D6F000155
:104C000030EC17F0010E02016D6FC40E6C6F0001E5
:104C10006BEC10F050D001010001E9EC14F002C07F
:104C20000DF201C00CF202010D530AE10C51010812
:104C300007E30CC2B2F000018FEC0BF03CD0020194
:104C4000020EEA6E150EE96E090E016EF76A000E8D
:104C500000016DEC04F00A000900F5CFEEFF012E13
:104C6000FBD7020E02016D6F150E6C6F00016BEC2D
:104C700010F0010E0101A46F780EA36F0E0EF66EF8
:104C80000D0EF76E070E0201346F000141EC17F0B4
:104C9000B2C034F21B0E0201356F0001FDEC17F0BB
:104CA0000D0E02013D6F000130EC17F00101C26BE7
:104CB0000001D9EF2AF0010E0101C26F7ED0EE5142
:104CC0005008D8A47AD0EC5326E0010EA46FC40E8D
:104CD000A36F1A0EF66E0D0EF76E030E0201346FFF
:104CE000000141EC17F0B0C034F21B0E0201356F29
:104CF0000001FDEC17F00D0E02013D6F000130ECDC
:104D000017F0010E02016D6FC40E6C6F00016BECA9
:104D100010F050D001010001E9EC14F002C00DF2D6
:104D200001C00CF202010D530AE10C51010807E326
:104D30000CC2B0F0000161EC0BF03CD00201020E9D
:104D4000EA6E150EE96E090E016EF76A000E00019B
:104D50006DEC04F00A000900F5CFEEFF012EFBD741
:104D6000020E02016D6F150E6C6F00016BEC10F0FE
:104D7000010E0101A46F780EA36F220EF66E0D0EC8
:104D8000F76E070E0201346F000141EC17F0B0C05E
:104D900034F21B0E0201356F0001FDEC17F00D0E11
:104DA00002013D6F000130EC17F00101C26B000100
:104DB000D9EF2AF0010E0101C26F0001D9EF2AF0EC
:104DC00001012C5304E10001D9EF2AF00101EE5159
:104DD000500A000106E0040A3EE0060AD8B433D1C6
:104DE00046D1140E016EC250830B0110C26E420EEA
:104DF000006E002EFED70000C282C2B2FED7C4CF22
:104E00000DF20201C3CF0CF2010E0101A46F780E66
:104E1000A36F2E0EF66E0D0EF76E040E0201346FA8
:104E2000000141EC17F0100EE96E0DC235F20CC214
:104E300034F255EC17F00D0E02013D6F000130EC1D
:104E400017F00A0E02013D6F000130EC17F001016E
:104E5000C26B00010CD10101180E016EC250830B10
:104E60000110C26E420E006E002EFED70000C282FC
:104E7000C2B2FED7C4CF0DF20201C3CF0CF20DC2F5
:104E80002FF20CC22EF20001DBEF19F000C02EF25F
:104E900001C02FF202C030F203C031F203C056F25B
:104EA00002C055F201C054F200C053F202015A6B25
:104EB000596B586B890E576F0001C7EC0BF000C09F
:104EC0002EF201C02FF202C030F203C031F203C053
:104ED00056F202C055F201C054F200C053F2330E34
:104EE00002015A6F596F530E586F800E576F0001B1
:104EF00076EC0CF003C00BF202C00AF201C009F21A
:104F000000C008F2D8820BC231F20AC230F209C2E4
:104F10002FF208C22EF20201356B346B400E336F54
:104F20007E0E326F000194EC11F003C00BF202C050
:104F30000AF201C009F200C008F20BC256F20AC21E
:104F400055F209C254F208C253F202015A6B596B6E
:104F5000480E586F850E576F000176EC0CF003C0B9
:104F60000BF202C00AF201C009F200C008F2D892A6
:104F70000BC231F20AC230F209C22FF208C22EF27D
:104F80000201356B346B480E336F830E326F0001B4
:104F900094EC11F003C00BF202C00AF201C009F256
:104FA00000C008F2AD51AE112DE0010E0101A46F59
:104FB000780EA36F380EF66E0D0EF76E060E020118
:104FC000346F000141EC17F0050EE96E0BC231F2AF
:104FD0000AC230F209C22FF208C22EF2020E0201FA
:104FE000326F0001F7EF19F0430EF66E0D0EF76EFB
:104FF000080E0201346F000141EC17F00101C26B91
:1050000020D0000102010B6B0A6B096B086B020ECA
:10501000EA6E150EE96E016EF76A000E00018AEC69
:1050200004F00A000900F5CFEEFF012EFBD7020EB7
:1050300002016D6F150E6C6F00016BEC10F0010139
:10504000C26B000114D0100E016EC250830B011010
:10505000C26E1A0E006E002EFED70000C282C2B2CF
:10506000FED7C4CF08F10101C3CF07F10001A1D2DF
:10507000A0D2020EEA6E150EE96E190E016EF76AE5
:10508000000E9DEC04F00A000900F5CFEEFF012EA2
:10509000FBD7020E02016D6F150E6C6F00016BECF9
:1050A00010F0020EEA6E150EE96E0F0E016EF76A31
:1050B000000E7AEC04F00A000900F5CFEEFF012E95
:1050C000FBD7020E02016D6F150E6C6F00016BECC9
:1050D00010F0010E0101A46FC40EA36F4C0EF66E0A
:1050E0000D0EF76E050E0201346F000141EC17F052
:1050F000100EE96EF2C035F2F1C034F255EC17F043
:10510000540EF66E0D0EF76E040E0201346F0001A0
:1051100041EC17F00B0EE96EEFC035F2EEC034F241
:1051200055EC17F0F0C034F2010E0201356F0001AA
:10513000FDEC17F00D0E02013D6F000130EC17F091
:10514000010E02016D6FC40E6C6F00016BEC10F06C
:10515000100E016EC250830B0110C26E1A0E006E4B
:10516000002EFED70000C282C2B2FED7C4CF08F123
:105170000101C3CF07F10851020814E303E107510D
:10518000440810E3010EEA6EEF0EE96E000E000116
:10519000B2EC04F00A000900F550EE6E0009FBE1E4
:1051A0000FD00101010EEA6EEF0EE96E000E000154
:1051B000BDEC04F00A000900F550EE6E0009FBE1B9
:1051C000F951FA1104E002010F6B0E6B04D00201D9
:1051D0000F6B010E0E6F140E0001BB2502012E6F26
:1051E000000E0001BC2102012F6FACC033F2ABC036
:1051F00032F2356B640E346F0001CFEC1AF002C04E
:1052000031F201C030F2ACC033F2ABC032F2020175
:10521000356B640E346F0001CFEC1AF000C032F22F
:1052200003C033F2010E0101A46FC40EA36F640E1C
:10523000F66E0D0EF76E080E0201346F000141ECA0
:1052400017F0100EE96EBAC035F2B9C034F255EC61
:1052500017F06F0EF66E0D0EF76E060E0201346F2C
:10526000000141EC17F0010EEA6EEF0EE96EF2EF6D
:105270001AF0770EF66E0D0EF76E070E0201346F00
:10528000000141EC17F0100EE96E2FC235F22EC26C
:1052900034F255EC17F0810EF66E0D0EF76E050E1A
:1052A0000201346F000141EC17F0100EE96E31C2BB
:1052B00035F230C234F255EC17F02E0E02013D6F7C
:1052C000000130EC17F0100EE96E33C235F232C235
:1052D00034F255EC17F08D0EF66E0D0EF76E090ECA
:1052E0000201346F000141EC17F0AFC034F21B0E25
:1052F0000201356F0001FDEC17F0980EF66E0D0EF1
:10530000F76E050E0201346F000141EC17F0B2C0D8
:1053100034F21B0E0201356F0001FDEC17F09F0EF9
:10532000F66E0D0EF76E050E0201346F000141ECB2
:1053300017F0100EE96EAEC035F2ADC034F255EC88
:1053400017F00D0E02013D6F000130EC17F0010E59
:1053500002016D6FC40E6C6F00016BEC10F0140E47
:10536000F32502012E6F000E0001F42102012F6FC0
:10537000010E0101A46FC40EA36FAA0EF66E0D0EEE
:10538000F76E060E0201346F000141EC17F0B7C052
:1053900034F21B0E0201356F0001FDEC17F0B20E66
:1053A000F66E0D0EF76E050E0201346F000141EC32
:1053B00017F0B5C034F21B0E0201356F0001FDEC91
:1053C00017F0B90EF66E0D0EF76E050E0201346F72
:1053D000000141EC17F0B1C034F21B0E0201356F31
:1053E0000001FDEC17F0C00EF66E0D0EF76E050E07
:1053F0000201346F000141EC17F0100EE96E0FC28C
:1054000035F20EC234F255EC17F0C80EF66E0D0EE2
:10541000F76E050E0201346F000141EC17F0B3C0C6
:1054200034F21B0E0201356F0001FDEC17F0CF0EB8
:10543000F66E0D0EF76E050E0201346F000141ECA1
:1054400017F0B4C034F21B0E0201356F0001FDEC01
:1054500017F0D60EF66E0D0EF76E050E0201346FC4
:10546000000141EC17F0100EE96E2FC235F22EC28A
:1054700034F255EC17F0DE0EF66E0D0EF76E050EDB
:105480000201346F000141EC17F0100EE96EF6C016
:1054900035F2F5C034F255EC17F0E60EF66E0D0E4F
:1054A000F76E050E0201346F000141EC17F0100E8B
:1054B000E96EF8C035F2F7C034F255EC17F0EE0E95
:1054C000F66E0D0EF76E050E0201346F000141EC11
:1054D00017F0B0C034F21B0E0201356F0001FDEC75
:1054E00017F00D0E02013D6F000130EC17F0010EB8
:1054F00002016D6FC40E6C6F00016BEC10F0010EB9
:105500000101A46FC40EA36FF80EF66E0D0EF76EB8
:10551000060E0201346F000141EC17F0FBC034F2BB
:105520001B0E0201356F0001FDEC17F0000EF66E48
:105530000E0EF76E050E0201346F000141EC17F0FC
:10554000FCC034F21B0E0201356F0001FDEC17F0B8
:105550000D0E02013D6F000130EC17F0010E02014B
:105560006D6FC40E6C6F00016BEC10F0010174D410
:1055700000011FD001012C5303E100011AD00101E9
:10558000020EEA6E150EE96E090E016EF76A000E44
:1055900000016DEC04F00A000900F5CFEEFF012ECA
:1055A000FBD7020E02016D6F150E6C6F00016BECE4
:1055B00010F00201000157EF2BF0E824F76AF736EC
:1055C000D50FF66E550EF7220A00F550FA6E080058
:1055D000F550F96E82427E41964090438C43DA3E0C
:1055E000904390439043904390437C439043904337
:1055F0009043863D5750000A06E0020A1BE0010A6C
:10560000D8B4A6D0A5D0586A020E576EAA6BA96B63
:1056100001012C530DE00D0EBC6F3E0EBD6FBE6B35
:10562000010E02016D6FBC0E6C6F00016BEC10F08F
:1056300000018ED03452D8B475D0AA6BA96B66EC39
:1056400014F00101B96B01C0B8F15850582A036A2F
:10565000590FE96E000E0320EA6EB8C1EFFF5850F3
:10566000460804E2576A000173D00101B8510D08E1
:1056700002E1B95305E0B8513B0855E1B95353E194
:10568000B8513B080EE1B9530CE1010E585C036AB6
:10569000590FE96E000E0320EA6E0D0EEF6E586A88
:1056A00003D0000118EC07F0000105EF1BF0010129
:1056B000435305E02C5303E100014AD001010D0ED4
:1056C000BC6F0A0EBD6F4F0EBE6F4B0EBF6F0A0E42
:1056D000C06FC16B010E02016D6FBC0E6C6F0001DB
:1056E0006BEC10F00101BA2D15D0BB5313E12C5314
:1056F00003E100012DD001010A0EBC6F0D0EBD6F3C
:10570000BE6B010E02016D6FBC0E6C6F00016BEC85
:1057100010F008D0010E02016D6F780E6C6F000161
:105720006BEC10F001015750010810E22CA20ED0D2
:105730002C920001A92BD8B4AA2BAA51260806E264
:10574000FF0A03E1A951100801E2576A000100D0E5
:1057500048EF34F08A920201096B0951070813E3FC
:105760000651800B02E18C9801D08C8800D000D0CB
:105770008C8000D000D08C9000D000D00951092B33
:10578000D8900637EAD7096B0951070813E3075188
:10579000800B02E18C9801D08C8800D000D08C80E6
:1057A00000D000D08C9000D000D00951092BD890A7
:1057B0000737EAD78A8208C201F000011200D2C17D
:1057C000D4F1D3C1D5F1020E0201436F010E456F32
:1057D000D40E446F00012AEC0BF012000101CF51EE
:1057E000690A000119E0200A2FE02D0A45E0200A8D
:1057F0005DE06F0AD8B474D0160AD8B499D0100AF4
:10580000D8B4BED0720AD8B4E5D0610AD8B40CD1ED
:10581000020AD8B415D11ED101016F2B06E1702BFD
:105820007051030802E26F6B706B0B0E0201066F82
:105830006FC107F200018EDF0C0E0201066F70C10E
:1058400007F2000187DF06D10101732B06E1742BFB
:105850007451030802E2736B746B0F0E0201066F42
:1058600073C107F2000176DF100E0201066F74C1EA
:1058700007F200016FDFEED001016F076F3D07D027
:1058800070077051030803E26F69030E706F0B0E0F
:105890000201066F6FC107F200015CDF0C0E02010E
:1058A000066F70C107F2000155DFD4D00101730704
:1058B000733D07D074077451030803E27369030E44
:1058C000746F0F0E0201066F73C107F2000142DF11
:1058D000100E0201066F74C107F200013BDFBAD05F
:1058E000010171C1D0F17251030BD16FD02BD8B42B
:1058F000D12BD151030802E2D16BD06B7251C00B96
:10590000D26F000ED013D251D113D0C171F1D1C1D9
:1059100072F10B0E0201066F71C107F200011ADF6E
:105920000C0E0201066F72C107F2000113DF92D064
:10593000010175C1D0F17651030BD16FD02BD8B4D2
:10594000D12BD151030802E2D16BD06B7651C00B41
:10595000D26F000ED013D251D113D0C175F1D1C185
:1059600076F10B0E0201066F75C107F20001F2DE3F
:105970000C0E0201066F76C107F20001EBDE6AD061
:10598000010171C1D0F17251030BD16FD051D8B464
:10599000D107D007D151030803E2030ED16FD069BC
:1059A0007251C00BD26F000ED013D251D113D0C19F
:1059B00071F1D1C172F10B0E0201066F71C107F2D4
:1059C0000001C8DE0C0E0201066F72C107F2000171
:1059D000C1DE40D0010175C1D0F17651030BD16F0A
:1059E000D051D8B4D107D007D151030803E2030E38
:1059F000D16FD0697651C00BD26F000ED013D25147
:105A0000D113D0C175F1D1C176F10B0E0201066F31
:105A100075C107F200019EDE0C0E0201066F76C111
:105A200007F2000197DE16D0BD3D01D001D0BD2B9D
:105A3000010E0101D26FBDC0D3F10001C0DE0AD05A
:105A4000BD5301E0BD07010E0101D26FBDC0D3F10E
:105A50000001B5DE97EF33F00D0E0201066F0A0E5E
:105A6000076F086B020E6D6F060E6C6F00016BEC1A
:105A700010F0020EEA6E060EE96E3D0E016EF76A38
:105A8000000E89EC00F00A000900F5CFEEFF012EB0
:105A9000FBD7020E02016D6F060E6C6F00016BECFE
:105AA00010F0020EEA6E060EE96E2E0E016EF76A17
:105AB000000EB0EC00F00A000900F5CFEEFF012E59
:105AC000FBD7020E02016D6F060E6C6F00016BECCE
:105AD00010F0020EEA6E060EE96E420E016EF76AD3
