:040000005EEF34F08B
:08000800046ED8CF05F0E0CF33
:1000100006F00001E9CF0CF0EACF07F0E1CF08F0DD
:10002000E2CF09F0D9CF0AF0DACF0BF0F3CF12F01C
:10003000F4CF13F0FACF14F0F5CF15F0F6CF16F099
:10004000F7CF17F000C00EF001C00FF002C010F0A3
:1000500003C011F09DA230EF00F09EB21FEF05F03B
:10006000F2A836EF00F0F2B275EF05F0F0A63CEF23
:1000700000F0F0B078EF05F09DAA42EF00F09EBAD4
:100080007BEF05F09DA848EF00F09EB8A2EF05F0C9
:100090007DA04EEF00F07EB011EF05F00EC000F035
:1000A0000FC001F010C002F011C003F00CC0E9FF56
:1000B00007C0EAFF078E08C0E1FF09C0E2FF0AC0DF
:1000C000D9FF0BC0DAFF12C0F3FF13C0F4FF14C056
:1000D000FAFF15C0F5FF16C0F6FF17C0F7FF045072
:1000E00006C0E0FF05C0D8FF1000F76AFA0FF66EF1
:1000F000000EF7220900F55012000000DC0091818B
:100100000008C25E0018B30400003C009500000027
:100110004000F76A220FF66E010EF7220900F55033
:100120001200244149203C6368616E6E656C3E3C60
:1001300063723E2020095265717565737420616E8B
:10014000616C6F67206368616E6E656C2076616CB0
:100150007565202831302062697473290D0A00000A
:10016000F76A700FF66E010EF7220900F5501200C3
:10017000244154203C6C6576656C3E3C63723E20A5
:10018000200953657420617474656E7561746F72B3
:1001900020746F203C6C6576656C3E0D0A00F76A32
:1001A000AE0FF66E010EF7220900F550120024433F
:1001B00046203C667265713E3C63723E20200943D6
:1001C00068616E6765206672657175656E6379201A
:1001D00028323138352E30202D20323330302E3039
:1001E00020696E20302E3120696E6373290D0A005C
:1001F000F76A000FF66E020EF7220900F5501200A2
:100200002444493C63723E20200952657175657330
:1002100074206469676974616C20696E70757473A9
:100220000D0A0000F76A340FF66E020EF72209007D
:10023000F5501200244744203C616464723E3C63E4
:10024000723E202009476574204432412072656760
:10025000697374657220636F6E74656E74730D0AD2
:100260000000F76A720FF66E020EF7220900F550D1
:100270001200244746203C616464723E3C63723E37
:100280002020094765742046504741207265676900
:100290007374657220636F6E74656E74730D0A00FB
:1002A000F76AB00FF66E020EF7220900F550120041
:1002B000244F54203C6F75747075743E3C63723EDD
:1002C000202009536574206469676974616C206F2C
:1002D00075747075747320746F204845582076616A
:1002E0006C75650D0A00F76AF60FF66E020EF722BE
:1002F0000900F55012002452443C63723E2020094C
:100300005265736574204432410D0A00F76A1C0F70
:10031000F66E030EF7220900F55012002453442014
:100320003C616464723E203C646174613E3C637273
:100330003E2020095365742044324120726567696C
:1003400073746572203C616464723E20746F203C5B
:10035000646174613E0D0A00F76A680FF66E030E61
:10036000F7220900F5501200245346203C616464D2
:10037000723E203C646174613E3C63723E20200901
:1003800053657420465047412072656769737465F0
:1003900072203C616464723E20746F203C6461741E
:1003A000613E0D0A0000F76AB60FF66E030EF722E3
:1003B0000900F55012004453203C646174612073BD
:1003C0006F7572653E3C63723E2020095365742050
:1003D0006461746120736F757273652028302D31EC
:1003E000290D0A00F76AF40FF66E030EF7220900D2
:1003F000F55012004450203C6461746120706F6CB1
:1004000061726974793E3C63723E202009536574C1
:10041000206461746120706F6C6172697479202846
:10042000302D31290D0A0000F76A380FF66E040EE0
:10043000F7220900F55012004445203C736574759D
:100440007020534F5150534B3E3C63723E20200965
:1004500053657420736574757020534F5150534B1E
:100460002028302D31290D0A0000F76A7A0FF66E28
:10047000040EF7220900F55012005250203C706F14
:100480007765722068696774683E3C63723E20201D
:100490000953657420706F776572206869677468A6
:1004A0002028302D31290D0A0000F76ABA0FF66EA8
:1004B000040EF7220900F55012005246203C706FDE
:1004C00077657220636F6D616E643E3C63723E209F
:1004D000200953657420706F77657220636F6D61BA
:1004E0006E642028302D31290D0A0000F76AFC0FB8
:1004F000F66E040EF7220900F55012005241203C1E
:1005000072616E646F6D697A65723E3C63723E2003
:10051000200973657420776974682F776974686F30
:1005200075742072616E646F6D697A65722028300F
:100530002D31290D0A00F76A460FF66E050EF722D7
:100540000900F55012004652203C667265717565CF
:100550006E63793E3C63723E2020095365742066C9
:1005600072657175656E63792028323230302E30B5
:100570002D323430302E30290D0A0000F76A8C0FEE
:10058000F66E050EF7220900F55012004D4F203C83
:100590006D6F64653E3C63723E2020095365742094
:1005A0006D6F64652028302D33290D0A0000F76A2D
:1005B000BE0FF66E050EF7220900F55012004943F2
:1005C000203C626974726174653E3C63723E202017
:1005D0000953657420626972746174652028312E34
:1005E00030302D33302E303044427073290D0A00E4
:1005F000F76A000FF66E060EF7220900F55012009A
:100600004944203C696E7465726E616C207061743F
:100610007465726E3E3C63723E20200953657420FF
:10062000696E7465726E616C207061747465726E4F
:100630002028302D33290D0A0000F76A4A0FF66E84
:10064000060EF7220900F55012005650203C706F3C
:10065000776572206C6576656C3E3C63723E202047
:100660000953657420706F776572206C6576656CD0
:10067000202832302D3430290D0A0000F76A8C0F03
:10068000F66E060EF7220900F5501200564C203C7B
:10069000706F77657220686967683E3C63723E20C0
:1006A0002009536574206869676820706F776572E8
:1006B000206C6576656C202832302D3430290D0A87
:1006C0000000F76AD20FF66E060EF7220900F55009
:1006D0001200564D203C6E65676174697665207026
:1006E0006F776572206C6576656C3E3C63723E2068
:1006F0002009536574206E656761746976652070A2
:100700006F776572206C6576656C0D0A0000F76A7C
:100710001E0FF66E070EF7220900F5501200564321
:10072000203C706F73657469766520706F776572B1
:10073000206C6576656C3E3C63723E2020095365F3
:100740007420706F73657469766520706F77657259
:10075000206C6576656C0D0A0000F76A6A0FF66E0C
:10076000070EF7220900F55012004353203C636C3A
:100770006F636B2070686173653E3C63723E20203E
:100780000953657420636C6F636B207068617365D7
:100790002028302D31290D0A0000F76AAA0FF66EC5
:1007A000070EF7220900F55012005554203C554120
:1007B00052542054696D653E3C63723E20200953BB
:1007C0006574207468652073746F702074696D653A
:1007D0002063757272656E742031352028302D3299
:1007E0003430290D0A00F76AF60FF66E070EF7226D
:1007F0000900F55012005553203C554152542053E6
:1008000074617475733E3C63723E202009536574B5
:100810002074686520426C6F636B2028302D31296D
:100820000D0A0000F76A340FF66E080EF722090071
:10083000F55012004247203C554152542043686114
:100840006E67653E3C63723E20200953657420420A
:100850006C6F636B20706572207365636F6E6420CC
:1008600028312D3230290D0A0000F76A7A0FF66E12
:10087000080EF7220900F55012005356203C736110
:10088000766520616C6C3E3C63723E2020095361AA
:10089000766520706172616D65746572730D00001C
:1008A000F76AB00FF66E080EF7220900F550120035
:1008B0000D092048454C50204C495354200D000050
:1008C000F76AD00FF66E080EF7220900F5501200F5
:1008D0000D0A4641554C540D0A00F76AEA0FF66EB0
:1008E000080EF7220900F55012000D0A4641494C46
:1008F0000D0A0000F76A040FF66E090EF7220900D0
:10090000F5501200204241313431305458205633D2
:100910002E330000F76A240FF66E090EF722090045
:10092000F55012000D0A0A4E4F2054454D502D52DD
:1009300046204F4646200D0A0000F76A4A0FF66E21
:10094000090EF7220900F55012000D0A0A4F4B203C
:100950005265717565737420537461747573200DDD
:100960000A0A0000F76A740FF66E090EF7220900F2
:10097000F5501200474F4F440000F76A8A0FF66E99
:10098000090EF7220900F550120042414400F76AAF
:100990009E0FF66E090EF7220900F55012000D0A9F
:1009A0004F4B0D0A2A00F76AB60FF66E090EF722B2
:1009B0000900F55012000D0A0A425245414B0D0A3A
:1009C0000000F76AD20FF66E090EF7220900F55003
:1009D00012000100E6030200F401030061010400BB
:1009E00004010500D2000600AA00070090000800DC
:1009F0007C0009006E000A0063000B0058000C0028
:100A00004F000D0048000E0043000F003E00100094
:100A10003900110034001200320013002E001400BF
:100A20002C007E904EEF00F00201746B73C20EF149
:100A300072C20DF19E989D88000151EF05F0266865
:100A4000272A2F2AD8B4302A01010051305C2AE32A
:100A500008E10001FF512F5CD8B002D0010122D083
:100A60000101332C1FD00001FC2D01D002D0010167
:100A700019D001010B2D02D00C5304E00B5312E1ED
:100A80000C5310E1306A2F6A010E316E0F2BD8B46F
:100A9000102B2B5307E10201736B180E726F0001CC
:100AA000C3D70101282A285009081BE2286A2F2AE7
:100AB000D8B4302A292A2A682B2A2B50090811E297
:100AC0002B6A2C682D2A2D5009080BE22D6A2E68FE
:100AD000322A0001FB51325C03E3326A010E336EAD
:100AE00001019E9200014EEF00F0F2924EEF00F0F5
:100AF000F0904EEF00F0AECF72F2036A3550370F30
:100B0000E96E000E0320EA6E72C2EFFF352A3550FF
:100B10001F0801E2356A34501F0801E3342A9E9A07
:100B20004EEF00F0040E0201735F0AE3020EEA6E5C
:100B3000730EE96EEF5004E001D00000EF2EFDD7F8
:100B4000000112008C8A0101126B116B0EC103F0BF
:100B50000D51D8B40E070D0703101DE08C8A12C189
:100B600003F01151112BD8B4122B0201726F130E26
:100B70007225E96E010E0320EA6EEFCFADFF020E83
:100B8000726FF90E736F0001CDDF0201722FF9D77A
:100B90008C9A0101DBD79D989E9800014EEF00F0E2
:100BA00024415220256C750D0000244350202575EA
:100BB0000D0024445220253032580D00200D0A2407
:100BC0005346202530325820253032580D00200D54
:100BD0000A245344202530325820253032580D0045
:100BE000465220256C750D004D4F2025750D0000D7
:100BF00044532025750D00004552522044532025B2
:100C0000750D000044502025750D000045525220FE
:100C100044502025750D000044452025750D000029
:100C20004552522044452025750D00005250202584
:100C3000750D00004552522052502025750D0000C0
:100C400052462025750D000045525220524620255F
:100C5000750D0000524320256C750D005242202571
:100C60006C750D0052412025750D00004552522033
:100C700052412025750D000055542025750D0000AA
:100C80004552522055542025750D000055532025FE
:100C9000750D00004552522055532025750D00005A
:100CA000424720256C750D004552522042472025B1
:100CB0006C750D0049442025750D000045525220E9
:100CC00049442025750D0000494320256C750D0011
:100CD00056452025732049443D2530326C7520440B
:100CE000543D2530326C75253032750D000056505C
:100CF00020256C750D00564D20256C750D00564352
:100D000020256C750D0043532025750D00004552BC
:100D1000522043532025750D000043502025750DAA
:100D200000004552522043502025750D00000A470F
:100D30005020256C750D0A000D54454D503D25364B
:100D40002E32666465670D0A4F4B0A000D0A49444E
:100D50003D256C752044543D2530326C752530326C
:100D6000750D00000D0A0A465245513D256C752C43
:100D7000205245563D25732C20464657523D256C42
:100D8000752C2049433D256C752E256C754D627080
:100D9000732C204D4F3D25752C2043533D25752C3C
:100DA0002052463D256C750D00000D0A0A44453D54
:100DB00025752C2052413D25752C2044503D25752C
:100DC0002C2052503D256C752C2044533D25752C0C
:100DD0002049443D25752C20564C3D256C752C2012
:100DE00052423D256C752C2052433D256C752C20BC
:100DF00043503D25750D00000D0A0A55543D2575DB
:100E00002C2055533D25750D0000896A8A6A8B6A2E
:100E10008C6A8D6AE10E926EC10E936EF10E946E25
:100E20008E0E956E968096829694968638EF07F091
:100E30000101776B346A34C036F036C035F0576A3A
:100E40009D8A00011200480E0509BA6E630EBB6E42
:100E5000B46AB16A000E05090F01516F630E526F3B
:100E60004D6B4E6B000E4A6F000E4B6F0001CDD7DD
:100E7000C150F00BC16E210E0F01386F030E3C6F95
:100E8000000E396F3A6F3B6FC050C00B2509C06E22
:100E9000C08EC280776A040E786E796E0001C8DF5A
:100EA0009D82C00EF212A3EF34F0020EEA6E420EE3
:100EB000E96EEF500EE0050E016E006A002EFED7BF
:100EC000012EFBD72E0E006E002EFED700D0EF2E87
:100ED000F2D7120002013251036E3151D8B43207F9
:100EE000310703101FE03051036E2F512F2BD8B460
:100EF000302BE96E03C0EAFF2E51036E2D512D2BCE
:100F0000D8B42E2B356F03C036F2F2CF37F2F29EF3
:100F100035C2A9FFA69CA69EA680A85037BFF28E18
:100F2000EF6ED9D70001AEEF07F0016603D002667D
:100F300002D007D0022A00C0EEFF012EFCD7022EFD
:100F4000FAD7BBEF07F002012E6B2D6B306BAB0EA7
:100F50002F6F326B560E316F0001BCD7B23D01D0FE
:100F600002D0B33D08D0EA6AAB0EE96E006A026AAD
:100F7000560E016EDAD7120089940201315302E055
:100F8000898801D089988986040E006E002EFED7CC
:100F900000D08996040E006E002EFED700D08998EE
:100FA0008986040E006E002EFED700D08996040EAE
:100FB000006E002EFED700D08986040E006E002E33
:100FC000FED700D08996040E006E002EFED700D00A
:100FD0008986040E006E002EFED700D08996040E7E
:100FE000006E002EFED700D08986000B006E3351B4
:100FF000020B036E0050031002E0898801D089982B
:10100000040E006E002EFED700D08996040E006EEE
:10101000002EFED700D08986000B006E3351010BE5
:10102000036E0050031002E0898801D089988996E8
:1010300089863251800B006E036A0050031002E073
:10104000898801D08998040E006E002EFED700D04A
:101050008996040E006E002EFED700D0898632518C
:10106000400B006E036A0050031002E0898801D033
:101070008998040E006E002EFED700D08996040ECB
:10108000006E002EFED700D089863251200B006EF4
:10109000036A0050031002E0898801D0899889967C
:1010A00089863251100B006E036A0050031002E073
:1010B000898801D08998040E006E002EFED700D0DA
:1010C0008996040E006E002EFED700D0898632511C
:1010D000080B006E036A0050031002E0898801D0FB
:1010E0008998899689863251040B006E036A0050F4
:1010F000031002E0898801D08998040E006E002E4A
:10110000FED700D08996040E006E002EFED700D0C8
:1011100089863251020B006E036A0050031002E010
:10112000898801D08998899689863251010B006E91
:10113000036A0050031002E0898801D08998040EE8
:10114000006E002EFED700D08996040E006E002E91
:10115000FED700D08986040E006E002EFED700D088
:1011600089968986040E006E002EFED700D0040EEC
:10117000006E002EFED700D08996040E006E002E61
:10118000FED700D08984040E006E002EFED700D05A
:101190008992040E006E002EFED700D08982040EC4
:1011A000006E002EFED700D00001120002014F6B2E
:1011B000506B010E516FDA6AD96A020E546F470EF6
:1011C000536F020EEA6E4B0EE96E54C2E2FF53C239
:1011D000E1FF51C252F2D890E550EE02F3504F2396
:1011E000F4505023522FF7D74FC2DEFF50C24FF2B8
:1011F000506BD8B0502B532BD8B4542B512B51518A
:101200000508DFE100011200D8B204D0020EEA6E38
:10121000530EE96E006A016A026A036A0201536BA7
:10122000546B556B566B5251511150114F112CE0AC
:10123000200E576FD8904B374C374D374E375337BA
:101240005437553756375251565D08E15151555D67
:1012500005E15051545D02E14F51535D0FE34F5191
:10126000535F5051D8A0503D545F5151D8A0513DCB
:10127000555F5251D8A0523D565FD8800036013696
:1012800002360336572FD6D753C2EFFF54C2ECFFB6
:1012900055C2ECFF56C2ECFF000112000201426B86
:1012A000416B406B020E3F6F04003E6B3D6B36C2DC
:1012B0003CF235C23BF201013F6B950E3E6F3D6B38
:1012C0003C0E3C6F02013651540812E2FF0A03E162
:1012D0003551EF080DE2426B416B406B010E3F6FE1
:1012E00001013F6B850E3E6F3D6B3C0E3C6F020172
:1012F00004003EC24AF23DC249F23CC248F23BC23F
:1013000047F242C24EF241C24DF240C24CF23FC2DD
:101310004BF200014BDF03C046F202C045F201C0B0
:1013200044F200C043F203C04AF202C049F201C0D5
:1013300048F200C047F202014E6B4D6B4C6B640EDD
:101340004B6F000133DF03C03EF202C03DF201C02B
:101350003CF200C03BF20400D8923EC24EF23DC2C5
:101360004DF23CC24CF23BC24BF20201526B516B4C
:10137000270E506F100E4F6F000146DF03C02FF194
:1013800002C02EF101C02DF100C02CF104002FC1CC
:101390004AF22EC149F22DC148F22CC147F2020196
:1013A0004E6B4D6B270E4C6F100E4B6F0001FEDE27
:1013B000005002013B5D436F01503C59446F0250A5
:1013C0003D59456F03503E59466F4A6B496B486B18
:1013D000640E476F42C24EF241C24DF240C24CF21F
:1013E0003FC24BF20001E2DE03C04AF202C049F202
:1013F00001C048F200C047F2D89246C24EF245C240
:101400004DF244C24CF243C24BF203C052F202C04E
:1014100051F201C050F200C04FF2F6DE03C033F1CA
:1014200002C032F101C031F100C030F1D8920201A6
:101430004E6B4D6B4C6B640E4B6F42C252F241C20D
:1014400051F240C250F23FC24FF20001DDDE03C054
:1014500046F202C045F201C044F200C043F202016C
:101460000034006E0134016E0234026E0334036EE8
:1014700000360136023603360036013602360336B0
:10148000F80E0016080E0324466F010E0024010119
:10149000346F000E020101200101356F000E0201C0
:1014A00002200101366F000E020146210101376F53
:1014B0000400010E02013727D8B0382BD8B4392BDD
:1014C000D8B43A2B00011200080E02013F6F3F53BF
:1014D0001EE03EAF02D08B8601D08B960C0E006EC4
:1014E000002EFED700D000008B840C0E006E002E64
:1014F000FED700D000008B94200E006E002EFED789
:1015000000D000003F513F07D8903E37E0D78B9680
:101510008B94000112000400F29CF29EF2BEFDD7F3
:101520003CC23DF23CC23EF2CFDF3BC23DF23BC289
:101530003EF2CADF3AC23DF23AC23EF2C5DF39C2DC
:101540003DF239C23EF2C0DF340E006E002EFED7EF
:1015500000D000008B82060E006E002EFED7000029
:101560008B928B96C00EF2120400120002013A6BAD
:1015700001012C3502013B6F01012D3502013C6F49
:1015800001012E3502013D6F3B373C373D373B377C
:101590003C373D373B373C373D373B373C373D37B2
:1015A0003B373C373D373B373C373D37800E3B17A9
:1015B00001013035006E3135016E3235026E333542
:1015C000036E003601360236033600360136023627
:1015D0000336F80E0016005002013A25356F01500F
:1015E0003B21366F02503C21376F03503D21386F4D
:1015F00038C23BF137C23AF136C239F135C238F15F
:10160000040038C23CF237C23BF236C23AF235C26D
:1016100039F2000180DF1A0E006E002EFED70000A6
:10162000040037C13CF236C13BF235C13AF234C155
:1016300039F271DF1A0E006E002EFED70000040092
:101640003FC13CF23EC13BF23DC13AF23CC139F2EE
:1016500062DF12008A940C0E006E002EFED700D0BE
:101660000000020142514207000A22E044C203F096
:101670004351432BD8B4442BE96E03C0EAFFEFCFAC
:1016800045F2466B4651070812E345AF02D08C88FD
:1016900001D08C9800D000D08C8000D000D08C90ED
:1016A00000D000D04651462BD8904537EBD7DAD73B
:1016B0000C0E006E002EFED700D000008A840001C0
:1016C00012000201356B0001B039006EF00E0016F9
:1016D0000050AF1102013E6F0001B139006E0036BB
:1016E000E00E0016005002013E130001B539006EF5
:1016F00000360036C00E0016005002013E13006A8C
:101700000001B7B1008E005002013E11366F020E8B
:10171000426F446F350E436F00019CDF1200060ECE
:101720000201356FD8900001B335B21102013E6F4E
:101730000001B435006E0036FC0E001600500201A8
:101740003E11366F020E426F446F350E436F00013B
:1017500081DF1200B60E006E036A026A016A02019E
:10176000525153115411551102E1006A0DD0D89015
:1017700001BE09D052375337543755370336023636
:101780000136002EF4D7019E00011BEF0DF002017F
:101790005251D8B4A5D05E6F5651D8B4A1D05E5F77
:1017A00005E37F0E5E27D8B09BD006D0810E5E5F2A
:1017B000D8A096D0D8B494D05EC200F0016A026A74
:1017C000036A5D6B53C25CF25C8F54C25BF255C21C
:1017D0005AF2190E5E6F59515A5F0DE2010E5B5FAE
:1017E0000AE25C5F08E25D5F06E25D2B5C2B5B2B2F
:1017F00059515A2728D058515B5F12E2010E5C5FA5
:101800000FE25D5F0DE25D2B5C2B58515B27595158
:101810005A2719E35B2B17E15C2B15E15D2B13D0E5
:10182000575180095C5F0EE2010E5D5F0BE25D2B9C
:10183000575180095C2758515B27E9E35C2BE7E1AE
:101840005D2BE5D703805E2F01D00BD0D8905A379F
:101850005B375C375D37D8900336023601365F3729
:10186000BAD75FA106D0D8900132023203325F337B
:1018700002D0000635E05FBF1ED0D8905A375B37E4
:101880005C375D3759515A5F07E2010E5B5F04E236
:101890005C5F02E25D5F1AE358515B5F05E2010E97
:1018A0005C5F02E25D5F12E3575180095C5F03E217
:1018B000010E5D5F0BE3032A09E1022A07E1012A19
:1018C00005E1002A0DE001320232033253C25EF21A
:1018D00057515E1B5EAF02D0018E06D0019E04D030
:1018E000006A016A026A036A000112000201525191
:1018F000D8B471D0006E5651D8B46DD0002604E330
:10190000810E002668E204D07F0E005E64E363E08F
:1019100053C25AF257515A1B538F578F555159037F
:10192000F4CF5CF254515803F4CF03F0F3CF5BF2E1
:101930005903F3505C27F4505B23000E03225551EA
:101940005803F3505C27F4505B23000E026A032215
:10195000022253515903F3505B27F4500322000E27
:10196000022253515803F3500326F4500222000E72
:10197000016A012255515703F3505B27F4500322AB
:10198000000E0222012254515703F3500326F45053
:101990000222000E012253515703F3500226F45045
:1019A0000122002A01BE05D05B370336023601361C
:1019B0000006000E5BAF0AD0032A0222012201506A
:1019C00005E1025003E1035001E1002A5ABF018EF4
:1019D0005AAF019E04D0006A016A026A036A0001DC
:1019E000120002015251B608526F036A53C256F2F6
:1019F000538FD8905333543355330332023201326C
:101A00000032522FF6D756AF0BD0001E011E021E19
:101A1000031E002AD8B4012AD8B4022AD8B4032A53
:101A20000001120049C255F248C254F247C253F2B3
:101A300046C252F28FD603C04DF202C04CF201C032
:101A40004BF200C04AF24DC255F24CC254F24BC2A6
:101A500053F24AC252F2C00E0201596FE10E586FA2
:101A6000640E576F9A0E566F000191DE03C051F25B
:101A700002C050F201C04FF200C04EF251C255F206
:101A800050C254F24FC253F24EC252F20201596B8D
:101A9000586B576B8F0E566F000128DF03C051F251
:101AA00002C050F201C04FF200C04EF251C255F2D6
:101AB00050C254F24FC253F24EC252F20201596B5D
:101AC000586B576B8F0E566F000110DF03C051F239
:101AD00002C050F201C04FF200C04EF251C255F2A6
:101AE00050C254F24FC253F24EC252F27ADF03C0D8
:101AF00055F202C054F201C053F200C052F2010E7E
:101B00000201005C006E000E0158016E000E0258CA
:101B1000026E000E0358036E000112000201456BB5
:101B2000446BACC043F2ABC042F245C24AF244C27D
:101B300049F2ACC048F2ABC047F24E6B4D6B270E7A
:101B40004C6F100E4B6F0001D6EC08F003C045F24D
:101B500002C044F201C043F200C042F203C049F2A5
:101B600002C048F201C047F200C046F25BDF03C08A
:101B700041F202C040F201C03FF200C03EF2020E4C
:101B80000201356F3EC236F2020E426F446F350ECF
:101B9000436F00015FDD0A0E0201426F000155EC48
:101BA00007F0030E0201356F3FC236F2020E426F9C
:101BB000446F350E436F00014DDD0A0E0201426F86
:101BC000000155EC07F0040E0201356F40C236F2F9
:101BD000020E426F446F350E436F00013BDD0A0E6B
:101BE0000201426F000155EC07F0050E0201356F4E
:101BF00041C236F2020E426F446F350E436F000150
:101C000029DD0A0E0201426F000155EC07F01200B7
:101C1000BAC032F2B9C031F2050E0201426F0001C2
:101C200055EC07F032C236F231C235F24EEC09F013
:101C3000050E0201426F000155EC07F097DC050E1E
:101C40000201426F000155EC07F03BDD050E020179
:101C5000426F000155EC07F062DD050E0201426F94
:101C6000000155EC07F05ADFACC034F2ABC033F2E0
:101C7000030E1F6EE80E1E6E1200243C03D0253C9E
:101C800001D021D02CA61ED02C960201316B25C08C
:101C900033F224C032F20001BCEC07F0140E016EE6
:101CA000C250830B0110C26E1A0E006E002EFED7BA
:101CB0000000C282C2B2FED7C4CF2EF20201C3CF4F
:101CC0002DF20001B0D183AE2DD0F5532BE1F653A8
:101CD00029E1AD2D21D0AE531FE18C8C0101032BE6
:101CE000D8B4042B032D0BD0045309E18C8C320E95
:101CF0000201426F000155EC07F08ADF0101045137
:101D0000E90808E2FF0A03E10351600803E2046BFB
:101D1000020E036F05D000018C9C0101046B036B64
:101D20002ED0000183BE2CD0F5532AE1F65328E1D2
:101D3000AD2D08D0AE5306E18C9C0101046B036B02
:101D400006D000018C8C0101032BD8B4042B032D89
:101D50000BD0045309E18C8C320E0201426F00015A
:101D600055EC07F055DF01010451E90808E2FF0ACC
:101D700003E10351600803E2046B020E036F0001EC
:101D800083BE37D0F52D35D0F65333E1AD2D20D0BD
:101D9000AE531EE18C8C0101052BD8B4062B052D0A
:101DA0000BD0065309E18C8C3C0E0201426F0001FE
:101DB00055EC07F02DDF01010651E90808E2FF0AA2
:101DC00003E10551600803E2066B020E056F000196
:101DD000AD530EE1AE530CE18C9C0201316B336BC1
:101DE000326B0001BCEC07F00101066B056B0001D2
:101DF00045D083AE43D0F52D41D0F6533FE1AD2D14
:101E00000ED0AE530CE18C9C0201316B336B326B04
:101E10000001BCEC07F00101066B056B0001AD533E
:101E200013E1AE5311E10101052D0ED006530CE173
:101E30008C8C3C0E0201426F000155EC07F0E8DE8D
:101E40000101052BD8B4062B0101052D0BD006533B
:101E500009E18C8C320E0201426F000155EC07F053
:101E6000D7DE01010451E90808E2FF0A03E103514A
:101E7000600803E2066B020E056F0001BA515808B4
:101E80000FE303E1B95129080BE3010E0201316FA1
:101E9000BFC033F2BEC032F20001BCEC07F01CD070
:101EA000BA515A080FE303E1B951F9080BE3010EE7
:101EB0000201316FC1C033F2C0C032F20001BCEC8C
:101EC00007F00AD0010E0201316FC3C033F2C2C065
:101ED00032F20001BCEC07F0140E016EC250830B0D
:101EE0000110C26E1A0E006E002EFED70000C282D4
:101EF000C2B2FED7C4CF2EF20201C3CF2DF2000131
:101F0000F72D27D0F85325E183A409D0F92D07D068
:101F1000FA5305E11DC030F21CC02FF21AD083A481
:101F200009D0F95307E1FA5305E11BC030F21AC09A
:101F30002FF20FD083B409D0F95307E1FA5305E12A
:101F40001DC030F21CC02FF204D01BC030F21AC0EA
:101F50002FF2F75327E1F85325E183A409D0F95371
:101F600007E1FA5305E11DC030F21CC02FF21AD070
:101F700083B409D0F92D07D0FA5305E11DC030F222
:101F80001CC02FF20FD083A409D0F92D07D0FA532B
:101F900005E11BC030F21AC02FF204D01BC030F292
:101FA0001AC02FF2060E02012F25016E000E3021FD
:101FB000036E03502E5D04E312E12D51015C0FE32B
:101FC000060E2F5D006E000E3059036E00C001F04A
:101FD0002E51035C29E303E101502D5D25E22E51D2
:101FE000305D0EE303E12F512D5D0AE21F5203E144
:101FF0001E50950804E2030E1E5E000E1F5A0BD001
:102000001F50030808E303E11E50F20804E3030E27
:102010001E26000E1F22316B1FC033F21EC032F28B
:102020000001BCEC07F00201000112000101BA6BD3
:10203000050EB96FBA51050836E3B951040DF350D6
:10204000036A000175EC00F00900F5CF01F009000A
:10205000F5CF02F00900F5CF03F003C0B8F102C0DC
:10206000B7F101C0B6F1E8CFB5F1B9C100F0016A2E
:10207000026A036A00500101B5130150B613025001
:10208000B7130350B813B8C13CF2B7C13BF2B6C1A5
:102090003AF2B5C139F200018BEC0AF00101BA51F4
:1020A000BA2BB907C7D7FA0E0201426F000155ECEF
:1020B00007F0B8C13CF2B7C13BF2B6C13AF2B5C1C4
:1020C00039F28BEC0AF0FA0E0201426F000155EC76
:1020D00007F0DEEF34F09D9A8C8A840E006E002E9D
:1020E000FED700D0000002016E6B6CC203F06BC221
:1020F000E9FF6CC2EAFFEF5246E06CC203F06B519D
:102100006B2BD8B46C2BE96E03C0EAFFEFCF6DF2F6
:102110006D51090816E06DC2ADFF6E2B020E706F97
:10212000196AF2BE198EF29E950E736F000192EC41
:1021300005F019BEF28E0201702FF2D7AECF6DF20C
:1021400021D0200E6F6F6F516E5D03E3020E6E257E
:102150006F6F6F516E5D16E2200EAD6E6E2B020E2C
:10216000706F196AF2BE198EF29E950E736F0001A0
:1021700092EC05F019BEF28E0201702FF2D7AECFAD
:102180006DF2E7D7B2D7840E006E002EFED700D0D6
:1021900000008C9AAECF6DF29D8A00011200010101
:1021A000BB6BBB6B000E0001B7B1010E006E0036B9
:1021B0000036FC0E001600500101BB27000E000186
:1021C000B0B1010E006E003600360036F80E001673
:1021D00000500101BB27000E0001B2B1010E006EDC
:1021E000003AF00E001600500101BB27000E00015E
:1021F000B5B1010E006E003A0036E00E0016005038
:102200000101BB27000E0001B1B1010E006E003AC2
:1022100000360036C00E001600500101BB27000E2C
:102220000001B3B1010E006E0030006AD8B0008E1C
:1022300000500101BB27036ABBC101F003C002F0DB
:1022400000010EEF14F001010851020806E303E15A
:102250000751440802E3A19101D0A181BB6BBB6B84
:10226000000EA1B1010E006E00360036FC0E001605
:102270000050BB27000E0001FCB1010E006E0036BD
:1022800000360036F80E001600500101BB27000E84
:102290000001F9B1010E006E003AF00E0016005078
:1022A0000101BB27000E0001ADB1010E006E003A26
:1022B0000036E00E001600500101BB27000E0001A1
:1022C000F7B1010E006E003A00360036C00E00165F
:1022D00000500101BB27000E0001F5B1010E006E98
:1022E0000030006AD8B0008E00500101BB27036A9D
:1022F000BBC101F003C002F0000111EF14F08E0E1B
:10230000006EC4C101F0C3C102F0036A01AE05D082
:10231000011E021E022A01E1012A015209E102C046
:1023200001F0026A080E005E015202E1006A0DD05F
:10233000D89001BE04D0023601360006F9D701015B
:10234000C4AF02D0000101D0019E00011CEF13F0C8
:10235000800ED8A202D00201321B0201376B386B0B
:102360002EC236F23251361B2D51D8B4DFD0356F24
:10237000006E3151D8B4E3D0355FD8B483D03EE39A
:1023800032C23BF23B8F33C23AF234C239F2386B7D
:10239000D8903B333A3339333833352FF8D736AF0B
:1023A00003D03781E0D0379135913789020EEA6E3C
:1023B000300EE96EEBD0379936BF0AD035A113D075
:1023C0003B333A3339333833002AD8B4C7D00BD033
:1023D0003BBF0CD0D890383739373A373B370006F7
:1023E000D8B4BCD0F5D7378D6DD0379D2EC236F21C
:1023F0002EAF02D03B8FABD03B9FA9D031C235F27C
:1024000031C200F02D51355F2EC23BF23B8F2FC2FF
:102410003AF230C239F2386BD8903B333A33393321
:102420003833352FF8D736AF03D037839CD0379366
:102430003591378B020EEA6E340EE96EA7D0379BCA
:1024400036BF0AD035A113D03B333A333933383352
:10245000002AD8B483D00BD03BBF0CD0D8903837EB
:1024600039373A373B370006D8B478D0F5D7378FAD
:1024700029D0379F32C236F232AF02D03B8F67D0BD
:102480003B9F65D032C23BF23B8F33C23AF234C23B
:1024900039F236AF04D03B9F378565D03795386B1E
:1024A0003591020EEA6E300EE96E70D036BF1CD048
:1024B0002EC236F235A106D03B333A3339333833A6
:1024C000002A4CE038AF0BD0392B09E13A2B07E159
:1024D0003B2B05E13B333A333933002A3FE037BD2C
:1024E00084D737BFC6D71CD0800E3B1B3BAF04D070
:1024F0003AD032C236F20AD02EC236F23B5306E14F
:102500003A5304E1395302E1006A21D03BBF08D0BD
:10251000D890383739373A373B37002EF7D71ED0A7
:1025200036AF02D03B8F13D03B9F11D031C200F0A9
:1025300032C23BF233C23AF234C239F208D02DC271
:1025400000F02EC23BF22FC23AF230C239F23BC247
:1025500001F03AC202F039C203F034D0006A016AD5
:10256000026A036A2FD0386B391F3A1F3B1F381F8E
:10257000382B05E1392B03E13A2B01E13B2B37B135
:1025800012D737B354D737B589D7B3D7EF503927D8
:1025900005E33A2B03E13B2BD8B43581ED52EF50E4
:1025A0003A2703E33B2BD8B43581ED52EF50EFBE11
:1025B00001D0800A3B27D8B0358137B9FCD637BB6C
:1025C0003ED774D7000112008E0E006E0101C35178
:1025D000005EC4C102F0C5C101F0028E005209E0E4
:1025E000D890025202E1015204E002320132002E80
:1025F000F7D7C4AF05D0011E021E012AD8B4022AA3
:102600000001C1EF13F0180E016EC250830B0110D0
:10261000C26E420E006E002EFED70000C282C2B211
:10262000FED7C4CFC2F10101C3CFC1F1C2C1C4F111
:10263000C1C1C3F1000163D600C0C3F101C0C4F140
:1026400002C0C5F103C0C6F103C055F202C054F286
:1026500001C053F200C052F20201596B586B576B24
:10266000890E566F0001C7EC0BF000C0C3F101C02A
:10267000C4F102C0C5F103C0C6F103C055F202C0E7
:1026800054F201C053F200C052F2330E0201596FEE
:10269000586F530E576F800E566F000176EC0CF09A
:1026A00003C0BEF102C0BDF101C0BCF100C0BBF16E
:1026B000D882BEC130F2BDC12FF2BCC12EF2BBC167
:1026C0002DF20201346B336B400E326F7E0E316F90
:1026D00000013EDE03C0BEF102C0BDF101C0BCF18D
:1026E00000C0BBF1BEC155F2BDC154F2BCC153F232
:1026F000BBC152F20201596B586B480E576F850EE1
:10270000566F000176EC0CF003C0BEF102C0BDF1C3
:1027100001C0BCF100C0BBF1D892BEC130F2BDC156
:102720002FF2BCC12EF2BBC12DF20201346B336B10
:10273000480E326F830E316F00010ADE03C0BEF116
:1027400002C0BDF101C0BCF100C0BBF1BEC155F279
:10275000BDC154F2BCC153F2BBC152F20201596B6C
:10276000586B480E576F850E566F000176EC0CF0D3
:1027700003C0C6F102C0C5F101C0C4F100C0C3F17D
:1027800023D702C0C0F101C0BFF10101BFC101F0F8
:10279000C0C102F0000114EF14F00101BC51BE19D8
:1027A000800BC06FBCAF05D0BB1FBC1FBB2BD8B408
:1027B000BC2BBEAF05D0BD1FBE1FBD2BD8B4BE2BDA
:1027C000016A026A006A036ABE5102E1BD5118E063
:1027D000100EBF6FD890BB37BC3700360336BE51E2
:1027E000035C02E1BD51005C07E3BD51005ED8A06F
:1027F0000306BE51035ED88001360236BF2FEAD7EA
:10280000C0AF05D0011E021E012AD8B4022A000161
:1028100012000101B66BB56B0001C1D401C0B9F162
:1028200012D501C0BAF1EFD602C00AF101C009F118
:10283000FB0E0101136F600E146F0FC115F1BAC0CA
:1028400016F1B9C017F10101AFC018F1B9C119F102
:102850000AC1BCF109C1BBF1010EBE6FBD6B000125
:102860009CDF01C01AF101010AC1BCF109C1BBF131
:10287000010EBE6FBD6B000190DF00C01BF10101B6
:10288000ACC01CF1ABC01DF10101140E0001BB2551
:1028900001011E6FB4C01FF1BAC120F1FDC021F1CA
:1028A000FEC022F1AA0E236F246FF2C025F1F1C001
:1028B00026F10101AA0E276F286FB86BB76BB853CA
:1028C00011E1B75116080EE3130EB725E96E010E9C
:1028D000B821EA6EEF50B527000EB623B72BD8B457
:1028E000B82BEDD7B6C129F1B5C12AF100015FEFD0
:1028F00035F0036A3650370FE96E000E0320EA6E9A
:10290000EFCFCEF10101362A36501F0801E2366AB8
:10291000345201E03406CEC101F000011200036A16
:1029200001014051590FE96E000E0320EA6E036A5F
:10293000EFCF01F003C002F000011200010140518D
:10294000402B036A590FE96E000E0320EA6E036AFA
:10295000EFCF01F003C002F000011200036A010191
:102960004051590FE96E000E0320EA6EEF5218E055
:10297000036A4051590FE96E000E0320EA6EEF50D2
:102980002C080AE0036A4051590FE96E000E03203B
:10299000EA6EEF50200804E1402B0001DFD701016F
:1029A0000001120002013A513C19800B3E6F3AAF10
:1029B00005D0391F3A1F392BD8B43A2B3CAF05D07C
:1029C0003B1F3C1F3B2BD8B43C2B39513B03F3CF6F
:1029D00001F0F4CF00F03C03F35000263A513B03E2
:1029E000F3500020026E3EAF05D0011E021E012AE8
:1029F000D8B4022A000112000201386B010E376FB1
:102A00000001ACDF036A01014051590FE96E000E6D
:102A10000320EA6EEF5244E00201366B356B000191
:102A20007EDF02C03AF201C039F2020101502D08E6
:102A300007E13A5305E13869376900017FDF020198
:102A4000036A01014051590FE96E000E0320EA6E3E
:102A5000EFCF39F2020139512F0822E239513908FA
:102A60001FE336C23AF235C239F23C6B0A0E3B6FB5
:102A7000000198DF02C03AF201C039F20101405171
:102A8000402B036A590FE96E000E0320EA6E300EE8
:102A9000EF5C02010124356F000E0220366FD0D7A3
:102AA00036C23AF235C239F238C23CF237C23BF292
:102AB000000178DF02C003F002C002F012000D0E28
:102AC00002012D6F0A0E2E6F2F6F306B020E6C6F8E
:102AD0002D0E6B6F00016BEC10F0020EEA6E2D0EE6
:102AE000E96E2E0E016EF76A000ED3EC01F00A00BB
:102AF0000900F5CFEEFF012EFBD7020E02016C6F2D
:102B00002D0E6B6F00016BEC10F0020EEA6E2D0EB5
:102B1000E96E330E016EF76A000EF2EC01F00A0066
:102B20000900F5CFEEFF012EFBD7020E02016C6FFC
:102B30002D0E6B6F00016BEC10F0020EEA6E2D0E85
:102B4000E96E310E016EF76A000E14EC02F00A0015
:102B50000900F5CFEEFF012EFBD7020E02016C6FCC
:102B60002D0E6B6F00016BEC10F0020EEA6E2D0E55
:102B7000E96E2F0E016EF76A000E35EC02F00A00C6
:102B80000900F5CFEEFF012EFBD7020E02016C6F9C
:102B90002D0E6B6F00016BEC10F0020EEA6E2D0E25
:102BA000E96E310E016EF76A000E55EC02F00A0074
:102BB0000900F5CFEEFF012EFBD7020E02016C6F6C
:102BC0002D0E6B6F00016BEC10F0020EEA6E2D0EF5
:102BD000E96E3A0E016EF76A000E76EC02F00A001A
:102BE0000900F5CFEEFF012EFBD7020E02016C6F3C
:102BF0002D0E6B6F00016BEC10F0020EEA6E2D0EC5
:102C0000E96E350E016EF76A000E9BEC02F00A00C9
:102C10000900F5CFEEFF012EFBD7020E02016C6F0B
:102C20002D0E6B6F00016BEC10F0020EEA6E2D0E94
:102C3000E96E210E016EF76A000EBEEC02F00A008A
:102C40000900F5CFEEFF012EFBD7020E02016C6FDB
:102C50002D0E6B6F00016BEC10F0020EEA6E2D0E64
:102C6000E96E320E016EF76A000ED7EC02F00A0030
:102C70000900F5CFEEFF012EFBD7020E02016C6FAB
:102C80002D0E6B6F00016BEC10F0020EEA6E2D0E34
:102C9000E96E390E016EF76A000EF8EC02F00A00D8
:102CA0000900F5CFEEFF012EFBD7020E02016C6F7B
:102CB0002D0E6B6F00016BEC10F0020EEA6E2D0E04
:102CC000E96E310E016EF76A000E1DEC03F00A008A
:102CD0000900F5CFEEFF012EFBD7020E02016C6F4B
:102CE0002D0E6B6F00016BEC10F0020EEA6E2D0ED4
:102CF000E96E350E016EF76A000E3EEC03F00A0035
:102D00000900F5CFEEFF012EFBD7020E02016C6F1A
:102D10002D0E6B6F00016BEC10F0020EEA6E2D0EA3
:102D2000E96E3B0E016EF76A000E61EC03F00A00DB
:102D30000900F5CFEEFF012EFBD7020E02016C6FEA
:102D40002D0E6B6F00016BEC10F0020EEA6E2D0E73
:102D5000E96E3B0E016EF76A000E87EC03F00A0085
:102D60000900F5CFEEFF012EFBD7020E02016C6FBA
:102D70002D0E6B6F00016BEC10F0020EEA6E2D0E43
:102D8000E96E2F0E016EF76A000EADEC03F00A003B
:102D90000900F5CFEEFF012EFBD7020E02016C6F8A
:102DA0002D0E6B6F00016BEC10F0020EEA6E2D0E13
:102DB000E96E3C0E016EF76A000ECDEC03F00A00DE
:102DC0000900F5CFEEFF012EFBD7020E02016C6F5A
:102DD0002D0E6B6F00016BEC10F0020EEA6E2D0EE3
:102DE000E96E016EF76A000EF3EC03F00A000900C9
:102DF000F5CFEEFF012EFBD7020E02016C6F2D0EF8
:102E00006B6F00016BEC10F0020EEA6E2D0EE96E96
:102E1000350E016EF76A000E12EC04F00A0009008C
:102E2000F5CFEEFF012EFBD7020E02016C6F2D0EC7
:102E30006B6F00016BEC10F0020EEA6E2D0EE96E66
:102E4000250E016EF76A000E35EC04F00A00090049
:102E5000F5CFEEFF012EFBD7020E02016C6F2D0E97
:102E60006B6F00016BEC10F00D0E02012D6F0A0E5E
:102E70002E6F2F6B020E6C6F2D0E6B6F00016BECC3
:102E800010F0EDEF2AF0A3C1EAFFA2C1E9FF0201B1
:102E90003CC2EFFFE92AD8B4EA2AEF6A0101A22B6B
:102EA000D8B4A32B000112000900F6CF34F2F7CFFB
:102EB00035F2F5CF3CF2E7DF34C2F6FF35C2F7FF5B
:102EC0000201332F01D002D00001EED70001120021
:102ED000EACF3BF2E9CF3AF202013439F009366F1A
:102EE0003627E20F376F320F396F34510F0B372708
:102EF00037273927E90F386F3827382733390F0B31
:102F00003827392738373937391F393733510F0BBD
:102F100039273637070E356F0A0E38073927FDE394
:102F200037073827FDE336073727FDE33507362710
:102F3000FDE3020EEA6E350EE96E070E3A153A9D74
:102F4000E926390EE95CD8B43A8DEF50006E08E1FD
:102F50003ABD06D03AB915D03AB702D0200E03D008
:102F60003A873A99300E0026EACF34F2E9CF33F2AD
:102F700000C03CF2000187DF34C2EAFF33C2E9FF40
:102F80000201EE503AADDDD70001120035DD02C07E
:102F900030F201C02FF202C03AF201C039F2020150
:102FA0003C6B0A0E3B6F0001FDDC02C02EF20201F9
:102FB00001C02DF20001B3DC02C030F201C02FF2DB
:102FC000020101502E0810E130530EE10001B6DC81
:102FD000B5DC300E0201015C006E000E0258036E7B
:102FE00000502D2703502E232DC201F02EC202F0D7
:102FF0000001120002013651016A355D03E235C25B
:1030000000F00CD0006A080E376F353700363651A5
:10301000005CD8B0006E0136372FF7D700011200E0
:10302000015033C235F2640E0201366F0001E2DF57
:1030300000C033F20150300E08E1020134A30FD07A
:1030400034B70DD034B9200E04D00201349734992E
:103050003481012601C03CF2000115DF020133C2B8
:1030600035F20A0E366F0001C5DF00C033F20150A1
:10307000300E08E1020134B70AD034A108D034B9C7
:10308000200E0001012601C03CF2FDDE0201300EDF
:10309000332733C23CF20001F6DE12000201325146
:1030A000036E3151D8B43207310703102CE02E5192
:1030B000036E2D512D2BD8B42E2B336F03C034F259
:1030C0003051036E2F512F2BD8B4302BE96E03C033
:1030D000EAFFEFCF35F2F250006EF29E33C2A9FF45
:1030E00035C2A8FFA69CA69EA6840F01550EA76E0A
:1030F000AA0EA76EA682A6B2FED7A6940050F21220
:103100000001CCD70201000198EF18F00101015134
:103110009F080FE102510B080CE102012E6B2D6B91
:10312000306BAB0E2F6F326B560E316F0001B6D77E
:103130000101026B016B000112000201326B316B65
:10314000325359E13151130856E33135336F32357B
:10315000346F33373437FC0E331734C203F0335136
:103160000001E1EC04F00900F5CF03F0016E03501B
:103170000201305D3CE303E101502F5D38E3010EB5
:103180003125356F000E3221366F353736373537FA
:103190003637FC0E351736C203F035510001E1EC2D
:1031A00004F00900F5CF03F0016E02013051035C19
:1031B0001EE303E101502F5D1AE23135336F3235E2
:1031C000346F33373437FC0E3317020E3325016E5C
:1031D000000E3421036E01500001E1EC04F00900FF
:1031E000F5CF03F0016E03C002F008D00201312BCD
:1031F000D8B4322BA5D7000E016E026E000177EF16
:1032000023F0FCEC14F001C000F002C001F0026AEF
:10321000036A03C030F202C02FF201C02EF200C0D8
:103220002DF29EEC14F0FCEC14F001C000F002C092
:1032300001F0026A036A03C034F202C033F201C033
:1032400032F200C031F28FEC14F002C036F201C04D
:1032500035F2020101502E081EE136531CE1000137
:103260009EEC14F0FCEC14F001C000F002C001F080
:10327000026A036A03C034F202C033F201C032F2C0
:1032800000C031F2020131512D2732512E2333512A
:103290002F233451302330C24AF22FC249F22EC2BA
:1032A00048F22DC247F24E6B4D6B4C6B640E4B6F68
:1032B0000001D6EC08F00201315100240001AB6F8F
:1032C0000201325101200001AC6F8EEC0DF074EF61
:1032D00024F00900F5520CE0F6CF2DF2F7CF2EF2D4
:1032E000F5CF3CF2D0DD2DC2F6FF2EC2F7FFF1D7AD
:1032F000B8EF24F0FCEC14F002C02EF201C02DF265
:103300002DC2FDF002012E5329E12D51280826E39C
:103310002E5303E12D51130821E2140E2D5D0001FF
:10332000F36F000E02012E590001F46FD890F335AF
:10333000026EF435036E0250C40FE96E000E0320D6
:10334000EA6EECCF03F0ED52EFCF1AF003C01BF0A2
:10335000010E016E000E026E04D00201000E016E1D
:10336000026E000118EF25F0FCEC14F002C02EF202
:1033700001C02DF22DC2FEF002012E5329E12D5184
:10338000280826E32E5303E12D51130821E2140EE1
:103390002D5D0001BB6F000E02012E590001BC6FB4
:1033A000D890BB35026EBC35036E0250C40FE96E77
:1033B000000E0320EA6EECCF03F0ED52EFCF1CF0CD
:1033C00003C01DF0010E016E000E026E04D002015A
:1033D000000E016E026E00016DEF25F08E0E006E84
:1033E0002EC201F02DC202F0036A015209E102C0AF
:1033F00001F0026A080E005E015202E1006A08D084
:10340000D89001BE04D0023601360006F9D7019EDD
:1034100059EF27F0E9500201326F3151346F1CE04F
:1034200030C255F22FC254F22EC253F22DC252F2C4
:10343000596B586B200E576F820E566F000176EC59
:103440000CF003C030F202C02FF201C02EF200C017
:103450002DF20201342FE4D730C255F22FC254F2BC
:103460002EC253F22DC252F20001F1EC0CF003C057
:1034700030F202C02FF201C02EF200C02DF2020184
:1034800030AF0DD03207328B2D1F2E1F2F1F301F54
:103490002D2BD8B42E2BD8B42F2BD8B4302B3B0ED9
:1034A000396F9A0E386FCA0E376F366B0A0E346F4B
:1034B0003151D8B4322BD882020EEA6E2D0EE96E4D
:1034C00030C24EF22FC24DF22EC24CF22DC24BF240
:1034D00039C252F238C251F237C250F236C24FF2FC
:1034E000000104EC09F00150005213E102013129FE
:1034F000345DD8A402D000010CD032510DE00F0B86
:10350000345D01E040E232BF3ED032BD05D0200E36
:1035100034D0200E0201321732AB0ED0329B315123
:10352000D8A432070050326F2D0E3C6F0001ABDC87
:1035300002013251006E326B3151345D0CE10050AA
:10354000326F2E0E3C6F00019EDC02013251006E84
:10355000200E3217000E300E32AB0FD0329B31519D
:10356000D8A432070050326F2D0E3C6F00018BDC67
:1035700002013251006E326B300E002600C03CF268
:10358000000181DC0201D89239C24EF238C24DF2FC
:1035900037C24CF236C24BF2526B516B506B0A0E73
:1035A0004F6F000104EC09F003C039F202C038F299
:1035B00001C037F200C036F20201342F7CD700017F
:1035C00007EF28F0016A026A006A036A02013451B7
:1035D00002E1335118E0100E356FD8903137323791
:1035E000003603363451035C02E13351005C07E3DB
:1035F0003351005ED8A003063451035ED8800136F3
:103600000236352FEAD700011200EF520FE0EACF61
:1036100034F2E9CF33F2EFCF3CF235DC34C2EAFFCB
:1036200033C2E9FFE92AD8B4EA2AEFD74DEF29F0EF
:103630000101C16BEB6B020EC26F406B00018FEC9E
:1036400014F002C02EF201C02DF2020101503A081E
:103650001FE12E531DE100019EEC14F0FCEC14F070
:1036600001C0FAF19EEC14F002C02EF201C02DF25E
:10367000020101503A0802E12E5300E10101FA5122
:103680000001F15D02E1F25302E0EDEF2AF00201E8
:1036900000019EEC14F002C02EF201C02DF20201D6
:1036A0002E5303E12D51600808E22E5306E12D51FF
:1036B0007A0803E32D51DF0B01D02D510101EC6F8E
:1036C00000019EEC14F002C02EF201C02DF20201A6
:1036D0002E5303E12D51600808E22E5306E12D51CF
:1036E0007A0803E32D51DF0B01D02D510101ED6F5D
:1036F0000001AEEC14F08FEC14F002C02EF201C009
:103700002DF2020101500D0806E12E5304E1010ED5
:103710000101EB6F02010101EC514C0A00013BE099
:10372000680A5BE06C0AD8B487D00E0AD8B4A8D077
:103730000B0AD8B421D1090AD8B4A1D1160AD8B439
:1037400025D3050AD8B4DEEF21F0040AD8B4EDEF92
:1037500021F0060AD8B40EEF22F0170AD8B413EFFE
:1037600023F00B0AD8B4BDEF23F01D0AD8B47AEFCA
:1037700024F0020AD8B488EF24F0150AD8B4ECEF8C
:1037800025F0040AD8B4F3EF26F0160AD8B44DEFAA
:1037900028F0CEEF2AF00101ED51490A000103E0C3
:1037A000060A16E018D0FCEC14F002C00CF201C0BE
:1037B0000BF202010B51B80806E10C51440803E179
:1037C000010E01012B6F010E0101426F000103D0B8
:1037D00001012B6B0001EDEF2AF001012B5304E1F5
:1037E0000001EDEF2AF00101ED51520822E1000144
:1037F000FCEC14F002C00CF201C00BF202010B5100
:10380000B70803E10C51440802E0EEEF2AF0010191
:10381000416B0D0E02010F6F0A0E106F116F2A0E11
:10382000126F136B020E6C6F0F0E6B6F00016BEC5F
:1038300010F00001EDEF2AF001012B5304E100012B
:10384000EDEF2AF00101020EEA6E140EE96E0F0E82
:10385000016EF76A000E000150EC04F00A00090046
:10386000F5CFEEFF012EFBD7020E02016C6F140E96
:103870006B6F00016BEC10F05FEF15F0EDEF2AF0CD
:1038800001012B5304E10001EDEF2AF00101ED519C
:10389000520A000101E06ED00101ED51520851E1E0
:1038A000EB5326E0010EA36FC30EA26FE00EF66E7F
:1038B0000B0EF76E030E0201336F000154EC17F08C
:1038C000100EE96EBAC034F2B9C033F268EC17F0EA
:1038D0000D0E02013C6F000143EC17F0010E0201D6
:1038E0006C6FC30E6B6F00016BEC10F028D0010100
:1038F0000001C6EC17F00101FE6BFD6B02C0FCF18C
:1039000001C0FBF1FCC1BAF0FBC1B9F0FCC12EF261
:10391000FBC12DF2FCC136F2FBC135F200014EECC9
:1039200009F0B6EC0AF0320E0201426F000155ECCC
:1039300007F0B6EC0AF0010E0101C16F00011AD0C8
:103940000101020EEA6E140EE96E0A0E016EF76AAC
:10395000000E000160EC04F00A000900F5CFEEFF54
:10396000012EFBD7020E02016C6F140E6B6F00016B
:103970006BEC10F0EDEF2AF001012B5304E1000194
:10398000EDEF2AF00101ED514F085DE1EB5324E02A
:10399000010EA36FC30EA26FE80EF66E0B0EF76E4C
:1039A000030E0201336F000154EC17F0AFC033F285
:1039B0001B0E0201346F000110EC18F00D0E020115
:1039C0003C6F000143EC17F0010E02016C6FC30E57
:1039D0006B6F00016BEC10F00001FCEC14F002C006
:1039E0000CF201C00BF202010C530DE10B51030864
:1039F0000AE30BC2AFF0000161EC0BF0010E010114
:103A0000C16F20D00201020EEA6E140EE96E090E9B
:103A1000016EF76A000E00016DEC04F00A00090067
:103A2000F5CFEEFF012EFBD7020E02016C6F140ED4
:103A30006B6F00016BEC10F00101C16B0001EDEF49
:103A40002AF0010119D0020EEA6E140EE96E090E79
:103A5000016EF76A000E00016DEC04F00A00090027
:103A6000F5CFEEFF012EFBD7020E02016C6F140E94
:103A70006B6F00016BEC10F00001EDEF2AF001011B
:103A80002B5304E10001EDEF2AF00101ED51530A3F
:103A9000000107E0030AD8B480D0150AD8B4F9D0E1
:103AA00073D10101EB5326E0010EA36FC30EA26F89
:103AB000F00EF66E0B0EF76E030E0201336F00016F
:103AC00054EC17F0B3C033F21B0E0201346F000147
:103AD00010EC18F00D0E02013C6F000143EC17F0E2
:103AE000010E02016C6FC30E6B6F00016BEC10F0E6
:103AF0004FD001010001FCEC14F002C00CF201C037
:103B00000BF202010C530AE10B51010807E30BC24F
:103B1000B3F000018FEC0BF03BD00201020EEA6E15
:103B2000140EE96E090E016EF76A000E00016DECCD
:103B300004F00A000900F5CFEEFF012EFBD7020EBC
:103B400002016C6F140E6B6F00016BEC10F0010E34
:103B50000101A36F770EA26FF80EF66E0B0EF76ED3
:103B6000070E0201336F000154EC17F0B3C033F2BB
:103B70001B0E0201346F000110EC18F00D0E020153
:103B80003C6F000143EC17F00101C16B0001FCD058
:103B9000010E0101C16F0001F7D00101EB5326E0D6
:103BA000010EA36FC30EA26F040EF66E0C0EF76E1D
:103BB000030E0201336F000154EC17F0B1C033F271
:103BC0001B0E0201346F000110EC18F00D0E020103
:103BD0003C6F000143EC17F0010E02016C6FC30E45
:103BE0006B6F00016BEC10F04FD001010001FCEC99
:103BF00014F002C00CF201C00BF202010C530AE1F6
:103C00000B51010807E30BC2B1F0000161EC0BF0AE
:103C10003BD00201020EEA6E140EE96E090E016E2F
:103C2000F76A000E00016DEC04F00A000900F5CF00
:103C3000EEFF012EFBD7020E02016C6F140E6B6FAC
:103C400000016BEC10F0010E0101A36F770EA26F63
:103C50000C0EF66E0C0EF76E070E0201336F0001AC
:103C600054EC17F0B1C033F21B0E0201346F0001A7
:103C700010EC18F00D0E02013C6F000143EC17F040
:103C80000101C16B000180D0010E0101C16F000173
:103C90007BD00101EB5326E0010EA36FC30EA26F90
:103CA000180EF66E0C0EF76E030E0201336F000154
:103CB00054EC17F0B7C033F21B0E0201346F000151
:103CC00010EC18F00D0E02013C6F000143EC17F0F0
:103CD000010E02016C6FC30E6B6F00016BEC10F0F4
:103CE0004FD001010001FCEC14F002C00CF201C045
:103CF0000BF202010C530AE10B51010807E30BC25E
:103D0000B7F0000161EC0BF03BD00201020EEA6E4D
:103D1000140EE96E090E016EF76A000E00016DECDB
:103D200004F00A000900F5CFEEFF012EFBD7020ECA
:103D300002016C6F140E6B6F00016BEC10F0010E42
:103D40000101A36F770EA26F200EF66E0C0EF76EB8
:103D5000070E0201336F000154EC17F0B7C033F2C5
:103D60001B0E0201346F000110EC18F00D0E020161
:103D70003C6F000143EC17F00101C16B000104D05E
:103D8000010E0101C16F0001EDEF2AF001012B537B
:103D900004E10001EDEF2AF00101410EED5DF00FAD
:103DA000D8B009D3100F0001F1EF2AF00101EB5355
:103DB00026E0010EA36FC30EA26F2C0EF66E0C0E42
:103DC000F76E030E0201336F000154EC17F0B6C01A
:103DD00033F21B0E0201346F000110EC18F00D0ECF
:103DE00002013C6F000143EC17F0010E02016C6F01
:103DF000C30E6B6F00016BEC10F07ED0010100016F
:103E0000FCEC14F002C00CF201C00BF202010C53E6
:103E100039E10B51010836E30001F72D0FD0F853BB
:103E20000DE102010B5307E10C5305E10001FA6BB0
:103E3000010EF96F03D00001FA6BF96B02010B2D33
:103E400011D00C530FE10001FA6BF96BF9C09FF12F
:103E5000320E0201426F000155EC07F008EC0EF043
:103E60000FD002010001FA6B010EF96FF9C09FF14A
:103E7000320E0201426F000155EC07F008EC0EF023
:103E80003BD00201020EEA6E140EE96E090E016EBD
:103E9000F76A000E00016DEC04F00A000900F5CF8E
:103EA000EEFF012EFBD7020E02016C6F140E6B6F3A
:103EB00000016BEC10F0010E0101A36F770EA26FF1
:103EC000340EF66E0C0EF76E070E0201336F000112
:103ED00054EC17F09FC133F21B0E0201346F000146
:103EE00010EC18F00D0E02013C6F000143EC17F0CE
:103EF0000101C16B60D20001010E0101C16F5BD2F3
:103F00000101EB5326E0010EA36FC30EA26F400E1A
:103F1000F66E0C0EF76E030E0201336F000154ECC7
:103F200017F0A0C133F21B0E0201346F000110EC38
:103F300018F00D0E02013C6F000143EC17F0010E6A
:103F400002016C6FC30E6B6F00016BEC10F0B2D00E
:103F500001010001FCEC14F002C00CF201C00BF2F4
:103F600002010B5334E10C5332E10001F551F6111B
:103F700003E1F751F81113E00101A06B0001AE6BF2
:103F8000A0C1ADF03C0E0201426F000155EC07F0FC
:103F900008EC0EF0010E0101C16F17D00001F553BE
:103FA00002E1F65303E0F751F8110EE00101A06BB6
:103FB0000001AE6BA0C1ADF03C0E0201426F0001EA
:103FC00055EC07F008EC0EF0010173D002010B2D47
:103FD00037D00C5335E10001F551F61116E0010E12
:103FE0000101A06F0001AE6BA0C1ADF03DEC0EF081
:103FF000320E0201426F000155EC07F0010E010183
:10400000C16F000108EC0EF019D0F55317E1F6531B
:1040100015E1010E0101A06F0001AE6BA0C1ADF072
:104020003DEC0EF0320E0201426F000155EC07F03C
:10403000010E0101C16F000108EC0EF03BD002013E
:10404000020EEA6E140EE96E090E016EF76A000E9A
:1040500000016DEC04F00A000900F5CFEEFF012E1F
:10406000FBD7020E02016C6F140E6B6F00016BEC3C
:1040700010F0010E0101A36F770EA26F480EF66ECD
:104080000C0EF76E070E0201336F000154EC17F0AF
:10409000A0C133F21B0E0201346F000110EC18F0C6
:1040A0000D0E02013C6F000143EC17F00101C16BE2
:1040B00082D10001010E0101C16F7DD10101EB53DD
:1040C00026E0010EA36FC30EA26F540EF66E0C0E07
:1040D000F76E030E0201336F000154EC17F0100E5F
:1040E000E96EF8C034F2F7C033F268EC17F00D0E49
:1040F00002013C6F000143EC17F0010E02016C6FEE
:10410000C30E6B6F00016BEC10F049D00101000190
:10411000FCEC14F002C00CF201C00BF202010C53D3
:1041200025E10B51010822E30B530EE10C530CE186
:104130000001F86BF76B320E0201426F000155EC83
:1041400007F008EC0EF002010B2D0FD00C530DE11F
:104150000001F86B010EF76F320E0201426F000191
:1041600055EC07F008EC0EF002011AD0020EEA6ED0
:10417000140EE96E0A0E016EF76A000E000160EC83
:1041800004F00A000900F5CFEEFF012EFBD7020E66
:1041900002016C6F140E6B6F00016BEC10F00201EA
:1041A000010109D10101EB5326E0010EA36FC30EFB
:1041B000A26F5C0EF66E0C0EF76E030E0201336FEB
:1041C000000154EC17F0100EE96EF6C034F2F5C0A1
:1041D00033F268EC17F00D0E02013C6F000143EC66
:1041E00017F0010E02016C6FC30E6B6F00016BECD8
:1041F00010F058D001010001FCEC14F002C00CF2E8
:1042000001C00BF202010C5334E10B51010831E300
:104210000B510C1121E00CC2F6F00BC2F5F00101BC
:10422000A0530EE1A02D01D001D0000E320E0201EC
:10423000426F000155EC07F008EC0EF004D00101CC
:10424000A05301E0000E320E0201426F000155EC56
:1042500007F008EC0EF002010CC2F6F00BC2F5F00C
:10426000460E426F000155EC07F008EC0EF01AD034
:104270000201020EEA6E140EE96E0A0E016EF76A72
:10428000000E000160EC04F00A000900F5CFEEFF1B
:10429000012EFBD7020E02016C6F140E6B6F000132
:1042A0006BEC10F0010187D00101EB5326E0010E09
:1042B000A36FC30EA26F640EF66E0C0EF76E030EA4
:1042C0000201336F000154EC17F0B5C033F21B0E3E
:1042D0000201346F000110EC18F00D0E02013C6F6A
:1042E000000143EC17F0010E02016C6FC30E6B6FFF
:1042F00000016BEC10F051D001010001FCEC14F056
:1043000002C00CF201C00BF202010C530DE10B5183
:1043100001080AE30BC2B5F0000161EC0BF0010EDD
:104320000101C16F3AD00201020EEA6E140EE96E6D
:10433000090E016EF76A000E00016DEC04F00A0030
:104340000900F5CFEEFF012EFBD7020E02016C6FC4
:10435000140E6B6F00016BEC10F0010E0101A36FE6
:10436000770EA26F6C0EF66E0C0EF76E070E020142
:10437000336F000154EC17F0B5C033F21B0E02018D
:10438000346F000110EC18F00D0E02013C6F0001BB
:1043900043EC17F00101C16B0ED0010E0101C16F9A
:1043A0000AD0A3EC07F008EC0EF0010E0101C16F7A
:1043B00002D0FF0001010001EDEF2AF001012B53B3
:1043C00004E10001EDEF2AF00101ED51410802E1A5
:1043D000010EC16F0001EDEF2AF001012B5304E142
:1043E0000001EDEF2AF00101ED51500A000103E058
:1043F000060A06E011D0010E0101C16F00010CD0C8
:104400000B0E0101026F9F0E016F000186EC18F088
:10441000010E0101C16F0001EDEF2AF001012B53E4
:1044200004E10001EDEF2AF00101ED51540A000111
:1044300004E0070AD8B47FD0F4D00101EB5326E0A2
:10444000010EA36FC30EA26F780EF66E0C0EF76E00
:10445000030E0201336F000154EC17F0FBC033F27E
:104460001B0E0201346F000110EC18F00D0E02015A
:104470003C6F000143EC17F0010E02016C6FC30E9C
:104480006B6F00016BEC10F050D001010001FCECEF
:1044900014F002C00CF201C00BF202010C530BE14C
:1044A0000B51EF0808E30C5303E10B51010803E241
:1044B0000BC2FBF03BD0020EEA6E140EE96E090E41
:1044C000016EF76A000E00016DEC04F00A000900AD
:1044D000F5CFEEFF012EFBD7020E02016C6F140E1A
:1044E0006B6F00016BEC10F0010E0101A36F770EF2
:1044F000A26F800EF66E0C0EF76E070E0201336F80
:10450000000154EC17F0FBC033F21B0E0201346FB4
:10451000000110EC18F00D0E02013C6F000143EC9D
:1045200017F00101C16B00017CD00201010E0101F5
:10453000C16F000176D00101EB5326E0010EA36F9D
:10454000C30EA26F8C0EF66E0C0EF76E030E0201F8
:10455000336F000154EC17F0FCC033F21B0E020164
:10456000346F000110EC18F00D0E02013C6F0001D9
:1045700043EC17F0010E02016C6FC30E6B6F00016C
:104580006BEC10F04BD001010001FCEC14F002C008
:104590000CF201C00BF202010C5306E10B510108B1
:1045A00003E30BC2FCF03BD0020EEA6E140EE96E80
:1045B000090E016EF76A000E00016DEC04F00A00AE
:1045C0000900F5CFEEFF012EFBD7020E02016C6F42
:1045D000140E6B6F00016BEC10F0010E0101A36F64
:1045E000770EA26F940EF66E0C0EF76E070E020198
:1045F000336F000154EC17F0FCC033F21B0E0201C4
:10460000346F000110EC18F00D0E02013C6F000138
:1046100043EC17F00101C16B000103D0020100015E
:1046200000D0EDEF2AF001012B5304E10001EDEF82
:104630002AF00101ED51470A000101E09CD001017F
:10464000EB5326E0010EA36FC30EA26FA00EF66E11
:104650000C0EF76E030E0201336F000154EC17F0DD
:10466000100EE96E00C134F2FFC033F268EC17F0AF
:104670000D0E02013C6F000143EC17F0010E020128
:104680006C6FC30E6B6F00016BEC10F070D001010A
:104690000001FCEC14F001C000F002C001F0026A5D
:1046A000036A03C006F202C005F201C004F200C0B2
:1046B00003F20201065307E1055305E1045303E148
:1046C000035100081AE2065318E1055316E104539A
:1046D00014E10351280811E304C22EF203C22DF2A3
:1046E00004C230F203C22FF200019DEF18F002C0A5
:1046F00000F101C0FFF03BD00201020EEA6E140E81
:10470000E96E090E016EF76A000E00016DEC04F00F
:104710000A000900F5CFEEFF012EFBD7020E0201C1
:104720006C6F140E6B6F00016BEC10F0010E010149
:10473000A36F770EA26FA80EF66E0C0EF76E070E23
:104740000201336F000154EC17F0100EE96E00C146
:1047500034F2FFC033F268EC17F00D0E02013C6F2B
:10476000000143EC17F00101C16B000104D0010E00
:104770000101C16F0001EDEF2AF001012B5304E1AB
:104780000001EDEF2AF00101ED51440A000104E0BF
:10479000070AD8B47DD0ACD00101EB5326E0010E5E
:1047A000A36FC30EA26FB40EF66E0C0EF76E030E5F
:1047B0000201336F000154EC17F0B4C033F21B0E4A
:1047C0000201346F000110EC18F00D0E02013C6F75
:1047D000000143EC17F0010E02016C6FC30E6B6F0A
:1047E00000016BEC10F04FD001010001FCEC14F063
:1047F00002C00CF201C00BF202010C530AE10B5192
:10480000030807E30BC2B4F000018FEC0BF03BD0C0
:104810000201020EEA6E140EE96E090E016EF76ACD
:10482000000E00016DEC04F00A000900F5CFEEFF68
:10483000012EFBD7020E02016C6F140E6B6F00018C
:104840006BEC10F0010E0101A36F770EA26FBC0E8E
:10485000F66E0C0EF76E070E0201336F000154EC7A
:1048600017F0B4C033F21B0E0201346F000110ECDC
:1048700018F00D0E02013C6F000143EC17F001012E
:10488000C16B000135D0010E0101C16F000130D0B4
:104890000101EB5326E0010EA36FC30EA26FC80EF9
:1048A000F66E0C0EF76E030E0201336F000154EC2E
:1048B00017F0100EE96EACC034F2ABC033F268EC06
:1048C00017F00D0E02013C6F000143EC17F0010ED2
:1048D00002016C6FC30E6B6F00016BEC10F004D023
:1048E0000101000101EF19F0010E0101C16F00018A
:1048F000EDEF2AF001012B5304E10001EDEF2AF066
:104900000101ED51450801E1BAD20001EDEF2AF0B5
:1049100001012B5304E10001EDEF2AF00101ED51FB
:10492000450A00010DE0090AD8B47BD01C0AD8B4AE
:104930009ED01D0AD8B4D6D00E0AD8B40ED14AD112
:104940000101ED51450852E1010EA36FC30EA26FA4
:10495000D00EF66E0C0EF76E030E0201336F0001DF
:1049600054EC17F0040EF66E090EF76E69EF19F0AD
:10497000D50EF66E0C0EF76E040E0201336F0001B9
:1049800054EC17F00B0EE96EF2C034F2F1C033F2C2
:1049900068EC17F0DE0EF66E0C0EF76E040E0201D8
:1049A000336F000154EC17F00B0EE96EEFC034F2D8
:1049B000EEC033F268EC17F0F0C033F2010E0201E2
:1049C000346F000110EC18F00D0E02013C6F000175
:1049D00043EC17F0010E02016C6FC30E6B6F000108
:1049E0006BEC10F0010E0101C16F19D0020EEA6EDE
:1049F000140EE96E090E016EF76A000E00016DECEF
:104A000004F00A000900F5CFEEFF012EFBD7020EDD
:104A100002016C6F140E6B6F00016BEC10F0000163
:104A2000D9D00101ED514C0807E100017AEF19F0EE
:104A3000010E0101C16F19D0020EEA6E140EE96E6B
:104A4000090E016EF76A000E00016DEC04F00A0019
:104A50000900F5CFEEFF012EFBD7020E02016C6FAD
:104A6000140E6B6F00016BEC10F00001B3D001016C
:104A7000EB5330E0140E0001BB2502012D6F000E38
:104A80000001BC2102012E6F010E0101A36FC30EB4
:104A9000A26FEE0EF66E0C0EF76E030E0201336F70
:104AA000000154EC17F0100EE96E2EC234F22DC244
:104AB00033F268EC17F00D0E02013C6F000143EC7D
:104AC00017F0010E02016C6FC30E6B6F00016BECEF
:104AD00010F003D00001B4EF19F0010E0101C16F15
:104AE000000178D00101EB5326E0010EA36FC30E45
:104AF000A26FF60EF66E0C0EF76E030E0201336F08
:104B0000000154EC17F0100EE96E23C034F222C0FD
:104B100033F268EC17F00D0E02013C6F000143EC1C
:104B200017F0010E02016C6FC30E6B6F00016BEC8E
:104B300010F012D001010001FCEC14F002C023F0CF
:104B400001C022F0010E0201316F0CC233F20BC220
:104B500032F20001BCEC07F03DD00101EB5326E03E
:104B6000010EA36FC30EA26FFE0EF66E0C0EF76E53
:104B7000030E0201336F000154EC17F0100EE96EC2
:104B800025C034F224C033F268EC17F00D0E020198
:104B90003C6F000143EC17F0010E02016C6FC30E75
:104BA0006B6F00016BEC10F015D001010001FCEC03
:104BB00014F002C00CF201C00BF20CC225F00BC2C3
:104BC00024F00201316B0CC233F20BC232F200014D
:104BD000BCEC07F0EDEF2AF001012B5304E10001DA
:104BE000EDEF2AF00101ED515308D8A47BD0EB532F
:104BF00026E0010EA36FC30EA26F060EF66E0D0E19
:104C0000F76E030E0201336F000154EC17F0B2C0CF
:104C100033F21B0E0201346F000110EC18F00D0E80
:104C200002013C6F000143EC17F0010E02016C6FB2
:104C3000C30E6B6F00016BEC10F050D0010100014E
:104C4000FCEC14F002C00CF201C00BF202010C5398
:104C50000AE10B51010807E30BC2B2F000018FEC2F
:104C60000BF03CD00201020EEA6E140EE96E090E42
:104C7000016EF76A000E00016DEC04F00A000900F5
:104C8000F5CFEEFF012EFBD7020E02016C6F140E62
:104C90006B6F00016BEC10F0010E0101A36F770E3A
:104CA000A26F0E0EF66E0D0EF76E070E0201336F39
:104CB000000154EC17F0B2C033F21B0E0201346F46
:104CC000000110EC18F00D0E02013C6F000143ECE6
:104CD00017F00101C16B0001EDEF2AF0010E010197
:104CE000C16F7ED0ED515008D8A47AD0EB5326E0A6
:104CF000010EA36FC30EA26F1A0EF66E0D0EF76EA5
:104D0000030E0201336F000154EC17F0B0C033F210
:104D10001B0E0201346F000110EC18F00D0E0201A1
:104D20003C6F000143EC17F0010E02016C6FC30EE3
:104D30006B6F00016BEC10F050D001010001FCEC36
:104D400014F002C00CF201C00BF202010C530AE194
:104D50000B51010807E30BC2B0F0000161EC0BF04E
:104D60003CD00201020EEA6E140EE96E090E016ECD
:104D7000F76A000E00016DEC04F00A000900F5CF9F
:104D8000EEFF012EFBD7020E02016C6F140E6B6F4B
:104D900000016BEC10F0010E0101A36F770EA26F02
:104DA000220EF66E0D0EF76E070E0201336F000134
:104DB00054EC17F0B0C033F21B0E0201346F000147
:104DC00010EC18F00D0E02013C6F000143EC17F0DF
:104DD0000101C16B0001EDEF2AF0010E0101C16F6D
:104DE0000001EDEF2AF001012B5304E10001EDEF8A
:104DF0002AF00101ED51500A000106E0040A3EE0EC
:104E0000060AD8B434D147D1140E016EC250830BB8
:104E10000110C26E420E006E002EFED70000C2824C
:104E2000C2B2FED7C4CF0CF20201C3CF0BF2010E07
:104E30000101A36F770EA26F2E0EF66E0D0EF76EA8
:104E4000040E0201336F000154EC17F0100EE96EEE
:104E50000CC234F20BC233F268EC17F00D0E0201F3
:104E60003C6F000143EC17F00A0E02013C6F000199
:104E700043EC17F00101C16B00010DD10101180EC7
:104E8000016EC250830B0110C26E420E006E002EE6
:104E9000FED70000C282C2B2FED7C4CF0CF202011C
:104EA000C3CF0BF20CC22EF20BC22DF20001EEEFBB
:104EB00019F000C02DF201C02EF202C02FF203C083
:104EC00030F203C055F202C054F201C053F200C0E8
:104ED00052F20201596B586B576B890E566F0001E5
:104EE000C7EC0BF000C02DF201C02EF202C02FF271
:104EF00003C030F203C055F202C054F201C053F2B5
:104F000000C052F2330E0201596F586F530E576FA3
:104F1000800E566F000176EC0CF003C00AF202C05E
:104F200009F201C008F200C007F2D8820AC230F2CA
:104F300009C22FF208C22EF207C22DF20201346B11
:104F4000336B400E326F7E0E316F0001A8EC11F012
:104F500003C00AF202C009F201C008F200C007F261
:104F60000AC255F209C254F208C253F207C252F201
:104F70000201596B586B480E576F850E566F000132
:104F800076EC0CF003C00AF202C009F201C008F28C
:104F900000C007F2D8920AC230F209C22FF208C24A
:104FA0002EF207C22DF20201346B336B480E326FC2
:104FB000830E316F0001A8EC11F003C00AF202C0A9
:104FC00009F201C008F200C007F2AD51AE112DE0A8
:104FD000010E0101A36F770EA26F380EF66E0D0E53
:104FE000F76E060E0201336F000154EC17F0050E48
:104FF000E96E0AC230F209C22FF208C22EF207C2CD
:105000002DF2020E0201316F00010AEF1AF0430E79
:10501000F66E0D0EF76E080E0201336F000154ECB0
:1050200017F00101C16B21D0000102010A6B096B6D
:10503000086B076B020EEA6E140EE96E150E016E18
:10504000F76A000E00018AEC04F00A000900F5CFAF
:10505000EEFF012EFBD7020E02016C6F140E6B6F78
:1050600000016BEC10F00101C16B000114D0100EB7
:10507000016EC250830B0110C26E1A0E006E002E1C
:10508000FED70000C282C2B2FED7C4CF08F1010130
:10509000C3CF07F10001A1D2A0D2020EEA6E140E16
:1050A000E96E190E016EF76A000E9DEC04F00A001D
:1050B0000900F5CFEEFF012EFBD7020E02016C6F47
:1050C000140E6B6F00016BEC10F0020EEA6E140E02
:1050D000E96E0F0E016EF76A000E7AEC04F00A001A
:1050E0000900F5CFEEFF012EFBD7020E02016C6F17
:1050F000140E6B6F00016BEC10F0010E0101A36F39
:10510000C30EA26F4C0EF66E0D0EF76E050E020169
:10511000336F000154EC17F0100EE96EF2C034F258
:10512000F1C033F268EC17F0540EF66E0D0EF76E08
:10513000040E0201336F000154EC17F00B0EE96E00
:10514000EFC034F2EEC033F268EC17F0F0C033F287
:10515000010E0201346F000110EC18F00D0E020177
:105160003C6F000143EC17F0010E02016C6FC30E9F
:105170006B6F00016BEC10F0100E016EC250830BD0
:105180000110C26E1A0E006E002EFED70000C28201
:10519000C2B2FED7C4CF08F10101C3CF07F1085155
:1051A000020814E303E10751440810E3010EEA6E1C
:1051B000EE0EE96E000E0001B2EC04F00A000900E8
:1051C000F550EE6E0009FBE10FD00101010EEA6E11
:1051D000EE0EE96E000E0001BDEC04F00A000900BD
:1051E000F550EE6E0009FBE1F951FA1104E00201FD
:1051F0000E6B0D6B04D002010E6B010E0D6F140EC1
:105200000001BB2502012D6F000E0001BC2102012F
:105210002E6FACC032F2ABC031F2346B640E336F20
:105220000001E2EC1AF002C030F201C02FF2ACC073
:1052300032F2ABC031F20201346B640E336F000105
:10524000E2EC1AF000C031F203C032F2010E0101AB
:10525000A36FC30EA26F640EF66E0D0EF76E080EEE
:105260000201336F000154EC17F0100EE96EBAC062
:1052700034F2B9C033F268EC17F06F0EF66E0D0E13
:10528000F76E060E0201336F000154EC17F0010EA9
:10529000EA6EEE0EE96E05EF1BF0770EF66E0D0E60
:1052A000F76E070E0201336F000154EC17F0100E79
:1052B000E96E2EC234F22DC233F268EC17F0810E83
:1052C000F66E0D0EF76E050E0201336F000154EC01
:1052D00017F0100EE96E30C234F22FC233F268ECD0
:1052E00017F02E0E02013C6F000143EC17F0100E78
:1052F000E96E32C234F231C233F268EC17F08D0E2F
:10530000F66E0D0EF76E090E0201336F000154ECBC
:1053100017F0AFC033F21B0E0201346F000110EC26
:1053200018F0980EF66E0D0EF76E050E0201336F33
:10533000000154EC17F0B2C033F21B0E0201346FBF
:10534000000110EC18F09F0EF66E0D0EF76E050EB4
:105350000201336F000154EC17F0100EE96EAEC07D
:1053600034F2ADC033F268EC17F00D0E02013C6F61
:10537000000143EC17F0010E02016C6FC30E6B6F5E
:1053800000016BEC10F0140EF32502012D6F000EDE
:105390000001F42102012E6F010E0101A36FC30E63
:1053A000A26FAA0EF66E0D0EF76E060E0201336F97
:1053B000000154EC17F0B7C033F21B0E0201346F3A
:1053C000000110EC18F0B20EF66E0D0EF76E050E21
:1053D0000201336F000154EC17F0B5C033F21B0E1D
:1053E0000201346F000110EC18F0B90EF66E0D0ECC
:1053F000F76E050E0201336F000154EC17F0B1C0D7
:1054000033F21B0E0201346F000110EC18F0C00ED5
:10541000F66E0D0EF76E050E0201336F000154ECAF
:1054200017F0100EE96E0EC234F20DC233F268ECC2
:1054300017F0C80EF66E0D0EF76E050E0201336FF3
:10544000000154EC17F0B3C033F21B0E0201346FAD
:10545000000110EC18F0CF0EF66E0D0EF76E050E73
:105460000201336F000154EC17F0B4C033F21B0E8D
:105470000201346F000110EC18F0D60EF66E0D0E1E
:10548000F76E050E0201336F000154EC17F0100E99
:10549000E96E2EC234F22DC233F268EC17F0DE0E44
:1054A000F66E0D0EF76E050E0201336F000154EC1F
:1054B00017F0100EE96EF6C034F2F5C033F268EC66
:1054C00017F0E60EF66E0D0EF76E050E0201336F45
:1054D000000154EC17F0100EE96EF8C034F2F7C07A
:1054E00033F268EC17F0EE0EF66E0D0EF76E050E49
:1054F0000201336F000154EC17F0B0C033F21B0E01
:105500000201346F000110EC18F00D0E02013C6F27
:10551000000143EC17F0010E02016C6FC30E6B6FBC
:1055200000016BEC10F0010E0101A36FC30EA26F1E
:10553000F80EF66E0D0EF76E060E0201336F0001C7
:1055400054EC17F0FBC033F21B0E0201346F000164
:1055500010EC18F0000EF66E0E0EF76E050E02013E
:10556000336F000154EC17F0FCC033F21B0E020144
:10557000346F000110EC18F00D0E02013C6F0001B9
:1055800043EC17F0010E02016C6FC30E6B6F00014C
:105590006BEC10F0010173D400011FD001012B53FB
:1055A00003E100011AD00101020EEA6E140EE96E49
:1055B000090E016EF76A000E00016DEC04F00A009E
:1055C0000900F5CFEEFF012EFBD7020E02016C6F32
:1055D000140E6B6F00016BEC10F0020100016BEF19
:1055E0002BF0E824F76AF736FD0FF66E550EF7221A
:1055F0000A00F550FA6E0800F550F96EA842A44171
:10560000BC40B643B243003FB643B643B643B6438D
:10561000B643A243B643B643B643AC3D5750000A27
:1056200006E0020A1BE0010AD8B4A6D0A5D0586A49
:10563000020E576EAA6BA96B01012B530DE00D0EE4
:10564000BB6F3E0EBC6FBD6B010E02016C6FBB0EDB
:105650006B6F00016BEC10F000018ED03452D8B4A7
:1056600075D0AA6BA96B79EC14F00101B86B01C07D
:10567000B7F15850582A036A590FE96E000E0320FB
:10568000EA6EB7C1EFFF5850460804E2576A0001BE
:1056900073D00101B7510D0802E1B85305E0B751CD
:1056A0003B0855E1B85353E1B7513B080EE1B853FD
:1056B0000CE1010E585C036A590FE96E000E0320DD
:1056C000EA6E0D0EEF6E586A03D0000118EC07F079
:1056D000000118EF1BF00101425305E02B5303E1D9
:1056E00000014AD001010D0EBB6F0A0EBC6F4F0EB8
:1056F000BD6F4B0EBE6F0A0EBF6FC06B010E020175
:105700006C6FBB0E6B6F00016BEC10F00101B92DDB
:1057100015D0BA5313E12B5303E100012DD0010141
:105720000A0EBB6F0D0EBC6FBD6B010E02016C6FDC
:10573000BB0E6B6F00016BEC10F008D0010E020184
:105740006C6F770E6B6F00016BEC10F0010157501E
:10575000010810E22CA20ED02C920001A92BD8B483
:10576000AA2BAA51260806E2FF0A03E1A951100854
:1057700001E2576A000100D05CEF34F08A92020126
:10578000086B0851070813E30551800B02E18C9860
:1057900001D08C8800D000D08C8000D000D08C90BC
:1057A00000D000D00851082BD8900537EAD7086BF5
:1057B0000851070813E30651800B02E18C9801D0D1
:1057C0008C8800D000D08C8000D000D08C9000D08D
:1057D00000D00851082BD8900637EAD78A8207C232
:1057E00001F000011200D1C1D3F1D2C1D4F1020EF7
:1057F0000201426F010E446FD30E436F00012AEC89
:105800000BF012000101CE51690A000119E0200AD3
:105810002FE02D0A45E0200A5DE06F0AD8B474D06D
:10582000160AD8B499D0100AD8B4BED0720AD8B427
:10583000E5D0610AD8B40CD1020AD8B415D11ED172
:1058400001016E2B06E16F2B6F51030802E26E6BB4
:105850006F6B0B0E0201056F6EC106F200018EDF49
:105860000C0E0201056F6FC106F2000187DF06D141
:105870000101722B06E1732B7351030802E2726B74
:10588000736B0F0E0201056F72C106F2000176DF25
:10589000100E0201056F73C106F200016FDFEED03A
:1058A00001016E076E3D07D06F076F51030803E2D9
:1058B0006E69030E6F6F0B0E0201056F6EC106F26B
:1058C00000015CDF0C0E0201056F6FC106F20001E2
:1058D00055DFD4D001017207723D07D073077351B1
:1058E000030803E27269030E736F0F0E0201056F66
:1058F00072C106F2000142DF100E0201056F73C192
:1059000006F200013BDFBAD0010170C1CFF1715145
:10591000030BD06FCF2BD8B4D02BD051030802E2A9
:10592000D06BCF6B7151C00BD16F000ECF13D15123
:10593000D013CFC170F1D0C171F10B0E0201056F10
:1059400070C106F200011ADF0C0E0201056F71C171
:1059500006F2000113DF92D0010174C1CFF175513D
:10596000030BD06FCF2BD8B4D02BD051030802E259
:10597000D06BCF6B7551C00BD16F000ECF13D151CF
:10598000D013CFC174F1D0C175F10B0E0201056FB8
:1059900074C106F20001F2DE0C0E0201056F75C142
:1059A00006F20001EBDE6AD0010170C1CFF1715146
:1059B000030BD06FCF51D8B4D007CF07D051030815
:1059C00003E2030ED06FCF697151C00BD16F000E8F
:1059D000CF13D151D013CFC170F1D0C171F10B0EE3
:1059E0000201056F70C106F20001C8DE0C0E020153
:1059F000056F71C106F20001C1DE40D0010174C122
:105A0000CFF17551030BD06FCF51D8B4D007CF076A
:105A1000D051030803E2030ED06FCF697551C00B5C
:105A2000D16F000ECF13D151D013CFC174F1D0C1BB
:105A300075F10B0E0201056F74C106F200019EDEC6
:105A40000C0E0201056F75C106F2000197DE16D03B
:105A5000BD3D01D001D0BD2B010E0101D16FBDC0F4
:105A6000D2F10001C0DE0AD0BD5301E0BD07010E36
:105A70000101D16FBDC0D2F10001B5DEABEF33F053
:105A80000D0E0201056F0A0E066F076B020E6C6F9A
:105A9000050E6B6F00016BEC10F0020EEA6E050E46
:105AA000E96E3D0E016EF76A000E89EC00F00A0007
:105AB0000900F5CFEEFF012EFBD7020E02016C6F3D
:105AC000050E6B6F00016BEC10F0020EEA6E050E16
:105AD000E96E2E0E016EF76A000EB0EC00F00A00BF
