:04000000C7EF32F024
:08000800046ED8CF05F0E0CF33
:1000100006F00001E9CF0CF0EACF07F0E1CF08F0DD
:10002000E2CF09F0D9CF0AF0DACF0BF0F3CF12F01C
:10003000F4CF13F0FACF14F0F5CF15F0F6CF16F099
:10004000F7CF17F000C00EF001C00FF002C010F0A3
:1000500003C011F09DA230EF00F09EB2CCEF04F08F
:10006000F2A836EF00F0F2B207EF05F0F0A63CEF91
:1000700000F0F0B00AEF05F09DAA42EF00F09EBA42
:100080000DEF05F09DA848EF00F09EB834EF05F0A5
:100090007DA04EEF00F07EB0BEEF04F00EC000F089
:1000A0000FC001F010C002F011C003F00CC0E9FF56
:1000B00007C0EAFF078E08C0E1FF09C0E2FF0AC0DF
:1000C000D9FF0BC0DAFF12C0F3FF13C0F4FF14C056
:1000D000FAFF15C0F5FF16C0F6FF17C0F7FF045072
:1000E00006C0E0FF05C0D8FF1000F76AFA0FF66EF1
:1000F000000EF7220900F55012000000DC0091818B
:100100000008C25E0018B30400003C009500000027
:100110004000F76A220FF66E010EF7220900F55033
:100120001200244149203C6368616E6E656C3E3C60
:1001300063723E2020095265717565737420616E8B
:10014000616C6F67206368616E6E656C2076616CB0
:100150007565202831302062697473290D0A00000A
:10016000F76A700FF66E010EF7220900F5501200C3
:10017000244154203C6C6576656C3E3C63723E20A5
:10018000200953657420617474656E7561746F72B3
:1001900020746F203C6C6576656C3E0D0A00F76A32
:1001A000AE0FF66E010EF7220900F550120024433F
:1001B00046203C667265713E3C63723E20200943D6
:1001C00068616E6765206672657175656E6379201A
:1001D00028323138352E30202D20323330302E3039
:1001E00020696E20302E3120696E6373290D0A005C
:1001F000F76A000FF66E020EF7220900F5501200A2
:100200002444493C63723E20200952657175657330
:1002100074206469676974616C20696E70757473A9
:100220000D0A0000F76A340FF66E020EF72209007D
:10023000F5501200244744203C616464723E3C63E4
:10024000723E202009476574204432412072656760
:10025000697374657220636F6E74656E74730D0AD2
:100260000000F76A720FF66E020EF7220900F550D1
:100270001200244746203C616464723E3C63723E37
:100280002020094765742046504741207265676900
:100290007374657220636F6E74656E74730D0A00FB
:1002A000F76AB00FF66E020EF7220900F550120041
:1002B000244F54203C6F75747075743E3C63723EDD
:1002C000202009536574206469676974616C206F2C
:1002D00075747075747320746F204845582076616A
:1002E0006C75650D0A00F76AF60FF66E020EF722BE
:1002F0000900F55012002452443C63723E2020094C
:100300005265736574204432410D0A00F76A1C0F70
:10031000F66E030EF7220900F55012002453442014
:100320003C616464723E203C646174613E3C637273
:100330003E2020095365742044324120726567696C
:1003400073746572203C616464723E20746F203C5B
:10035000646174613E0D0A00F76A680FF66E030E61
:10036000F7220900F5501200245346203C616464D2
:10037000723E203C646174613E3C63723E20200901
:1003800053657420465047412072656769737465F0
:1003900072203C616464723E20746F203C6461741E
:1003A000613E0D0A0000F76AB60FF66E030EF722E3
:1003B0000900F55012004453203C646174612073BD
:1003C0006F7572653E3C63723E2020095365742050
:1003D0006461746120736F757273652028302D31EC
:1003E000290D0A00F76AF40FF66E030EF7220900D2
:1003F000F55012004450203C6461746120706F6CB1
:1004000061726974793E3C63723E202009536574C1
:10041000206461746120706F6C6172697479202846
:10042000302D31290D0A0000F76A380FF66E040EE0
:10043000F7220900F55012004445203C736574759D
:100440007020534F5150534B3E3C63723E20200965
:1004500053657420736574757020534F5150534B1E
:100460002028302D31290D0A0000F76A7A0FF66E28
:10047000040EF7220900F55012005250203C706F14
:100480007765722068696774683E3C63723E20201D
:100490000953657420706F776572206869677468A6
:1004A0002028302D31290D0A0000F76ABA0FF66EA8
:1004B000040EF7220900F55012005246203C706FDE
:1004C00077657220636F6D616E643E3C63723E209F
:1004D000200953657420706F77657220636F6D61BA
:1004E0006E642028302D31290D0A0000F76AFC0FB8
:1004F000F66E040EF7220900F55012005241203C1E
:1005000072616E646F6D697A65723E3C63723E2003
:10051000200973657420776974682F776974686F30
:1005200075742072616E646F6D697A65722028300F
:100530002D31290D0A00F76A460FF66E050EF722D7
:100540000900F55012004652203C667265717565CF
:100550006E63793E3C63723E2020095365742066C9
:1005600072657175656E63792028323230302E30B5
:100570002D323430302E30290D0A0000F76A8C0FEE
:10058000F66E050EF7220900F55012004D4F203C83
:100590006D6F64653E3C63723E2020095365742094
:1005A0006D6F64652028302D33290D0A0000F76A2D
:1005B000BE0FF66E050EF7220900F55012004943F2
:1005C000203C626974726174653E3C63723E202017
:1005D0000953657420626972746174652028312E34
:1005E00030302D33302E303044427073290D0A00E4
:1005F000F76A000FF66E060EF7220900F55012009A
:100600004944203C696E7465726E616C207061743F
:100610007465726E3E3C63723E20200953657420FF
:10062000696E7465726E616C207061747465726E4F
:100630002028302D33290D0A0000F76A4A0FF66E84
:10064000060EF7220900F55012005650203C706F3C
:10065000776572206C6576656C3E3C63723E202047
:100660000953657420706F776572206C6576656CD0
:10067000202832302D3430290D0A0000F76A8C0F03
:10068000F66E060EF7220900F5501200564C203C7B
:10069000706F77657220686967683E3C63723E20C0
:1006A0002009536574206869676820706F776572E8
:1006B000206C6576656C202832302D3430290D0A87
:1006C0000000F76AD20FF66E060EF7220900F55009
:1006D0001200564D203C6E65676174697665207026
:1006E0006F776572206C6576656C3E3C63723E2068
:1006F0002009536574206E656761746976652070A2
:100700006F776572206C6576656C0D0A0000F76A7C
:100710001E0FF66E070EF7220900F5501200564321
:10072000203C706F73657469766520706F776572B1
:10073000206C6576656C3E3C63723E2020095365F3
:100740007420706F73657469766520706F77657259
:10075000206C6576656C0D0A0000F76A6A0FF66E0C
:10076000070EF7220900F55012004353203C636C3A
:100770006F636B2070686173653E3C63723E20203E
:100780000953657420636C6F636B207068617365D7
:100790002028302D31290D0A0000F76AAA0FF66EC5
:1007A000070EF7220900F55012005554203C554120
:1007B00052542054696D653E3C63723E20200953BB
:1007C0006574207468652073746F702074696D653A
:1007D0002063757272656E742031352028302D3299
:1007E0003430290D0A00F76AF60FF66E070EF7226D
:1007F0000900F55012005553203C554152542053E6
:1008000074617475733E3C63723E202009536574B5
:100810002074686520426C6F636B2028302D31296D
:100820000D0A0000F76A340FF66E080EF722090071
:10083000F55012005356203C7361766520616C6C54
:100840003E3C63723E2020095361766520706172E0
:10085000616D65746572730D0000F76A6A0FF66E5C
:10086000080EF7220900F55012000D092048454CEA
:1008700050204C495354200D0000F76A8A0FF66E41
:10088000080EF7220900F55012000D0A4641554C9A
:10089000540D0A00F76AA40FF66E080EF72209003D
:1008A000F55012000D0A4641494C0D0A0000F76A46
:1008B000BE0FF66E080EF7220900F5501200204216
:1008C000413134313054582056332E330000F76A0A
:1008D000DE0FF66E080EF7220900F55012000D0A21
:1008E0000A4E4F2054454D502D5246204F4646202B
:1008F0000D0A0000F76A040FF66E090EF7220900D0
:10090000F55012000D0A0A4F4B2052657175657340
:100910007420537461747573200D0A0A0000F76A1D
:100920002E0FF66E090EF7220900F5501200474F00
:100930004F440000F76A440FF66E090EF7220900D3
:10094000F550120042414400F76A580FF66E090E46
:10095000F7220900F55012000D0A4F4B0D0A2A002C
:10096000F76A700FF66E090EF7220900F5501200B3
:100970000D0A0A425245414B0D0A00007E904EEF8F
:1009800000F002016F6B6EC208F16DC207F19E9814
:100990009D880001E5EF04F02868292A312A3150AA
:1009A000630813E2342C11D00101262D01D002D0AE
:1009B00000010BD0316A010E326E255307E10201AE
:1009C0006E6B180E6D6F0001DCD701012A2A2A50C8
:1009D000090819E22A6A312A2B2A2C682D2A2D505F
:1009E000090811E22D6A2E682F2A2F5009080BE200
:1009F0002F6A3068332A0001FC51335C03E3336A09
:100A0000010E346E01019E9200014EEF00F0F29251
:100A10004EEF00F0F0904EEF00F0AECF6DF2036AB3
:100A20003650380FE96E000E0320EA6E6DC2EFFFFC
:100A3000362A36501F0801E2366A35501F0801E396
:100A4000352A9E9A4EEF00F0040E02016E5F0AE313
:100A5000020EEA6E6E0EE96EEF5004E001D0000067
:100A6000EF2EFDD7000112008C8A01010C6B0B6B7D
:100A700008C103F00751D8B40807070703101DE0A9
:100A80008C8A0CC103F00B510B2BD8B40C2B020138
:100A90006D6F0D0E6D25E96E010E0320EA6EEFCF2E
:100AA000ADFF020E6D6FF90E6E6F0001CDDF02011A
:100AB0006D2FF9D78C9A0101DBD79D989E98000184
:100AC0004EEF00F024415220256C750D00002443A8
:100AD000502025750D0024445220253032580D0039
:100AE000200D0A2453462025303258202530325814
:100AF0000D00200D0A245344202530325820253083
:100B000032580D00465220256C750D004D4F2025A2
:100B1000750D000044532025750D000045525220EC
:100B200044532025750D000044502025750D00000C
:100B30004552522044502025750D00004445202583
:100B4000750D00004552522044452025750D0000CA
:100B500052502025750D000045525220525020253C
:100B6000750D000052462025750D0000455252209B
:100B700052462025750D0000524320256C750D004E
:100B8000524220256C750D0052412025750D000044
:100B90004552522052412025750D00005554202504
:100BA000750D00004552522055542025750D00004A
:100BB00055532025750D00004552522055532025D0
:100BC000750D000049442025750D00004552522046
:100BD00049442025750D0000494320256C750D0002
:100BE00056452025732049443D2530326C752044FC
:100BF000543D2530326C75253032750D000056504D
:100C000020256C750D00564D20256C750D00564342
:100C100020256C750D0043532025750D00004552AD
:100C2000522043532025750D000043502025750D9B
:100C300000004552522043502025750D00000A4700
:100C40005020256C750D0A000D54454D503D25363C
:100C50002E32666465670D0A4F4B0A000D0A49443F
:100C60003D256C752044543D2530326C752530325D
:100C7000750D00000D0A0A465245513D256C752C34
:100C8000205245563D25732C20464657523D256C33
:100C9000752C2049433D256C752E256C754D627071
:100CA000732C204D4F3D25752C2043533D25752C2D
:100CB0002052463D256C750D00000D0A0A44453D45
:100CC00025752C2052413D25752C2044503D25751D
:100CD0002C2052503D256C752C2044533D25752CFD
:100CE0002049443D25752C20564C3D256C752C2003
:100CF00052423D256C752C2052433D256C752C20AD
:100D000043503D25750D00000D0A0A55543D2575CB
:100D10002C2055533D25750D0000896A8A6A8B6A1F
:100D20008C6A8D6AE10E926EC10E936EF10E946E16
:100D30008E0E956E9680968296949686C0EF06F0FB
:100D40000101726B356A35C037F037C036F0586A2A
:100D50009D8A00011200480E0509BA6E630EBB6E33
:100D6000B46AB16A000E05090F01516F630E526F2C
:100D70004D6B4E6B000E4A6F000E4B6F0001CDD7CE
:100D8000C150F00BC16E210E0F01386F030E3C6F86
:100D9000000E396F3A6F3B6FC050C00B2509C06E13
:100DA000C08EC280776A040E786E796E0001C8DF4B
:100DB0009D82C00EF2120CEF33F0020EEA6E3D0E71
:100DC000E96EEF500EE0050E016E006A002EFED7B0
:100DD000012EFBD72E0E006E002EFED700D0EF2E78
:100DE000F2D7120002012D51036E2C51D8B42D07F9
:100DF0002C0703101FE02B51036E2A512A2BD8B465
:100E00002B2BE96E03C0EAFF2951036E2851282BD2
:100E1000D8B4292B306F03C031F2F2CF32F2F29EF8
:100E200030C2A9FFA69CA69EA680A85032BFF28E13
:100E3000EF6ED9D7000136EF07F0016603D00266E6
:100E400002D007D0022A00C0EEFF012EFCD7022EEE
:100E5000FAD743EF07F00201296B286B2B6BAC0E1E
:100E60002A6F2D6B510E2C6F0001BCD7B33D01D002
:100E700002D0B43D08D0EA6AAC0EE96E006A026A9C
:100E8000510E016EDAD71200899402012C5302E050
:100E9000898801D089988986040E006E002EFED7BD
:100EA00000D08996040E006E002EFED700D08998DF
:100EB0008986040E006E002EFED700D08996040E9F
:100EC000006E002EFED700D08986040E006E002E24
:100ED000FED700D08996040E006E002EFED700D0FB
:100EE0008986040E006E002EFED700D08996040E6F
:100EF000006E002EFED700D08986000B006E2E51AA
:100F0000020B036E0050031002E0898801D089981B
:100F1000040E006E002EFED700D08996040E006EDF
:100F2000002EFED700D08986000B006E2E51010BDB
:100F3000036E0050031002E0898801D089988996D9
:100F400089862D51800B006E036A0050031002E069
:100F5000898801D08998040E006E002EFED700D03B
:100F60008996040E006E002EFED700D089862D5182
:100F7000400B006E036A0050031002E0898801D024
:100F80008998040E006E002EFED700D08996040EBC
:100F9000006E002EFED700D089862D51200B006EEA
:100FA000036A0050031002E0898801D0899889966D
:100FB00089862D51100B006E036A0050031002E069
:100FC000898801D08998040E006E002EFED700D0CB
:100FD0008996040E006E002EFED700D089862D5112
:100FE000080B006E036A0050031002E0898801D0EC
:100FF0008998899689862D51040B006E036A0050EA
:10100000031002E0898801D08998040E006E002E3A
:10101000FED700D08996040E006E002EFED700D0B9
:1010200089862D51020B006E036A0050031002E006
:10103000898801D08998899689862D51010B006E87
:10104000036A0050031002E0898801D08998040ED9
:10105000006E002EFED700D08996040E006E002E82
:10106000FED700D08986040E006E002EFED700D079
:1010700089968986040E006E002EFED700D0040EDD
:10108000006E002EFED700D08996040E006E002E52
:10109000FED700D08984040E006E002EFED700D04B
:1010A0008992040E006E002EFED700D08982040EB5
:1010B000006E002EFED700D00001120002014A6B24
:1010C0004B6B010E4C6FDA6AD96A020E4F6F420EFB
:1010D0004E6F020EEA6E460EE96E4FC2E2FF4EC23E
:1010E000E1FF4CC24DF2D890E550EE02F3504A2396
:1010F000F4504B234D2FF7D74AC2DEFF4BC24AF2C2
:101100004B6BD8B04B2B4E2BD8B44F2B4C2B4C5198
:101110000508DFE100011200D8B204D0020EEA6E29
:101120004E0EE96E006A016A026A036A02014E6BA2
:101130004F6B506B516B4D514C114B114A112CE0C0
:10114000200E526FD89046374737483749374E37C9
:101150004F37503751374D51515D08E14C51505D7B
:1011600005E14B514F5D02E14A514E5D0FE34A519B
:101170004E5F4B51D8A04B3D4F5F4C51D8A04C3DDA
:10118000505F4D51D8A04D3D515FD880003601369B
:1011900002360336522FD6D74EC2EFFF4FC2ECFFB6
:1011A00050C2ECFF51C2ECFF0001120002013D6B86
:1011B0003C6B3B6B020E3A6F0400396B386B31C2EB
:1011C00037F230C236F201013A6B950E396F386B47
:1011D0003C0E376F02013151540812E2FF0A03E15D
:1011E0003051EF080DE23D6B3C6B3B6B010E3A6FEB
:1011F00001013A6B850E396F386B3C0E376F020177
:10120000040039C245F238C244F237C243F236C252
:1012100042F23DC249F23CC248F23BC247F23AC2F6
:1012200046F200014BDF03C041F202C040F201C0B0
:101230003FF200C03EF203C045F202C044F201C0DA
:1012400043F200C042F20201496B486B476B640EE7
:10125000466F000133DF03C039F202C038F201C02B
:1012600037F200C036F20400D89239C249F238C2CF
:1012700048F237C247F236C246F202014D6B4C6B60
:10128000270E4B6F100E4A6F000146DF03C02AF194
:1012900002C029F101C028F100C027F104002AC1D1
:1012A00045F229C144F228C143F227C142F20201AA
:1012B000496B486B270E476F100E466F0001FEDE2C
:1012C00000500201365D3E6F015037593F6F0250AA
:1012D0003859406F03503959416F456B446B436B2C
:1012E000640E426F3DC249F23CC248F23BC247F233
:1012F0003AC246F20001E2DE03C045F202C044F207
:1013000001C043F200C042F2D89241C249F240C249
:1013100048F23FC247F23EC246F203C04DF202C05D
:101320004CF201C04BF200C04AF2F6DE03C02EF1CF
:1013300002C02DF101C02CF100C02BF1D8920201A6
:10134000496B486B476B640E466F3DC24DF23CC221
:101350004CF23BC24BF23AC24AF20001DDDE03C05E
:1013600041F202C040F201C03FF200C03EF2020171
:101370000034006E0134016E0234026E0334036ED9
:1013800000360136023603360036013602360336A1
:10139000F80E0016080E0324416F010E002401010F
:1013A0002F6F000E020101200101306F000E0201BB
:1013B00002200101316F000E020141210101326F53
:1013C0000400010E02013227D8B0332BD8B4342BDD
:1013D000D8B4352B00011200080E02013A6F3A53BF
:1013E0001EE039AF02D08B8601D08B960C0E006EBA
:1013F000002EFED700D000008B840C0E006E002E55
:10140000FED700D000008B94200E006E002EFED779
:1014100000D000003A513A07D8903937E0D78B9680
:101420008B94000112000400F29CF29EF2BEFDD7E4
:1014300037C238F237C239F2CFDF36C238F236C29D
:1014400039F2CADF35C238F235C239F2C5DF34C2EB
:1014500038F234C239F2C0DF340E006E002EFED7EF
:1014600000D000008B82060E006E002EFED700001A
:101470008B928B96C00EF212040012000201356BA3
:10148000010127350201366F010128350201376F4E
:10149000010129350201386F36373737383736378B
:1014A00037373837363737373837363737373837CB
:1014B000363737373837363737373837800E3617BD
:1014C00001012B35006E2C35016E2D35026E2E3547
:1014D000036E003601360236033600360136023618
:1014E0000336F80E0016005002013525306F01500A
:1014F0003621316F02503721326F03503821336F5C
:1015000033C236F132C235F131C234F130C233F177
:10151000040033C237F232C236F231C235F230C281
:1015200034F2000180DF1A0E006E002EFED700009C
:10153000040032C137F231C136F230C135F22FC169
:1015400034F271DF1A0E006E002EFED70000040088
:101550003AC137F239C136F238C135F237C134F207
:1015600062DF12008A940C0E006E002EFED700D0AF
:10157000000002013D513D07000A22E03FC203F096
:101580003E513E2BD8B43F2BE96E03C0EAFFEFCFAC
:1015900040F2416B4151070812E340AF02D08C8802
:1015A00001D08C9800D000D08C8000D000D08C90DE
:1015B00000D000D04151412BD8904037EBD7DAD73B
:1015C0000C0E006E002EFED700D000008A840001B1
:1015D00012000201306B0001B139006EF00E0016EE
:1015E0000050B0110201396F0001B239006E0036AF
:1015F000E00E00160050020139130001B639006EEA
:1016000000360036C00E0016005002013913006A81
:101610000001B8B1008E005002013911316F020E85
:101620003D6F3F6F300E3E6F00019CDF1200060ED3
:101630000201306FD8900001B435B3110201396F47
:101640000001B535006E0036FC0E00160050020198
:101650003911316F020E3D6F3F6F300E3E6F00014A
:1016600081DF1200B60E006E036A026A016A02018F
:101670004D514E114F11501102E1006A0DD0D8901A
:1016800001BE09D04D374E374F375037033602363B
:101690000136002EF4D7019E0001A3EF0CF00201E9
:1016A0004D51D8B4A5D0596F5151D8B4A1D0595F7C
:1016B00005E37F0E5927D8B09BD006D0810E595F25
:1016C000D8A096D0D8B494D059C200F0016A026A6A
:1016D000036A586B4EC257F2578F4FC256F250C230
:1016E00055F2190E596F5451555F0DE2010E565FB8
:1016F0000AE2575F08E2585F06E2582B572B562B39
:101700005451552728D05351565F12E2010E575FAE
:101710000FE2585F0DE2582B572B53515627545167
:10172000552719E3562B17E1572B15E1582B13D0EA
:1017300052518009575F0EE2010E585F0BE2582BA1
:1017400052518009572753515627E9E3572BE7E1B8
:10175000582BE5D70380592F01D00BD0D89055379F
:10176000563757375837D8900336023601365A372E
:10177000BAD75AA106D0D8900132023203325A3376
:1017800002D0000635E05ABF1ED0D89055375637E4
:10179000573758375451555F07E2010E565F04E240
:1017A000575F02E2585F1AE35351565F05E2010E9C
:1017B000575F02E2585F12E352518009575F03E21C
:1017C000010E585F0BE3032A09E1022A07E1012A0F
:1017D00005E1002A0DE00132023203324EC259F215
:1017E0005251591B59AF02D0018E06D0019E04D030
:1017F000006A016A026A036A0001120002014D5187
:10180000D8B471D0006E5151D8B46DD0002604E325
:10181000810E002668E204D07F0E005E64E363E080
:101820004EC255F25251551B4E8F528F5051540398
:10183000F4CF57F24F515303F4CF03F0F3CF56F2E6
:101840005403F3505727F4505623000E03225051EF
:101850005303F3505727F4505623000E026A032215
:1018600002224E515403F3505627F4500322000E27
:1018700002224E515303F3500326F4500222000E6D
:10188000016A012250515203F3505627F4500322AB
:10189000000E022201224F515203F3500326F4504E
:1018A0000222000E01224E515203F3500226F45040
:1018B0000122002A01BE05D0563703360236013612
:1018C0000006000E56AF0AD0032A02220122015060
:1018D00005E1025003E1035001E1002A55BF018EEA
:1018E00055AF019E04D0006A016A026A036A0001D2
:1018F000120002014D51B6084D6F036A4EC251F2FB
:101900004E8FD8904E334F33503303320232013270
:1019100000324D2FF6D751AF0BD0001E011E021E14
:10192000031E002AD8B4012AD8B4022AD8B4032A44
:101930000001120044C250F243C24FF242C24EF2C2
:1019400041C24DF28FD603C048F202C047F201C037
:1019500046F200C045F248C250F247C24FF246C2BA
:101960004EF245C24DF2C00E0201546FE10E536FAC
:10197000640E526F9A0E516F000191DE03C04CF25B
:1019800002C04BF201C04AF200C049F24CC250F210
:101990004BC24FF24AC24EF249C24DF20201546BA1
:1019A000536B526B8F0E516F000128DF03C04CF256
:1019B00002C04BF201C04AF200C049F24CC250F2E0
:1019C0004BC24FF24AC24EF249C24DF20201546B71
:1019D000536B526B8F0E516F000110DF03C04CF23E
:1019E00002C04BF201C04AF200C049F24CC250F2B0
:1019F0004BC24FF24AC24EF249C24DF27ADF03C0E7
:101A000050F202C04FF201C04EF200C04DF2010E82
:101A10000201005C006E000E0158016E000E0258BB
:101A2000026E000E0358036E000112000201406BAB
:101A30003F6BADC03EF2ACC03DF240C245F23FC28A
:101A400044F2ADC043F2ACC042F2496B486B270E82
:101A5000476F100E466F00015EEC08F003C040F2C5
:101A600002C03FF201C03EF200C03DF203C044F2AA
:101A700002C043F201C042F200C041F25BDF03C08A
:101A80003CF202C03BF201C03AF200C039F2020E51
:101A90000201306F39C231F2020E3D6F3F6F300EDE
:101AA0003E6F00015FDD0A0E02013D6F0001DDECBB
:101AB00006F0030E0201306F3AC231F2020E3D6FA2
:101AC0003F6F300E3E6F00014DDD0A0E02013D6F8B
:101AD0000001DDEC06F0040E0201306F3BC231F272
:101AE000020E3D6F3F6F300E3E6F00013BDD0A0E70
:101AF00002013D6F0001DDEC06F0050E0201306FC2
:101B00003CC231F2020E3D6F3F6F300E3E6F00015E
:101B100029DD0A0E02013D6F0001DDEC06F0120026
:101B2000BBC02DF2BAC02CF2050E02013D6F0001C0
:101B3000DDEC06F02DC231F22CC230F2D6EC08F00A
:101B4000050E02013D6F0001DDEC06F097DC050E8D
:101B500002013D6F0001DDEC06F03BDD050E0201E8
:101B60003D6F0001DDEC06F062DD050E02013D6F08
:101B70000001DDEC06F05ADFADC02FF2ACC02EF252
:101B8000030E1F6EE80E1E6E1200263C03D0273C8B
:101B900001D021D02EA61ED02E9602012C6B27C07C
:101BA0002EF226C02DF2000144EC07F0140E016E57
:101BB000C250830B0110C26E1A0E006E002EFED7AB
:101BC0000000C282C2B2FED7C4CF29F20201C3CF45
:101BD00028F20001DFD183AE3CD0F6533AE1F7534F
:101BE00038E1AE2D2ED0AF532CE18C8CFF2BD8A436
:101BF00003D00101002B0001FF2D0ED00101005385
:101C0000D8B402D0000108D08C8C320E02013D6F96
:101C10000001DDEC06F084DF01010051E9080FE26C
:101C2000FF0A08E10001FF516008D8A002D00101BD
:101C300006D00101006B020E0001FF6F010107D009
:101C400000018C9C0101006B0001FF6B01013BD086
:101C5000000183BE37D0F65335E1F75333E1AE2DA3
:101C600008D0AF5306E18C9C0101006B0001FF6BB3
:101C700007D08C8CFF2BD8A403D00101002B0001CE
:101C8000FF2D0ED001010053D8B402D0000108D0BE
:101C90008C8C320E02013D6F0001DDEC06F040DF5E
:101CA00001010051E9080FE2FF0A08E10001FF51BC
:101CB0006008D8A002D0010106D00101006B020E1D
:101CC0000001FF6F010183BE3FD00001F62D01D05E
:101CD00002D0010139D0F753D8B402D0010134D079
:101CE000AE2D20D0AF531EE18C8C0101012BD8B456
:101CF000022B012D0BD0025309E18C8C3C0E02010A
:101D00003D6F0001DDEC06F00BDF01010251E90837
:101D100008E2FF0A03E10151600803E2026B020ED0
:101D2000016F0001AE530EE1AF530CE18C9C020138
:101D30002C6B2E6B2D6B000144EC07F00101026B44
:101D4000016B000152D0010183AE4ED00001F62D8F
:101D500001D002D0010148D0F753D8B402D001011C
:101D600043D0AE2D0ED0AF530CE18C9C02012C6BF6
:101D70002E6B2D6B000144EC07F00101026B016B2F
:101D80000001AE5313E1AF5311E10101012D0ED05B
:101D900002530CE18C8C3C0E02013D6F0001DDEC26
:101DA00006F0BEDE0101012BD8B4022B0101012D8A
:101DB0000BD0025309E18C8C320E02013D6F000101
:101DC000DDEC06F0ADDE01010051E9080DE2FF0A8D
:101DD00008E10001FF516008D8A002D0010104D041
:101DE0000101026B020E016F0001BB5158080FE3A5
:101DF00003E1BA5129080BE3010E02012C6FC0C0A8
:101E00002EF2BFC02DF2000144EC07F01CD0BB51F4
:101E10005A080FE303E1BA51F9080BE3010E02017E
:101E20002C6FC2C02EF2C1C02DF2000144EC07F0AD
:101E30000AD0010E02012C6FC4C02EF2C3C02DF2D5
:101E4000000144EC07F0140E016EC250830B011028
:101E5000C26E1A0E006E002EFED70000C282C2B201
:101E6000FED7C4CF29F20201C3CF28F20001F82D1A
:101E700027D0F95325E183A409D0FA2D07D0FB53CD
:101E800005E11DC02BF21CC02AF21AD083A409D090
:101E9000FA5307E1FB5305E11BC02BF21AC02AF2EB
:101EA0000FD083B409D0FA5307E1FB5305E11DC0FD
:101EB0002BF21CC02AF204D01BC02BF21AC02AF24B
:101EC000F85327E1F95325E183A409D0FA5307E138
:101ED000FB5305E11DC02BF21CC02AF21AD083B4BB
:101EE00009D0FA2D07D0FB5305E11DC02BF21CC011
:101EF0002AF20FD083A409D0FA2D07D0FB5305E1B5
:101F00001BC02BF21AC02AF204D01BC02BF21AC03D
:101F10002AF2060E02012A25016E000E2B21036E05
:101F20000350295D04E312E12851015C0FE3060E22
:101F30002A5D006E000E2B59036E00C001F029517E
:101F4000035C29E303E10150285D25E229512B5D63
:101F50000EE303E12A51285D0AE21F5203E11E50FD
:101F6000950804E2030E1E5E000E1F5A0BD01F5090
:101F7000030808E303E11E50F20804E3030E1E26E3
:101F8000000E1F222C6B1FC02EF21EC02DF200016E
:101F900044EC07F00201000112000101B56B050ECF
:101FA000B46FB551050836E3B451040DF350036A1C
:101FB000000175EC00F00900F5CF01F00900F5CF44
:101FC00002F00900F5CF03F003C0B3F102C0B2F193
:101FD00001C0B1F1E8CFB0F1B4C100F0016A026A0A
:101FE000036A00500101B0130150B1130250B21343
:101FF0000350B313B3C137F2B2C136F2B1C135F2F7
:10200000B0C134F2000113EC0AF00101B551B52B57
:10201000B407C7D7FA0E02013D6F0001DDEC06F0F0
:10202000B3C137F2B2C136F2B1C135F2B0C134F248
:1020300013EC0AF0FA0E02013D6F0001DDEC06F030
:1020400045EF33F09D9A8C8A840E006E002EFED7E9
:1020500000D000000201696B67C203F066C2E9FFAD
:1020600067C2EAFFEF5246E067C203F06651662B93
:10207000D8B4672BE96E03C0EAFFEFCF68F268516E
:10208000090816E068C2ADFF692B020E6B6F196A72
:10209000F2BE198EF29E950E6E6F000124EC05F0D3
:1020A00019BEF28E02016B2FF2D7AECF68F221D0AB
:1020B000200E6A6F6A51695D03E3020E69256A6F3B
:1020C0006A51695D16E2200EAD6E692B020E6B6FD0
:1020D000196AF2BE198EF29E950E6E6F000124EC05
:1020E00005F019BEF28E02016B2FF2D7AECF68F267
:1020F000E7D7B2D7840E006E002EFED700D00000C6
:102100008C9AAECF68F29D8A000112000101B66B75
:10211000B66B000E0001B8B1010E006E003600363D
:10212000FC0E001600500101B627000E0001B1B1EF
:10213000010E006E003600360036F80E0016005014
:102140000101B627000E0001B3B1010E006E003A86
:10215000F00E001600500101B627000E0001B6B1C6
:10216000010E006E003A0036E00E0016005001012C
:10217000B627000E0001B2B1010E006E003A003623
:102180000036C00E001600500101B627000E0001F7
:10219000B4B1010E006E0030006AD8B0008E00505D
:1021A0000101B627036AB6C101F003C002F00001C5
:1021B000C1EF13F001010451020806E303E10351EA
:1021C000440802E39C9101D09C81B66BB66B000E73
:1021D0009CB1010E006E00360036FC0E0016005059
:1021E000B627000E26B1010E006E0036003600360E
:1021F000F80E00160050B627000E0001FAB1010ECD
:10220000006E003AF00E001600500101B627000ED5
:102210009BB1010E006E003A0036E00E0016005031
:10222000B627000E0001F8B1010E006E003A00362C
:102230000036C00E001600500101B627000E000146
:10224000F6B1010E006E0030006AD8B0008E00506A
:102250000101B627036AB6C101F003C002F0000114
:10226000C4EF13F08E0E006EBFC101F0BEC102F0CC
:10227000036A01AE05D0011E021E022A01E1012AF5
:10228000015209E102C001F0026A080E005E01522B
:1022900002E1006A0DD0D89001BE04D002360136AA
:1022A0000006F9D70101BFAF02D0000101D0019EA5
:1022B0000001CFEF12F0800ED8A202D002012D1B38
:1022C0000201326B336B29C231F22D51311B28517F
:1022D000D8B4DFD0306F006E2C51D8B4E3D0305F6B
:1022E000D8B483D03EE32DC236F2368F2EC235F2FB
:1022F0002FC234F2336BD890363335333433333323
:10230000302FF8D731AF03D03281E0D03291309105
:102310003289020EEA6E2B0EE96EEBD0329931BF94
:102320000AD030A113D03633353334333333002A57
:10233000D8B4C7D00BD036BF0CD0D8903337343791
:10234000353736370006D8B4BCD0F5D7328D6DD0CE
:10235000329D29C231F229AF02D0368FABD0369FE1
:10236000A9D02CC230F22CC200F02851305F29C213
:1023700036F2368F2AC235F22BC234F2336BD89044
:102380003633353334333333302FF8D731AF03D0CE
:1023900032839CD032933091328B020EEA6E2F0E34
:1023A000E96EA7D0329B31BF0AD030A113D03633AB
:1023B000353334333333002AD8B483D00BD036BF0F
:1023C0000CD0D89033373437353736370006D8B489
:1023D00078D0F5D7328F29D0329F2DC231F22DAF70
:1023E00002D0368F67D0369F65D02DC236F2368F39
:1023F0002EC235F22FC234F231AF04D0369F32856F
:1024000065D03295336B3091020EEA6E2B0EE96E79
:1024100070D031BF1CD029C231F230A106D0363382
:10242000353334333333002A4CE033AF0BD0342B05
:1024300009E1352B07E1362B05E1363335333433EB
:10244000002A3FE032BD84D732BFC6D71CD0800EF1
:10245000361B36AF04D03AD02DC231F20AD029C291
:1024600031F2365306E1355304E1345302E1006A98
:1024700021D036BF08D0D890333734373537363788
:10248000002EF7D71ED031AF02D0368F13D0369F33
:1024900011D02CC200F02DC236F22EC235F22FC25E
:1024A00034F208D028C200F029C236F22AC235F22E
:1024B0002BC234F236C201F035C202F034C203F04E
:1024C00034D0006A016A026A036A2FD0336B341F6A
:1024D000351F361F331F332B05E1342B03E1352B1A
:1024E00001E1362B32B112D732B354D732B589D786
:1024F000B3D7EF50342705E3352B03E1362BD8B49F
:102500003081ED52EF50352703E3362BD8B43081BC
:10251000ED52EF50EFBE01D0800A3627D8B030819F
:1025200032B9FCD632BB3ED774D7000112008E0EF2
:10253000006E0101BE51005EBFC102F0C0C101F0DA
:10254000028E005209E0D890025202E1015204E0EA
:1025500002320132002EF7D7BFAF05D0011E021E96
:10256000012AD8B4022A000174EF13F0180E016E8C
:10257000C250830B0110C26E420E006E002EFED7B9
:102580000000C282C2B2FED7C4CFBDF10101C3CFE9
:10259000BCF1BDC1BFF1BCC1BEF1000163D600C03A
:1025A000BEF101C0BFF102C0C0F103C0C1F103C060
:1025B00050F202C04FF201C04EF200C04DF20201D3
:1025C000546B536B526B890E516F00014FEC0BF043
:1025D00000C0BEF101C0BFF102C0C0F103C0C1F133
:1025E00003C050F202C04FF201C04EF200C04DF2E3
:1025F000330E0201546F536F530E526F800E516FA2
:102600000001FEEC0BF003C0B9F102C0B8F101C04B
:10261000B7F100C0B6F1D882B9C12BF2B8C12AF225
:10262000B7C129F2B6C128F202012F6B2E6B400E02
:102630002D6F7E0E2C6F00013EDE03C0B9F102C08B
:10264000B8F101C0B7F100C0B6F1B9C150F2B8C1DC
:102650004FF2B7C14EF2B6C14DF20201546B536B4B
:10266000480E526F850E516F0001FEEC0BF003C057
:10267000B9F102C0B8F101C0B7F100C0B6F1D8920B
:10268000B9C12BF2B8C12AF2B7C129F2B6C128F2FA
:1026900002012F6B2E6B480E2D6F830E2C6F0001E5
:1026A0000ADE03C0B9F102C0B8F101C0B7F100C041
:1026B000B6F1B9C150F2B8C14FF2B7C14EF2B6C1CE
:1026C0004DF20201546B536B480E526F850E516FE1
:1026D0000001FEEC0BF003C0C1F102C0C0F101C06B
:1026E000BFF100C0BEF123D702C0BBF101C0BAF1F7
:1026F0000101BAC101F0BBC102F00001C7EF13F044
:102700000101B751B919800BBB6FB7AF05D0B61F28
:10271000B71FB62BD8B4B72BB9AF05D0B81FB91FA8
:10272000B82BD8B4B92B016A026A006A036AB9519E
:1027300002E1B85118E0100EBA6FD890B637B7372B
:1027400000360336B951035C02E1B851005C07E37F
:10275000B851005ED8A00306B951035ED880013697
:102760000236BA2FEAD7BBAF05D0011E021E012ADE
:10277000D8B4022A000112000101B16BB06B000154
:10278000C5D401C0B4F116D501C0B5F1EFD602C071
:1027900006F101C005F1FB0E01010D6F600E0E6F19
:1027A0000AC103F00951092BD8B40A2B0F6FBBC023
:1027B00010F1BAC011F10101B0C012F1B4C113F1AE
:1027C00006C1B7F105C1B6F1010EB96FB86B0001D2
:1027D00097DF01C014F1010106C1B7F105C1B6F1DF
:1027E000010EB96FB86B00018BDF00C015F101015C
:1027F000ADC016F1ACC017F10101140E0001BC25EB
:102800000101186FB5C019F1B5C11AF120C01BF153
:1028100022C01CF1BB0E1D6F1E6FF3C01FF1F2C072
:1028200020F10101AA0E216F226FB36BB26BB3537B
:1028300011E1B25116080EE30D0EB225E96E010E3C
:10284000B321EA6EEF50B027000EB123B22BD8B4FB
:10285000B32BEDD7B1C123F1B0C124F10001B3EF27
:1028600033F0036A3750380FE96E000E0320EA6E2A
:10287000EFCFC9F10101372A37501F0801E2376A4B
:10288000355201E03506C9C101F000011200036AAA
:1028900001013B515A0FE96E000E0320EA6E036AF4
:1028A000EFCF01F003C002F00001120001013B5123
:1028B0003B2B036A5A0FE96E000E0320EA6E036A8F
:1028C000EFCF01F003C002F000011200036A010122
:1028D0003B515A0FE96E000E0320EA6EEF5218E0EA
:1028E000036A3B515A0FE96E000E0320EA6EEF5067
:1028F0002C080AE0036A3B515A0FE96E000E0320D0
:10290000EA6EEF50200804E13B2B0001DFD7010104
:1029100000011200020135513719800B396F35AFB4
:1029200005D0341F351F342BD8B4352B37AF05D025
:10293000361F371F362BD8B4372B34513603F3CF1D
:1029400001F0F4CF00F03703F35000263551360381
:10295000F3500020026E39AF05D0011E021E012A7D
:10296000D8B4022A000112000201336B010E326F4B
:102970000001ACDF036A01013B515A0FE96E000E02
:102980000320EA6EEF5244E00201316B306B00012C
:102990007EDF02C035F201C034F2020101502D0881
:1029A00007E1355305E13369326900017FDF020138
:1029B000036A01013B515A0FE96E000E0320EA6ED3
:1029C000EFCF34F2020134512F0822E2345139089A
:1029D0001FE331C235F230C234F2376B0A0E366F64
:1029E000000198DF02C035F201C034F201013B5111
:1029F0003B2B036A5A0FE96E000E0320EA6E300E7D
:102A0000EF5C02010124306F000E0220316FD0D73D
:102A100031C235F230C234F233C237F232C236F24A
:102A2000000178DF02C003F002C002F012000D0EB8
:102A30000201286F0A0E296F2A6F2B6B020E676F37
:102A4000280E666F000122EC10F0020EEA6E280ECE
:102A5000E96E2E0E016EF76A000ED3EC01F00A004B
:102A60000900F5CFEEFF012EFBD7020E0201676FC2
:102A7000280E666F000122EC10F0020EEA6E280E9E
:102A8000E96E330E016EF76A000EF2EC01F00A00F7
:102A90000900F5CFEEFF012EFBD7020E0201676F92
:102AA000280E666F000122EC10F0020EEA6E280E6E
:102AB000E96E310E016EF76A000E14EC02F00A00A6
:102AC0000900F5CFEEFF012EFBD7020E0201676F62
:102AD000280E666F000122EC10F0020EEA6E280E3E
:102AE000E96E2F0E016EF76A000E35EC02F00A0057
:102AF0000900F5CFEEFF012EFBD7020E0201676F32
:102B0000280E666F000122EC10F0020EEA6E280E0D
:102B1000E96E310E016EF76A000E55EC02F00A0004
:102B20000900F5CFEEFF012EFBD7020E0201676F01
:102B3000280E666F000122EC10F0020EEA6E280EDD
:102B4000E96E3A0E016EF76A000E76EC02F00A00AA
:102B50000900F5CFEEFF012EFBD7020E0201676FD1
:102B6000280E666F000122EC10F0020EEA6E280EAD
:102B7000E96E350E016EF76A000E9BEC02F00A005A
:102B80000900F5CFEEFF012EFBD7020E0201676FA1
:102B9000280E666F000122EC10F0020EEA6E280E7D
:102BA000E96E210E016EF76A000EBEEC02F00A001B
:102BB0000900F5CFEEFF012EFBD7020E0201676F71
:102BC000280E666F000122EC10F0020EEA6E280E4D
:102BD000E96E320E016EF76A000ED7EC02F00A00C1
:102BE0000900F5CFEEFF012EFBD7020E0201676F41
:102BF000280E666F000122EC10F0020EEA6E280E1D
:102C0000E96E390E016EF76A000EF8EC02F00A0068
:102C10000900F5CFEEFF012EFBD7020E0201676F10
:102C2000280E666F000122EC10F0020EEA6E280EEC
:102C3000E96E310E016EF76A000E1DEC03F00A001A
:102C40000900F5CFEEFF012EFBD7020E0201676FE0
:102C5000280E666F000122EC10F0020EEA6E280EBC
:102C6000E96E350E016EF76A000E3EEC03F00A00C5
:102C70000900F5CFEEFF012EFBD7020E0201676FB0
:102C8000280E666F000122EC10F0020EEA6E280E8C
:102C9000E96E3B0E016EF76A000E61EC03F00A006C
:102CA0000900F5CFEEFF012EFBD7020E0201676F80
:102CB000280E666F000122EC10F0020EEA6E280E5C
:102CC000E96E3B0E016EF76A000E87EC03F00A0016
:102CD0000900F5CFEEFF012EFBD7020E0201676F50
:102CE000280E666F000122EC10F0020EEA6E280E2C
:102CF000E96E2F0E016EF76A000EADEC03F00A00CC
:102D00000900F5CFEEFF012EFBD7020E0201676F1F
:102D1000280E666F000122EC10F0020EEA6E280EFB
:102D2000E96E3C0E016EF76A000ECDEC03F00A006E
:102D30000900F5CFEEFF012EFBD7020E0201676FEF
:102D4000280E666F000122EC10F0020EEA6E280ECB
:102D5000E96E2D0E016EF76A000EF3EC03F00A0027
:102D60000900F5CFEEFF012EFBD7020E0201676FBF
:102D7000280E666F000122EC10F0020EEA6E280E9B
:102D8000E96E250E016EF76A000E12EC04F00A00DF
:102D90000900F5CFEEFF012EFBD7020E0201676F8F
:102DA000280E666F000122EC10F00D0E0201286F54
:102DB0000A0E296F2A6B020E676F280E666F0001DC
:102DC00022EC10F06EEF29F09EC1EAFF9DC1E9FFF1
:102DD000020137C2EFFFE92AD8B4EA2AEF6A0101FB
:102DE0009D2BD8B49E2B000112000900F6CF2FF2C4
:102DF000F7CF30F2F5CF37F2E7DF2FC2F6FF30C260
:102E0000F7FF02012E2F01D002D00001EED7000102
:102E10001200EACF36F2E9CF35F202012F39F0097C
:102E2000316F3127E20F326F320F346F2F510F0B9A
:102E3000322732273427E90F336F332733272E39D0
:102E40000F0B3327342733373437341F34372E51A1
:102E50000F0B34273137070E306F0A0E3307342734
:102E6000FDE332073327FDE331073227FDE3300767
:102E70003127FDE3020EEA6E300EE96E070E3515BE
:102E8000359DE926340EE95CD8B4358DEF50006EDF
:102E900008E135BD06D035B915D035B702D0200EC2
:102EA00003D035873599300E0026EACF2FF2E9CFCF
:102EB0002EF200C037F2000187DF2FC2EAFF2EC2D8
:102EC000E9FF0201EE5035ADDDD7000112004CDD07
:102ED00002C02BF201C02AF202C035F201C034F266
:102EE0000201376B0A0E366F000114DD02C029F2B1
:102EF000020101C028F20001CADC02C02BF201C0AD
:102F00002AF2020101502E0810E12B530EE10001BC
:102F1000CDDCCCDC300E0201015C006E000E0258EC
:102F2000036E005028270350292328C201F029C22C
:102F300002F00001120002013151016A305D03E22A
:102F400030C200F00CD0006A080E326F3037003605
:102F50003151005CD8B0006E0136322FF7D7000136
:102F6000120001502EC230F2640E0201316F0001D6
:102F7000E2DF00C02EF20150300E08E102012FA363
:102F80000FD02FB70DD02FB9200E04D002012F97EC
:102F90002F992F81012601C037F2000115DF0201B0
:102FA0002EC230F20A0E316F0001C5DF00C02EF2D2
:102FB0000150300E08E102012FB70AD02FA108D02E
:102FC0002FB9200E0001012601C037F2FDDE0201FB
:102FD000300E2E272EC237F20001F6DE120002015B
:102FE0002D51036E2C51D8B42D072C0703102CE063
:102FF0002951036E2851282BD8B4292B2E6F03C0DA
:103000002FF22B51036E2A512A2BD8B42B2BE96EA9
:1030100003C0EAFFEFCF30F2F250006EF29E2EC2F4
:10302000A9FF30C2A8FFA69CA69EA6840F01550E3C
:10303000A76EAA0EA76EA682A6B2FED7A6940050CF
:10304000F2120001CCD70201000138EF18F0FD5157
:103050009F080EE1FE510B080BE10201296B286B62
:103060002B6BAC0E2A6F2D6B510E2C6F0001B7D756
:10307000FE6BFD6B120078DC01C000F002C001F0B5
:10308000026A036A03C02BF202C02AF201C029F2CD
:1030900000C028F20BDC68DC01C000F002C001F0C7
:1030A000026A036A03C02FF202C02EF201C02DF2A1
:1030B00000C02CF247EC14F002C031F201C030F233
:1030C000020101502E081DE131531BE1000156ECB5
:1030D00014F04ADC01C000F002C001F0026A036A89
:1030E00003C02FF202C02EF201C02DF200C02CF25C
:1030F00002012C5128272D5129232E512A232F51EB
:103100002B232BC245F22AC244F229C243F228C221
:1031100042F2496B486B476B640E466F00015EECF0
:1031200008F002012C5100240001AC6F02012D5166
:1031300001200001AD6F16EC0DF0F6EF22F0090052
:10314000F5520CE0F6CF28F2F7CF29F2F5CF37F29F
:103150003BDE28C2F6FF29C2F7FFF1D73AEF23F092
:1031600003DC02C029F201C028F229C223F028C2E0
:1031700022F00201295327E12851280824E329538A
:1031800003E1285113081FE2140E285D0001F46FBB
:10319000000E020129590001F56FD890F435026E36
:1031A000F535036E0250C50FE96E000E0320EA6E7E
:1031B000ECCF03F0ED52EFCF1AF003C01BF0010E7D
:1031C000016E03D00201000E016E00019AEF23F0A0
:1031D000B4EC14F002C029F201C028F229C221F097
:1031E00028C220F00201295327E12851280824E3AE
:1031F000295303E1285113081FE2140E285D000132
:10320000BC6F000E020129590001BD6FD890BC357A
:10321000026EBD35036E0250C50FE96E000E03202D
:10322000EA6EECCF03F0ED52EFCF1CF003C01DF0BF
:10323000010E016E03D00201000E016E0001EFEFDE
:1032400023F08E0E006E29C201F028C202F0036A3C
:10325000015209E102C001F0026A080E005E01524B
:1032600002E1006A08D0D89001BE04D002360136CF
:103270000006F9D7019EDBEF25F0E95002012D6F22
:103280002C512F6F1CE02BC250F22AC24FF229C2E0
:103290004EF228C24DF2546B536B200E526F820EC9
:1032A000516F0001FEEC0BF003C02BF202C02AF2BA
:1032B00001C029F200C028F202012F2FE4D72BC24F
:1032C00050F22AC24FF229C24EF228C24DF200013A
:1032D00079EC0CF003C02BF202C02AF201C029F2F3
:1032E00000C028F202012BAF0DD02D072D8B281F17
:1032F000291F2A1F2B1F282BD8B4292BD8B42A2BDF
:10330000D8B42B2B3B0E346F9A0E336FCA0E326F2C
:10331000316B0A0E2F6F2C51D8B42D2BD882020E90
:10332000EA6E280EE96E2BC249F22AC248F229C27F
:1033300047F228C246F234C24DF233C24CF232C2D6
:103340004BF231C24AF200018CEC08F001500052FD
:1033500013E102012C292F5DD8A402D000010CD06A
:103360002D510DE00F0B2F5D01E040E22DBF3ED04F
:103370002DBD05D0200E34D0200E02012D172DAB0F
:103380000ED02D9B2C51D8A42D0700502D6F2D0E43
:10339000376F000119DD02012D51006E2D6B2C518C
:1033A0002F5D0CE100502D6F2E0E376F00010CDDEC
:1033B00002012D51006E200E2D17000E300E2DAB88
:1033C0000FD02D9B2C51D8A42D0700502D6F2D0E02
:1033D000376F0001F9DC02012D51006E2D6B300EAC
:1033E000002600C037F20001EFDC0201D89234C29F
:1033F00049F233C248F232C247F231C246F24D6B53
:103400004C6B4B6B0A0E4A6F00018CEC08F003C04A
:1034100034F202C033F201C032F200C031F20201D4
:103420002F2F7CD7000189EF26F0016A026A006A1B
:10343000036A02012F5102E12E5118E0100E306F85
:10344000D8902C372D37003603362F51035C02E11C
:103450002E51005C07E32E51005ED8A003062F51C9
:10346000035ED88001360236302FEAD70001120001
:10347000EF520FE0EACF2FF2E9CF2EF2EFCF37F283
:10348000A3DC2FC2EAFF2EC2E9FFE92AD8B4EA2A58
:10349000EFD7CEEF27F00101BC6BE66B020EBD6FDC
:1034A0003B6B000147EC14F002C029F201C028F286
:1034B000020101503A081FE129531DE1000156ECB9
:1034C00014F0B4EC14F001C0F5F156EC14F002C0A5
:1034D00029F201C028F2020101503A0802E1295301
:1034E00000E10101F5510001F25D02E1F35302E058
:1034F0006EEF29F00201000156EC14F002C029F22F
:1035000001C028F20201295303E12851600808E2B2
:10351000295306E128517A0803E32851DF0B01D033
:1035200028510101E76F000156EC14F002C029F2A6
:1035300001C028F20201295303E12851600808E282
:10354000295306E128517A0803E32851DF0B01D003
:1035500028510101E86F000166EC14F047EC14F00B
:1035600002C029F201C028F2020101500D0806E153
:10357000295304E1010E0101E66F02010101E75147
:103580004C0A000137E0680A57E06C0AD8B483D0CF
:103590000E0AD8B4A3D00B0AD8B41CD1090AD8B4E7
:1035A0009CD1160AD8B420D3050AD8B40CEF21F068
:1035B000040AD8B41BEF21F0060AD8B43AEF21F080
:1035C0001C0AD8B43FEF22F01D0AD8B4FCEF22F059
:1035D000020AD8B40AEF23F0150AD8B46EEF24F02B
:1035E000040AD8B475EF25F0160AD8B4CFEF26F048
:1035F0004FEF29F00101E851490A000103E0060AF2
:1036000016E018D0B4EC14F002C007F201C006F2C4
:1036100002010651B80806E10751440803E1010E12
:103620000101256F010E01013D6F000103D0010171
:10363000256B00016EEF29F00101255304E1000123
:103640006EEF29F00101E851520822E10001B4ECCB
:1036500014F002C007F201C006F202010651B708D9
:1036600003E10751440802E06FEF29F001013C6BD0
:103670000D0E02010A6F0A0E0B6F0C6F2A0E0D6FF2
:103680000E6B020E676F0A0E666F000122EC10F0DF
:1036900000016EEF29F00101255304E100016EEFF6
:1036A00029F00101020EEA6E0F0EE96E016EF76A53
:1036B000000E00012DEC04F00A000900F5CFEEFF2A
:1036C000012EFBD7020E0201676F0F0E666F00011D
:1036D00022EC10F017EF15F06EEF29F001012553E1
:1036E00004E100016EEF29F00101E851520A0001E6
:1036F00001E06ED00101E851520851E1E65326E0A5
:10370000010E9E6FBE0E9D6F040EF66E0B0EF76ED1
:10371000030E02012E6F0001F5EC16F0100EE96E9B
:10372000BBC02FF2BAC02EF209EC17F00D0E020149
:10373000376F0001E4EC16F0010E0201676FBE0E58
:10374000666F000122EC10F028D00101000167EC47
:1037500017F00101F96BF86B02C0F7F101C0F6F147
:10376000F7C1BBF0F6C1BAF0F7C129F2F6C128F2F1
:10377000F7C131F2F6C130F20001D6EC08F03EECB0
:103780000AF0320E02013D6F0001DDEC06F03EEC66
:103790000AF0010E0101BC6F00011AD00101020EF6
:1037A000EA6E0F0EE96E0A0E016EF76A000E000156
:1037B0003DEC04F00A000900F5CFEEFF012EFBD727
:1037C000020E0201676F0F0E666F000122EC10F00F
:1037D0006EEF29F00101255304E100016EEF29F09D
:1037E0000101E8514F085DE1E65324E0010E9E6FB0
:1037F000BE0E9D6F0C0EF66E0B0EF76E030E0201E1
:103800002E6F0001F5EC16F0B0C02EF21B0E020177
:103810002F6F0001B1EC17F00D0E0201376F0001A0
:10382000E4EC16F0010E0201676FBE0E666F000138
:1038300022EC10F00001B4EC14F002C007F201C059
:1038400006F2020107530DE1065103080AE306C21E
:10385000B0F00001E9EC0AF0010E0101BC6F20D0CC
:103860000201020EEA6E0F0EE96E090E016EF76A92
:10387000000E00014AEC04F00A000900F5CFEEFF4B
:10388000012EFBD7020E0201676F0F0E666F00015B
:1038900022EC10F00101BC6B00016EEF29F0010178
:1038A00019D0020EEA6E0F0EE96E090E016EF76A6C
:1038B000000E00014AEC04F00A000900F5CFEEFF0B
:1038C000012EFBD7020E0201676F0F0E666F00011B
:1038D00022EC10F000016EEF29F00101255304E104
:1038E00000016EEF29F00101E851530A000107E0E1
:1038F000030AD8B480D0150AD8B4F9D073D1010125
:10390000E65326E0010E9E6FBE0E9D6F140EF66EFE
:103910000B0EF76E030E02012E6F0001F5EC16F090
:10392000B4C02EF21B0E02012F6F0001B1EC17F094
:103930000D0E0201376F0001E4EC16F0010E0201DA
:10394000676FBE0E666F000122EC10F04FD00101D0
:103950000001B4EC14F002C007F201C006F202014B
:1039600007530AE10651010807E306C2B4F000015B
:1039700017EC0BF03BD00201020EEA6E0F0EE96E5F
:10398000090E016EF76A000E00014AEC04F00A000D
:103990000900F5CFEEFF012EFBD7020E0201676F83
:1039A0000F0E666F000122EC10F0010E01019E6FF8
:1039B000720E9D6F1C0EF66E0B0EF76E070E020157
:1039C0002E6F0001F5EC16F0B4C02EF21B0E0201B2
:1039D0002F6F0001B1EC17F00D0E0201376F0001DF
:1039E000E4EC16F00101BC6B0001FCD0010E0101FA
:1039F000BC6F0001F7D00101E65326E0010E9E6F77
:103A0000BE0E9D6F280EF66E0B0EF76E030E0201B2
:103A10002E6F0001F5EC16F0B2C02EF21B0E020163
:103A20002F6F0001B1EC17F00D0E0201376F00018E
:103A3000E4EC16F0010E0201676FBE0E666F000126
:103A400022EC10F04FD001010001B4EC14F002C0E0
:103A500007F201C006F2020107530AE1065101080C
:103A600007E306C2B2F00001E9EC0AF03BD0020124
:103A7000020EEA6E0F0EE96E090E016EF76A000E75
:103A800000014AEC04F00A000900F5CFEEFF012E18
:103A9000FBD7020E0201676F0F0E666F000122EC6A
:103AA00010F0010E01019E6F720E9D6F300EF66ECA
:103AB0000B0EF76E070E02012E6F0001F5EC16F0EB
:103AC000B2C02EF21B0E02012F6F0001B1EC17F0F5
:103AD0000D0E0201376F0001E4EC16F00101BC6B22
:103AE000000180D0010E0101BC6F00017BD00101FB
:103AF000E65326E0010E9E6FBE0E9D6F3C0EF66EE5
:103B00000B0EF76E030E02012E6F0001F5EC16F09E
:103B1000B8C02EF21B0E02012F6F0001B1EC17F09E
:103B20000D0E0201376F0001E4EC16F0010E0201E8
:103B3000676FBE0E666F000122EC10F04FD00101DE
:103B40000001B4EC14F002C007F201C006F2020159
:103B500007530AE10651010807E306C2B8F0000165
:103B6000E9EC0AF03BD00201020EEA6E0F0EE96E9C
:103B7000090E016EF76A000E00014AEC04F00A001B
:103B80000900F5CFEEFF012EFBD7020E0201676F91
:103B90000F0E666F000122EC10F0010E01019E6F06
:103BA000720E9D6F440EF66E0B0EF76E070E02013D
:103BB0002E6F0001F5EC16F0B8C02EF21B0E0201BC
:103BC0002F6F0001B1EC17F00D0E0201376F0001ED
:103BD000E4EC16F00101BC6B000104D0010E010100
:103BE000BC6F00016EEF29F00101255304E10001D3
:103BF0006EEF29F00101410EE85DF00FD8B009D356
:103C0000100F000172EF29F00101E65326E0010ECA
:103C10009E6FBE0E9D6F500EF66E0B0EF76E030E6E
:103C200002012E6F0001F5EC16F0B7C02EF21B0E4C
:103C300002012F6F0001B1EC17F00D0E0201376F7A
:103C40000001E4EC16F0010E0201676FBE0E666F14
:103C5000000122EC10F07ED001010001B4EC14F060
:103C600002C007F201C006F20201075339E1065112
:103C7000010836E30001F82D0FD0F9530DE10201E0
:103C8000065307E1075305E10001FB6B010EFA6FD4
:103C900003D00001FB6BFA6B0201062D11D0075314
:103CA0000FE10001FB6BFA6BFAC09AF1320E0201D0
:103CB0003D6F0001DDEC06F090EC0DF00FD002013D
:103CC0000001FB6B010EFA6FFAC09AF1320E02018D
:103CD0003D6F0001DDEC06F090EC0DF03BD00201F1
:103CE000020EEA6E0F0EE96E090E016EF76A000E03
:103CF00000014AEC04F00A000900F5CFEEFF012EA6
:103D0000FBD7020E0201676F0F0E666F000122ECF7
:103D100010F0010E01019E6F720E9D6F580EF66E2F
:103D20000B0EF76E070E02012E6F0001F5EC16F078
:103D30009AC12EF21B0E02012F6F0001B1EC17F099
:103D40000D0E0201376F0001E4EC16F00101BC6BAF
:103D500060D20001010E0101BC6F5BD20101E6538C
:103D600026E0010E9E6FBE0E9D6F640EF66E0B0E6A
:103D7000F76E030E02012E6F0001F5EC16F09BC1E9
:103D80002EF21B0E02012F6F0001B1EC17F00D0E89
:103D90000201376F0001E4EC16F0010E0201676FBB
:103DA000BE0E666F000122EC10F0B2D001010001DE
:103DB000B4EC14F002C007F201C006F2020106538F
:103DC00034E1075332E10001F651F71103E1F851F4
:103DD000F91113E001019B6B0001AF6B9BC1AEF0C9
:103DE0003C0E02013D6F0001DDEC06F090EC0DF0A1
:103DF000010E0101BC6F17D00001F65302E1F75329
:103E000003E0F851F9110EE001019B6B0001AF6B6B
:103E10009BC1AEF03C0E02013D6F0001DDEC06F0EF
:103E200090EC0DF0010173D00201062D37D007533D
:103E300035E10001F651F71116E0010E01019B6F0B
:103E40000001AF6B9BC1AEF0C5EC0DF0320E02016C
:103E50003D6F0001DDEC06F0010E0101BC6F0001B9
:103E600090EC0DF019D0F65317E1F75315E1010E60
:103E700001019B6F0001AF6B9BC1AEF0C5EC0DF073
:103E8000320E02013D6F0001DDEC06F0010E010172
:103E9000BC6F000190EC0DF03BD00201020EEA6E07
:103EA0000F0EE96E090E016EF76A000E00014AEC72
:103EB00004F00A000900F5CFEEFF012EFBD7020E39
:103EC0000201676F0F0E666F000122EC10F0010E09
:103ED00001019E6F720E9D6F6C0EF66E0B0EF76EEB
:103EE000070E02012E6F0001F5EC16F09BC12EF2B9
:103EF0001B0E02012F6F0001B1EC17F00D0E020135
:103F0000376F0001E4EC16F00101BC6B82D10001B7
:103F1000010E0101BC6F7DD10101E65326E0010EC7
:103F20009E6FBE0E9D6F780EF66E0B0EF76E030E33
:103F300002012E6F0001F5EC16F0100EE96EF9C0CB
:103F40002FF2F8C02EF209EC17F00D0E0201376FB8
:103F50000001E4EC16F0010E0201676FBE0E666F01
:103F6000000122EC10F049D001010001B4EC14F082
:103F700002C007F201C006F20201075325E1065113
:103F8000010822E306530EE107530CE10001F96B2F
:103F9000F86B320E02013D6F0001DDEC06F090EC93
:103FA0000DF00201062D0FD007530DE10001F96B52
:103FB000010EF86F320E02013D6F0001DDEC06F0DC
:103FC00090EC0DF002011AD0020EEA6E0F0EE96EAF
:103FD0000A0E016EF76A000E00013DEC04F00A00C3
:103FE0000900F5CFEEFF012EFBD7020E0201676F2D
:103FF0000F0E666F000122EC10F00201010109D1E1
:104000000101E65326E0010E9E6FBE0E9D6F800EED
:10401000F66E0B0EF76E030E02012E6F0001F5EC2B
:1040200016F0100EE96EF7C02FF2F6C02EF209EC72
:1040300017F00D0E0201376F0001E4EC16F0010ECF
:104040000201676FBE0E666F000122EC10F058D0BF
:1040500001010001B4EC14F002C007F201C006F245
:104060000201075334E10651010831E306510711FB
:1040700021E007C2F7F006C2F6F001019B530EE102
:104080009B2D01D001D0000E320E02013D6F0001C8
:10409000DDEC06F090EC0DF004D001019B5301E043
:1040A000000E320E02013D6F0001DDEC06F090ECD7
:1040B0000DF0020107C2F7F006C2F6F0460E3D6FA2
:1040C0000001DDEC06F090EC0DF01AD00201020EBA
:1040D000EA6E0F0EE96E0A0E016EF76A000E00011D
:1040E0003DEC04F00A000900F5CFEEFF012EFBD7EE
:1040F000020E0201676F0F0E666F000122EC10F0D6
:10410000010187D00101E65326E0010E9E6FBE0E2D
:104110009D6F880EF66E0B0EF76E030E02012E6F6A
:104120000001F5EC16F0B6C02EF21B0E02012F6F47
:104130000001B1EC17F00D0E0201376F0001E4EC45
:1041400016F0010E0201676FBE0E666F000122ECD1
:1041500010F051D001010001B4EC14F002C007F2DC
:1041600001C006F2020107530DE1065101080AE3FE
:1041700006C2B6F00001E9EC0AF0010E0101BC6FC5
:104180003AD00201020EEA6E0F0EE96E090E016EC0
:10419000F76A000E00014AEC04F00A000900F5CFAE
:1041A000EEFF012EFBD7020E0201676F0F0E666F46
:1041B000000122EC10F0010E01019E6F720E9D6F46
:1041C000900EF66E0B0EF76E070E02012E6F0001B9
:1041D000F5EC16F0B6C02EF21B0E02012F6F000197
:1041E000B1EC17F00D0E0201376F0001E4EC16F090
:1041F0000101BC6B0ED0010E0101BC6F0AD02BEC8B
:1042000007F090EC0DF0010E0101BC6F02D0FF0031
:10421000010100016EEF29F00101255304E10001C5
:104220006EEF29F00101E851410802E1010EBC6F77
:1042300000016EEF29F00101255304E100016EEF4A
:1042400029F00101E851500A000103E0060A06E0E6
:104250000FD0010E0101BC6F00010AD00B0EFE6FE2
:104260009F0EFD6F27EC18F0010E0101BC6F0001DD
:104270006EEF29F00101255304E100016EEF29F0F2
:104280000101E851540A000104E0070AD8B47FD0C4
:10429000F4D00101E65326E0010E9E6FBE0E9D6F25
:1042A0009C0EF66E0B0EF76E030E02012E6F0001D0
:1042B000F5EC16F0FCC02EF21B0E02012F6F000170
:1042C000B1EC17F00D0E0201376F0001E4EC16F0AF
:1042D000010E0201676FBE0E666F000122EC10F046
:1042E00050D001010001B4EC14F002C007F201C08B
:1042F00006F2020107530BE10651EF0808E30753EA
:1043000003E10651010803E206C2FCF03BD0020EB5
:10431000EA6E0F0EE96E090E016EF76A000E0001DB
:104320004AEC04F00A000900F5CFEEFF012EFBD79E
:10433000020E0201676F0F0E666F000122EC10F093
:10434000010E01019E6F720E9D6FA40EF66E0B0E94
:10435000F76E070E02012E6F0001F5EC16F0FCC09F
:104360002EF21B0E02012F6F0001B1EC17F00D0EA3
:104370000201376F0001E4EC16F00101BC6B000193
:104380007CD00201010E0101BC6F000176D0010159
:10439000E65326E0010E9E6FBE0E9D6FB00EF66EC8
:1043A0000B0EF76E030E02012E6F0001F5EC16F0F6
:1043B00026C12EF21B0E02012F6F0001B1EC17F087
:1043C0000D0E0201376F0001E4EC16F0010E020140
:1043D000676FBE0E666F000122EC10F04BD001013A
:1043E0000001B4EC14F002C007F201C006F20201B1
:1043F000075306E10651010803E306C226F13BD04C
:10440000020EEA6E0F0EE96E090E016EF76A000EDB
:1044100000014AEC04F00A000900F5CFEEFF012E7E
:10442000FBD7020E0201676F0F0E666F000122ECD0
:1044300010F0010E01019E6F720E9D6FB80EF66EA8
:104440000B0EF76E070E02012E6F0001F5EC16F051
:1044500026C12EF21B0E02012F6F0001B1EC17F0E6
:104460000D0E0201376F0001E4EC16F00101BC6B88
:10447000000103D00201000100D06EEF29F001011C
:10448000255304E100016EEF29F00101E851440ACF
:10449000000104E0070AD8B47DD0ACD00101E65396
:1044A00026E0010E9E6FBE0E9D6FC40EF66E0B0EC3
:1044B000F76E030E02012E6F0001F5EC16F0B5C089
:1044C0002EF21B0E02012F6F0001B1EC17F00D0E42
:1044D0000201376F0001E4EC16F0010E0201676F74
:1044E000BE0E666F000122EC10F04FD001010001FA
:1044F000B4EC14F002C007F201C006F20201075347
:104500000AE10651030807E306C2B5F0000117EC03
:104510000BF03BD00201020EEA6E0F0EE96E090E9F
:10452000016EF76A000E00014AEC04F00A0009006F
:10453000F5CFEEFF012EFBD7020E0201676F0F0EC3
:10454000666F000122EC10F0010E01019E6F720EE9
:104550009D6FCC0EF66E0B0EF76E070E02012E6FDE
:104560000001F5EC16F0B5C02EF21B0E02012F6F04
:104570000001B1EC17F00D0E0201376F0001E4EC01
:1045800016F00101BC6B000135D0010E0101BC6FBA
:10459000000130D00101E65326E0010E9E6FBE0EF1
:1045A0009D6FD80EF66E0B0EF76E030E02012E6F86
:1045B0000001F5EC16F0100EE96EADC02FF2ACC0A4
:1045C0002EF209EC17F00D0E0201376F0001E4EC3A
:1045D00016F0010E0201676FBE0E666F000122EC3D
:1045E00010F004D0010100013BEF18F0010E0101B1
:1045F000BC6F00016EEF29F00101255304E10001B9
:104600006EEF29F00101E851450801E1BAD200013D
:104610006EEF29F00101255304E100016EEF29F04E
:104620000101E851450A00010DE0090AD8B47BD028
:104630001C0AD8B49ED01D0AD8B4D6D00E0AD8B45D
:104640000ED14AD10101E851450852E1010E9E6F99
:10465000BE0E9D6FE00EF66E0B0EF76E030E02019E
:104660002E6F0001F5EC16F0BE0EF66E080EF76E1A
:104670009FEF18F0E50EF66E0B0EF76E040E0201BA
:104680002E6F0001F5EC16F00B0EE96EF3C02FF261
:10469000F2C02EF209EC17F0EE0EF66E0B0EF76E6E
:1046A000040E02012E6F0001F5EC16F00B0EE96E00
:1046B000F0C02FF2EFC02EF209EC17F0F1C02EF28D
:1046C000010E02012F6F0001B1EC17F00D0E020177
:1046D000376F0001E4EC16F0010E0201676FBE0EA9
:1046E000666F000122EC10F0010E0101BC6F19D0C1
:1046F000020EEA6E0F0EE96E090E016EF76A000EE9
:1047000000014AEC04F00A000900F5CFEEFF012E8B
:10471000FBD7020E0201676F0F0E666F000122ECDD
:1047200010F00001D9D00101E8514C0807E1000167
:10473000B0EF18F0010E0101BC6F19D0020EEA6E45
:104740000F0EE96E090E016EF76A000E00014AECC9
:1047500004F00A000900F5CFEEFF012EFBD7020E90
:104760000201676F0F0E666F000122EC10F000016E
:10477000B3D00101E65330E0140E0001BC25020164
:10478000286F000E0001BD210201296F010E0101F9
:104790009E6FBE0E9D6FFE0EF66E0B0EF76E030E35
:1047A00002012E6F0001F5EC16F0100EE96E29C221
:1047B0002FF228C22EF209EC17F00D0E0201376F0E
:1047C0000001E4EC16F0010E0201676FBE0E666F89
:1047D000000122EC10F003D00001E8EF18F0010E08
:1047E0000101BC6F000178D00101E65326E0010E03
:1047F0009E6FBE0E9D6F060EF66E0C0EF76E030ECC
:1048000002012E6F0001F5EC16F0100EE96E25C0C6
:104810002FF224C02EF209EC17F00D0E0201376FB3
:104820000001E4EC16F0010E0201676FBE0E666F28
:10483000000122EC10F012D001010001B4EC14F0E0
:1048400002C025F001C024F0010E02012C6F07C246
:104850002EF206C22DF2000144EC07F03DD001011A
:10486000E65326E0010E9E6FBE0E9D6F0E0EF66E95
:104870000C0EF76E030E02012E6F0001F5EC16F020
:10488000100EE96E27C02FF226C02EF209EC17F0A9
:104890000D0E0201376F0001E4EC16F0010E02016B
:1048A000676FBE0E666F000122EC10F015D001019B
:1048B0000001B4EC14F002C007F201C006F207C216
:1048C00027F006C226F002012C6B07C22EF206C2A8
:1048D0002DF2000144EC07F06EEF29F001012553A1
:1048E00004E100016EEF29F00101E8515308D8A45A
:1048F0007BD0E65326E0010E9E6FBE0E9D6F160E16
:10490000F66E0C0EF76E030E02012E6F0001F5EC31
:1049100016F0B3C02EF21B0E02012F6F0001B1EC96
:1049200017F00D0E0201376F0001E4EC16F0010ED6
:104930000201676FBE0E666F000122EC10F050D0CE
:1049400001010001B4EC14F002C007F201C006F24C
:10495000020107530AE10651010807E306C2B3F05A
:10496000000117EC0BF03CD00201020EEA6E0F0EB4
:10497000E96E090E016EF76A000E00014AEC04F0C0
:104980000A000900F5CFEEFF012EFBD7020E02014F
:10499000676F0F0E666F000122EC10F0010E01012F
:1049A0009E6F720E9D6F1E0EF66E0C0EF76E070E4A
:1049B00002012E6F0001F5EC16F0B3C02EF21B0EB3
:1049C00002012F6F0001B1EC17F00D0E0201376FDD
:1049D0000001E4EC16F00101BC6B00016EEF29F060
:1049E000010E0101BC6F7ED0E8515008D8A47AD0E6
:1049F000E65326E0010E9E6FBE0E9D6F2A0EF66EE8
:104A00000C0EF76E030E02012E6F0001F5EC16F08E
:104A1000B1C02EF21B0E02012F6F0001B1EC17F096
:104A20000D0E0201376F0001E4EC16F0010E0201D9
:104A3000676FBE0E666F000122EC10F050D00101CE
:104A40000001B4EC14F002C007F201C006F202014A
:104A500007530AE10651010807E306C2B1F000015D
:104A6000E9EC0AF03CD00201020EEA6E0F0EE96E8C
:104A7000090E016EF76A000E00014AEC04F00A000C
:104A80000900F5CFEEFF012EFBD7020E0201676F82
:104A90000F0E666F000122EC10F0010E01019E6FF7
:104AA000720E9D6F320EF66E0C0EF76E070E02013F
:104AB0002E6F0001F5EC16F0B1C02EF21B0E0201B4
:104AC0002F6F0001B1EC17F00D0E0201376F0001DE
:104AD000E4EC16F00101BC6B00016EEF29F0010E51
:104AE0000101BC6F00016EEF29F00101255304E1C3
:104AF00000016EEF29F00101E851500A000106E0C3
:104B0000040A3EE0060AD8B434D147D1140E016E2F
:104B1000C250830B0110C26E420E006E002EFED7F3
:104B20000000C282C2B2FED7C4CF07F20201C3CFD7
:104B300006F2010E01019E6F720E9D6F3E0EF66E23
:104B40000C0EF76E040E02012E6F0001F5EC16F04C
:104B5000100EE96E07C22FF206C22EF209EC17F012
:104B60000D0E0201376F0001E4EC16F00A0E02018F
:104B7000376F0001E4EC16F00101BC6B00010DD1B0
:104B80000101180E016EC250830B0110C26E420E5D
:104B9000006E002EFED70000C282C2B2FED7C4CF84
:104BA00007F20201C3CF06F207C229F206C228F2B9
:104BB000000121EF19F000C028F201C029F202C063
:104BC0002AF203C02BF203C050F202C04FF201C020
:104BD0004EF200C04DF20201546B536B526B890EC2
:104BE000516F00014FEC0BF000C028F201C029F218
:104BF00002C02AF203C02BF203C050F202C04FF2EF
:104C000001C04EF200C04DF2330E0201546F536FDB
:104C1000530E526F800E516F0001FEEC0BF003C07B
:104C200005F202C004F201C003F200C002F2D88211
:104C300005C22BF204C22AF203C229F202C228F2F0
:104C400002012F6B2E6B400E2D6F7E0E2C6F00011C
:104C50005BEC11F003C005F202C004F201C003F2E4
:104C600000C002F205C250F204C24FF203C24EF27B
:104C700002C24DF20201546B536B480E526F850E07
:104C8000516F0001FEEC0BF003C005F202C004F20C
:104C900001C003F200C002F2D89205C22BF204C296
:104CA0002AF203C229F202C228F202012F6B2E6BF4
:104CB000480E2D6F830E2C6F00015BEC11F003C0CA
:104CC00005F202C004F201C003F200C002F2AE51CC
:104CD000AF112DE0010E01019E6F720E9D6F480E07
:104CE000F66E0C0EF76E060E02012E6F0001F5EC4B
:104CF00016F0050EE96E05C22BF204C22AF203C2B9
:104D000029F202C228F2020E02012C6F00013DEFCF
:104D100019F0530EF66E0C0EF76E080E02012E6F90
:104D20000001F5EC16F00101BC6B21D0000102017D
:104D3000056B046B036B026B020EEA6E0F0EE96EDD
:104D4000150E016EF76A000E000167EC04F00A0010
:104D50000900F5CFEEFF012EFBD7020E0201676FAF
:104D60000F0E666F000122EC10F00101BC6B000118
:104D700014D0100E016EC250830B0110C26E1A0EB9
:104D8000006E002EFED70000C282C2B2FED7C4CF92
:104D900004F10101C3CF03F10001A0D29FD2020EA2
:104DA000EA6E0F0EE96E190E016EF76A000E7AECCC
:104DB00004F00A000900F5CFEEFF012EFBD7020E2A
:104DC0000201676F0F0E666F000122EC10F0020EF9
:104DD000EA6E0F0EE96E016EF76A000E57EC04F0F2
:104DE0000A000900F5CFEEFF012EFBD7020E0201EB
:104DF000676F0F0E666F000122EC10F0010E0101CB
:104E00009E6FBE0E9D6F5C0EF66E0C0EF76E050E5D
:104E100002012E6F0001F5EC16F0100EE96EF3C0E2
:104E20002FF2F2C02EF209EC17F0640EF66E0C0EA3
:104E3000F76E040E02012E6F0001F5EC16F00B0E5A
:104E4000E96EF0C02FF2EFC02EF209EC17F0F1C0BE
:104E50002EF2010E02012F6F0001B1EC17F00D0EC2
:104E60000201376F0001E4EC16F0010E0201676FDA
:104E7000BE0E666F000122EC10F0100E016EC250E3
:104E8000830B0110C26E1A0E006E002EFED70000BA
:104E9000C282C2B2FED7C4CF04F10101C3CF03F175
:104EA0000451020814E303E10351440810E3010E26
:104EB000EA6EE90EE96E000E00018FEC04F00A00C4
:104EC0000900F550EE6E0009FBE10FD00101010E63
:104ED000EA6EE90EE96E000E00019AEC04F00A0099
:104EE0000900F550EE6E0009FBE1FA51FB1104E0F8
:104EF0000201096B086B04D00201096B010E086FF7
:104F0000140E0001BC250201286F000E0001BD2116
:104F10000201296FADC02DF2ACC02CF22F6B640ED4
:104F20002E6F000115EC1AF002C02BF201C02AF21C
:104F3000ADC02DF2ACC02CF202012F6B640E2E6FAF
:104F4000000115EC1AF000C02CF203C02DF2010E86
:104F500001019E6FBE0E9D6F740EF66E0C0EF76E05
:104F6000080E02012E6F0001F5EC16F0100EE96E2E
:104F7000BBC02FF2BAC02EF209EC17F07F0EF66E0E
:104F80000C0EF76E060E02012E6F0001F5EC16F006
:104F9000010EEA6EE90EE96E38EF1AF0870EF66E32
:104FA0000C0EF76E070E02012E6F0001F5EC16F0E5
:104FB000100EE96E29C22FF228C22EF209EC17F06A
:104FC000910EF66E0C0EF76E050E02012E6F0001AB
:104FD000F5EC16F0100EE96E2BC22FF22AC22EF25B
:104FE00009EC17F02E0E0201376F0001E4EC16F009
:104FF000100EE96E2DC22FF22CC22EF209EC17F022
:105000009D0EF66E0C0EF76E090E02012E6F00015A
:10501000F5EC16F0B0C02EF21B0E02012F6F00014E
:10502000B1EC17F0A80EF66E0C0EF76E050E02012D
:105030002E6F0001F5EC16F0B3C02EF21B0E02012C
:105040002F6F0001B1EC17F0AF0EF66E0C0EF76E7D
:10505000050E02012E6F0001F5EC16F0100EE96E40
:10506000AFC02FF2AEC02EF209EC17F00D0E020108
:10507000376F0001E4EC16F0010E0201676FBE0EFF
:10508000666F000122EC10F0140EF4250201286F67
:10509000000E0001F5210201296F010E01019E6F32
:1050A000BE0E9D6FBA0EF66E0C0EF76E060E020166
:1050B0002E6F0001F5EC16F0B8C02EF21B0E0201A7
:1050C0002F6F0001B1EC17F0C20EF66E0C0EF76EEA
:1050D000050E02012E6F0001F5EC16F0B6C02EF29F
:1050E0001B0E02012F6F0001B1EC17F0C90EF66E16
:1050F0000C0EF76E050E02012E6F0001F5EC16F096
:10510000B2C02EF21B0E02012F6F0001B1EC17F09E
:10511000D00EF66E0C0EF76E050E02012E6F00011A
:10512000F5EC16F0100EE96E09C22FF208C22EF24D
:1051300009EC17F0D80EF66E0C0EF76E050E020194
:105140002E6F0001F5EC16F0B4C02EF21B0E02011A
:105150002F6F0001B1EC17F0DF0EF66E0C0EF76E3C
:10516000050E02012E6F0001F5EC16F0B5C02EF20F
:105170001B0E02012F6F0001B1EC17F0E60EF66E68
:105180000C0EF76E050E02012E6F0001F5EC16F005
:10519000100EE96E29C22FF228C22EF209EC17F088
:1051A000EE0EF66E0C0EF76E050E02012E6F00016C
:1051B000F5EC16F0100EE96EF7C02FF2F6C02EF2E5
:1051C00009EC17F0F60EF66E0C0EF76E050E0201E6
:1051D0002E6F0001F5EC16F0100EE96EF9C02FF2FB
:1051E000F8C02EF209EC17F0FE0EF66E0C0EF76EFC
:1051F000050E02012E6F0001F5EC16F0B1C02EF283
:105200001B0E02012F6F0001B1EC17F00D0E020111
:10521000376F0001E4EC16F0010E0201676FBE0E5D
:10522000666F000122EC10F0010E01019E6FBE0EB0
:105230009D6F080EF66E0D0EF76E060E02012E6FB4
:105240000001F5EC16F0FCC02EF21B0E02012F6FD0
:105250000001B1EC17F0100EF66E0D0EF76E050E94
:1052600002012E6F0001F5EC16F026C12EF21B0E86
:1052700002012F6F0001B1EC17F00D0E0201376F24
:105280000001E4EC16F0010E0201676FBE0E666FBE
:10529000000122EC10F0010174D400011FD00101C3
:1052A000255303E100011AD00101020EEA6E0F0E30
:1052B000E96E090E016EF76A000E00014AEC04F077
:1052C0000A000900F5CFEEFF012EFBD7020E020106
:1052D000676F0F0E666F000122EC10F002010001F3
:1052E000ECEF29F0E824F76AF736FF0FF66E520E5E
:1052F000F7220A00F550FA6E0800F550F96E0441E5
:105300000040183F12420E425C3D124212421242CD
:1053100012421242FE41124212421242083C5850BE
:10532000000A06E0020A1BE0010AD8B4A6D0A5D004
:10533000596A020E586EAB6BAA6B010125530DE042
:105340000D0EB66F3E0EB76FB86B010E0201676FA0
:10535000B60E666F000122EC10F000018ED03552BF
:10536000D8B475D0AB6BAA6B31EC14F00101B36B00
:1053700001C0B2F15950592A036A5A0FE96E000E62
:105380000320EA6EB2C1EFFF5950460804E2586AA2
:10539000000173D00101B2510D0802E1B35305E0E1
:1053A000B2513B0855E1B35353E1B2513B080EE112
:1053B000B3530CE1010E595C036A5A0FE96E000EFB
:1053C0000320EA6E0D0EEF6E596A03D00001A0ECC7
:1053D00006F000014BEF1AF001013D5305E02553A3
:1053E00003E100014AD001010D0EB66F0A0EB76F3E
:1053F0004F0EB86F4B0EB96F0A0EBA6FBB6B010E32
:105400000201676FB60E666F000122EC10F0010119
:10541000B42D15D0B55313E1255303E100012DD070
:1054200001010A0EB66F0D0EB76FB86B010E0201C7
:10543000676FB60E666F000122EC10F008D0010E07
:105440000201676F720E666F000122EC10F001011D
:105450005850010810E22EA20ED02E920001AA2B65
:10546000D8B4AB2BAB51260806E2FF0A03E1AA51E0
:10547000100801E2586A000100D0C5EF32F08A92AC
:105480000201036B0351070813E30051800B02E193
:105490008C9801D08C8800D000D08C8000D000D0B7
:1054A0008C9000D000D00351032BD8900037EAD75E
:1054B000036B0351070813E30151800B02E18C9841
:1054C00001D08C8800D000D08C8000D000D08C908F
:1054D00000D000D00351032BD8900137EAD78A823D
:1054E00002C201F000011200CCC1CEF1CDC1CFF15A
:1054F000020E02013D6F010E3F6FCE0E3E6F0001A6
:10550000B2EC0AF012000101C951690A000119E068
:10551000200A2FE02D0A45E0200A5DE06F0AD8B48A
:1055200074D0160AD8B499D0100AD8B4BED0720A72
:10553000D8B4E5D0610AD8B40CD1020AD8B415D1D8
:105540001ED10101692B06E16A2B6A51030802E2B0
:10555000696B6A6B0B0E0201006F69C101F20001F9
:105560008EDF0C0E0201006F6AC101F2000187DFBD
:1055700006D101016D2B06E16E2B6E51030802E28C
:105580006D6B6E6B0F0E0201006F6DC101F20001B9
:1055900076DF100E0201006F6EC101F200016FDFB5
:1055A000EED001016907693D07D06A076A51030817
:1055B00003E26969030E6A6F0B0E0201006F69C195
:1055C00001F200015CDF0C0E0201006F6AC101F202
:1055D000000155DFD4D001016D076D3D07D06E0786
:1055E0006E51030803E26D69030E6E6F0F0E020128
:1055F000006F6DC101F2000142DF100E0201006F69
:105600006EC101F200013BDFBAD001016BC1CAF1EA
:105610006C51030BCB6FCA2BD8B4CB2BCB510308E7
:1056200002E2CB6BCA6B6C51C00BCC6F000ECA137D
:10563000CC51CB13CAC16BF1CBC16CF10B0E020183
:10564000006F6BC101F200011ADF0C0E0201006F46
:105650006CC101F2000113DF92D001016FC1CAF1E8
:105660007051030BCB6FCA2BD8B4CB2BCB51030893
:1056700002E2CB6BCA6B7051C00BCC6F000ECA1329
:10568000CC51CB13CAC16FF1CBC170F10B0E02012B
:10569000006F6FC101F20001F2DE0C0E0201006F1B
:1056A00070C101F20001EBDE6AD001016BC1CAF1E9
:1056B0006C51030BCB6FCA51D8B4CB07CA07CB517F
:1056C000030803E2030ECB6FCA696C51C00BCC6FA9
:1056D000000ECA13CC51CB13CAC16BF1CBC16CF114
:1056E0000B0E0201006F6BC101F20001C8DE0C0E4F
:1056F0000201006F6CC101F20001C1DE40D0010166
:105700006FC1CAF17051030BCB6FCA51D8B4CB072C
:10571000CA07CB51030803E2030ECB6FCA6970516D
:10572000C00BCC6F000ECA13CC51CB13CAC16FF1A2
:10573000CBC170F10B0E0201006F6FC101F20001CD
:105740009EDE0C0E0201006F70C101F2000197DEB7
:1057500016D0BE3D01D001D0BE2B010E0101CC6F91
:10576000BEC0CDF10001C0DE0AD0BE5301E0BE07CD
:10577000010E0101CC6FBEC0CDF10001B5DE14EF0A
:1057800032F00D0E0201006F0A0E016F026B020E65
:10579000676F666B000122EC10F0020EEA6EE96A98
:1057A0003D0E016EF76A000E89EC00F00A00090058
:1057B000F5CFEEFF012EFBD7020E0201676F666B7D
:1057C000000122EC10F0020EEA6EE96A2E0E016E64
:1057D000F76A000EB0EC00F00A000900F5CFEEFF0A
:1057E000012EFBD7020E0201676F666B000122ECEF
:1057F00010F0020EEA6EE96A420E016EF76A000EC0
:10580000CFEC00F00A000900F5CFEEFF012EFBD728
:10581000020E0201676F666B000122EC10F0020EAF
:10582000EA6EE96A230E016EF76A000EF8EC00F0EA
:105830000A000900F5CFEEFF012EFBD7020E020190
:10584000676F666B000122EC10F0020EEA6EE96AE7
:105850002D0E016EF76A000E12EC01F00A0009002D
:10586000F5CFEEFF012EFBD7020E0201676F666BCC
:10587000000122EC10F0020EEA6EE96A2E0E016EB3
:10588000F76A000E31EC01F00A000900F5CFEEFFD7
:10589000012EFBD7020E0201676F666B000122EC3E
:1058A00010F0020EEA6EE96A360E016EF76A000E1B
:1058B00050EC01F00A000900F5CFEEFF012EFBD7F6
:1058C000020E0201676F666B000122EC10F0020EFF
:1058D000EA6EE96A160E016EF76A000E73EC01F0CB
:1058E0000A000900F5CFEEFF012EFBD7020E0201E0
:1058F000676F666B000122EC10F0020EEA6EE96A37
:105900003C0E016EF76A000E86EC01F00A000900F9
:10591000F5CFEEFF012EFBD7020E0201676F666B1B
:10592000000122EC10F0020EEA6EE96A3D0E016EF3
:10593000F76A000EACEC01F00A000900F5CFEEFFAB
:10594000012EFBD7020E0201676F666B000122EC8D
:1059500010F00D0E0201006F0A0E016F026B020EB5
:10596000676F666B000122EC10F0C9EF2EF00201A8
:1059700001BF12D00F0E006E003900160A0E005C37
:1059800003E2300E002602D00151002600C037F29B
:105990000001E4EC16F002010F0E00170A0E005D84
:1059A00002E2300E02D0019F0151002700C237F2FF
:1059B0000001E4EC16F0120066EC14F047EC14F071
:1059C00001500210D8B46BD00201036B026B016B63
:1059D000006B000147EC14F002C006F201C005F2B2
:1059E0000201065303E105512F0805E2065303E1C6
:1059F0000551390814E2065303E10551400805E258
:105A0000065303E1055146080AE2065303E1055136
:105A1000600844E2065342E1055166083FE3000195
:105A200056EC14F001C004F202010451600806E2D1
:105A300004517A0803E30451DF0B01D00451046FD1
:105A40000451390803E3300E045F02D0370E045FBF
:105A50000035056F0135066F0235076F0335086F96
:105A6000053706370737083705370637073708374A
:105A70000537063707370837F00E0517016A026A3F
:105A8000036A04510525006F01500621016F025081
:105A90000721026F03500821036F9BD7000100C24A
:105AA00000F001C201F002C202F003C203F01200D2
:105AB00066EC14F0036A01013B515A0FE96E000EC7
:105AC0000320EA6EEF5247E00201036B026B016BA9
:105AD000006B036A01013B515A0FE96E000E03206F
