:04000000CBEF2DF025
:08000800046ED8CF05F0E0CF33
:1000100006F00001E9CF0CF0EACF07F0E1CF08F0DD
:10002000E2CF09F0D9CF0AF0DACF0BF0F3CF12F01C
:10003000F4CF13F0FACF14F0F5CF15F0F6CF16F099
:10004000F7CF17F000C00EF001C00FF002C010F0A3
:1000500003C011F09DA230EF00F09EB276EF04F0E5
:10006000F2A836EF00F0F2B28EEF04F0F0A63CEF0B
:1000700000F0F0B091EF04F09DAA42EF00F09EBABC
:1000800094EF04F07DA048EF00F07EB073EF04F031
:100090000EC000F00FC001F010C002F011C003F05C
:1000A0000CC0E9FF07C0EAFF078E08C0E1FF09C0E6
:1000B000E2FF0AC0D9FF0BC0DAFF12C0F3FF13C082
:1000C000F4FF14C0FAFF15C0F5FF16C0F6FF17C005
:1000D000F7FF045006C0E0FF05C0D8FF1000F76A24
:1000E000EE0FF66E000EF7220900F5501200000028
:1000F000DC0091810008C25E0018B30400003C00DF
:10010000950000004000F76A160FF66E010EF72208
:100110000900F5501200244149203C6368616E6E6D
:10012000656C3E3C63723E202009526571756573B3
:100130007420616E616C6F67206368616E6E656CC0
:100140002076616C756520283130206269747329CE
:100150000D0A0000F76A640FF66E010EF72209001F
:10016000F5501200244154203C6C6576656C3E3C91
:1001700063723E20200953657420617474656E7546
:1001800061746F7220746F203C6C6576656C3E0DF7
:100190000A00F76AA20FF66E010EF7220900F55069
:1001A0001200244346203C667265713E3C63723EF9
:1001B0002020094368616E67652066726571756508
:1001C0006E63792028323138352E30202D2032339D
:1001D00030302E3020696E20302E3120696E6373EE
:1001E000290D0A00F76AF40FF66E010EF7220900D6
:1001F000F55012002444493C63723E2020095265A8
:100200007175657374206469676974616C20696EC7
:10021000707574730D0A0000F76A280FF66E020EEF
:10022000F7220900F5501200244744203C61646421
:10023000723E3C63723E202009476574204432417F
:1002400020726567697374657220636F6E74656E82
:1002500074730D0A0000F76A660FF66E020EF7223D
:100260000900F5501200244746203C616464723E48
:100270003C63723E20200947657420465047412068
:10028000726567697374657220636F6E74656E74EE
:10029000730D0A00F76AA40FF66E020EF72209002A
:1002A000F5501200244F54203C6F75747075743EE5
:1002B0003C63723E20200953657420646967697449
:1002C000616C206F75747075747320746F2048456D
:1002D000582076616C75650D0A00F76AEA0FF66EB4
:1002E000020EF7220900F55012002452443C6372BA
:1002F0003E2020095265736574204432410D0A0086
:10030000F76A100FF66E030EF7220900F55012007F
:10031000245344203C616464723E203C64617461F7
:100320003E3C63723E2020095365742044324120D4
:100330007265676973746572203C616464723E2003
:10034000746F203C646174613E0D0A00F76A5C0FB3
:10035000F66E030EF7220900F550120024534620D2
:100360003C616464723E203C646174613E3C637233
:100370003E2020095365742046504741207265672E
:100380006973746572203C616464723E20746F20EE
:100390003C646174613E0D0A0000F76AAA0FF66EB4
:1003A000030EF7220900F55012004453203C64610B
:1003B000746120736F7572653E3C63723E20200944
:1003C000536574206461746120736F757273652066
:1003D00028302D31290D0A00F76AE80FF66E030E5A
:1003E000F7220900F55012004450203C646174610A
:1003F00020706F6C61726974793E3C63723E20209C
:1004000009536574206461746120706F6C61726956
:1004100074792028302D31290D0A0000F76A2C0F3D
:10042000F66E040EF7220900F55012004445203CF8
:10043000736574757020534F5150534B3E3C63723B
:100440003E20200953657420736574757020534FE6
:100450005150534B2028302D31290D0A0000F76AE6
:100460006E0FF66E040EF7220900F550120052507E
:10047000203C706F7765722068696774683E3C63E2
:10048000723E20200953657420706F776572206872
:10049000696774682028302D31290D0A0000F76A39
:1004A000AE0FF66E040EF7220900F5501200524608
:1004B000203C706F77657220636F6D616E643E3CA7
:1004C00063723E20200953657420706F7765722037
:1004D000636F6D616E642028302D31290D0A000094
:1004E000F76AF00FF66E040EF7220900F5501200BD
:1004F0005241203C72616E646F6D697A65723E3C58
:1005000063723E20200973657420776974682F77C1
:100510006974686F75742072616E646F6D697A6555
:10052000722028302D31290D0A00F76A3A0FF66E35
:10053000050EF7220900F55012004652203C667263
:10054000657175656E63793E3C63723E2020095388
:100550006574206672657175656E63792028323224
:1005600030302E302D323430302E30290D0A00003C
:10057000F76A800FF66E050EF7220900F55012009B
:100580004D4F203C6D6F64653E3C63723E202009F8
:10059000536574206D6F64652028302D33290D0A52
:1005A0000000F76AB20FF66E050EF7220900F5504B
:1005B00012004943203C626974726174653E3C6379
:1005C000723E2020095365742062697274617465FB
:1005D0002028312E30302D33302E3030444270738D
:1005E000290D0A00F76AF40FF66E050EF7220900CE
:1005F000F55012004944203C696E7465726E616C5E
:10060000207061747465726E3E3C63723E202009F6
:1006100053657420696E7465726E616C20706174CC
:100620007465726E2028302D33290D0A0000F76A98
:100630003E0FF66E060EF7220900F55012005650D6
:10064000203C706F776572206C6576656C3E3C630C
:10065000723E20200953657420706F776572206C9C
:100660006576656C202832302D3430290D0A000063
:10067000F76A800FF66E060EF7220900F550120099
:10068000564C203C706F77657220686967683E3C05
:1006900063723E2020095365742068696768207082
:1006A0006F776572206C6576656C202832302D344A
:1006B00030290D0A0000F76AC60FF66E060EF72203
:1006C0000900F5501200564D203C6E656761746953
:1006D000766520706F776572206C6576656C3E3C40
:1006E00063723E202009536574206E6567617469EA
:1006F000766520706F776572206C6576656C0D0A83
:100700000000F76A120FF66E070EF7220900F55087
:1007100012005643203C706F7365746976652070D3
:100720006F776572206C6576656C3E3C63723E2027
:10073000200953657420706F736574697665207045
:100740006F776572206C6576656C0D0A0000F76A3C
:100750005E0FF66E070EF7220900F55012004353A4
:10076000203C636C6F636B2070686173653E3C6313
:10077000723E20200953657420636C6F636B207098
:10078000686173652028302D31290D0A0000F76A51
:100790009E0FF66E070EF7220900F5501200535611
:1007A000203C7361766520616C6C3E3C63723E2038
:1007B00020095361766520706172616D65746572A0
:1007C000730D0000F76AD40FF66E070EF7220900CA
:1007D000F55012000D092048454C50204C49535407
:1007E000200D0000F76AF40FF66E070EF7220900DD
:1007F000F55012000D0A4641554C540D0A00F76A97
:100800000E0FF66E080EF7220900F55012000D0AC1
:100810004641494C0D0A0000F76A280FF66E080E93
:10082000F7220900F5501200204241313431305492
:10083000582056332E320000F76A480FF66E080E25
:10084000F7220900F55012000D0A0A4E4F205445B8
:100850004D502D5246204F4646200D0A0000F76AA3
:100860006E0FF66E080EF7220900F55012000D0A01
:100870000A4F4B205265717565737420537461740F
:100880007573200D0A0A0000F76A980FF66E080EBD
:10089000F7220900F5501200474F4F440000F76A55
:1008A000AE0FF66E080EF7220900F5501200424115
:1008B0004400F76AC20FF66E080EF7220900F550E1
:1008C00012000D0A4F4B0D0A2A00F76ADA0FF66E76
:1008D000080EF7220900F55012000D0A0A4252458F
:1008E000414B0D0A00007E9048EF00F02568262A53
:1008F000272A275009080FE2276A282A29682A2A66
:100900002A50090808E22A6A2B682C2A2C50090868
:1009100002E22C6A2D689E9248EF00F0F29248EFB6
:1009200000F0F09048EF00F0AECF4EF2036A2F5087
:10093000310FE96E000E0320EA6E4EC2EFFF2F2A40
:100940002F501F0801E22F6A2E501F0801E32E2AA4
:100950009E9A48EF00F024415220256C750D00004E
:100960002443502025750D00244452202530325850
:100970000D00200D0A245346202530325820253002
:1009800032580D00200D0A245344202530325820BF
:10099000253032580D00465220256C750D004D4F04
:1009A0002025750D000044532025750D000045528B
:1009B000522044532025750D000044502025750D0C
:1009C00000004552522044502025750D000044453A
:1009D0002025750D00004552522044452025750DF7
:1009E000000052502025750D0000455252205250F3
:1009F0002025750D000052462025750D000045523A
:100A0000522052462025750D0000524320256C755A
:100A10000D00524220256C750D0052412025750DA8
:100A200000004552522052412025750D00004944D6
:100A30002025750D00004552522049442025750D92
:100A40000000494320256C750D0056452025732074
:100A500049443D2530326C752044543D2530326C7C
:100A600075253032750D0000565020256C750D002F
:100A7000564D20256C750D00564320256C750D00D4
:100A800043532025750D0000455252204353202525
:100A9000750D000043502025750D00004552522071
:100AA00043502025750D00000A475020256C750D18
:100AB0000A000D54454D503D25362E32666465675B
:100AC0000D0A4F4B0A000D0A49443D256C75204420
:100AD000543D2530326C75253032750D00000D0AFD
:100AE0000A465245513D256C752C205245563D25F0
:100AF000732C20464657523D256C752C2049433DAA
:100B0000256C752E256C754D6270732C204D4F3DF4
:100B100025752C2043533D25752C2052463D256CD0
:100B2000750D00000D0A0A44453D25752C205241E3
:100B30003D25752C2044503D25752C2052503D25D7
:100B40006C752C2044533D25752C2049443D25755A
:100B50002C20564C3D256C752C2052423D256C7541
:100B60002C2052433D256C752C2043503D25750D9E
:100B70000000896A8A6A8B6A8C6A8D6AE10E926EBD
:100B8000C10E936EF10E946E8E0E956E96809682C7
:100B900096949686ECEF05F00101466B2E6A2EC006
:100BA00030F030C02FF0516A9D8A00011200480ECB
:100BB0000509BA6E630EBB6EB46AB16A000E050910
:100BC0000F01516F630E526F4D6B4E6B000E4A6FEB
:100BD000000E4B6F0001CDD7C150F00BC16E210E3E
:100BE0000F01386F030E3C6F000E396F3A6F3B6F89
:100BF000C050C00B2509C06EC08EC280776A040E3B
:100C0000786E796E0001C8DF9D82C00EF21209EF86
:100C10002EF0020EEA6E150EE96EEF500EE0050E94
:100C2000016E006A002EFED7012EFBD72E0E006E3D
:100C3000002EFED700D0EF2EF2D712000201035192
:100C4000036E0251D8B403070207031021E00151DB
:100C5000036E0051002BD8B4012BE96E03C0EAFFEC
:100C60000101FF51036EFE51FE2BD8B4FF2B020190
:100C7000066F03C007F2F2CF08F2F29E06C2A9FF88
:100C8000A69CA69EA680A85008BFF28EEF6ED7D76E
:100C9000000165EF06F0016603D0026602D007D0BE
:100CA000022A00C0EEFF012EFCD7022EFAD772EF07
:100CB00006F00101FF6BFE6B0201016BA50E006FD8
:100CC000036B500E026F0001B9D7AC3D01D002D0CA
:100CD000AD3D08D0EA6AA50EE96E006A026A500EC0
:100CE000016ED9D7120089940201025302E089886B
:100CF00001D089988986040E006E002EFED700D0A0
:100D00008996040E006E002EFED700D08998898641
:100D1000040E006E002EFED700D08996040E006EE1
:100D2000002EFED700D08986040E006E002EFED75E
:100D300000D08996040E006E002EFED700D0898662
:100D4000040E006E002EFED700D08996040E006EB1
:100D5000002EFED700D08986000B006E0451020BD6
:100D6000036E0050031002E0898801D08998040EB8
:100D7000006E002EFED700D08996040E006E002E65
:100D8000FED700D08986000B006E0451010B036E64
:100D90000050031002E0898801D0899889968986DD
:100DA0000351800B006E036A0050031002E0898833
:100DB00001D08998040E006E002EFED700D08996CF
:100DC000040E006E002EFED700D089860351400B22
:100DD000006E036A0050031002E0898801D08998F0
:100DE000040E006E002EFED700D08996040E006E11
:100DF000002EFED700D089860351200B006E036AB7
:100E00000050031002E0898801D08998899689866C
:100E10000351100B006E036A0050031002E0898832
:100E200001D08998040E006E002EFED700D089965E
:100E3000040E006E002EFED700D089860351080BE9
:100E4000006E036A0050031002E0898801D089987F
:100E5000899689860351040B006E036A00500310C3
:100E600002E0898801D08998040E006E002EFED71A
:100E700000D08996040E006E002EFED700D0898621
:100E80000351020B006E036A0050031002E08988D0
:100E900001D08998899689860351010B006E036AF7
:100EA0000050031002E0898801D08998040E006E7A
:100EB000002EFED700D08996040E006E002EFED7BD
:100EC00000D08986040E006E002EFED700D08996D1
:100ED0008986040E006E002EFED700D0040E006E30
:100EE000002EFED700D08996040E006E002EFED78D
:100EF00000D08984040E006E002EFED700D08992A7
:100F0000040E006E002EFED700D08982040E006E03
:100F1000002EFED700D0000112000201216B226BCF
:100F2000010E236FDA6AD96A020E266F190E256F39
:100F3000020EEA6E1D0EE96E26C2E2FF25C2E1FF37
:100F400023C224F2D890E550EE02F3502123F4504E
:100F50002223242FF7D721C2DEFF22C221F2226BE7
:100F6000D8B0222B252BD8B4262B232B23510508B0
:100F7000DFE100011200D8B204D0020EEA6E240EA6
:100F8000E96E006A016A026A036A0201246B256B3A
:100F9000266B276B23512211211120112CE0200EEA
:100FA000286FD8901C371D371E371F372437253739
:100FB000263727372351275D08E12251265D05E1B9
:100FC0002151255D02E12051245D0FE32051245F72
:100FD0002151D8A0213D255F2251D8A0223D265F76
:100FE0002351D8A0233D275FD88000360136023632
:100FF0000336282FD6D724C2EFFF25C2ECFF26C226
:10100000ECFF27C2ECFF000112000201136B126B10
:10101000116B020E106F04000F6B0E6B07C20DF206
:1010200006C20CF201010E6B950E0D6F0C6B3C0E9F
:101030000B6F02010751540812E2FF0A03E1065147
:10104000EF080DE2136B126B116B010E106F0101B3
:101050000E6B850E0D6F0C6B3C0E0B6F02010400C6
:101060000FC21CF20EC21BF20DC21AF20CC219F210
:1010700013C220F212C21FF211C21EF210C21DF2E0
:1010800000014BDF03C017F202C016F201C015F2D7
:1010900000C014F203C01CF202C01BF201C01AF21D
:1010A00000C019F20201206B1F6B1E6B640E1D6FD6
:1010B000000133DF03C00FF202C00EF201C00DF2D7
:1010C00000C00CF20400D8920FC21FF20EC21EF232
:1010D0000DC21DF20CC21CF20201236B226B270E03
:1010E000216F100E206F000146DF03C0FEF002C02A
:1010F000FDF001C0FCF000C0FBF00400FEC01CF2DB
:10110000FDC01BF2FCC01AF2FBC019F20201206BF9
:101110001F6B270E1E6F100E1D6F0001FEDE0050AC
:1011200002010C5D146F01500D59156F02500E59DC
:10113000166F03500F59176F1C6B1B6B1A6B640EE5
:10114000196F13C220F212C21FF211C21EF210C296
:101150001DF20001E2DE03C01BF202C01AF201C060
:1011600019F200C018F2D89217C21FF216C21EF26E
:1011700015C21DF214C21CF203C023F202C022F2F7
:1011800001C021F200C020F2F6DE03C002F102C06D
:1011900001F101C000F100C0FFF0D89202011F6B05
:1011A0001E6B1D6B640E1C6F13C223F212C222F25F
:1011B00011C221F210C220F20001DDDE03C017F2DD
:1011C00002C016F201C015F200C014F20201003490
:1011D000006E0134016E0234026E0334036E003679
:1011E0000136023603360036013602360336F80E73
:1011F0000016080E0324176F010E00240101036F6F
:10120000000E020101200101046F000E0201022004
:101210000101056F000E020117210101066F040094
:10122000010E02010827D8B0092BD8B40A2BD8B474
:101230000B2B00011200080E0201106F10531EE06C
:101240000FAF02D08B8601D08B960C0E006E002E55
:10125000FED700D000008B840C0E006E002EFED74F
:1012600000D000008B94200E006E002EFED700D020
:10127000000010511007D8900F37E0D78B968B9451
:10128000000112000400F29CF29EF2BEFDD70DC2D6
:101290000EF20DC20FF2CFDF0CC20EF20CC20FF233
:1012A000CADF0BC20EF20BC20FF2C5DF0AC20EF28A
:1012B0000AC20FF2C0DF340E006E002EFED700D03F
:1012C00000008B82060E006E002EFED700008B926F
:1012D0008B96C00EF2120400120002010B6B00018B
:1012E000FB3502010C6F0001FC3502010D6F00019E
:1012F000FD3502010E6F0C370D370E370C370D37E9
:101300000E370C370D370E370C370D370E370C37BD
:101310000D370E370C370D370E37800E0C170001C6
:10132000FF35006E01010035016E0135026E023598
:10133000036E0036013602360336003601360236B9
:101340000336F80E0016005002010B25066F0150FF
:101350000C21076F02500D21086F03500E21096FF9
:1013600009C20AF108C209F107C208F106C207F171
:10137000040009C20DF208C20CF207C20BF206C249
:101380000AF200017FDF1A0E006E002EFED7000069
:10139000040006C10DF205C10CF204C10BF203C139
:1013A0000AF270DF1A0E006E002EFED70000040055
:1013B0000EC10DF20DC10CF20CC10BF20BC10AF201
:1013C00061DF12008A940C0E006E002EFED700D052
:1013D0000000020115511507000A22E017C203F0B0
:1013E0001651162BD8B4172BE96E03C0EAFFEFCFC6
:1013F00018F2196B1951070812E318AF02D08C8844
:1014000001D08C9800D000D08C8000D000D08C907F
:1014100000D000D01951192BD8901837EBD7DAD754
:101420000C0E006E002EFED700D000008A84000152
:1014300012000201066B0001AA39006EF00E0016C0
:101440000050A91102010F6F0001AB39006E003688
:10145000E00E0016005002010F130001AF39006EBC
:1014600000360036C00E0016005002010F13006A4D
:101470000001B1B1008E005002010F11076F020E82
:10148000156F176F060E166F00019CDF1200060E17
:101490000201066FD8900001AD35AC1102010F6F4B
:1014A0000001AE35006E0036FC0E00160050020141
:1014B0000F11076F020E156F176F060E166F0001E2
:1014C00081DF1200B60E006E036A026A016A020131
:1014D000255126112711281102E1006A0DD0D8905C
:1014E00001BE09D02537263727372837033602367D
:1014F0000136002EF4D7019E0001D3EF0BF002015C
:101500002551D8B4A5D0316F2951D8B4A1D0315FBD
:1015100005E37F0E3127D8B09BD006D0810E315F16
:10152000D8A096D0D8B494D031C200F0016A026A33
:10153000036A306B26C22FF22F8F27C22EF228C2E9
:101540002DF2190E316F2C512D5F0DE2010E2E5F21
:101550000AE22F5F08E2305F06E2302B2F2B2E2BA2
:101560002C512D2728D02B512E5F12E2010E2F5F18
:101570000FE2305F0DE2302B2F2B2B512E272C51F9
:101580002D2719E32E2B17E12F2B15E1302B13D02C
:101590002A5180092F5F0EE2010E305F0BE2302BE3
:1015A0002A5180092F272B512E27E9E32F2BE7E122
:1015B000302BE5D70380312F01D00BD0D8902D37B9
:1015C0002E372F373037D890033602360136323770
:1015D000BAD732A106D0D890013202320332323368
:1015E00002D0000635E032BF1ED0D8902D372E37FE
:1015F0002F3730372C512D5F07E2010E2E5F04E2AA
:101600002F5F02E2305F1AE32B512E5F05E2010EDD
:101610002F5F02E2305F12E32A5180092F5F03E25D
:10162000010E305F0BE3032A09E1022A07E1012AD8
:1016300005E1002A0DE001320232033226C231F206
:101640002A51311B31AF02D0018E06D0019E04D049
:10165000006A016A026A036A000112000201255150
:10166000D8B471D0006E2951D8B46DD0002604E3EF
:10167000810E002668E204D07F0E005E64E363E022
:1016800026C22DF22A512D1B268F2A8F28512C037A
:10169000F4CF2FF227512B03F4CF03F0F3CF2EF228
:1016A0002C03F3502F27F4502E23000E0322285131
:1016B0002B03F3502F27F4502E23000E026A03222F
:1016C000022226512C03F3502E27F4500322000E41
:1016D000022226512B03F3500326F4500222000E5F
:1016E000016A012228512A03F3502E27F4500322C5
:1016F000000E0222012227512A03F3500326F45040
:101700000222000E012226512A03F3500226F45031
:101710000122002A01BE05D02E37033602360136DB
:101720000006000E2EAF0AD0032A02220122015029
:1017300005E1025003E1035001E1002A2DBF018EB3
:101740002DAF019E04D0006A016A026A036A00019B
:10175000120002012551B608256F036A26C229F23C
:10176000268FD890263327332833033202320132B2
:101770000032252FF6D729AF0BD0001E011E021E06
:10178000031E002AD8B4012AD8B4022AD8B4032AE6
:10179000000112001CC228F21BC227F21AC226F254
:1017A00019C225F28FD603C020F202C01FF201C079
:1017B0001EF200C01DF220C228F21FC227F21EC274
:1017C00026F21DC225F2C00E02012C6FE10E2B6F16
:1017D000640E2A6F9A0E296F000191DE03C024F275
:1017E00002C023F201C022F200C021F224C228F27A
:1017F00023C227F222C226F221C225F202012C6B5B
:101800002B6B2A6B8F0E296F000128DF03C024F297
:1018100002C023F201C022F200C021F224C228F249
:1018200023C227F222C226F221C225F202012C6B2A
:101830002B6B2A6B8F0E296F000110DF03C024F27F
:1018400002C023F201C022F200C021F224C228F219
:1018500023C227F222C226F221C225F27ADF03C078
:1018600028F202C027F201C026F200C025F2010EC4
:101870000201005C006E000E0158016E000E02585D
:10188000026E000E0358036E000112000201186B75
:10189000176BA6C016F2A5C015F218C21CF217C22B
:1018A0001BF2A6C01AF2A5C019F2206B1F6B270EFF
:1018B0001E6F100E1D6F00018DEC07F003C018F2B3
:1018C00002C017F201C016F200C015F203C01CF2EC
:1018D00002C01BF201C01AF200C019F25BDF03C0A4
:1018E00014F202C013F201C012F200C011F2020E93
:1018F0000201086F11C209F2020E156F176F080E70
:10190000166F00015FDD0A0E0201156F000109EC80
:1019100006F0030E0201086F12C209F2020E156FE3
:10192000176F080E166F00014DDD0A0E0201156FCC
:10193000000109EC06F0040E0201086F13C209F25F
:10194000020E156F176F080E166F00013BDD0A0EB1
:101950000201156F000109EC06F0050E0201086F87
:1019600014C209F2020E156F176F080E166F0001F0
:1019700029DD0A0E0201156F000109EC06F01200C4
:10198000B4C003F2B3C002F2050E0201156F0001EC
:1019900009EC06F003C207F202C206F205EC08F0F9
:1019A000050E0201156F000109EC06F096DC050E2C
:1019B0000201156F000109EC06F03BDD050E020186
:1019C000156F000109EC06F062DD050E0201156FCE
:1019D000000109EC06F05ADFA6C005F2A5C004F22A
:1019E000030E1E6EE80E1D6E1200233C03D0243C35
:1019F00001D021D02BA61ED02B960201026B24C051
:101A000004F223C003F2000173EC06F0140E016E21
:101A1000C250830B0110C26E1A0E006E002EFED74C
:101A20000000C282C2B2FED7C4CFFFF10101C3CF12
:101A3000FEF10001A3D183AE28D0EF5326E1F0538D
:101A400024E1A72D1ED0A8531CE18C8CF72BD8B411
:101A5000F82BF72D0AD0F85308E18C8C320E0201D6
:101A6000156F000109EC06F08BDFF851E90808E278
:101A7000FF0A03E1F751600803E2F86B020EF76F0B
:101A800003D08C9CF86BF76B29D083BE27D0EF5323
:101A900025E1F05323E1A72D06D0A85304E18C9C47
:101AA000F86BF76B04D08C8CF72BD8B4F82BF72D90
:101AB0000AD0F85308E18C8C320E0201156F000138
:101AC00009EC06F05DDFF851E90808E2FF0A03E1DE
:101AD000F751600803E2F86B020EF76F83BE32D055
:101AE000EF2D30D0F0532EE1A72D1DD0A8531BE1D0
:101AF0008C8CF92BD8B4FA2BF92D0AD0FA5308E1C3
:101B00008C8C3C0E0201156F000109EC06F038DFE9
:101B1000FA51E90808E2FF0A03E1F951600803E21B
:101B2000FA6B020EF96FA7530CE1A8530AE18C9CE3
:101B30000201026B046B036B000173EC06F0FA6B9D
:101B4000F96B3ED083AE3CD0EF2D3AD0F05338E164
:101B5000A72D0CD0A8530AE18C9C0201026B046BE8
:101B6000036B000173EC06F0FA6BF96BA75311E1FC
:101B7000A8530FE1F92D0DD0FA530BE18C8C3C0EDC
:101B80000201156F000109EC06F0FADEF92BD8B45A
:101B9000FA2BF92D0AD0FA5308E18C8C320E02018F
:101BA000156F000109EC06F0EBDEF851E90808E2D8
:101BB000FF0A03E1F751600803E2FA6B020EF96FC6
:101BC000B45158080FE303E1B35129080BE3010EA8
:101BD0000201026FB9C004F2B8C003F2000173EC55
:101BE00006F01CD0B4515A080FE303E1B351F908D1
:101BF0000BE3010E0201026FBBC004F2BAC003F294
:101C0000000173EC06F00AD0010E0201026FBDC0A4
:101C100004F2BCC003F2000173EC06F0140E016E76
:101C2000C250830B0110C26E1A0E006E002EFED73A
:101C30000000C282C2B2FED7C4CFFFF10101C3CF00
:101C4000FEF10001F12D27D0F25325E183A409D044
:101C5000F32D07D0F45305E11CC001F21BC000F2C4
:101C60001AD083A409D0F35307E1F45305E11AC055
:101C700001F219C000F20FD083B409D0F35307E189
:101C8000F45305E11CC001F21BC000F204D01AC0DD
:101C900001F219C000F2F15327E1F25325E183A4C8
:101CA00009D0F35307E1F45305E11CC001F21BC056
:101CB00000F21AD083B409D0F32D07D0F45305E114
:101CC0001CC001F21BC000F20FD083A409D0F32D79
:101CD00007D0F45305E11AC001F219C000F204D094
:101CE0001AC001F219C000F2060E02010025016EB1
:101CF000000E0121036E03500101FF5D04E314E1B6
:101D0000FE51015C11E3060E0201005D006E000E43
:101D10000159036E00C001F00101FF51035C2FE384
:101D200003E10150FE5D2BE2FF510201015D13E36F
:101D300008E100510101FE5DD8A002D002010BD0E4
:101D400002011E5203E11D50950804E2030E1D5EC0
:101D5000000E1E5A0BD01E50030808E303E11D506D
:101D6000F20804E3030E1D26000E1E22026B1EC0A5
:101D700004F21DC003F2000173EC06F00101000142
:101D800012000101896B050E886F8951050836E341
:101D90008851040DF350036A00016FEC00F0090054
:101DA000F5CF01F00900F5CF02F00900F5CF03F0FF
:101DB00003C087F102C086F101C085F1E8CF84F14C
:101DC00088C100F0016A026A036A005001018413AD
:101DD00001508513025086130350871387C10DF2FB
:101DE00086C10CF285C10BF284C10AF2000142ECFB
:101DF00009F001018951892B8807C7D7FA0E020122
:101E0000156F000109EC06F087C10DF286C10CF2D6
:101E100085C10BF284C10AF242EC09F0FA0E02010C
:101E2000156F000109EC06F03EEF2EF0040E0201E2
:101E3000435F0AE3020EEA6E430EE96EEF5004E0E0
:101E400001D00000EF2EFDD7000112009D9A8C8A70
:101E5000840E006E002EFED700D000000201406B01
:101E60003EC203F03DC2E9FF3EC2EAFFEF5238E056
:101E70003EC203F03D513D2BD8B43E2BE96E03C06A
:101E8000EAFFEFCF3FF23F5109080FE03FC2ADFF3D
:101E9000402B020E426F950E436F0001C7DF020117
:101EA000422FF9D7AECF3FF21AD0200E416F4151E9
:101EB000405D03E3020E4025416F4151405D0FE25A
:101EC000200EAD6E402B020E426F950E436F000147
:101ED000ADDF0201422FF9D7AECF3FF2EED7C0D728
:101EE000840E006E002EFED700D000008C9AAECF7C
:101EF0003FF29D8A00011200036A3050310FE96EF3
:101F0000000E0320EA6EEFCF9DF10101302A305020
:101F10001F0801E2306A2E5201E02E069DC101F039
:101F200000011200036A01010F51530FE96E000E08
:101F30000320EA6E036AEFCF01F003C002F0000154
:101F4000120001010F510F2B036A530FE96E000EAF
:101F50000320EA6E036AEFCF01F003C002F0000134
:101F60001200036A01010F51530FE96E000E0320A6
:101F7000EA6EEF5218E0036A0F51530FE96E000E3C
:101F80000320EA6EEF502C080AE0036A0F51530F4A
:101F9000E96E000E0320EA6EEF50200804E10F2BDB
:101FA0000001DFD701010001120002010D510F19DC
:101FB000800B116F0DAF05D00C1F0D1F0C2BD8B46B
:101FC0000D2B0FAF05D00E1F0F1F0E2BD8B40F2BEC
:101FD0000C510E03F3CF01F0F4CF00F00F03F350D8
:101FE00000260D510E03F3500020026E11AF05D0F4
:101FF000011E021E012AD8B4022A000112000201A9
:102000000B6B010E0A6F0001ACDF036A01010F5177
:10201000530FE96E000E0320EA6EEF5244E0020116
:10202000096B086B00017EDF02C00DF201C00CF2EB
:10203000020101502D0807E10D5305E10B690A6902
:1020400000017FDF0201036A01010F51530FE96EA6
:10205000000E0320EA6EEFCF0CF202010C512F08A4
:1020600022E20C5139081FE309C20DF208C20CF23A
:102070000F6B0A0E0E6F000198DF02C00DF201C057
:102080000CF201010F510F2B036A530FE96E000E82
:102090000320EA6E300EEF5C02010124086F000E8F
:1020A0000220096FD0D709C20DF208C20CF20BC290
:1020B0000FF20AC20EF2000178DF02C003F002C084
:1020C00002F012000D0E0101FE6F0A0EFF6F0201F9
:1020D000006F016B010E3E6FFE0E3D6F0001B6DE1C
:1020E000010EEA6EFE0EE96E2E0E016EF76A000E0C
:1020F000CDEC01F00A000900F5CFEEFF012EFBD771
:10210000010E02013E6FFE0E3D6F00019FDE010ECB
:10211000EA6EFE0EE96E330E016EF76A000EECEC0D
:1021200001F00A000900F5CFEEFF012EFBD7010EEA
:1021300002013E6FFE0E3D6F000188DE010EEA6E69
:10214000FE0EE96E310E016EF76A000E0EEC02F023
:102150000A000900F5CFEEFF012EFBD7010E0201A8
:102160003E6FFE0E3D6F000171DE010EEA6EFE0E47
:10217000E96E2F0E016EF76A000E2FEC02F00A00D6
:102180000900F5CFEEFF012EFBD7010E02013E6FD5
:10219000FE0E3D6F00015ADE010EEA6EFE0EE96E84
:1021A000310E016EF76A000E4FEC02F00A000900D2
:1021B000F5CFEEFF012EFBD7010E02013E6FFE0EA2
:1021C0003D6F000143DE010EEA6EFE0EE96E3A0E2F
:1021D000016EF76A000E70EC02F00A000900F5CFFC
:1021E000EEFF012EFBD7010E02013E6FFE0E3D6F8A
:1021F00000012CDE010EEA6EFE0EE96E350E016E58
:10220000F76A000E95EC02F00A000900F5CFEEFF28
:10221000012EFBD7010E02013E6FFE0E3D6F000145
:1022200015DE010EEA6EFE0EE96E210E016EF76AF2
:10223000000EB8EC02F00A000900F5CFEEFF012E07
:10224000FBD7010E02013E6FFE0E3D6F0001FEDD69
:10225000010EEA6EFE0EE96E320E016EF76A000E96
:10226000D1EC02F00A000900F5CFEEFF012EFBD7FA
:10227000010E02013E6FFE0E3D6F0001E7DD010E13
:10228000EA6EFE0EE96E390E016EF76A000EF2EC90
:1022900002F00A000900F5CFEEFF012EFBD7010E78
:1022A00002013E6FFE0E3D6F0001D0DD010EEA6EB1
:1022B000FE0EE96E310E016EF76A000E17EC03F0A8
:1022C0000A000900F5CFEEFF012EFBD7010E020137
:1022D0003E6FFE0E3D6F0001B9DD010EEA6EFE0E8F
:1022E000E96E350E016EF76A000E38EC03F00A0055
:1022F0000900F5CFEEFF012EFBD7010E02013E6F64
:10230000FE0E3D6F0001A2DD010EEA6EFE0EE96ECB
:102310003B0E016EF76A000E5BEC03F00A00090049
:10232000F5CFEEFF012EFBD7010E02013E6FFE0E30
:102330003D6F00018BDD010EEA6EFE0EE96E3B0E75
:10234000016EF76A000E81EC03F00A000900F5CF78
:10235000EEFF012EFBD7010E02013E6FFE0E3D6F18
:10236000000174DD010EEA6EFE0EE96E2F0E016EA5
:10237000F76A000EA7EC03F00A000900F5CFEEFFA4
:10238000012EFBD7010E02013E6FFE0E3D6F0001D4
:102390005DDD010EEA6EFE0EE96E250E016EF76A36
:1023A000000EC7EC03F00A000900F5CFEEFF012E86
:1023B000FBD7010E02013E6FFE0E3D6F000146DDB0
:1023C0000D0E0101FE6F0A0EFF6F0201006B010E80
:1023D0003E6FFE0E3D6F000139DD75EF24F072C1D6
:1023E000EAFF71C1E9FF02010DC2EFFFE92AD8B48B
:1023F000EA2AEF6A0101712BD8B4722B0001120096
:102400000900F6CF05F2F7CF06F2F5CF0DF2E7DFC0
:1024100005C2F6FF06C2F7FF0201042F01D002D069
:102420000001EED700011200EACF0CF2E9CF0BF267
:1024300002010539F009076F0727E20F086F320F15
:102440000A6F05510F0B082708270A27E90F096FA4
:102450000927092704390F0B09270A2709370A37E3
:102460000A1F0A3704510F0B0A270737070E066F9A
:102470000A0E09070A27FDE308070927FDE30707F6
:102480000827FDE306070727FDE3020EEA6E060EA6
:10249000E96E070E0B150B9DE9260A0EE95CD8B410
:1024A0000B8DEF50006E08E10BBD06D00BB915D0B7
:1024B0000BB702D0200E03D00B870B99300E0026ED
:1024C000EACF05F2E9CF04F200C00DF2000187DF88
:1024D00005C2EAFF04C2E9FF0201EE500BADDDD7F1
:1024E000000112008CDD02C001F201C000F202C046
:1024F0000DF201C00CF202010F6B0A0E0E6F00010B
:1025000054DD02C0FFF1010101C0FEF100010ADD4E
:1025100002C001F201C000F2020101502E0811E1D7
:1025200001530FE100010DDD0CDD300E0201015CF5
:10253000006E000E0258036E00500101FE2703508A
:10254000FF230101FEC101F0FFC102F000011200F2
:1025500002010751016A065D03E206C200F00CD0D9
:10256000006A080E086F063700360751005CD8B0C5
:10257000006E0136082FF7D700011200015004C287
:1025800006F2640E0201076F0001E2DF00C004F2F0
:102590000150300E08E1020105A30FD005B70DD0A0
:1025A00005B9200E04D00201059705990581012681
:1025B00001C00DF2000113DF020104C206F20A0E8F
:1025C000076F0001C5DF00C004F20150300E08E1C2
:1025D000020105B70AD005A108D005B9200E0001F7
:1025E000012601C00DF2FBDE0201300E042704C2F9
:1025F0000DF20001F4DE120002010351036E0251DC
:10260000D8B40307020703102EE00101FF51036E47
:10261000FE51FE2BD8B4FF2B0201046F03C005F25C
:102620000151036E0051002BD8B4012BE96E03C099
:10263000EAFFEFCF06F2F250006EF29E04C2A9FF4D
:1026400006C2A8FFA69CA69EA6840F01550EA76EE3
:10265000AA0EA76EA682A6B2FED7A6940050F212CA
:102660000001CAD70201000148EF13F0F5519F089D
:102670000FE1F6510B080CE10101FF6BFE6B02014B
:10268000016BA50E006F036B500E026F0001B4D7F3
:10269000F66BF56B1200B3DC01C000F002C001F074
:1026A000026A036A03C001F202C000F201C0FFF136
:1026B00000C0FEF146DCA3DC01C000F002C001F066
:1026C000026A036A03C005F202C004F201C003F209
:1026D00000C002F227DC02C007F201C006F20201CC
:1026E00001502E0820E107531EE100012ADC87DC9F
:1026F00001C000F002C001F0026A036A03C005F2E3
:1027000002C004F201C003F200C002F20201025151
:102710000101FE27020103510101FF2302010451BF
:1027200000230551012301C21CF200C21BF2FFC1AC
:102730001AF2FEC119F2206B1F6B1E6B640E1D6F27
:1027400000018DEC07F00201025100240001A56F89
:102750000201035101200001A66F46EC0CF039EF95
:102760001EF00900F5520CE0F6CFFEF1F7CFFFF1B5
:10277000F5CF0DF234DEFEC1F6FFFFC1F7FFF1D752
:102780007DEF1EF03CDC02C0FFF101C0FEF1010153
:10279000FF5327E1FE51280824E3FF5303E1FE51D4
:1027A00013081FE2140EFE5D0001ED6F000E010123
:1027B000FF590001EE6FD890ED35026EEE35036ED5
:1027C0000250BE0FE96E000E0320EA6EECCF03F05C
:1027D000ED52EFCF19F003C01AF0010E016E03D0D5
:1027E0000101000E016E0001DDEF1EF008DC02C0E9
:1027F000FFF101C0FEF10101FF5327E1FE5128085E
:1028000024E3FF5303E1FE5113081FE2140EFE5DA3
:102810000001B56F000E0101FF590001B66FD8909D
:10282000B535026EB635036E0250BE0FE96E000E6E
:102830000320EA6EECCF03F0ED52EFCF1BF003C0A4
:102840001CF0010E016E03D00101000E016E0001AB
:1028500031EF1FF08E0E006EFFC101F0FEC102F0DD
:10286000036A015209E102C001F0026A080E005E2B
:10287000015202E1006A08D0D89001BE04D00236AD
:1028800001360006F9D7019E18EF21F0800ED8A27C
:1028900002D00201031B0201086B096BFFC107F2A2
:1028A0000351071B0101FE51D8B4E2D00201066FAB
:1028B000006E0251D8B4E6D0065FD8B485D03EE3AE
:1028C00003C20CF20C8F04C20BF205C20AF2096BB0
:1028D000D8900C330B330A330933062FF8D707AFE0
:1028E00003D00881E3D0089106910889020EEA6EB0
:1028F000010EE96EEED0089907BF0AD006A113D0E9
:102900000C330B330A330933002AD8B4CAD00BD0A6
:102910000CBF0CD0D89009370A370B370C3700069C
:10292000D8B4BFD0F5D7088D6FD0089DFFC107F28E
:1029300007AF02D00C8FAED00C9FACD002C206F213
:1029400002C200F00101FE510201065FFFC10CF25C
:102950000C8F00C20BF201C20AF2096BD8900C3343
:102960000B330A330933062FF8D707AF03D0088398
:102970009DD008930691088B020EEA6E050EE96E53
:10298000A8D0089B07BF0AD006A113D00C330B3385
:102990000A330933002AD8B484D00BD00CBF0CD032
:1029A000D89009370A370B370C370006D8B479D0DE
:1029B000F5D7088F29D0089F03C207F203AF02D0D2
:1029C0000C8F68D00C9F66D003C20CF20C8F04C22F
:1029D0000BF205C20AF207AF04D00C9F088566D03F
:1029E0000895096B0691020EEA6E010EE96E71D030
:1029F00007BF1CD0FFC107F206A106D00C330B3372
:102A00000A330933002A4DE009AF0BD00A2B09E144
:102A10000B2B07E10C2B05E10C330B330A33002A97
:102A200040E008BD82D708BFC6D71CD0800E0C1B63
:102A30000CAF04D03BD003C207F20AD0FFC107F2AB
:102A40000C5306E10B5304E10A5302E1006A22D061
:102A50000CBF08D0D89009370A370B370C37002E37
:102A6000F7D71FD007AF02D00C8F14D00C9F12D015
:102A700002C200F003C20CF204C20BF205C20AF259
:102A8000020108D0FEC100F0FFC10CF200C20BF23F
:102A900001C20AF20CC201F00BC202F00AC203F03A
:102AA00034D0006A016A026A036A2FD0096B0A1FD8
:102AB0000B1F0C1F091F092B05E10A2B03E10B2B30
:102AC00001E10C2B08B10FD708B353D708B588D74D
:102AD000B2D7EF500A2705E30B2B03E10C2BD8B438
:102AE0000681ED52EF500B2703E30C2BD8B406817F
:102AF000ED52EF50EFBE01D0800A0C27D8B006810E
:102B000008B9F9D608BB3DD773D700011200E950C8
:102B10000201036F0251056F1CE001C228F200C2DE
:102B200027F2FFC126F2FEC125F22C6B2B6B200E83
:102B30002A6F820E296F00012EEC0BF003C001F208
:102B400002C000F201C0FFF100C0FEF10201052F3A
:102B5000E4D701C228F200C227F2FFC126F2FEC16B
:102B600025F20001A9EC0BF003C001F202C000F253
:102B700001C0FFF100C0FEF1020101AF16D0030752
:102B8000038B0101FE1FFF1F0201001F011F010136
:102B9000FE2BD8B4FF2BD8A403D00201002B0101D7
:102BA000D8A402D00201012B02013B0E0A6F9A0E3B
:102BB000096FCA0E086F076B0A0E056F0251D8B471
:102BC000032BD882010EEA6EFE0EE96E01C21FF2DF
:102BD00000C21EF2FFC11DF2FEC11CF20AC223F2A6
:102BE00009C222F208C221F207C220F20001BBECA6
:102BF00007F00150005213E102010229055DD8A43B
:102C000002D000010CD003510DE00F0B055D01E077
:102C100044E203BF42D003BD05D0200E37D0200EC2
:102C20000201031703AB0FD0039B0251D8A4030783
:102C30000050036F2D0E0D6F0001EFEC11F002013B
:102C40000351006E036B0251055D0DE10050036FEF
:102C50002E0E0D6F0001EFEC11F002010351006E1A
:102C6000200E0317000E300E03AB10D0039B025151
:102C7000D8A403070050036F2D0E0D6F0001EFEC79
:102C800011F002010351006E036B300E002600C0EC
:102C90000DF20001EFEC11F00201D8920AC21FF20E
:102CA00009C21EF208C21DF207C21CF2236B226B7E
:102CB000216B0A0E206F0001BBEC07F003C00AF283
:102CC00002C009F201C008F200C007F20201052F9C
:102CD00078D70001C6EF21F0016A026A006A036A30
:102CE0000201055102E1045118E0100E066FD89060
:102CF00002370337003603360551035C02E1045105
:102D0000005C07E30451005ED8A003060551035E92
:102D1000D88001360236062FEAD700011200EF52A2
:102D200010E0EACF05F2E9CF04F2EFCF0DF2EFECBD
:102D300011F005C2EAFF04C2E9FFE92AD8B4EA2A81
:102D4000EED714EF23F00101906BBA6B020E916F76
:102D50000F6B000192EC0FF002C0FFF101C0FEF119
:102D6000010101503A081EE1FF531CE10001A1ECF2
:102D70000FF0FFEC0FF001C0C9F1A1EC0FF002C0A1
:102D8000FFF101C0FEF1010101503A0802E1FF53D9
:102D900000E1C9510001EB5D02E1EC5302E075EF87
:102DA00024F001010001A1EC0FF002C0FFF101C00D
:102DB000FEF10101FF5303E1FE51600808E2FF53F9
:102DC00006E1FE517A0803E3FE51DF0B01D0FE510C
:102DD000BB6F0001A1EC0FF002C0FFF101C0FEF1DA
:102DE0000101FF5303E1FE51600808E2FF5306E1D1
:102DF000FE517A0803E3FE51DF0B01D0FE51BC6F98
:102E00000001B1EC0FF092EC0FF002C0FFF101C035
:102E1000FEF1010101500D0804E1FF5302E1010E32
:102E2000BA6FBB514C0A000133E0680A51E06C0AEA
:102E3000D8B47CD00E0AD8B49DD00B0AD8B416D121
:102E4000090AD8B495D1160AD8B419D3050AD8B44A
:102E500054EF1DF0040AD8B463EF1DF01A0AD8B479
:102E600082EF1DF01D0AD8B43FEF1EF0020AD8B45D
:102E70004DEF1EF0150AD8B4B0EF1FF0040AD8B415
:102E8000B5EF20F0160AD8B40CEF22F05DEF24F075
:102E90000101BC51490A000103E0060A14E016D002
:102EA000FFEC0FF002C0DBF101C0DAF10101DA51F1
:102EB000B80805E1DB51440802E1010E6E6F010E16
:102EC000116F000103D001016E6B000175EF24F05A
:102ED00001016E5304E1000175EF24F00101BC51C2
:102EE000520821E10001FFEC0FF002C0DBF101C04C
:102EF000DAF10101DA51B70803E1DB51440802E0DD
:102F000076EF24F0106B0D0EE06F0A0EE16FE26FAA
:102F10002A0EE36FE46B010E02013E6FE00E3D6F7F
:102F2000000126EC0FF0000175EF24F001016E5353
:102F300004E1000175EF24F00101010EEA6EE50ED7
:102F4000E96E0F0E016EF76A000E0001E2EC03F06D
:102F50000A000900F5CFEEFF012EFBD7010E02019A
:102F60003E6FE50E3D6F000126EC0FF062EF10F0B2
:102F700075EF24F001016E5304E1000175EF24F0B8
:102F80000101BC51520A000101E06ED00101BC51A7
:102F9000520851E1BA5326E0010E726F920E716F22
:102FA000960EF66E090EF76E030E0201046F000115
:102FB00000EC12F0100EE96EB4C005F2B3C004F2DA
:102FC00014EC12F00D0E02010D6F0001EFEC11F088
:102FD000010E02013E6F920E3D6F000126EC0FF0D4
:102FE00028D00101000172EC12F00101CD6BCC6B15
:102FF00002C0CBF101C0CAF1CBC1B4F0CAC1B3F079
:10300000CBC1FFF1CAC1FEF1CBC107F2CAC106F2C2
:10301000000105EC08F06DEC09F0320E0201156FAD
:10302000000109EC06F06DEC09F0010E0101906F52
:1030300000011AD00101010EEA6EE50EE96E0A0EDA
:10304000016EF76A000E0001F2EC03F00A000900BD
:10305000F5CFEEFF012EFBD7010E02013E6FE50E0C
:103060003D6F000126EC0FF075EF24F001016E5367
:1030700004E1000175EF24F00101BC514F085CE14F
:10308000BA5324E0010E726F920E716F9E0EF66EAF
:10309000090EF76E030E0201046F000100EC12F03E
:1030A000A9C004F21B0E0201056F0001BEEC12F074
:1030B0000D0E02010D6F0001EFEC11F0010E020187
:1030C0003E6F920E3D6F000126EC0FF00001FFEC09
:1030D0000FF002C0DBF101C0DAF10101DB530CE1BA
:1030E000DA51030809E3DAC1A9F0000119EC0AF08A
:1030F000010E0101906F1FD0010EEA6EE50EE96E20
:10310000090E016EF76A000E0001FFEC03F00A00E1
:103110000900F5CFEEFF012EFBD7010E02013E6F35
:10312000E50E3D6F000126EC0FF00101906B0001F0
:1031300075EF24F0010119D0010EEA6EE50EE96E7B
:10314000090E016EF76A000E0001FFEC03F00A00A1
:103150000900F5CFEEFF012EFBD7010E02013E6FF5
:10316000E50E3D6F000126EC0FF0000175EF24F035
:1031700001016E5304E1000175EF24F00101BC511F
:10318000530A000107E0030AD8B480D0150AD8B466
:10319000F9D073D10101BA5326E0010E726F920E7D
:1031A000716FA60EF66E090EF76E030E0201046F24
:1031B000000100EC12F0ADC004F21B0E0201056F1D
:1031C0000001BEEC12F00D0E02010D6F0001EFECDC
:1031D00011F0010E02013E6F920E3D6F000126ECD0
:1031E0000FF04FD001010001FFEC0FF002C0DBF146
:1031F00001C0DAF10101DB530AE1DA51010807E30A
:10320000DAC1ADF0000147EC0AF03BD00101010E3C
:10321000EA6EE50EE96E090E016EF76A000E000116
:10322000FFEC03F00A000900F5CFEEFF012EFBD7FB
:10323000010E02013E6FE50E3D6F000126EC0FF01E
:10324000010E0101726F460E716FAE0EF66E090E21
:10325000F76E070E0201046F000100EC12F0ADC022
:1032600004F21B0E0201056F0001BEEC12F00D0E00
:1032700002010D6F0001EFEC11F00101906B0001F4
:10328000FCD0010E0101906F0001F7D00101BA538B
:1032900026E0010E726F920E716FBA0EF66E090E75
:1032A000F76E030E0201046F000100EC12F0ABC0D8
:1032B00004F21B0E0201056F0001BEEC12F00D0EB0
:1032C00002010D6F0001EFEC11F0010E02013E6FE3
:1032D000920E3D6F000126EC0FF04FD0010100016E
:1032E000FFEC0FF002C0DBF101C0DAF10101DB53AA
:1032F0000AE1DA51010807E3DAC1ABF0000119EC89
:103300000AF03BD00101010EEA6EE50EE96E090EEE
:10331000016EF76A000E0001FFEC03F00A000900DD
:10332000F5CFEEFF012EFBD7010E02013E6FE50E39
:103330003D6F000126EC0FF0010E0101726F460E89
:10334000716FC20EF66E090EF76E070E0201046F62
:10335000000100EC12F0ABC004F21B0E0201056F7D
:103360000001BEEC12F00D0E02010D6F0001EFEC3A
:1033700011F00101906B000180D0010E0101906FEE
:1033800000017BD00101BA5326E0010E726F920E4C
:10339000716FCE0EF66E090EF76E030E0201046F0A
:1033A000000100EC12F0B1C004F21B0E0201056F27
:1033B0000001BEEC12F00D0E02010D6F0001EFECEA
:1033C00011F0010E02013E6F920E3D6F000126ECDE
:1033D0000FF04FD001010001FFEC0FF002C0DBF154
:1033E00001C0DAF10101DB530AE1DA51010807E318
:1033F000DAC1B1F0000119EC0AF03BD00101010E75
:10340000EA6EE50EE96E090E016EF76A000E000124
:10341000FFEC03F00A000900F5CFEEFF012EFBD709
:10342000010E02013E6FE50E3D6F000126EC0FF02C
:10343000010E0101726F460E716FD60EF66E090E07
:10344000F76E070E0201046F000100EC12F0B1C02C
:1034500004F21B0E0201056F0001BEEC12F00D0E0E
:1034600002010D6F0001EFEC11F00101906B000102
:1034700004D0010E0101906F000175EF24F00101ED
:103480006E5304E1000175EF24F00101410EBC5DB3
:10349000F00FD8B006D3100F000179EF24F001012E
:1034A000BA5326E0010E726F920E716FE20EF66E45
:1034B000090EF76E030E0201046F000100EC12F01A
:1034C000B0C004F21B0E0201056F0001BEEC12F049
:1034D0000D0E02010D6F0001EFEC11F0010E020163
:1034E0003E6F920E3D6F000126EC0FF07ED0010181
:1034F0000001FFEC0FF002C0DBF101C0DAF10101C5
:10350000DB5339E1DA51010836E30001F12D0FD028
:10351000F2530DE10101DA5307E1DB5305E100014C
:10352000F46B010EF36F03D00001F46BF36B010138
:10353000DA2D11D0DB530FE10001F46BF36BF3C014
:103540006FF1320E0201156F000109EC06F0C0ECBC
:103550000CF00FD001010001F46B010EF36FF3C00A
:103560006FF1320E0201156F000109EC06F0C0EC9C
:103570000CF03BD00101010EEA6EE50EE96E090E7A
:10358000016EF76A000E0001FFEC03F00A0009006B
:10359000F5CFEEFF012EFBD7010E02013E6FE50EC7
:1035A0003D6F000126EC0FF0010E0101726F460E17
:1035B000716FEA0EF66E090EF76E070E0201046FC8
:1035C000000100EC12F06FC104F21B0E0201056F46
:1035D0000001BEEC12F00D0E02010D6F0001EFECC8
:1035E00011F00101906B5DD20001010E0101906F9D
:1035F00058D20101BA5326E0010E726F920E716F1C
:10360000F60EF66E090EF76E030E0201046F00014E
:1036100000EC12F070C104F21B0E0201056F0001F4
:10362000BEEC12F00D0E02010D6F0001EFEC11F077
:10363000010E02013E6F920E3D6F000126EC0FF06D
:10364000B1D001010001FFEC0FF002C0DBF101C0BD
:10365000DAF10101DA5333E1DB5331E10001EF51DB
:10366000F01103E1F151F21113E00101706B00015F
:10367000A86B70C1A7F03C0E0201156F000109ECA8
:1036800006F0C0EC0CF0010E0101906F17D00001A4
:10369000EF5302E1F05303E0F151F2110EE00101AA
:1036A000706B0001A86B70C1A7F03C0E0201156F92
:1036B000000109EC06F0C0EC0CF0010172D0DA2D2B
:1036C00037D0DB5335E10001EF51F01116E0010E68
:1036D0000101706F0001A86B70C1A7F0F5EC0CF050
:1036E000320E0201156F000109EC06F0010E010116
:1036F000906F0001C0EC0CF019D0EF5317E1F053BC
:1037000015E1010E0101706F0001A86B70C1A7F0F7
:10371000F5EC0CF0320E0201156F000109EC06F019
:10372000010E0101906F0001C0EC0CF03BD00101D3
:10373000010EEA6EE50EE96E090E016EF76A000EE3
:103740000001FFEC03F00A000900F5CFEEFF012EA7
:10375000FBD7010E02013E6FE50E3D6F000126EC26
:103760000FF0010E0101726F460E716FFE0EF66EC4
:10377000090EF76E070E0201046F000100EC12F053
:1037800070C104F21B0E0201056F0001BEEC12F0C5
:103790000D0E02010D6F0001EFEC11F00101906BB5
:1037A00080D10001010E0101906F7BD10101BA535C
:1037B00026E0010E726F920E716F0A0EF66E0A0EFF
:1037C000F76E030E0201046F000100EC12F0100E00
:1037D000E96EF2C005F2F1C004F214EC12F00D0E25
:1037E00002010D6F0001EFEC11F0010E02013E6FBE
:1037F000920E3D6F000126EC0FF049D0010100014F
:10380000FFEC0FF002C0DBF101C0DAF10101DB5384
:1038100025E1DA51010822E3DA530EE1DB530CE132
:103820000001F26BF16B320E0201156F000109EC21
:1038300006F0C0EC0CF00101DA2D0FD0DB530DE1E6
:103840000001F26B010EF16F320E0201156F0001E3
:1038500009EC06F0C0EC0CF001011AD0010EEA6E82
:10386000E50EE96E0A0E016EF76A000E0001F2EC39
:1038700003F00A000900F5CFEEFF012EFBD7010E81
:1038800002013E6FE50E3D6F000126EC0FF00101D5
:1038900008D10101BA5326E0010E726F920E716FCA
:1038A000120EF66E0A0EF76E030E0201046F00018F
:1038B00000EC12F0100EE96EF0C005F2EFC004F259
:1038C00014EC12F00D0E02010D6F0001EFEC11F07F
:1038D000010E02013E6F920E3D6F000126EC0FF0CB
:1038E00058D001010001FFEC0FF002C0DBF101C074
:1038F000DAF10101DB5334E1DA51010831E3DA5145
:10390000DB1120E0DBC1F0F0DAC1EFF070530EE123
:10391000702D01D001D0000E320E0201156F000192
:1039200009EC06F0C0EC0CF004D00101705301E08A
:10393000000E320E0201156F000109EC06F0C0EC1A
:103940000CF00101DBC1F0F0DAC1EFF0460E02012C
:10395000156F000109EC06F0C0EC0CF01AD0010163
:10396000010EEA6EE50EE96E0A0E016EF76A000EB0
:103970000001F2EC03F00A000900F5CFEEFF012E82
:10398000FBD7010E02013E6FE50E3D6F000126ECF4
:103990000FF0010186D00101BA5326E0010E726FCB
:1039A000920E716F1A0EF66E0A0EF76E030E02017A
:1039B000046F000100EC12F0AFC004F21B0E020114
:1039C000056F0001BEEC12F00D0E02010D6F00013B
:1039D000EFEC11F0010E02013E6F920E3D6F0001FF
:1039E00026EC0FF050D001010001FFEC0FF002C0F7
:1039F000DBF101C0DAF10101DB530CE1DA5101081E
:103A000009E3DAC1AFF0000119EC0AF0010E01017F
:103A1000906F39D0010EEA6EE50EE96E090E016E67
:103A2000F76A000E0001FFEC03F00A000900F5CF71
:103A3000EEFF012EFBD7010E02013E6FE50E3D6F3A
:103A4000000126EC0FF0010E0101726F460E716F3E
:103A5000220EF66E0A0EF76E070E0201046F0001C9
:103A600000EC12F0AFC004F21B0E0201056F000162
:103A7000BEEC12F00D0E02010D6F0001EFEC11F023
:103A80000101906B0ED0010E0101906F0AD059EC2C
:103A900006F0C0EC0CF0010E0101906F02D0FF00A7
:103AA0000101000175EF24F001016E5304E10001F2
:103AB00075EF24F00101BC51410802E1010E906F45
:103AC000000175EF24F001016E5304E1000175EF70
:103AD00024F00101BC51500A000103E0060A06E08F
:103AE0000FD0010E0101906F00010AD00B0EF66F8E
:103AF0009F0EF56F36EC13F0010E0101906F00017F
:103B000075EF24F001016E5304E1000175EF24F01C
:103B10000101BC51440A000104E0070AD8B47DD079
:103B2000ACD00101BA5326E0010E726F920E716F94
:103B30002E0EF66E0A0EF76E030E0201046F0001E0
:103B400000EC12F0AEC004F21B0E0201056F000182
:103B5000BEEC12F00D0E02010D6F0001EFEC11F042
:103B6000010E02013E6F920E3D6F000126EC0FF038
:103B70004FD001010001FFEC0FF002C0DBF101C0EA
:103B8000DAF10101DB530AE1DA51030807E3DAC194
:103B9000AEF0000147EC0AF03BD00101010EEA6EE5
:103BA000E50EE96E090E016EF76A000E0001FFECEA
:103BB00003F00A000900F5CFEEFF012EFBD7010E3E
:103BC00002013E6FE50E3D6F000126EC0FF0010E85
:103BD0000101726F460E716F360EF66E0A0EF76EA9
:103BE000070E0201046F000100EC12F0AEC004F2F7
:103BF0001B0E0201056F0001BEEC12F00D0E02015A
:103C00000D6F0001EFEC11F00101906B000135D058
:103C1000010E0101906F000130D00101BA5326E07E
:103C2000010E726F920E716F420EF66E0A0EF76EF3
:103C3000030E0201046F000100EC12F0100EE96E99
:103C4000A6C005F2A5C004F214EC12F00D0E02019C
:103C50000D6F0001EFEC11F0010E02013E6F920EAC
:103C60003D6F000126EC0FF004D0010100014BEF85
:103C700013F0010E0101906F000175EF24F00101B6
:103C80006E5304E1000175EF24F00101BC514508B9
:103C900001E1B5D2000175EF24F001016E5304E19A
:103CA000000175EF24F00101BC51450A00010DE04F
:103CB000090AD8B47BD01C0AD8B49ED01D0AD8B447
:103CC000D5D00E0AD8B40DD149D10101BC51450857
:103CD00052E1010E726F920E716F4A0EF66E0A0E6D
:103CE000F76E030E0201046F000100EC12F0280EC3
:103CF000F66E080EF76EB1EF13F04F0EF66E0A0E69
:103D0000F76E040E0201046F000100EC12F00B0EBE
:103D1000E96EECC005F2EBC004F214EC12F0580EA0
:103D2000F66E0A0EF76E040E0201046F000100EC3D
:103D300012F00B0EE96EE9C005F2E8C004F214ECD3
:103D400012F0EAC004F2010E0201056F0001BEECA0
:103D500012F00D0E02010D6F0001EFEC11F0010EDB
:103D600002013E6F920E3D6F000126EC0FF0010E36
:103D70000101906F19D0010EEA6EE50EE96E090E91
:103D8000016EF76A000E0001FFEC03F00A00090063
:103D9000F5CFEEFF012EFBD7010E02013E6FE50EBF
:103DA0003D6F000126EC0FF00001D8D00101BC519D
:103DB0004C0807E10001C2EF13F0010E0101906F02
:103DC00019D0010EEA6EE50EE96E090E016EF76A72
:103DD000000E0001FFEC03F00A000900F5CFEEFF32
:103DE000012EFBD7010E02013E6FE50E3D6F000173
:103DF00026EC0FF00001B2D00101BA532FE0140EEF
:103E00000001B5250101FE6F000E0001B621010180
:103E1000FF6F010E726F920E716F680EF66E0A0ED2
:103E2000F76E030E0201046F000100EC12F0100E99
:103E3000E96EFFC105F2FEC104F214EC12F00D0EA2
:103E400002010D6F0001EFEC11F0010E02013E6F57
:103E5000920E3D6F000126EC0FF003D00001F6EF4B
:103E600013F0010E0101906F000178D00101BA53E7
:103E700026E0010E726F920E716F700EF66E0A0ED2
:103E8000F76E030E0201046F000100EC12F0100E39
:103E9000E96E22C005F221C004F214EC12F00D0EFE
:103EA00002010D6F0001EFEC11F0010E02013E6FF7
:103EB000920E3D6F000126EC0FF012D001010001BF
:103EC000FFEC0FF002C022F001C021F0010E020150
:103ED000026FDBC104F2DAC103F2000173EC06F0F9
:103EE0003DD00101BA5326E0010E726F920E716F40
:103EF000780EF66E0A0EF76E030E0201046F0001D3
:103F000000EC12F0100EE96E24C005F223C004F29A
:103F100014EC12F00D0E02010D6F0001EFEC11F028
:103F2000010E02013E6F920E3D6F000126EC0FF074
:103F300015D001010001FFEC0FF002C0DBF101C060
:103F4000DAF1DBC124F0DAC123F00201026BDBC13C
:103F500004F2DAC103F2000173EC06F075EF24F00D
:103F600001016E5304E1000175EF24F00101BC5121
:103F70005308D8A47BD0BA5326E0010E726F920E7C
:103F8000716F800EF66E0A0EF76E030E0201046F5B
:103F9000000100EC12F0ACC004F21B0E0201056F30
:103FA0000001BEEC12F00D0E02010D6F0001EFECEE
:103FB00011F0010E02013E6F920E3D6F000126ECE2
:103FC0000FF050D001010001FFEC0FF002C0DBF157
:103FD00001C0DAF10101DB530AE1DA51010807E31C
:103FE000DAC1ACF0000147EC0AF03CD00101010E4F
:103FF000EA6EE50EE96E090E016EF76A000E000129
:10400000FFEC03F00A000900F5CFEEFF012EFBD70D
:10401000010E02013E6FE50E3D6F000126EC0FF030
:10402000010E0101726F460E716F880EF66E0A0E58
:10403000F76E070E0201046F000100EC12F0ACC035
:1040400004F21B0E0201056F0001BEEC12F00D0E12
:1040500002010D6F0001EFEC11F00101906B000106
:1040600075EF24F0010E0101906F7DD0BC51500816
:10407000D8A479D0BA5326E0010E726F920E716FF8
:10408000940EF66E0A0EF76E030E0201046F000125
:1040900000EC12F0AAC004F21B0E0201056F000131
:1040A000BEEC12F00D0E02010D6F0001EFEC11F0ED
:1040B000010E02013E6F920E3D6F000126EC0FF0E3
:1040C0004FD001010001FFEC0FF002C0DBF101C095
:1040D000DAF10101DB530AE1DA51010807E3DAC141
:1040E000AAF0000119EC0AF03BD00101010EEA6EC2
:1040F000E50EE96E090E016EF76A000E0001FFEC95
:1041000003F00A000900F5CFEEFF012EFBD7010EE8
:1041100002013E6FE50E3D6F000126EC0FF0010E2F
:104120000101726F460E716F9C0EF66E0A0EF76EED
:10413000070E0201046F000100EC12F0AAC004F2A5
:104140001B0E0201056F0001BEEC12F00D0E020104
:104150000D6F0001EFEC11F00101906B0001C5D370
:10416000010E0101906F0001C0D301016E5303E104
:104170000001BBD30101BC51500A000106E0040A52
:104180003DE0060AD8B432D145D1140E016EC250BA
:10419000830B0110C26E420E006E002EFED700008F
:1041A000C282C2B2FED7C4CFDBF10101C3CFDAF1C4
:1041B000010E726F460E716FA80EF66E0A0EF76E44
:1041C000040E0201046F000100EC12F0100EE96E03
:1041D000DBC105F2DAC104F214EC12F00D0E02019B
:1041E0000D6F0001EFEC11F00A0E02010D6F0001DE
:1041F000EFEC11F00101906B00010CD10101180EE0
:10420000016EC250830B0110C26E420E006E002E72
:10421000FED70000C282C2B2FED7C3CFDAF1C4CF4C
:10422000DBF1DBC1FFF1DAC1FEF100012AEF14F08E
:1042300000C0FEF101C0FFF102C000F203C001F2B4
:1042400003C028F202C027F201C026F200C025F206
:1042500002012C6B2B6B2A6B890E296F00017FECFE
:104260000AF000C0FEF101C0FFF102C000F203C07D
:1042700001F203C028F202C027F201C026F200C0FA
:1042800025F2330E02012C6F2B6F530E2A6F800E16
:10429000296F00012EEC0BF003C0D9F102C0D8F158
:1042A00001C0D7F100C0D6F1D882D9C101F2D8C17E
:1042B00000F2D7C1FFF1D6C1FEF10201056B046B1C
:1042C000400E036F7E0E026F000146EC14F003C037
:1042D000D9F102C0D8F101C0D7F100C0D6F1D9C1DF
:1042E00028F2D8C127F2D7C126F2D6C125F20201A1
:1042F0002C6B2B6B480E2A6F850E296F00012EEC5C
:104300000BF003C0D9F102C0D8F101C0D7F100C051
:10431000D6F1D892D9C101F2D8C100F2D7C1FFF1CC
:10432000D6C1FEF10201056B046B480E036F830ECC
:10433000026F000146EC14F003C0D9F102C0D8F1BD
:1043400001C0D7F100C0D6F1A751A8112DE0010E90
:104350000101726F460E716FB20EF66E0A0EF76EA5
:10436000060E0201046F000100EC12F0050EE96E6A
:10437000D9C101F2D8C100F2D7C1FFF1D6C1FEF117
:10438000020E0201026F000187EF15F0BD0EF66EFE
:104390000A0EF76E080E0201046F000100EC12F025
:1043A0000101906B21D000010101D96BD86BD76B53
:1043B000D66B010EEA6EE50EE96E150E016EF76A18
:1043C000000E00011CEC04F00A000900F5CFEEFF1E
:1043D000012EFBD7010E02013E6FE50E3D6F00017D
:1043E00026EC0FF00101906B000114D0100E016E4D
:1043F000C250830B0110C26E1A0E006E002EFED743
:104400000000C282C2B2FED7C4CFDDF10101C3CF2A
:10441000DCF100016AD269D201016E5303E10001AF
:1044200064D20101010EEA6EE50EE96E190E016E0D
:10443000F76A000E00012FEC04F00A000900F5CF26
:10444000EEFF012EFBD7010E02013E6FE50E3D6F20
:10445000000126EC0FF0010EEA6EE50EE96E0F0E7C
:10446000016EF76A000E0CEC04F00A000900F5CFAB
:10447000EEFF012EFBD7010E02013E6FE50E3D6FF0
:10448000000126EC0FF0010E0101726F920E716FA8
:10449000C60EF66E0A0EF76E050E0201046F0001DD
:1044A00000EC12F0100EE96EECC005F2EBC004F265
:1044B00014EC12F0CE0EF66E0A0EF76E040E020128
:1044C000046F000100EC12F00B0EE96EE9C005F27A
:1044D000E8C004F214EC12F0EAC004F2010E02018A
:1044E000056F0001BEEC12F00D0E02010D6F000110
:1044F000EFEC11F0010E02013E6F920E3D6F0001D4
:1045000026EC0FF0100E016EC250830B0110C26E2C
:104510001A0E006E002EFED70000C282C2B2FED775
:10452000C4CFDDF10101C3CFDCF1DD51020814E39A
:1045300003E1DC51440810E3010EEA6EBD0EE96EA2
:10454000000E000144EC04F00A000900F550EE6E84
:104550000009FBE10FD00101010EEA6EBD0EE96E0C
:10456000000E00014FEC04F00A000900F550EE6E59
:104570000009FBE1F351F41104E00101DF6BDE6B94
:1045800004D00101DF6B010EDE6F140E0001B525B2
:104590000101FE6F000E0001B6210101FF6FA6C0F0
:1045A00003F2A5C002F20201056B640E046F000164
:1045B0006CEC16F002C001F201C000F2A6C003F2DA
:1045C000A5C002F20201056B640E046F00016CECE1
:1045D00016F000C002F203C003F2010E0101726F77
:1045E000920E716FDE0EF66E0A0EF76E080E020165
:1045F000046F000100EC12F0100EE96EB4C005F279
:10460000B3C004F214EC12F0E90EF66E0A0EF76E67
:10461000060E0201046F000100EC12F0010EEA6EBA
:10462000BD0EE96E8FEF16F0F10EF66E0A0EF76E04
:10463000070E0201046F000100EC12F0100EE96E8B
:10464000FFC105F2FEC104F214EC12F0FB0EF66E8F
:104650000A0EF76E050E0201046F000100EC12F065
:10466000100EE96E01C205F200C204F214EC12F061
:104670002E0E02010D6F0001EFEC11F0100EE96E2D
:1046800003C205F202C204F214EC12F0070EF66E39
:104690000B0EF76E090E0201046F000100EC12F020
:1046A000A9C004F21B0E0201056F0001BEEC12F05E
:1046B000120EF66E0B0EF76E050E0201046F00016E
:1046C00000EC12F0ACC004F21B0E0201056F0001F9
:1046D000BEEC12F0190EF66E0B0EF76E050E02010F
:1046E000046F000100EC12F0100EE96EA8C005F294
:1046F000A7C004F214EC12F00D0E02010D6F0001C0
:10470000EFEC11F0010E02013E6F920E3D6F0001C1
:1047100026EC0FF0140EED250101FE6F000E0001D6
:10472000EE210101FF6F010E726F920E716F240E68
:10473000F66E0B0EF76E060E0201046F000100EC20
:1047400012F0B1C004F21B0E0201056F0001BEECB5
:1047500012F02C0EF66E0B0EF76E050E0201046FB2
:10476000000100EC12F0AFC004F21B0E0201056F55
:104770000001BEEC12F0330EF66E0B0EF76E050E56
:104780000201046F000100EC12F0ABC004F21B0E3A
:104790000201056F0001BEEC12F03A0EF66E0B0E30
:1047A000F76E050E0201046F000100EC12F0100E0E
:1047B000E96EDFC105F2DEC104F214EC12F0420E24
:1047C000F66E0B0EF76E050E0201046F000100EC91
:1047D00012F0ADC004F21B0E0201056F0001BEEC29
:1047E00012F0490EF66E0B0EF76E050E0201046F05
:1047F000000100EC12F0AEC004F21B0E0201056FC6
:104800000001BEEC12F0500EF66E0B0EF76E050EA8
:104810000201046F000100EC12F0100EE96EFFC1FE
:1048200005F2FEC104F214EC12F0580EF66E0B0EF7
:10483000F76E050E0201046F000100EC12F0100E7D
:10484000E96EF0C005F2EFC004F214EC12F0600E55
:10485000F66E0B0EF76E050E0201046F000100EC00
:1048600012F0100EE96EF2C005F2F1C004F214EC81
:1048700012F0680EF66E0B0EF76E050E0201046F55
:10488000000100EC12F0AAC004F21B0E0201056F39
:104890000001BEEC12F00D0E02010D6F0001EFECF5
:1048A00011F0010E02013E6F920E3D6F000126ECE9
:1048B0000FF00101A4D4000118D0010EEA6EE50E3C
:1048C000E96E090E016EF76A000EFFEC03F00A00B4
:1048D0000900F5CFEEFF012EFBD7010E02013E6F5E
:1048E000E50E3D6F000126EC0FF001010001F0EF35
:1048F00024F0E824F76AF7360D0FF66E490EF7221A
:104900000A00F550FA6E0800F550F96E96399238A3
:10491000AC37A23A9E3AF235A23AA23AA23AA23A69
:10492000A23A8E3AA23AA23AA23A9E345150000AD2
:1049300006E0020A18E0010AD8B499D098D0526A69
:10494000020E516EA46BA36B0D0E01018A6F3E0E19
:104950008B6F8C6B010E02013E6F8A0E3D6F000162
:1049600026EC0FF084D02E52D8B46BD0A46BA36B7E
:104970007CEC0FF00101876B01C086F15250522A86
:10498000036A530FE96E000E0320EA6E86C1EFFF43
:104990005250460804E2516A000169D00101865173
:1049A0000D0802E1875305E086513B084BE1875330
:1049B00049E186513B080EE187530CE1010E525C40
:1049C000036A530FE96E000E0320EA6E0D0EEF6EC0
:1049D000526A03D00001CCEC05F00001A3EF16F001
:1049E0000101115314E00D0E8A6F0A0E8B6F4F0EEA
:1049F0008C6F4B0E8D6F0A0E8E6F8F6B010E020146
:104A00003E6F8A0E3D6F000126EC0FF00101882DEC
:104A100010D089530EE10A0E8A6F0D0E8B6F8C6BCE
:104A2000010E02013E6F8A0E3D6F000126EC0FF071
:104A300008D0010E02013E6F460E3D6F000126ECCC
:104A40000FF001015150010810E22BA20ED02B9261
:104A50000001A32BD8B4A42BA451260806E2FF0A18
:104A600003E1A351100801E2516A000100D0C9EF2F
:104A70002DF08A920101D76BD751070813E3D45167
:104A8000800B02E18C9801D08C8800D000D08C8003
:104A900000D000D08C9000D000D0D751D72BD89028
:104AA000D437EAD7D76BD751070813E3D551800B1A
:104AB00002E18C9801D08C8800D000D08C8000D08E
:104AC00000D08C9000D000D0D751D72BD890D537BC
:104AD000EAD78A82D6C101F000011200A0C1A2F17A
:104AE000A1C1A3F1020E0201156F010E176FA20EF4
:104AF000166F0001E2EC09F0120001019D51690AF4
:104B0000000119E0200A2EE02D0A43E0200A5AE0B5
:104B10006F0AD8B470D0160AD8B494D0100AD8B49A
:104B2000B8D0720AD8B4DED0610AD8B404D1020A6F
:104B3000D8B40DD116D101013D2B06E13E2B3E51DB
:104B4000030802E23D6B3E6B0B0ED46F3DC1D5F105
:104B500000018FDF0C0E0101D46F3EC1D5F10001C1
:104B600088DFFFD00101412B06E1422B42510308AF
:104B700002E2416B426B0F0ED46F41C1D5F10001CF
:104B800078DF100E0101D46F42C1D5F1000171DF51
:104B9000E8D001013D073D3D07D03E073E510308E7
:104BA00003E23D69030E3E6F0B0ED46F3DC1D5F19C
:104BB00000015FDF0C0E0101D46F3EC1D5F1000191
:104BC00058DFCFD001014107413D07D04207425194
:104BD000030803E24169030E426F0F0ED46F41C117
:104BE000D5F1000146DF100E0101D46F42C1D5F1AD
:104BF00000013FDFB6D001013FC19EF14051030BE0
:104C00009F6F9E2BD8B49F2B9F51030802E29F6B8E
:104C10009E6B4051C00BA06F000E9E13A0519F13BE
:104C20009EC13FF19FC140F10B0ED46F3FC1D5F142
:104C300000011FDF0C0E0101D46F40C1D5F100014E
:104C400018DF8FD0010143C19EF14451030B9F6FC8
:104C50009E2BD8B49F2B9F51030802E29F6B9E6B43
:104C60004451C00BA06F000E9E13A0519F139EC114
:104C700043F19FC144F10B0ED46F43C1D5F1000144
:104C8000F8DE0C0E0101D46F44C1D5F10001F1DE54
:104C900068D001013FC19EF14051030B9F6F9E51AF
:104CA000D8B49F079E079F51030803E2030E9F6F2E
:104CB0009E694051C00BA06F000E9E13A0519F1320
:104CC0009EC13FF19FC140F10B0ED46F3FC1D5F1A2
:104CD0000001CFDE0C0E0101D46F40C1D5F10001FF
:104CE000C8DE3FD0010143C19EF14451030B9F6FC9
:104CF0009E51D8B49F079E079F51030803E2030EFD
:104D00009F6F9E694451C00BA06F000E9E13A0516F
:104D10009F139EC143F19FC144F10B0ED46F43C159
:104D2000D5F10001A6DE0C0E0101D46F44C1D5F10E
:104D300000019FDE16D0B73D01D001D0B72B010E88
:104D40000101A06FB7C0A1F10001C8DE0AD0B753BE
:104D500001E0B707010E0101A06FB7C0A1F100018A
:104D6000BDDE18EF2DF00D0E0101D46F0A0ED56FC8
:104D7000D66B010E02013E6FD40E3D6F000126EC92
:104D80000FF0010EEA6ED40EE96E3D0E016EF76A69
:104D9000000E83EC00F00A000900F5CFEEFF012EB3
:104DA000FBD7010E02013E6FD40E3D6F000126ECD1
:104DB0000FF0010EEA6ED40EE96E2E0E016EF76A48
:104DC000000EAAEC00F00A000900F5CFEEFF012E5C
:104DD000FBD7010E02013E6FD40E3D6F000126ECA1
:104DE0000FF0010EEA6ED40EE96E420E016EF76A04
:104DF000000EC9EC00F00A000900F5CFEEFF012E0D
:104E0000FBD7010E02013E6FD40E3D6F000126EC70
:104E10000FF0010EEA6ED40EE96E230E016EF76AF2
:104E2000000EF2EC00F00A000900F5CFEEFF012EB3
:104E3000FBD7010E02013E6FD40E3D6F000126EC40
:104E40000FF0010EEA6ED40EE96E2D0E016EF76AB8
:104E5000000E0CEC01F00A000900F5CFEEFF012E68
:104E6000FBD7010E02013E6FD40E3D6F000126EC10
:104E70000FF0010EEA6ED40EE96E2E0E016EF76A87
:104E8000000E2BEC01F00A000900F5CFEEFF012E19
:104E9000FBD7010E02013E6FD40E3D6F000126ECE0
:104EA0000FF0010EEA6ED40EE96E360E016EF76A4F
:104EB000000E4AEC01F00A000900F5CFEEFF012ECA
:104EC000FBD7010E02013E6FD40E3D6F000126ECB0
:104ED0000FF0010EEA6ED40EE96E160E016EF76A3F
:104EE000000E6DEC01F00A000900F5CFEEFF012E77
:104EF000FBD7010E02013E6FD40E3D6F000126EC80
:104F00000FF0010EEA6ED40EE96E3C0E016EF76AE8
:104F1000000E80EC01F00A000900F5CFEEFF012E33
:104F2000FBD7010E02013E6FD40E3D6F000126EC4F
:104F30000FF0010EEA6ED40EE96E3D0E016EF76AB7
:104F4000000EA6EC01F00A000900F5CFEEFF012EDD
:104F5000FBD7010E02013E6FD40E3D6F000126EC1F
:104F60000FF00D0E0101D46F0A0ED56FD66B010E36
:104F700002013E6FD40E3D6F000126EC0FF0D1EF21
:104F800029F00101D5BF12D00F0E006ED4390016E2
:104F90000A0E005C03E2300E002602D0D551002636
:104FA00000C00DF20001EFEC11F001010F0ED4175B
:104FB0000A0ED45D02E2300E02D0D59FD551D4271F
:104FC000D4C10DF20001EFEC11F01200B1EC0FF0C2
:104FD00092EC0FF001500210D8B46BD00101D76BE6
:104FE000D66BD56BD46B000192EC0FF002C0DAF1F6
:104FF00001C0D9F10101DA5303E1D9512F0805E2CB
:10500000DA5303E1D951390814E2DA5303E1D951F3
:10501000400805E2DA5303E1D95146080AE2DA53BF
:1050200003E1D951600844E2DA5342E1D9516608FC
:105030003FE30001A1EC0FF001C0D8F10101D8510C
:10504000600806E2D8517A0803E3D851DF0B01D09B
:10505000D851D86FD851390803E3300ED85F02D049
:10506000370ED85FD435D96FD535DA6FD635DB6FCB
:10507000D735DC6FD937DA37DB37DC37D937DA3772
:10508000DB37DC37D937DA37DB37DC37F00ED917C7
:10509000016A026A036AD851D925D46F0150DA2116
:1050A000D56F0250DB21D66F0350DC21D76F9BD721
:1050B0000001D4C100F0D5C101F0D6C102F0D7C1C2
:1050C00003F01200B1EC0FF0036A01010F51530F0E
:1050D000E96E000E0320EA6EEF5243E0D76BD66B09
:1050E000D56BD46B036A0F51530FE96E000E03208A
:1050F000EA6EEFCFD8F1D8512F0833E2D8513908F2
:1051000030E3D7C11CF2D6C11BF2D5C11AF2D4C10B
:1051100019F20201206B1F6B1E6B0A0E1D6F00013E
:105120008DEC07F003C0DBF102C0DAF101C0D9F168
:1051300000C0D8F101010F510F2B036A530FE96E24
:10514000000E0320EA6E300EEF5C0024D46F000ED8
:105150000120D56F000E0220D66F000EDB21D76F25
:10516000C1D7D4C100F0D5C101F0D6C102F0D7C17A
:1051700003F0000141EF2BF00101E66BE56BD7C1B5
:10518000E4F1D6C1E3F1E6C11CF2E5C11BF2D7C1DF
:105190001AF2D6C119F20201206B1F6B270E1E6F87
:1051A000100E1D6F00018DEC07F003C0E6F102C088
:1051B000E5F101C0E4F100C0E3F103C01CF202C05C
:1051C0001BF201C01AF200C019F2CAEC0BF003C0C6
:1051D000E2F102C0E1F101C0E0F100C0DFF1020E36
:1051E0000101D86FDFC1D9F1E0C1DAF1E1C1DBF132
:1051F000E2C1DCF1050E0201156F010E176FD80E2A
:10520000166F0001E2EC09F052EF2BF08A940101D5
:10521000D86BD85107081BE3D4AF02D08C8801D0DB
:105220008C98060E006E002EFED700008C80060EB5
:10523000006E002EFED700008C90060E006E002E31
:10524000FED70000D851D82BD890D437E2D7D76BEF
:10525000D86BD851070822E3D890D737060E006ED6
:10526000002EFED700008C80030E006E002EFED7AD
:1052700000D083A206D0D781020E006E002EFED78A
:105280000000020E006E002EFED700008C90030E70
:10529000006E002EFED700D0D82BDBD7D5C1E9FF9A
:1052A000D6C1EAFFD7C1EFFF8A848C90D7C101F045
:1052B000000175EF2BF08A920101D48FD66BD65185
:1052C000070813E3D451800B02E18C9801D08C883D
:1052D00000D000D08C8000D000D08C9000D000D0C6
:1052E000D651D62BD890D437EAD7D66BD6510708EB
:1052F0000DE38C8000D000D08C9000D000D0D890EE
:10530000D53783A201D0D581D62BF0D78A82D5C1DB
:1053100001F00001ACEF2BF0020E01019D6F0F6B4D
:105320000001A1EC0FF002C0D5F101C0D4F10101E0
:10533000D55303E1D451600808E2D55306E1D451B6
:105340007A0803E3D451DF0B01D0D451480A00019D
:1053500027E0090A29E0020AD8B48ED0070AD8B497
:10536000F9D00B0AD8B434D11D0AD8B450D1100AE0
:10537000D8B46ED1050AD8B497D1010AD8B422D2D4
:10538000150AD8B466D2070AD8B4B4D2650AD8B41C
:1053900014D3030AD8B418D3010AD8B41AD320D32B
:1053A000E2D4000E016E21D3A1EC0FF002C0D5F1C2
:1053B00001C0D4F10101D55303E1D451600808E2E2
:1053C000D55306E1D4517A0803E3D451DF0B01D061
:1053D000D451540A000103E01D0A06E04CD0FFEC52
:1053E0000FF001C09EF147D0FFEC0FF001C09EF11D
:1053F00001019E533FE09E5103083CE3010E9E5D78
:10540000D46FD435006E0036FC0E0016C250830BEC
:105410000010C26E270E006E002EFED700D0C28292
:10542000C2B2FED7C3CFD2F1C4CFD3F1010E726F97
:10543000A20E716F560EF66E090EF76E040E020183
:10544000046F000100EC12F0100EE96ED3C105F2FA
:10545000D2C104F214EC12F00D0E02010D6F000126
:10546000EFEC11F0010E02013E6FA20E3D6F000144
:1054700026EC0FF00001B7D2A1EC0FF002C0D5F17D
:1054800001C0D4F10101D55303E1D451600808E211
:10549000D55306E1D4517A0803E3D451DF0B01D090
:1054A000D451460802E0000E01D0010E9D6F9D53BD
:1054B00019E0000172EC12F00101CD6BCC6B02C05F
:1054C000CBF101C0CAF1CBC1D5F1CAC1D4F1CBC176
:1054D00007F2CAC106F2000105EC08F06DEC09F014
:1054E00036D001019D51500833E10001FFEC0FF06F
:1054F00001C09EF101019E5101082AE39E51010B5A
:105500000001AA6F010E0101726FA20E716F600E91
:10551000F66E090EF76E040E0201046F000100EC36
:1055200012F09EC104F21B0E0201056F0001BEECD9
:1055300012F00D0E02010D6F0001EFEC11F0010EE3
:1055400002013E6FA20E3D6F000126EC0FF001013B
:10555000000149D2A1EC0FF002C0D5F101C0D4F195
:105560000101D55303E1D451600808E2D55306E1A7
:10557000D4517A0803E3D451DF0B01D0D451490848
:1055800025E182CF9EF1010E726FA20E716F680E3F
:10559000F66E090EF76E040E0201046F000100ECB6
:1055A00012F09EC1D4F1370E0101D56F0001E9DC84
:1055B0000D0E02010D6F0001EFEC11F0010E020162
:1055C0003E6FA20E3D6F000126EC0FF000010BD2E2
:1055D000A1EC0FF002C0D5F101C0D4F10101D55307
:1055E00003E1D451600808E2D55306E1D4517A08AA
:1055F00003E3D451DF0B01D0D451540806E100017C
:10560000E5DC01C0D3F100C0D2F10001ECD1A1EC86
:105610000FF002C0D5F101C0D4F10101D55303E16F
:10562000D451600808E2D55306E1D4517A0803E367
:10563000D451DF0B01D0D451440808E18A86640EAE
:105640000201156F000109EC06F08A960001CBD12A
:10565000A1EC0FF002C0D5F101C0D4F10101D55386
:1056600003E1D451600808E2D55306E1D4517A0829
:1056700003E3D451DF0B01D0D451520813E10001F0
:1056800021D503C0D1F102C0D0F101C0CFF100C0DB
:10569000CEF1CFC1D5F1CEC1D4F1CFC1D7F1CEC1BA
:1056A000D6F16AD500019FD1A1EC0FF001C09FF1A6
:1056B0008DDC00C0A0F101019F51600806E29F51FE
:1056C0007A0803E39F51DF0B01D09F51460A000186
:1056D00003E0020A3EE075D0A0C1D4F1010E010141
:1056E000D66FA10ED56F000191D501C09DF1010EBD
:1056F0000101726FA20E716F720EF66E090EF76ED7
:10570000070E0201046F000100EC12F0A0C1D4F1F9
:10571000370E0101D56F000134DC200E02010D6F40
:105720000001EFEC11F09DC1D4F1370E0101D56FEE
:10573000000127DC0D0E02010D6F0001EFEC11F0EE
:10574000010E02013E6FA20E3D6F000126EC0FF02C
:1057500038D0A0C1D4F1AFD501C0A1F1010E010133
:10576000726FA20E716F840EF66E090EF76E070E41
:105770000201046F000100EC12F0A0C1D4F1370E59
:105780000101D56F0001C1EC27F0200E02010D6F61
:105790000001EFEC11F0A1C1D4F1370E0101D56F7A
:1057A0000001C1EC27F00D0E02010D6F0001EFECBE
:1057B00011F0010E02013E6FA20E3D6F000126ECBA
:1057C0000FF011D1B1EC0FF0A1EC0FF001C09EF180
:1057D000FFEC0FF001C0A0F1FFEC0FF002C0D3F11D
:1057E00001C0D2F101019E51600806E29E517A0883
:1057F00003E39E51DF0B01D09E514E0A000103E0EE
:105800001E0A14E025D00101A05102080DE3D89032
:10581000A035036AB80FE96E000E0320EA6ED3C10B
:10582000ECFFED52D2C1EFFF000112D00101A051F7
:1058300014080DE3D890A035036ABE0FE96E000E80
:105840000320EA6ED3C1ECFFED52D2C1EFFF00019D
:10585000CAD0A1EC0FF001C09FF1E6EC27F000C028
:10586000A0F1E6EC27F000C0A1F101019F51600812
:1058700006E29F517A0803E39F51DF0B01D09F514D
:10588000460A000105E0020A1CE0120A2CE031D0B1
:10589000A0C1A2F1A1C1A3F1036A0101A051120F9D
:1058A000E96E010E0320EA6EA1C1EFFF020E0201B4
:1058B000156F010E176FA20E166F0001E2EC09F0D2
:1058C00018D0036A0101A051320FE96E010E0320C6
:1058D000EA6EA1C1EFFFA0C1D4F1A1C1D5F10001D1
:1058E00039EC25F006D00B0EF66F9F0EF56F36ECF7
:1058F00013F079D0A1EC0FF002C0D5F101C0D4F1C2
:105900000101D55303E1D451600808E2D55306E103
:10591000D4517A0803E3D451DF0B01D0D451540899
:105920004AE10001A1EC0FF002C0D5F101C0D4F1B1
:105930000101D55303E1D451600808E2D55306E1D3
:10594000D4517A0803E3D451DF0B01D0D45143087A
:1059500032E10001A1EC0FF002C0D5F101C0D4F199
:105960000101D55303E1D451600808E2D55306E1A3
:10597000D4517A0803E3D451DF0B01D0D45143084A
:105980001AE10001A1EC0FF002C0D5F101C0D4F181
:105990000101D55303E1D451600808E2D55306E173
:1059A000D4517A0803E3D451DF0B01D0D45150080D
:1059B00002E1010E106F000116D0FFEC0FF002C0E3
:1059C000E9F001C0E8F00FD0FFEC0FF001C0EAF001
:1059D0000AD0FFEC0FF002C0ECF001C0EBF003D0F6
:1059E000000E016E02D0000E016E3CEF2DF0515002
:1059F000FC0FD8B0A0D0040F9DEF2DF0526A512AB1
:105A00009AD02E5215E07CEC0FF00101876B01C09B
:105A100086F18651240807E1875305E1512A0001E8
:105A2000A46BA36B05D086C19DF100017DEF25F02D
:105A300082D02E52D8B469D0A46BA36B7CEC0FF04B
:105A40000101876B01C086F15250522A036A530F3D
:105A5000E96E000E0320EA6E86C1EFFF5250460841
:105A600004E2516A000167D0010186510D082EE160
:105A700087532CE1000150D40101896B01C088F1EA
:105A8000882D02D0895300E1883D02D0895319E066
:105A9000010EEA6E8A0EE96E080E016EF76A000EBC
:105AA000000159EC04F00A000900F5CFEEFF012EC9
:105AB000FBD7010E02013E6F8A0E3D6F000126ECFE
:105AC0000FF00001CCEC05F020D0010186511B083D
:105AD0001DE187531BE1010EEA6E920EE96E0B0E7B
